{
	"2. Solidity/Projet1/Voting.sol": {
		"Voting": {
			"abi": [
				{
					"inputs": [],
					"stateMutability": "nonpayable",
					"type": "constructor"
				},
				{
					"inputs": [
						{
							"internalType": "address",
							"name": "add",
							"type": "address"
						}
					],
					"name": "AddressNotWhitelisted",
					"type": "error"
				},
				{
					"inputs": [
						{
							"internalType": "address",
							"name": "owner",
							"type": "address"
						}
					],
					"name": "OwnableInvalidOwner",
					"type": "error"
				},
				{
					"inputs": [
						{
							"internalType": "address",
							"name": "account",
							"type": "address"
						}
					],
					"name": "OwnableUnauthorizedAccount",
					"type": "error"
				},
				{
					"inputs": [
						{
							"internalType": "enum Voting.WorkflowStatus",
							"name": "expected",
							"type": "uint8"
						},
						{
							"internalType": "enum Voting.WorkflowStatus",
							"name": "current",
							"type": "uint8"
						}
					],
					"name": "WrongVotingPhase",
					"type": "error"
				},
				{
					"anonymous": false,
					"inputs": [
						{
							"indexed": true,
							"internalType": "address",
							"name": "previousOwner",
							"type": "address"
						},
						{
							"indexed": true,
							"internalType": "address",
							"name": "newOwner",
							"type": "address"
						}
					],
					"name": "OwnershipTransferred",
					"type": "event"
				},
				{
					"anonymous": false,
					"inputs": [
						{
							"indexed": false,
							"internalType": "uint256",
							"name": "proposalId",
							"type": "uint256"
						}
					],
					"name": "ProposalRegistered",
					"type": "event"
				},
				{
					"anonymous": false,
					"inputs": [
						{
							"indexed": false,
							"internalType": "address",
							"name": "voter",
							"type": "address"
						},
						{
							"indexed": false,
							"internalType": "uint256",
							"name": "proposalId",
							"type": "uint256"
						}
					],
					"name": "Voted",
					"type": "event"
				},
				{
					"anonymous": false,
					"inputs": [
						{
							"indexed": false,
							"internalType": "address",
							"name": "voterAddress",
							"type": "address"
						}
					],
					"name": "VoterRegistered",
					"type": "event"
				},
				{
					"anonymous": false,
					"inputs": [
						{
							"indexed": false,
							"internalType": "enum Voting.WorkflowStatus",
							"name": "previousStatus",
							"type": "uint8"
						},
						{
							"indexed": false,
							"internalType": "enum Voting.WorkflowStatus",
							"name": "newStatus",
							"type": "uint8"
						}
					],
					"name": "WorkflowStatusChange",
					"type": "event"
				},
				{
					"inputs": [
						{
							"internalType": "address[]",
							"name": "_addressArray",
							"type": "address[]"
						}
					],
					"name": "addToWhitelist",
					"outputs": [],
					"stateMutability": "nonpayable",
					"type": "function"
				},
				{
					"inputs": [],
					"name": "endProposalRegistration",
					"outputs": [],
					"stateMutability": "nonpayable",
					"type": "function"
				},
				{
					"inputs": [],
					"name": "endVotingSession",
					"outputs": [],
					"stateMutability": "nonpayable",
					"type": "function"
				},
				{
					"inputs": [
						{
							"internalType": "address",
							"name": "_address",
							"type": "address"
						}
					],
					"name": "getVoterChoice",
					"outputs": [
						{
							"internalType": "uint256",
							"name": "",
							"type": "uint256"
						}
					],
					"stateMutability": "view",
					"type": "function"
				},
				{
					"inputs": [],
					"name": "owner",
					"outputs": [
						{
							"internalType": "address",
							"name": "",
							"type": "address"
						}
					],
					"stateMutability": "view",
					"type": "function"
				},
				{
					"inputs": [
						{
							"internalType": "uint256",
							"name": "",
							"type": "uint256"
						}
					],
					"name": "proposals",
					"outputs": [
						{
							"internalType": "string",
							"name": "description",
							"type": "string"
						},
						{
							"internalType": "uint256",
							"name": "voteCount",
							"type": "uint256"
						}
					],
					"stateMutability": "view",
					"type": "function"
				},
				{
					"inputs": [
						{
							"internalType": "string",
							"name": "_proposal",
							"type": "string"
						}
					],
					"name": "registerProposal",
					"outputs": [],
					"stateMutability": "nonpayable",
					"type": "function"
				},
				{
					"inputs": [],
					"name": "renounceOwnership",
					"outputs": [],
					"stateMutability": "nonpayable",
					"type": "function"
				},
				{
					"inputs": [],
					"name": "startProposalRegistration",
					"outputs": [],
					"stateMutability": "nonpayable",
					"type": "function"
				},
				{
					"inputs": [],
					"name": "startVotingSession",
					"outputs": [],
					"stateMutability": "nonpayable",
					"type": "function"
				},
				{
					"inputs": [],
					"name": "tallyVotes",
					"outputs": [],
					"stateMutability": "nonpayable",
					"type": "function"
				},
				{
					"inputs": [
						{
							"internalType": "address",
							"name": "newOwner",
							"type": "address"
						}
					],
					"name": "transferOwnership",
					"outputs": [],
					"stateMutability": "nonpayable",
					"type": "function"
				},
				{
					"inputs": [
						{
							"internalType": "uint256",
							"name": "_proposalId",
							"type": "uint256"
						}
					],
					"name": "vote",
					"outputs": [],
					"stateMutability": "nonpayable",
					"type": "function"
				},
				{
					"inputs": [],
					"name": "votingStatus",
					"outputs": [
						{
							"internalType": "enum Voting.WorkflowStatus",
							"name": "",
							"type": "uint8"
						}
					],
					"stateMutability": "view",
					"type": "function"
				},
				{
					"inputs": [],
					"name": "winningProposalId",
					"outputs": [
						{
							"internalType": "uint256",
							"name": "",
							"type": "uint256"
						}
					],
					"stateMutability": "view",
					"type": "function"
				}
			],
			"devdoc": {
				"errors": {
					"OwnableInvalidOwner(address)": [
						{
							"details": "The owner is not a valid owner account. (eg. `address(0)`)"
						}
					],
					"OwnableUnauthorizedAccount(address)": [
						{
							"details": "The caller account is not authorized to perform an operation."
						}
					]
				},
				"kind": "dev",
				"methods": {
					"owner()": {
						"details": "Returns the address of the current owner."
					},
					"renounceOwnership()": {
						"details": "Leaves the contract without owner. It will not be possible to call `onlyOwner` functions. Can only be called by the current owner. NOTE: Renouncing ownership will leave the contract without an owner, thereby disabling any functionality that is only available to the owner."
					},
					"transferOwnership(address)": {
						"details": "Transfers ownership of the contract to a new account (`newOwner`). Can only be called by the current owner."
					}
				},
				"version": 1
			},
			"evm": {
				"assembly": "    /* \"2. Solidity/Projet1/Voting.sol\":169:5457  contract Voting is Ownable{... */\n  mstore(0x40, 0x80)\n    /* \"2. Solidity/Projet1/Voting.sol\":2209:2252  constructor() Ownable(msg.sender){... */\n  callvalue\n  dup1\n  iszero\n  tag_1\n  jumpi\n  revert(0x00, 0x00)\ntag_1:\n  pop\n    /* \"2. Solidity/Projet1/Voting.sol\":2231:2241  msg.sender */\n  caller\n    /* \"https://github.com/OpenZeppelin/openzeppelin-contracts/blob/master/contracts/access/Ownable.sol\":1297:1298  0 */\n  0x00\n    /* \"https://github.com/OpenZeppelin/openzeppelin-contracts/blob/master/contracts/access/Ownable.sol\":1273:1299  initialOwner == address(0) */\n  0xffffffffffffffffffffffffffffffffffffffff\n  and\n    /* \"https://github.com/OpenZeppelin/openzeppelin-contracts/blob/master/contracts/access/Ownable.sol\":1273:1285  initialOwner */\n  dup2\n    /* \"https://github.com/OpenZeppelin/openzeppelin-contracts/blob/master/contracts/access/Ownable.sol\":1273:1299  initialOwner == address(0) */\n  0xffffffffffffffffffffffffffffffffffffffff\n  and\n  sub\n    /* \"https://github.com/OpenZeppelin/openzeppelin-contracts/blob/master/contracts/access/Ownable.sol\":1269:1364  if (initialOwner == address(0)) {... */\n  tag_5\n  jumpi\n    /* \"https://github.com/OpenZeppelin/openzeppelin-contracts/blob/master/contracts/access/Ownable.sol\":1350:1351  0 */\n  0x00\n    /* \"https://github.com/OpenZeppelin/openzeppelin-contracts/blob/master/contracts/access/Ownable.sol\":1322:1353  OwnableInvalidOwner(address(0)) */\n  mload(0x40)\n  0x1e4fbdf700000000000000000000000000000000000000000000000000000000\n  dup2\n  mstore\n  0x04\n  add\n  tag_6\n  swap2\n  swap1\n  tag_7\n  jump\t// in\ntag_6:\n  mload(0x40)\n  dup1\n  swap2\n  sub\n  swap1\n  revert\n    /* \"https://github.com/OpenZeppelin/openzeppelin-contracts/blob/master/contracts/access/Ownable.sol\":1269:1364  if (initialOwner == address(0)) {... */\ntag_5:\n    /* \"https://github.com/OpenZeppelin/openzeppelin-contracts/blob/master/contracts/access/Ownable.sol\":1373:1405  _transferOwnership(initialOwner) */\n  tag_8\n    /* \"https://github.com/OpenZeppelin/openzeppelin-contracts/blob/master/contracts/access/Ownable.sol\":1392:1404  initialOwner */\n  dup2\n    /* \"https://github.com/OpenZeppelin/openzeppelin-contracts/blob/master/contracts/access/Ownable.sol\":1373:1391  _transferOwnership */\n  shl(0x20, tag_9)\n    /* \"https://github.com/OpenZeppelin/openzeppelin-contracts/blob/master/contracts/access/Ownable.sol\":1373:1405  _transferOwnership(initialOwner) */\n  0x20\n  shr\n  jump\t// in\ntag_8:\n    /* \"https://github.com/OpenZeppelin/openzeppelin-contracts/blob/master/contracts/access/Ownable.sol\":1225:1412  constructor(address initialOwner) {... */\n  pop\n    /* \"2. Solidity/Projet1/Voting.sol\":169:5457  contract Voting is Ownable{... */\n  jump(tag_11)\n    /* \"https://github.com/OpenZeppelin/openzeppelin-contracts/blob/master/contracts/access/Ownable.sol\":2912:3099  function _transferOwnership(address newOwner) internal virtual {... */\ntag_9:\n    /* \"https://github.com/OpenZeppelin/openzeppelin-contracts/blob/master/contracts/access/Ownable.sol\":2985:3001  address oldOwner */\n  0x00\n    /* \"https://github.com/OpenZeppelin/openzeppelin-contracts/blob/master/contracts/access/Ownable.sol\":3004:3010  _owner */\n  0x00\n  0x00\n  swap1\n  sload\n  swap1\n  0x0100\n  exp\n  swap1\n  div\n  0xffffffffffffffffffffffffffffffffffffffff\n  and\n    /* \"https://github.com/OpenZeppelin/openzeppelin-contracts/blob/master/contracts/access/Ownable.sol\":2985:3010  address oldOwner = _owner */\n  swap1\n  pop\n    /* \"https://github.com/OpenZeppelin/openzeppelin-contracts/blob/master/contracts/access/Ownable.sol\":3029:3037  newOwner */\n  dup2\n    /* \"https://github.com/OpenZeppelin/openzeppelin-contracts/blob/master/contracts/access/Ownable.sol\":3020:3026  _owner */\n  0x00\n  0x00\n    /* \"https://github.com/OpenZeppelin/openzeppelin-contracts/blob/master/contracts/access/Ownable.sol\":3020:3037  _owner = newOwner */\n  0x0100\n  exp\n  dup2\n  sload\n  dup2\n  0xffffffffffffffffffffffffffffffffffffffff\n  mul\n  not\n  and\n  swap1\n  dup4\n  0xffffffffffffffffffffffffffffffffffffffff\n  and\n  mul\n  or\n  swap1\n  sstore\n  pop\n    /* \"https://github.com/OpenZeppelin/openzeppelin-contracts/blob/master/contracts/access/Ownable.sol\":3083:3091  newOwner */\n  dup2\n    /* \"https://github.com/OpenZeppelin/openzeppelin-contracts/blob/master/contracts/access/Ownable.sol\":3052:3092  OwnershipTransferred(oldOwner, newOwner) */\n  0xffffffffffffffffffffffffffffffffffffffff\n  and\n    /* \"https://github.com/OpenZeppelin/openzeppelin-contracts/blob/master/contracts/access/Ownable.sol\":3073:3081  oldOwner */\n  dup2\n    /* \"https://github.com/OpenZeppelin/openzeppelin-contracts/blob/master/contracts/access/Ownable.sol\":3052:3092  OwnershipTransferred(oldOwner, newOwner) */\n  0xffffffffffffffffffffffffffffffffffffffff\n  and\n  0x8be0079c531659141344cd1fd0a4f28419497f9722a3daafe3b4186f6b6457e0\n  mload(0x40)\n  mload(0x40)\n  dup1\n  swap2\n  sub\n  swap1\n  log3\n    /* \"https://github.com/OpenZeppelin/openzeppelin-contracts/blob/master/contracts/access/Ownable.sol\":2975:3099  {... */\n  pop\n    /* \"https://github.com/OpenZeppelin/openzeppelin-contracts/blob/master/contracts/access/Ownable.sol\":2912:3099  function _transferOwnership(address newOwner) internal virtual {... */\n  pop\n  jump\t// out\n    /* \"#utility.yul\":7:133   */\ntag_13:\n    /* \"#utility.yul\":44:51   */\n  0x00\n    /* \"#utility.yul\":84:126   */\n  0xffffffffffffffffffffffffffffffffffffffff\n    /* \"#utility.yul\":77:82   */\n  dup3\n    /* \"#utility.yul\":73:127   */\n  and\n    /* \"#utility.yul\":62:127   */\n  swap1\n  pop\n    /* \"#utility.yul\":7:133   */\n  swap2\n  swap1\n  pop\n  jump\t// out\n    /* \"#utility.yul\":139:235   */\ntag_14:\n    /* \"#utility.yul\":176:183   */\n  0x00\n    /* \"#utility.yul\":205:229   */\n  tag_19\n    /* \"#utility.yul\":223:228   */\n  dup3\n    /* \"#utility.yul\":205:229   */\n  tag_13\n  jump\t// in\ntag_19:\n    /* \"#utility.yul\":194:229   */\n  swap1\n  pop\n    /* \"#utility.yul\":139:235   */\n  swap2\n  swap1\n  pop\n  jump\t// out\n    /* \"#utility.yul\":241:359   */\ntag_15:\n    /* \"#utility.yul\":328:352   */\n  tag_21\n    /* \"#utility.yul\":346:351   */\n  dup2\n    /* \"#utility.yul\":328:352   */\n  tag_14\n  jump\t// in\ntag_21:\n    /* \"#utility.yul\":323:326   */\n  dup3\n    /* \"#utility.yul\":316:353   */\n  mstore\n    /* \"#utility.yul\":241:359   */\n  pop\n  pop\n  jump\t// out\n    /* \"#utility.yul\":365:587   */\ntag_7:\n    /* \"#utility.yul\":458:462   */\n  0x00\n    /* \"#utility.yul\":496:498   */\n  0x20\n    /* \"#utility.yul\":485:494   */\n  dup3\n    /* \"#utility.yul\":481:499   */\n  add\n    /* \"#utility.yul\":473:499   */\n  swap1\n  pop\n    /* \"#utility.yul\":509:580   */\n  tag_23\n    /* \"#utility.yul\":577:578   */\n  0x00\n    /* \"#utility.yul\":566:575   */\n  dup4\n    /* \"#utility.yul\":562:579   */\n  add\n    /* \"#utility.yul\":553:559   */\n  dup5\n    /* \"#utility.yul\":509:580   */\n  tag_15\n  jump\t// in\ntag_23:\n    /* \"#utility.yul\":365:587   */\n  swap3\n  swap2\n  pop\n  pop\n  jump\t// out\n    /* \"2. Solidity/Projet1/Voting.sol\":169:5457  contract Voting is Ownable{... */\ntag_11:\n  dataSize(sub_0)\n  dup1\n  dataOffset(sub_0)\n  0x00\n  codecopy\n  0x00\n  return\nstop\n\nsub_0: assembly {\n        /* \"2. Solidity/Projet1/Voting.sol\":169:5457  contract Voting is Ownable{... */\n      mstore(0x40, 0x80)\n      callvalue\n      dup1\n      iszero\n      tag_1\n      jumpi\n      revert(0x00, 0x00)\n    tag_1:\n      pop\n      jumpi(tag_2, lt(calldatasize, 0x04))\n      shr(0xe0, calldataload(0x00))\n      dup1\n      0x7f649783\n      gt\n      tag_18\n      jumpi\n      dup1\n      0xc64963c5\n      gt\n      tag_19\n      jumpi\n      dup1\n      0xc64963c5\n      eq\n      tag_14\n      jumpi\n      dup1\n      0xe85a8f2a\n      eq\n      tag_15\n      jumpi\n      dup1\n      0xee74c678\n      eq\n      tag_16\n      jumpi\n      dup1\n      0xf2fde38b\n      eq\n      tag_17\n      jumpi\n      jump(tag_2)\n    tag_19:\n      dup1\n      0x7f649783\n      eq\n      tag_10\n      jumpi\n      dup1\n      0x8847103b\n      eq\n      tag_11\n      jumpi\n      dup1\n      0x8da5cb5b\n      eq\n      tag_12\n      jumpi\n      dup1\n      0xa7bfab16\n      eq\n      tag_13\n      jumpi\n      jump(tag_2)\n    tag_18:\n      dup1\n      0x19f41a40\n      gt\n      tag_20\n      jumpi\n      dup1\n      0x19f41a40\n      eq\n      tag_6\n      jumpi\n      dup1\n      0x2f95355b\n      eq\n      tag_7\n      jumpi\n      dup1\n      0x378a2178\n      eq\n      tag_8\n      jumpi\n      dup1\n      0x715018a6\n      eq\n      tag_9\n      jumpi\n      jump(tag_2)\n    tag_20:\n      dup1\n      0x0121b93f\n      eq\n      tag_3\n      jumpi\n      dup1\n      0x013cf08b\n      eq\n      tag_4\n      jumpi\n      dup1\n      0x0f7e2838\n      eq\n      tag_5\n      jumpi\n    tag_2:\n      revert(0x00, 0x00)\n        /* \"2. Solidity/Projet1/Voting.sol\":3864:4339  function vote(uint _proposalId) external ... */\n    tag_3:\n      tag_21\n      0x04\n      dup1\n      calldatasize\n      sub\n      dup2\n      add\n      swap1\n      tag_22\n      swap2\n      swap1\n      tag_23\n      jump\t// in\n    tag_22:\n      tag_24\n      jump\t// in\n    tag_21:\n      stop\n        /* \"2. Solidity/Projet1/Voting.sol\":769:796  Proposal[] public proposals */\n    tag_4:\n      tag_25\n      0x04\n      dup1\n      calldatasize\n      sub\n      dup2\n      add\n      swap1\n      tag_26\n      swap2\n      swap1\n      tag_23\n      jump\t// in\n    tag_26:\n      tag_27\n      jump\t// in\n    tag_25:\n      mload(0x40)\n      tag_28\n      swap3\n      swap2\n      swap1\n      tag_29\n      jump\t// in\n    tag_28:\n      mload(0x40)\n      dup1\n      swap2\n      sub\n      swap1\n      return\n        /* \"2. Solidity/Projet1/Voting.sol\":2310:2479  function startProposalRegistration() external ... */\n    tag_5:\n      tag_30\n      tag_31\n      jump\t// in\n    tag_30:\n      stop\n        /* \"2. Solidity/Projet1/Voting.sol\":803:837  WorkflowStatus public votingStatus */\n    tag_6:\n      tag_32\n      tag_33\n      jump\t// in\n    tag_32:\n      mload(0x40)\n      tag_34\n      swap2\n      swap1\n      tag_35\n      jump\t// in\n    tag_34:\n      mload(0x40)\n      dup1\n      swap2\n      sub\n      swap1\n      return\n        /* \"2. Solidity/Projet1/Voting.sol\":3462:3794  function registerProposal(string calldata _proposal) external ... */\n    tag_7:\n      tag_36\n      0x04\n      dup1\n      calldatasize\n      sub\n      dup2\n      add\n      swap1\n      tag_37\n      swap2\n      swap1\n      tag_38\n      jump\t// in\n    tag_37:\n      tag_39\n      jump\t// in\n    tag_36:\n      stop\n        /* \"2. Solidity/Projet1/Voting.sol\":4405:5159  function tallyVotes() external ... */\n    tag_8:\n      tag_40\n      tag_41\n      jump\t// in\n    tag_40:\n      stop\n        /* \"https://github.com/OpenZeppelin/openzeppelin-contracts/blob/master/contracts/access/Ownable.sol\":2293:2394  function renounceOwnership() public virtual onlyOwner {... */\n    tag_9:\n      tag_42\n      tag_43\n      jump\t// in\n    tag_42:\n      stop\n        /* \"2. Solidity/Projet1/Voting.sol\":3066:3390  function addToWhitelist(address[] calldata _addressArray) external ... */\n    tag_10:\n      tag_44\n      0x04\n      dup1\n      calldatasize\n      sub\n      dup2\n      add\n      swap1\n      tag_45\n      swap2\n      swap1\n      tag_46\n      jump\t// in\n    tag_45:\n      tag_47\n      jump\t// in\n    tag_44:\n      stop\n        /* \"2. Solidity/Projet1/Voting.sol\":5233:5450  function getVoterChoice(address _address) external view onlyWhitelisted returns(uint){... */\n    tag_11:\n      tag_48\n      0x04\n      dup1\n      calldatasize\n      sub\n      dup2\n      add\n      swap1\n      tag_49\n      swap2\n      swap1\n      tag_50\n      jump\t// in\n    tag_49:\n      tag_51\n      jump\t// in\n    tag_48:\n      mload(0x40)\n      tag_52\n      swap2\n      swap1\n      tag_53\n      jump\t// in\n    tag_52:\n      mload(0x40)\n      dup1\n      swap2\n      sub\n      swap1\n      return\n        /* \"https://github.com/OpenZeppelin/openzeppelin-contracts/blob/master/contracts/access/Ownable.sol\":1638:1723  function owner() public view virtual returns (address) {... */\n    tag_12:\n      tag_54\n      tag_55\n      jump\t// in\n    tag_54:\n      mload(0x40)\n      tag_56\n      swap2\n      swap1\n      tag_57\n      jump\t// in\n    tag_56:\n      mload(0x40)\n      dup1\n      swap2\n      sub\n      swap1\n      return\n        /* \"2. Solidity/Projet1/Voting.sol\":2842:2995  function endVotingSession() external ... */\n    tag_13:\n      tag_58\n      tag_59\n      jump\t// in\n    tag_58:\n      stop\n        /* \"2. Solidity/Projet1/Voting.sol\":844:873  uint public winningProposalId */\n    tag_14:\n      tag_60\n      tag_61\n      jump\t// in\n    tag_60:\n      mload(0x40)\n      tag_62\n      swap2\n      swap1\n      tag_53\n      jump\t// in\n    tag_62:\n      mload(0x40)\n      dup1\n      swap2\n      sub\n      swap1\n      return\n        /* \"2. Solidity/Projet1/Voting.sol\":2487:2663  function endProposalRegistration() external ... */\n    tag_15:\n      tag_63\n      tag_64\n      jump\t// in\n    tag_63:\n      stop\n        /* \"2. Solidity/Projet1/Voting.sol\":2671:2834  function startVotingSession() external ... */\n    tag_16:\n      tag_65\n      tag_66\n      jump\t// in\n    tag_65:\n      stop\n        /* \"https://github.com/OpenZeppelin/openzeppelin-contracts/blob/master/contracts/access/Ownable.sol\":2543:2758  function transferOwnership(address newOwner) public virtual onlyOwner {... */\n    tag_17:\n      tag_67\n      0x04\n      dup1\n      calldatasize\n      sub\n      dup2\n      add\n      swap1\n      tag_68\n      swap2\n      swap1\n      tag_50\n      jump\t// in\n    tag_68:\n      tag_69\n      jump\t// in\n    tag_67:\n      stop\n        /* \"2. Solidity/Projet1/Voting.sol\":3864:4339  function vote(uint _proposalId) external ... */\n    tag_24:\n        /* \"2. Solidity/Projet1/Voting.sol\":1413:1419  voters */\n      0x01\n        /* \"2. Solidity/Projet1/Voting.sol\":1413:1431  voters[msg.sender] */\n      0x00\n        /* \"2. Solidity/Projet1/Voting.sol\":1420:1430  msg.sender */\n      caller\n        /* \"2. Solidity/Projet1/Voting.sol\":1413:1431  voters[msg.sender] */\n      0xffffffffffffffffffffffffffffffffffffffff\n      and\n      0xffffffffffffffffffffffffffffffffffffffff\n      and\n      dup2\n      mstore\n      0x20\n      add\n      swap1\n      dup2\n      mstore\n      0x20\n      add\n      0x00\n      keccak256\n        /* \"2. Solidity/Projet1/Voting.sol\":1413:1444  voters[msg.sender].isRegistered */\n      0x00\n      add\n      0x00\n      swap1\n      sload\n      swap1\n      0x0100\n      exp\n      swap1\n      div\n      0xff\n      and\n        /* \"2. Solidity/Projet1/Voting.sol\":1409:1512  if(!voters[msg.sender].isRegistered){... */\n      tag_71\n      jumpi\n        /* \"2. Solidity/Projet1/Voting.sol\":1489:1499  msg.sender */\n      caller\n        /* \"2. Solidity/Projet1/Voting.sol\":1467:1500  AddressNotWhitelisted(msg.sender) */\n      mload(0x40)\n      0xeadb950f00000000000000000000000000000000000000000000000000000000\n      dup2\n      mstore\n      0x04\n      add\n      tag_72\n      swap2\n      swap1\n      tag_57\n      jump\t// in\n    tag_72:\n      mload(0x40)\n      dup1\n      swap2\n      sub\n      swap1\n      revert\n        /* \"2. Solidity/Projet1/Voting.sol\":1409:1512  if(!voters[msg.sender].isRegistered){... */\n    tag_71:\n        /* \"2. Solidity/Projet1/Voting.sol\":3950:3985  WorkflowStatus.VotingSessionStarted */\n      0x03\n        /* \"2. Solidity/Projet1/Voting.sol\":1626:1639  expectedPhase */\n      dup1\n        /* \"2. Solidity/Projet1/Voting.sol\":1610:1639  votingStatus != expectedPhase */\n      0x05\n      dup2\n      gt\n      iszero\n      tag_74\n      jumpi\n      tag_75\n      tag_76\n      jump\t// in\n    tag_75:\n    tag_74:\n        /* \"2. Solidity/Projet1/Voting.sol\":1610:1622  votingStatus */\n      0x03\n      0x00\n      swap1\n      sload\n      swap1\n      0x0100\n      exp\n      swap1\n      div\n      0xff\n      and\n        /* \"2. Solidity/Projet1/Voting.sol\":1610:1639  votingStatus != expectedPhase */\n      0x05\n      dup2\n      gt\n      iszero\n      tag_77\n      jumpi\n      tag_78\n      tag_76\n      jump\t// in\n    tag_78:\n    tag_77:\n      eq\n        /* \"2. Solidity/Projet1/Voting.sol\":1606:1720  if (votingStatus != expectedPhase) {... */\n      tag_79\n      jumpi\n        /* \"2. Solidity/Projet1/Voting.sol\":1680:1693  expectedPhase */\n      dup1\n        /* \"2. Solidity/Projet1/Voting.sol\":1695:1707  votingStatus */\n      0x03\n      0x00\n      swap1\n      sload\n      swap1\n      0x0100\n      exp\n      swap1\n      div\n      0xff\n      and\n        /* \"2. Solidity/Projet1/Voting.sol\":1663:1708  WrongVotingPhase(expectedPhase, votingStatus) */\n      mload(0x40)\n      0x2e73d6d900000000000000000000000000000000000000000000000000000000\n      dup2\n      mstore\n      0x04\n      add\n      tag_80\n      swap3\n      swap2\n      swap1\n      tag_81\n      jump\t// in\n    tag_80:\n      mload(0x40)\n      dup1\n      swap2\n      sub\n      swap1\n      revert\n        /* \"2. Solidity/Projet1/Voting.sol\":1606:1720  if (votingStatus != expectedPhase) {... */\n    tag_79:\n        /* \"2. Solidity/Projet1/Voting.sol\":4006:4012  voters */\n      0x01\n        /* \"2. Solidity/Projet1/Voting.sol\":4006:4024  voters[msg.sender] */\n      0x00\n        /* \"2. Solidity/Projet1/Voting.sol\":4013:4023  msg.sender */\n      caller\n        /* \"2. Solidity/Projet1/Voting.sol\":4006:4024  voters[msg.sender] */\n      0xffffffffffffffffffffffffffffffffffffffff\n      and\n      0xffffffffffffffffffffffffffffffffffffffff\n      and\n      dup2\n      mstore\n      0x20\n      add\n      swap1\n      dup2\n      mstore\n      0x20\n      add\n      0x00\n      keccak256\n        /* \"2. Solidity/Projet1/Voting.sol\":4006:4033  voters[msg.sender].hasVoted */\n      0x00\n      add\n      0x01\n      swap1\n      sload\n      swap1\n      0x0100\n      exp\n      swap1\n      div\n      0xff\n      and\n        /* \"2. Solidity/Projet1/Voting.sol\":4005:4033  !voters[msg.sender].hasVoted */\n      iszero\n        /* \"2. Solidity/Projet1/Voting.sol\":3997:4060  require(!voters[msg.sender].hasVoted, \"You have already voted\") */\n      tag_83\n      jumpi\n      mload(0x40)\n      0x08c379a000000000000000000000000000000000000000000000000000000000\n      dup2\n      mstore\n      0x04\n      add\n      tag_84\n      swap1\n      tag_85\n      jump\t// in\n    tag_84:\n      mload(0x40)\n      dup1\n      swap2\n      sub\n      swap1\n      revert\n    tag_83:\n        /* \"2. Solidity/Projet1/Voting.sol\":4093:4102  proposals */\n      0x02\n        /* \"2. Solidity/Projet1/Voting.sol\":4093:4109  proposals.length */\n      dup1\n      sload\n      swap1\n      pop\n        /* \"2. Solidity/Projet1/Voting.sol\":4079:4090  _proposalId */\n      dup3\n        /* \"2. Solidity/Projet1/Voting.sol\":4079:4109  _proposalId < proposals.length */\n      lt\n        /* \"2. Solidity/Projet1/Voting.sol\":4071:4133  require(_proposalId < proposals.length, \"Invalid proposal ID\") */\n      tag_86\n      jumpi\n      mload(0x40)\n      0x08c379a000000000000000000000000000000000000000000000000000000000\n      dup2\n      mstore\n      0x04\n      add\n      tag_87\n      swap1\n      tag_88\n      jump\t// in\n    tag_87:\n      mload(0x40)\n      dup1\n      swap2\n      sub\n      swap1\n      revert\n    tag_86:\n        /* \"2. Solidity/Projet1/Voting.sol\":4174:4178  true */\n      0x01\n        /* \"2. Solidity/Projet1/Voting.sol\":4144:4150  voters */\n      dup1\n        /* \"2. Solidity/Projet1/Voting.sol\":4144:4162  voters[msg.sender] */\n      0x00\n        /* \"2. Solidity/Projet1/Voting.sol\":4151:4161  msg.sender */\n      caller\n        /* \"2. Solidity/Projet1/Voting.sol\":4144:4162  voters[msg.sender] */\n      0xffffffffffffffffffffffffffffffffffffffff\n      and\n      0xffffffffffffffffffffffffffffffffffffffff\n      and\n      dup2\n      mstore\n      0x20\n      add\n      swap1\n      dup2\n      mstore\n      0x20\n      add\n      0x00\n      keccak256\n        /* \"2. Solidity/Projet1/Voting.sol\":4144:4171  voters[msg.sender].hasVoted */\n      0x00\n      add\n      0x01\n        /* \"2. Solidity/Projet1/Voting.sol\":4144:4178  voters[msg.sender].hasVoted = true */\n      0x0100\n      exp\n      dup2\n      sload\n      dup2\n      0xff\n      mul\n      not\n      and\n      swap1\n      dup4\n      iszero\n      iszero\n      mul\n      or\n      swap1\n      sstore\n      pop\n        /* \"2. Solidity/Projet1/Voting.sol\":4226:4237  _proposalId */\n      dup2\n        /* \"2. Solidity/Projet1/Voting.sol\":4189:4195  voters */\n      0x01\n        /* \"2. Solidity/Projet1/Voting.sol\":4189:4207  voters[msg.sender] */\n      0x00\n        /* \"2. Solidity/Projet1/Voting.sol\":4196:4206  msg.sender */\n      caller\n        /* \"2. Solidity/Projet1/Voting.sol\":4189:4207  voters[msg.sender] */\n      0xffffffffffffffffffffffffffffffffffffffff\n      and\n      0xffffffffffffffffffffffffffffffffffffffff\n      and\n      dup2\n      mstore\n      0x20\n      add\n      swap1\n      dup2\n      mstore\n      0x20\n      add\n      0x00\n      keccak256\n        /* \"2. Solidity/Projet1/Voting.sol\":4189:4223  voters[msg.sender].votedProposalId */\n      0x01\n      add\n        /* \"2. Solidity/Projet1/Voting.sol\":4189:4237  voters[msg.sender].votedProposalId = _proposalId */\n      dup2\n      swap1\n      sstore\n      pop\n        /* \"2. Solidity/Projet1/Voting.sol\":4284:4285  1 */\n      0x01\n        /* \"2. Solidity/Projet1/Voting.sol\":4248:4257  proposals */\n      0x02\n        /* \"2. Solidity/Projet1/Voting.sol\":4258:4269  _proposalId */\n      dup4\n        /* \"2. Solidity/Projet1/Voting.sol\":4248:4270  proposals[_proposalId] */\n      dup2\n      sload\n      dup2\n      lt\n      tag_89\n      jumpi\n      tag_90\n      tag_91\n      jump\t// in\n    tag_90:\n    tag_89:\n      swap1\n      0x00\n      mstore\n      keccak256(0x00, 0x20)\n      swap1\n      0x02\n      mul\n      add\n        /* \"2. Solidity/Projet1/Voting.sol\":4248:4280  proposals[_proposalId].voteCount */\n      0x01\n      add\n      0x00\n        /* \"2. Solidity/Projet1/Voting.sol\":4248:4285  proposals[_proposalId].voteCount += 1 */\n      dup3\n      dup3\n      sload\n      tag_93\n      swap2\n      swap1\n      tag_94\n      jump\t// in\n    tag_93:\n      swap3\n      pop\n      pop\n      dup2\n      swap1\n      sstore\n      pop\n        /* \"2. Solidity/Projet1/Voting.sol\":4301:4331  Voted(msg.sender, _proposalId) */\n      0x4d99b957a2bc29a30ebd96a7be8e68fe50a3c701db28a91436490b7d53870ca4\n        /* \"2. Solidity/Projet1/Voting.sol\":4307:4317  msg.sender */\n      caller\n        /* \"2. Solidity/Projet1/Voting.sol\":4319:4330  _proposalId */\n      dup4\n        /* \"2. Solidity/Projet1/Voting.sol\":4301:4331  Voted(msg.sender, _proposalId) */\n      mload(0x40)\n      tag_95\n      swap3\n      swap2\n      swap1\n      tag_96\n      jump\t// in\n    tag_95:\n      mload(0x40)\n      dup1\n      swap2\n      sub\n      swap1\n      log1\n        /* \"2. Solidity/Projet1/Voting.sol\":1522:1523  _ */\n      pop\n        /* \"2. Solidity/Projet1/Voting.sol\":3864:4339  function vote(uint _proposalId) external ... */\n      pop\n      jump\t// out\n        /* \"2. Solidity/Projet1/Voting.sol\":769:796  Proposal[] public proposals */\n    tag_27:\n      0x02\n      dup2\n      dup2\n      sload\n      dup2\n      lt\n      tag_97\n      jumpi\n      0x00\n      dup1\n      revert\n    tag_97:\n      swap1\n      0x00\n      mstore\n      keccak256(0x00, 0x20)\n      swap1\n      0x02\n      mul\n      add\n      0x00\n      swap2\n      pop\n      swap1\n      pop\n      dup1\n      0x00\n      add\n      dup1\n      sload\n      tag_99\n      swap1\n      tag_100\n      jump\t// in\n    tag_99:\n      dup1\n      0x1f\n      add\n      0x20\n      dup1\n      swap2\n      div\n      mul\n      0x20\n      add\n      mload(0x40)\n      swap1\n      dup2\n      add\n      0x40\n      mstore\n      dup1\n      swap3\n      swap2\n      swap1\n      dup2\n      dup2\n      mstore\n      0x20\n      add\n      dup3\n      dup1\n      sload\n      tag_101\n      swap1\n      tag_100\n      jump\t// in\n    tag_101:\n      dup1\n      iszero\n      tag_102\n      jumpi\n      dup1\n      0x1f\n      lt\n      tag_103\n      jumpi\n      0x0100\n      dup1\n      dup4\n      sload\n      div\n      mul\n      dup4\n      mstore\n      swap2\n      0x20\n      add\n      swap2\n      jump(tag_102)\n    tag_103:\n      dup3\n      add\n      swap2\n      swap1\n      0x00\n      mstore\n      keccak256(0x00, 0x20)\n      swap1\n    tag_104:\n      dup2\n      sload\n      dup2\n      mstore\n      swap1\n      0x01\n      add\n      swap1\n      0x20\n      add\n      dup1\n      dup4\n      gt\n      tag_104\n      jumpi\n      dup3\n      swap1\n      sub\n      0x1f\n      and\n      dup3\n      add\n      swap2\n    tag_102:\n      pop\n      pop\n      pop\n      pop\n      pop\n      swap1\n      dup1\n      0x01\n      add\n      sload\n      swap1\n      pop\n      dup3\n      jump\t// out\n        /* \"2. Solidity/Projet1/Voting.sol\":2310:2479  function startProposalRegistration() external ... */\n    tag_31:\n        /* \"https://github.com/OpenZeppelin/openzeppelin-contracts/blob/master/contracts/access/Ownable.sol\":1531:1544  _checkOwner() */\n      tag_106\n        /* \"https://github.com/OpenZeppelin/openzeppelin-contracts/blob/master/contracts/access/Ownable.sol\":1531:1542  _checkOwner */\n      tag_107\n        /* \"https://github.com/OpenZeppelin/openzeppelin-contracts/blob/master/contracts/access/Ownable.sol\":1531:1544  _checkOwner() */\n      jump\t// in\n    tag_106:\n        /* \"2. Solidity/Projet1/Voting.sol\":2393:2425  WorkflowStatus.RegisteringVoters */\n      0x00\n        /* \"2. Solidity/Projet1/Voting.sol\":2427:2470  WorkflowStatus.ProposalsRegistrationStarted */\n      0x01\n        /* \"2. Solidity/Projet1/Voting.sol\":1942:1955  previousPhase */\n      dup2\n        /* \"2. Solidity/Projet1/Voting.sol\":1926:1955  votingStatus != previousPhase */\n      0x05\n      dup2\n      gt\n      iszero\n      tag_109\n      jumpi\n      tag_110\n      tag_76\n      jump\t// in\n    tag_110:\n    tag_109:\n        /* \"2. Solidity/Projet1/Voting.sol\":1926:1938  votingStatus */\n      0x03\n      0x00\n      swap1\n      sload\n      swap1\n      0x0100\n      exp\n      swap1\n      div\n      0xff\n      and\n        /* \"2. Solidity/Projet1/Voting.sol\":1926:1955  votingStatus != previousPhase */\n      0x05\n      dup2\n      gt\n      iszero\n      tag_111\n      jumpi\n      tag_112\n      tag_76\n      jump\t// in\n    tag_112:\n    tag_111:\n      eq\n        /* \"2. Solidity/Projet1/Voting.sol\":1922:2036  if (votingStatus != previousPhase) {... */\n      tag_113\n      jumpi\n        /* \"2. Solidity/Projet1/Voting.sol\":1996:2009  previousPhase */\n      dup2\n        /* \"2. Solidity/Projet1/Voting.sol\":2011:2023  votingStatus */\n      0x03\n      0x00\n      swap1\n      sload\n      swap1\n      0x0100\n      exp\n      swap1\n      div\n      0xff\n      and\n        /* \"2. Solidity/Projet1/Voting.sol\":1979:2024  WrongVotingPhase(previousPhase, votingStatus) */\n      mload(0x40)\n      0x2e73d6d900000000000000000000000000000000000000000000000000000000\n      dup2\n      mstore\n      0x04\n      add\n      tag_114\n      swap3\n      swap2\n      swap1\n      tag_81\n      jump\t// in\n    tag_114:\n      mload(0x40)\n      dup1\n      swap2\n      sub\n      swap1\n      revert\n        /* \"2. Solidity/Projet1/Voting.sol\":1922:2036  if (votingStatus != previousPhase) {... */\n    tag_113:\n        /* \"2. Solidity/Projet1/Voting.sol\":2061:2070  nextPhase */\n      dup1\n        /* \"2. Solidity/Projet1/Voting.sol\":2046:2058  votingStatus */\n      0x03\n      0x00\n        /* \"2. Solidity/Projet1/Voting.sol\":2046:2070  votingStatus = nextPhase */\n      0x0100\n      exp\n      dup2\n      sload\n      dup2\n      0xff\n      mul\n      not\n      and\n      swap1\n      dup4\n      0x05\n      dup2\n      gt\n      iszero\n      tag_115\n      jumpi\n      tag_116\n      tag_76\n      jump\t// in\n    tag_116:\n    tag_115:\n      mul\n      or\n      swap1\n      sstore\n      pop\n        /* \"2. Solidity/Projet1/Voting.sol\":2086:2132  WorkflowStatusChange(previousPhase, nextPhase) */\n      0x0a97a4ee45751e2abf3e4fc8946939630b11b371ea8ae39ccdc3056e98f5cc3f\n        /* \"2. Solidity/Projet1/Voting.sol\":2107:2120  previousPhase */\n      dup3\n        /* \"2. Solidity/Projet1/Voting.sol\":2122:2131  nextPhase */\n      dup3\n        /* \"2. Solidity/Projet1/Voting.sol\":2086:2132  WorkflowStatusChange(previousPhase, nextPhase) */\n      mload(0x40)\n      tag_117\n      swap3\n      swap2\n      swap1\n      tag_81\n      jump\t// in\n    tag_117:\n      mload(0x40)\n      dup1\n      swap2\n      sub\n      swap1\n      log1\n        /* \"https://github.com/OpenZeppelin/openzeppelin-contracts/blob/master/contracts/access/Ownable.sol\":1554:1555  _ */\n      pop\n      pop\n        /* \"2. Solidity/Projet1/Voting.sol\":2310:2479  function startProposalRegistration() external ... */\n      jump\t// out\n        /* \"2. Solidity/Projet1/Voting.sol\":803:837  WorkflowStatus public votingStatus */\n    tag_33:\n      0x03\n      0x00\n      swap1\n      sload\n      swap1\n      0x0100\n      exp\n      swap1\n      div\n      0xff\n      and\n      dup2\n      jump\t// out\n        /* \"2. Solidity/Projet1/Voting.sol\":3462:3794  function registerProposal(string calldata _proposal) external ... */\n    tag_39:\n        /* \"2. Solidity/Projet1/Voting.sol\":1413:1419  voters */\n      0x01\n        /* \"2. Solidity/Projet1/Voting.sol\":1413:1431  voters[msg.sender] */\n      0x00\n        /* \"2. Solidity/Projet1/Voting.sol\":1420:1430  msg.sender */\n      caller\n        /* \"2. Solidity/Projet1/Voting.sol\":1413:1431  voters[msg.sender] */\n      0xffffffffffffffffffffffffffffffffffffffff\n      and\n      0xffffffffffffffffffffffffffffffffffffffff\n      and\n      dup2\n      mstore\n      0x20\n      add\n      swap1\n      dup2\n      mstore\n      0x20\n      add\n      0x00\n      keccak256\n        /* \"2. Solidity/Projet1/Voting.sol\":1413:1444  voters[msg.sender].isRegistered */\n      0x00\n      add\n      0x00\n      swap1\n      sload\n      swap1\n      0x0100\n      exp\n      swap1\n      div\n      0xff\n      and\n        /* \"2. Solidity/Projet1/Voting.sol\":1409:1512  if(!voters[msg.sender].isRegistered){... */\n      tag_120\n      jumpi\n        /* \"2. Solidity/Projet1/Voting.sol\":1489:1499  msg.sender */\n      caller\n        /* \"2. Solidity/Projet1/Voting.sol\":1467:1500  AddressNotWhitelisted(msg.sender) */\n      mload(0x40)\n      0xeadb950f00000000000000000000000000000000000000000000000000000000\n      dup2\n      mstore\n      0x04\n      add\n      tag_121\n      swap2\n      swap1\n      tag_57\n      jump\t// in\n    tag_121:\n      mload(0x40)\n      dup1\n      swap2\n      sub\n      swap1\n      revert\n        /* \"2. Solidity/Projet1/Voting.sol\":1409:1512  if(!voters[msg.sender].isRegistered){... */\n    tag_120:\n        /* \"2. Solidity/Projet1/Voting.sol\":3569:3612  WorkflowStatus.ProposalsRegistrationStarted */\n      0x01\n        /* \"2. Solidity/Projet1/Voting.sol\":1626:1639  expectedPhase */\n      dup1\n        /* \"2. Solidity/Projet1/Voting.sol\":1610:1639  votingStatus != expectedPhase */\n      0x05\n      dup2\n      gt\n      iszero\n      tag_123\n      jumpi\n      tag_124\n      tag_76\n      jump\t// in\n    tag_124:\n    tag_123:\n        /* \"2. Solidity/Projet1/Voting.sol\":1610:1622  votingStatus */\n      0x03\n      0x00\n      swap1\n      sload\n      swap1\n      0x0100\n      exp\n      swap1\n      div\n      0xff\n      and\n        /* \"2. Solidity/Projet1/Voting.sol\":1610:1639  votingStatus != expectedPhase */\n      0x05\n      dup2\n      gt\n      iszero\n      tag_125\n      jumpi\n      tag_126\n      tag_76\n      jump\t// in\n    tag_126:\n    tag_125:\n      eq\n        /* \"2. Solidity/Projet1/Voting.sol\":1606:1720  if (votingStatus != expectedPhase) {... */\n      tag_127\n      jumpi\n        /* \"2. Solidity/Projet1/Voting.sol\":1680:1693  expectedPhase */\n      dup1\n        /* \"2. Solidity/Projet1/Voting.sol\":1695:1707  votingStatus */\n      0x03\n      0x00\n      swap1\n      sload\n      swap1\n      0x0100\n      exp\n      swap1\n      div\n      0xff\n      and\n        /* \"2. Solidity/Projet1/Voting.sol\":1663:1708  WrongVotingPhase(expectedPhase, votingStatus) */\n      mload(0x40)\n      0x2e73d6d900000000000000000000000000000000000000000000000000000000\n      dup2\n      mstore\n      0x04\n      add\n      tag_128\n      swap3\n      swap2\n      swap1\n      tag_81\n      jump\t// in\n    tag_128:\n      mload(0x40)\n      dup1\n      swap2\n      sub\n      swap1\n      revert\n        /* \"2. Solidity/Projet1/Voting.sol\":1606:1720  if (votingStatus != expectedPhase) {... */\n    tag_127:\n        /* \"2. Solidity/Projet1/Voting.sol\":3624:3633  proposals */\n      0x02\n        /* \"2. Solidity/Projet1/Voting.sol\":3639:3661  Proposal(_proposal, 0) */\n      mload(0x40)\n      dup1\n      0x40\n      add\n      0x40\n      mstore\n      dup1\n        /* \"2. Solidity/Projet1/Voting.sol\":3648:3657  _proposal */\n      dup6\n      dup6\n        /* \"2. Solidity/Projet1/Voting.sol\":3639:3661  Proposal(_proposal, 0) */\n      dup1\n      dup1\n      0x1f\n      add\n      0x20\n      dup1\n      swap2\n      div\n      mul\n      0x20\n      add\n      mload(0x40)\n      swap1\n      dup2\n      add\n      0x40\n      mstore\n      dup1\n      swap4\n      swap3\n      swap2\n      swap1\n      dup2\n      dup2\n      mstore\n      0x20\n      add\n      dup4\n      dup4\n      dup1\n      dup3\n      dup5\n      calldatacopy\n      0x00\n      dup2\n      dup5\n      add\n      mstore\n      not(0x1f)\n      0x1f\n      dup3\n      add\n      and\n      swap1\n      pop\n      dup1\n      dup4\n      add\n      swap3\n      pop\n      pop\n      pop\n      pop\n      pop\n      pop\n      pop\n      dup2\n      mstore\n      0x20\n      add\n        /* \"2. Solidity/Projet1/Voting.sol\":3659:3660  0 */\n      0x00\n        /* \"2. Solidity/Projet1/Voting.sol\":3639:3661  Proposal(_proposal, 0) */\n      dup2\n      mstore\n      pop\n        /* \"2. Solidity/Projet1/Voting.sol\":3624:3662  proposals.push(Proposal(_proposal, 0)) */\n      swap1\n      dup1\n      0x01\n      dup2\n      sload\n      add\n      dup1\n      dup3\n      sstore\n      dup1\n      swap2\n      pop\n      pop\n      0x01\n      swap1\n      sub\n      swap1\n      0x00\n      mstore\n      keccak256(0x00, 0x20)\n      swap1\n      0x02\n      mul\n      add\n      0x00\n      swap1\n      swap2\n      swap1\n      swap2\n      swap1\n      swap2\n      pop\n      0x00\n      dup3\n      add\n      mload\n      dup2\n      0x00\n      add\n      swap1\n      dup2\n      tag_131\n      swap2\n      swap1\n      tag_132\n      jump\t// in\n    tag_131:\n      pop\n      0x20\n      dup3\n      add\n      mload\n      dup2\n      0x01\n      add\n      sstore\n      pop\n      pop\n        /* \"2. Solidity/Projet1/Voting.sol\":3746:3786  ProposalRegistered(proposals.length - 1) */\n      0x92e393e9b54e2f801d3ea4beb0c5e71a21cc34a5d34b77d0fb8a3aa1650dc18f\n        /* \"2. Solidity/Projet1/Voting.sol\":3784:3785  1 */\n      0x01\n        /* \"2. Solidity/Projet1/Voting.sol\":3765:3774  proposals */\n      0x02\n        /* \"2. Solidity/Projet1/Voting.sol\":3765:3781  proposals.length */\n      dup1\n      sload\n      swap1\n      pop\n        /* \"2. Solidity/Projet1/Voting.sol\":3765:3785  proposals.length - 1 */\n      tag_133\n      swap2\n      swap1\n      tag_134\n      jump\t// in\n    tag_133:\n        /* \"2. Solidity/Projet1/Voting.sol\":3746:3786  ProposalRegistered(proposals.length - 1) */\n      mload(0x40)\n      tag_135\n      swap2\n      swap1\n      tag_53\n      jump\t// in\n    tag_135:\n      mload(0x40)\n      dup1\n      swap2\n      sub\n      swap1\n      log1\n        /* \"2. Solidity/Projet1/Voting.sol\":1522:1523  _ */\n      pop\n        /* \"2. Solidity/Projet1/Voting.sol\":3462:3794  function registerProposal(string calldata _proposal) external ... */\n      pop\n      pop\n      jump\t// out\n        /* \"2. Solidity/Projet1/Voting.sol\":4405:5159  function tallyVotes() external ... */\n    tag_41:\n        /* \"https://github.com/OpenZeppelin/openzeppelin-contracts/blob/master/contracts/access/Ownable.sol\":1531:1544  _checkOwner() */\n      tag_137\n        /* \"https://github.com/OpenZeppelin/openzeppelin-contracts/blob/master/contracts/access/Ownable.sol\":1531:1542  _checkOwner */\n      tag_107\n        /* \"https://github.com/OpenZeppelin/openzeppelin-contracts/blob/master/contracts/access/Ownable.sol\":1531:1544  _checkOwner() */\n      jump\t// in\n    tag_137:\n        /* \"2. Solidity/Projet1/Voting.sol\":4475:4508  WorkflowStatus.VotingSessionEnded */\n      0x04\n        /* \"2. Solidity/Projet1/Voting.sol\":1626:1639  expectedPhase */\n      dup1\n        /* \"2. Solidity/Projet1/Voting.sol\":1610:1639  votingStatus != expectedPhase */\n      0x05\n      dup2\n      gt\n      iszero\n      tag_139\n      jumpi\n      tag_140\n      tag_76\n      jump\t// in\n    tag_140:\n    tag_139:\n        /* \"2. Solidity/Projet1/Voting.sol\":1610:1622  votingStatus */\n      0x03\n      0x00\n      swap1\n      sload\n      swap1\n      0x0100\n      exp\n      swap1\n      div\n      0xff\n      and\n        /* \"2. Solidity/Projet1/Voting.sol\":1610:1639  votingStatus != expectedPhase */\n      0x05\n      dup2\n      gt\n      iszero\n      tag_141\n      jumpi\n      tag_142\n      tag_76\n      jump\t// in\n    tag_142:\n    tag_141:\n      eq\n        /* \"2. Solidity/Projet1/Voting.sol\":1606:1720  if (votingStatus != expectedPhase) {... */\n      tag_143\n      jumpi\n        /* \"2. Solidity/Projet1/Voting.sol\":1680:1693  expectedPhase */\n      dup1\n        /* \"2. Solidity/Projet1/Voting.sol\":1695:1707  votingStatus */\n      0x03\n      0x00\n      swap1\n      sload\n      swap1\n      0x0100\n      exp\n      swap1\n      div\n      0xff\n      and\n        /* \"2. Solidity/Projet1/Voting.sol\":1663:1708  WrongVotingPhase(expectedPhase, votingStatus) */\n      mload(0x40)\n      0x2e73d6d900000000000000000000000000000000000000000000000000000000\n      dup2\n      mstore\n      0x04\n      add\n      tag_144\n      swap3\n      swap2\n      swap1\n      tag_81\n      jump\t// in\n    tag_144:\n      mload(0x40)\n      dup1\n      swap2\n      sub\n      swap1\n      revert\n        /* \"2. Solidity/Projet1/Voting.sol\":1606:1720  if (votingStatus != expectedPhase) {... */\n    tag_143:\n        /* \"2. Solidity/Projet1/Voting.sol\":4532:4541  proposals */\n      0x02\n        /* \"2. Solidity/Projet1/Voting.sol\":4532:4548  proposals.length */\n      dup1\n      sload\n      swap1\n      pop\n        /* \"2. Solidity/Projet1/Voting.sol\":4528:4529  0 */\n      0x00\n        /* \"2. Solidity/Projet1/Voting.sol\":4528:4548  0 < proposals.length */\n      lt\n        /* \"2. Solidity/Projet1/Voting.sol\":4520:4574  require(0 < proposals.length, \"No proposal available\") */\n      tag_146\n      jumpi\n      mload(0x40)\n      0x08c379a000000000000000000000000000000000000000000000000000000000\n      dup2\n      mstore\n      0x04\n      add\n      tag_147\n      swap1\n      tag_148\n      jump\t// in\n    tag_147:\n      mload(0x40)\n      dup1\n      swap2\n      sub\n      swap1\n      revert\n    tag_146:\n        /* \"2. Solidity/Projet1/Voting.sol\":4641:4665  uint mostVotedProposalId */\n      0x00\n        /* \"2. Solidity/Projet1/Voting.sol\":4759:4765  uint i */\n      0x00\n        /* \"2. Solidity/Projet1/Voting.sol\":4766:4767  0 */\n      0x00\n        /* \"2. Solidity/Projet1/Voting.sol\":4759:4767  uint i=0 */\n      swap1\n      pop\n        /* \"2. Solidity/Projet1/Voting.sol\":4754:4949  for (uint i=0; i < proposals.length; i++){... */\n    tag_149:\n        /* \"2. Solidity/Projet1/Voting.sol\":4773:4782  proposals */\n      0x02\n        /* \"2. Solidity/Projet1/Voting.sol\":4773:4789  proposals.length */\n      dup1\n      sload\n      swap1\n      pop\n        /* \"2. Solidity/Projet1/Voting.sol\":4769:4770  i */\n      dup2\n        /* \"2. Solidity/Projet1/Voting.sol\":4769:4789  i < proposals.length */\n      lt\n        /* \"2. Solidity/Projet1/Voting.sol\":4754:4949  for (uint i=0; i < proposals.length; i++){... */\n      iszero\n      tag_150\n      jumpi\n        /* \"2. Solidity/Projet1/Voting.sol\":4857:4866  proposals */\n      0x02\n        /* \"2. Solidity/Projet1/Voting.sol\":4867:4868  i */\n      dup2\n        /* \"2. Solidity/Projet1/Voting.sol\":4857:4869  proposals[i] */\n      dup2\n      sload\n      dup2\n      lt\n      tag_152\n      jumpi\n      tag_153\n      tag_91\n      jump\t// in\n    tag_153:\n    tag_152:\n      swap1\n      0x00\n      mstore\n      keccak256(0x00, 0x20)\n      swap1\n      0x02\n      mul\n      add\n        /* \"2. Solidity/Projet1/Voting.sol\":4857:4879  proposals[i].voteCount */\n      0x01\n      add\n      sload\n        /* \"2. Solidity/Projet1/Voting.sol\":4814:4823  proposals */\n      0x02\n        /* \"2. Solidity/Projet1/Voting.sol\":4824:4843  mostVotedProposalId */\n      dup4\n        /* \"2. Solidity/Projet1/Voting.sol\":4814:4844  proposals[mostVotedProposalId] */\n      dup2\n      sload\n      dup2\n      lt\n      tag_155\n      jumpi\n      tag_156\n      tag_91\n      jump\t// in\n    tag_156:\n    tag_155:\n      swap1\n      0x00\n      mstore\n      keccak256(0x00, 0x20)\n      swap1\n      0x02\n      mul\n      add\n        /* \"2. Solidity/Projet1/Voting.sol\":4814:4854  proposals[mostVotedProposalId].voteCount */\n      0x01\n      add\n      sload\n        /* \"2. Solidity/Projet1/Voting.sol\":4814:4879  proposals[mostVotedProposalId].voteCount < proposals[i].voteCount */\n      lt\n        /* \"2. Solidity/Projet1/Voting.sol\":4810:4938  if (proposals[mostVotedProposalId].voteCount < proposals[i].voteCount){... */\n      iszero\n      tag_158\n      jumpi\n        /* \"2. Solidity/Projet1/Voting.sol\":4921:4922  i */\n      dup1\n        /* \"2. Solidity/Projet1/Voting.sol\":4899:4922  mostVotedProposalId = i */\n      swap2\n      pop\n        /* \"2. Solidity/Projet1/Voting.sol\":4810:4938  if (proposals[mostVotedProposalId].voteCount < proposals[i].voteCount){... */\n    tag_158:\n        /* \"2. Solidity/Projet1/Voting.sol\":4791:4794  i++ */\n      dup1\n      dup1\n      0x01\n      add\n      swap2\n      pop\n      pop\n        /* \"2. Solidity/Projet1/Voting.sol\":4754:4949  for (uint i=0; i < proposals.length; i++){... */\n      jump(tag_149)\n    tag_150:\n      pop\n        /* \"2. Solidity/Projet1/Voting.sol\":4979:4998  mostVotedProposalId */\n      dup1\n        /* \"2. Solidity/Projet1/Voting.sol\":4959:4976  winningProposalId */\n      0x04\n        /* \"2. Solidity/Projet1/Voting.sol\":4959:4998  winningProposalId = mostVotedProposalId */\n      dup2\n      swap1\n      sstore\n      pop\n        /* \"2. Solidity/Projet1/Voting.sol\":5024:5051  WorkflowStatus.VotesTallied */\n      0x05\n        /* \"2. Solidity/Projet1/Voting.sol\":5009:5021  votingStatus */\n      0x03\n      0x00\n        /* \"2. Solidity/Projet1/Voting.sol\":5009:5051  votingStatus = WorkflowStatus.VotesTallied */\n      0x0100\n      exp\n      dup2\n      sload\n      dup2\n      0xff\n      mul\n      not\n      and\n      swap1\n      dup4\n      0x05\n      dup2\n      gt\n      iszero\n      tag_159\n      jumpi\n      tag_160\n      tag_76\n      jump\t// in\n    tag_160:\n    tag_159:\n      mul\n      or\n      swap1\n      sstore\n      pop\n        /* \"2. Solidity/Projet1/Voting.sol\":5067:5151  WorkflowStatusChange(WorkflowStatus.VotingSessionEnded, WorkflowStatus.VotesTallied) */\n      0x0a97a4ee45751e2abf3e4fc8946939630b11b371ea8ae39ccdc3056e98f5cc3f\n        /* \"2. Solidity/Projet1/Voting.sol\":5088:5121  WorkflowStatus.VotingSessionEnded */\n      0x04\n        /* \"2. Solidity/Projet1/Voting.sol\":5123:5150  WorkflowStatus.VotesTallied */\n      0x05\n        /* \"2. Solidity/Projet1/Voting.sol\":5067:5151  WorkflowStatusChange(WorkflowStatus.VotingSessionEnded, WorkflowStatus.VotesTallied) */\n      mload(0x40)\n      tag_161\n      swap3\n      swap2\n      swap1\n      tag_81\n      jump\t// in\n    tag_161:\n      mload(0x40)\n      dup1\n      swap2\n      sub\n      swap1\n      log1\n        /* \"2. Solidity/Projet1/Voting.sol\":4509:5159  {... */\n      pop\n        /* \"https://github.com/OpenZeppelin/openzeppelin-contracts/blob/master/contracts/access/Ownable.sol\":1554:1555  _ */\n      pop\n        /* \"2. Solidity/Projet1/Voting.sol\":4405:5159  function tallyVotes() external ... */\n      jump\t// out\n        /* \"https://github.com/OpenZeppelin/openzeppelin-contracts/blob/master/contracts/access/Ownable.sol\":2293:2394  function renounceOwnership() public virtual onlyOwner {... */\n    tag_43:\n        /* \"https://github.com/OpenZeppelin/openzeppelin-contracts/blob/master/contracts/access/Ownable.sol\":1531:1544  _checkOwner() */\n      tag_163\n        /* \"https://github.com/OpenZeppelin/openzeppelin-contracts/blob/master/contracts/access/Ownable.sol\":1531:1542  _checkOwner */\n      tag_107\n        /* \"https://github.com/OpenZeppelin/openzeppelin-contracts/blob/master/contracts/access/Ownable.sol\":1531:1544  _checkOwner() */\n      jump\t// in\n    tag_163:\n        /* \"https://github.com/OpenZeppelin/openzeppelin-contracts/blob/master/contracts/access/Ownable.sol\":2357:2387  _transferOwnership(address(0)) */\n      tag_165\n        /* \"https://github.com/OpenZeppelin/openzeppelin-contracts/blob/master/contracts/access/Ownable.sol\":2384:2385  0 */\n      0x00\n        /* \"https://github.com/OpenZeppelin/openzeppelin-contracts/blob/master/contracts/access/Ownable.sol\":2357:2375  _transferOwnership */\n      tag_166\n        /* \"https://github.com/OpenZeppelin/openzeppelin-contracts/blob/master/contracts/access/Ownable.sol\":2357:2387  _transferOwnership(address(0)) */\n      jump\t// in\n    tag_165:\n        /* \"https://github.com/OpenZeppelin/openzeppelin-contracts/blob/master/contracts/access/Ownable.sol\":2293:2394  function renounceOwnership() public virtual onlyOwner {... */\n      jump\t// out\n        /* \"2. Solidity/Projet1/Voting.sol\":3066:3390  function addToWhitelist(address[] calldata _addressArray) external ... */\n    tag_47:\n        /* \"https://github.com/OpenZeppelin/openzeppelin-contracts/blob/master/contracts/access/Ownable.sol\":1531:1544  _checkOwner() */\n      tag_168\n        /* \"https://github.com/OpenZeppelin/openzeppelin-contracts/blob/master/contracts/access/Ownable.sol\":1531:1542  _checkOwner */\n      tag_107\n        /* \"https://github.com/OpenZeppelin/openzeppelin-contracts/blob/master/contracts/access/Ownable.sol\":1531:1544  _checkOwner() */\n      jump\t// in\n    tag_168:\n        /* \"2. Solidity/Projet1/Voting.sol\":3172:3204  WorkflowStatus.RegisteringVoters */\n      0x00\n        /* \"2. Solidity/Projet1/Voting.sol\":1626:1639  expectedPhase */\n      dup1\n        /* \"2. Solidity/Projet1/Voting.sol\":1610:1639  votingStatus != expectedPhase */\n      0x05\n      dup2\n      gt\n      iszero\n      tag_170\n      jumpi\n      tag_171\n      tag_76\n      jump\t// in\n    tag_171:\n    tag_170:\n        /* \"2. Solidity/Projet1/Voting.sol\":1610:1622  votingStatus */\n      0x03\n      0x00\n      swap1\n      sload\n      swap1\n      0x0100\n      exp\n      swap1\n      div\n      0xff\n      and\n        /* \"2. Solidity/Projet1/Voting.sol\":1610:1639  votingStatus != expectedPhase */\n      0x05\n      dup2\n      gt\n      iszero\n      tag_172\n      jumpi\n      tag_173\n      tag_76\n      jump\t// in\n    tag_173:\n    tag_172:\n      eq\n        /* \"2. Solidity/Projet1/Voting.sol\":1606:1720  if (votingStatus != expectedPhase) {... */\n      tag_174\n      jumpi\n        /* \"2. Solidity/Projet1/Voting.sol\":1680:1693  expectedPhase */\n      dup1\n        /* \"2. Solidity/Projet1/Voting.sol\":1695:1707  votingStatus */\n      0x03\n      0x00\n      swap1\n      sload\n      swap1\n      0x0100\n      exp\n      swap1\n      div\n      0xff\n      and\n        /* \"2. Solidity/Projet1/Voting.sol\":1663:1708  WrongVotingPhase(expectedPhase, votingStatus) */\n      mload(0x40)\n      0x2e73d6d900000000000000000000000000000000000000000000000000000000\n      dup2\n      mstore\n      0x04\n      add\n      tag_175\n      swap3\n      swap2\n      swap1\n      tag_81\n      jump\t// in\n    tag_175:\n      mload(0x40)\n      dup1\n      swap2\n      sub\n      swap1\n      revert\n        /* \"2. Solidity/Projet1/Voting.sol\":1606:1720  if (votingStatus != expectedPhase) {... */\n    tag_174:\n        /* \"2. Solidity/Projet1/Voting.sol\":3221:3227  uint i */\n      0x00\n        /* \"2. Solidity/Projet1/Voting.sol\":3228:3229  0 */\n      0x00\n        /* \"2. Solidity/Projet1/Voting.sol\":3221:3229  uint i=0 */\n      swap1\n      pop\n        /* \"2. Solidity/Projet1/Voting.sol\":3216:3383  for (uint i=0; i<_addressArray.length; i++){... */\n    tag_177:\n        /* \"2. Solidity/Projet1/Voting.sol\":3233:3246  _addressArray */\n      dup4\n      dup4\n        /* \"2. Solidity/Projet1/Voting.sol\":3233:3253  _addressArray.length */\n      swap1\n      pop\n        /* \"2. Solidity/Projet1/Voting.sol\":3231:3232  i */\n      dup2\n        /* \"2. Solidity/Projet1/Voting.sol\":3231:3253  i<_addressArray.length */\n      lt\n        /* \"2. Solidity/Projet1/Voting.sol\":3216:3383  for (uint i=0; i<_addressArray.length; i++){... */\n      iszero\n      tag_178\n      jumpi\n        /* \"2. Solidity/Projet1/Voting.sol\":3314:3318  true */\n      0x01\n        /* \"2. Solidity/Projet1/Voting.sol\":3274:3280  voters */\n      dup1\n        /* \"2. Solidity/Projet1/Voting.sol\":3274:3298  voters[_addressArray[i]] */\n      0x00\n        /* \"2. Solidity/Projet1/Voting.sol\":3281:3294  _addressArray */\n      dup7\n      dup7\n        /* \"2. Solidity/Projet1/Voting.sol\":3295:3296  i */\n      dup6\n        /* \"2. Solidity/Projet1/Voting.sol\":3281:3297  _addressArray[i] */\n      dup2\n      dup2\n      lt\n      tag_180\n      jumpi\n      tag_181\n      tag_91\n      jump\t// in\n    tag_181:\n    tag_180:\n      swap1\n      pop\n      0x20\n      mul\n      add\n      0x20\n      dup2\n      add\n      swap1\n      tag_182\n      swap2\n      swap1\n      tag_50\n      jump\t// in\n    tag_182:\n        /* \"2. Solidity/Projet1/Voting.sol\":3274:3298  voters[_addressArray[i]] */\n      0xffffffffffffffffffffffffffffffffffffffff\n      and\n      0xffffffffffffffffffffffffffffffffffffffff\n      and\n      dup2\n      mstore\n      0x20\n      add\n      swap1\n      dup2\n      mstore\n      0x20\n      add\n      0x00\n      keccak256\n        /* \"2. Solidity/Projet1/Voting.sol\":3274:3311  voters[_addressArray[i]].isRegistered */\n      0x00\n      add\n      0x00\n        /* \"2. Solidity/Projet1/Voting.sol\":3274:3318  voters[_addressArray[i]].isRegistered = true */\n      0x0100\n      exp\n      dup2\n      sload\n      dup2\n      0xff\n      mul\n      not\n      and\n      swap1\n      dup4\n      iszero\n      iszero\n      mul\n      or\n      swap1\n      sstore\n      pop\n        /* \"2. Solidity/Projet1/Voting.sol\":3338:3371  VoterRegistered(_addressArray[i]) */\n      0xb6be2187d059cc2a55fe29e0e503b566e1e0f8c8780096e185429350acffd3dd\n        /* \"2. Solidity/Projet1/Voting.sol\":3354:3367  _addressArray */\n      dup5\n      dup5\n        /* \"2. Solidity/Projet1/Voting.sol\":3368:3369  i */\n      dup4\n        /* \"2. Solidity/Projet1/Voting.sol\":3354:3370  _addressArray[i] */\n      dup2\n      dup2\n      lt\n      tag_183\n      jumpi\n      tag_184\n      tag_91\n      jump\t// in\n    tag_184:\n    tag_183:\n      swap1\n      pop\n      0x20\n      mul\n      add\n      0x20\n      dup2\n      add\n      swap1\n      tag_185\n      swap2\n      swap1\n      tag_50\n      jump\t// in\n    tag_185:\n        /* \"2. Solidity/Projet1/Voting.sol\":3338:3371  VoterRegistered(_addressArray[i]) */\n      mload(0x40)\n      tag_186\n      swap2\n      swap1\n      tag_57\n      jump\t// in\n    tag_186:\n      mload(0x40)\n      dup1\n      swap2\n      sub\n      swap1\n      log1\n        /* \"2. Solidity/Projet1/Voting.sol\":3255:3258  i++ */\n      dup1\n      dup1\n      0x01\n      add\n      swap2\n      pop\n      pop\n        /* \"2. Solidity/Projet1/Voting.sol\":3216:3383  for (uint i=0; i<_addressArray.length; i++){... */\n      jump(tag_177)\n    tag_178:\n      pop\n        /* \"https://github.com/OpenZeppelin/openzeppelin-contracts/blob/master/contracts/access/Ownable.sol\":1554:1555  _ */\n      pop\n        /* \"2. Solidity/Projet1/Voting.sol\":3066:3390  function addToWhitelist(address[] calldata _addressArray) external ... */\n      pop\n      pop\n      jump\t// out\n        /* \"2. Solidity/Projet1/Voting.sol\":5233:5450  function getVoterChoice(address _address) external view onlyWhitelisted returns(uint){... */\n    tag_51:\n        /* \"2. Solidity/Projet1/Voting.sol\":5313:5317  uint */\n      0x00\n        /* \"2. Solidity/Projet1/Voting.sol\":1413:1419  voters */\n      0x01\n        /* \"2. Solidity/Projet1/Voting.sol\":1413:1431  voters[msg.sender] */\n      0x00\n        /* \"2. Solidity/Projet1/Voting.sol\":1420:1430  msg.sender */\n      caller\n        /* \"2. Solidity/Projet1/Voting.sol\":1413:1431  voters[msg.sender] */\n      0xffffffffffffffffffffffffffffffffffffffff\n      and\n      0xffffffffffffffffffffffffffffffffffffffff\n      and\n      dup2\n      mstore\n      0x20\n      add\n      swap1\n      dup2\n      mstore\n      0x20\n      add\n      0x00\n      keccak256\n        /* \"2. Solidity/Projet1/Voting.sol\":1413:1444  voters[msg.sender].isRegistered */\n      0x00\n      add\n      0x00\n      swap1\n      sload\n      swap1\n      0x0100\n      exp\n      swap1\n      div\n      0xff\n      and\n        /* \"2. Solidity/Projet1/Voting.sol\":1409:1512  if(!voters[msg.sender].isRegistered){... */\n      tag_188\n      jumpi\n        /* \"2. Solidity/Projet1/Voting.sol\":1489:1499  msg.sender */\n      caller\n        /* \"2. Solidity/Projet1/Voting.sol\":1467:1500  AddressNotWhitelisted(msg.sender) */\n      mload(0x40)\n      0xeadb950f00000000000000000000000000000000000000000000000000000000\n      dup2\n      mstore\n      0x04\n      add\n      tag_189\n      swap2\n      swap1\n      tag_57\n      jump\t// in\n    tag_189:\n      mload(0x40)\n      dup1\n      swap2\n      sub\n      swap1\n      revert\n        /* \"2. Solidity/Projet1/Voting.sol\":1409:1512  if(!voters[msg.sender].isRegistered){... */\n    tag_188:\n        /* \"2. Solidity/Projet1/Voting.sol\":5337:5343  voters */\n      0x01\n        /* \"2. Solidity/Projet1/Voting.sol\":5337:5353  voters[_address] */\n      0x00\n        /* \"2. Solidity/Projet1/Voting.sol\":5344:5352  _address */\n      dup4\n        /* \"2. Solidity/Projet1/Voting.sol\":5337:5353  voters[_address] */\n      0xffffffffffffffffffffffffffffffffffffffff\n      and\n      0xffffffffffffffffffffffffffffffffffffffff\n      and\n      dup2\n      mstore\n      0x20\n      add\n      swap1\n      dup2\n      mstore\n      0x20\n      add\n      0x00\n      keccak256\n        /* \"2. Solidity/Projet1/Voting.sol\":5337:5362  voters[_address].hasVoted */\n      0x00\n      add\n      0x01\n      swap1\n      sload\n      swap1\n      0x0100\n      exp\n      swap1\n      div\n      0xff\n      and\n        /* \"2. Solidity/Projet1/Voting.sol\":5329:5392  require(voters[_address].hasVoted, \"Address has not voted yet\") */\n      tag_191\n      jumpi\n      mload(0x40)\n      0x08c379a000000000000000000000000000000000000000000000000000000000\n      dup2\n      mstore\n      0x04\n      add\n      tag_192\n      swap1\n      tag_193\n      jump\t// in\n    tag_192:\n      mload(0x40)\n      dup1\n      swap2\n      sub\n      swap1\n      revert\n    tag_191:\n        /* \"2. Solidity/Projet1/Voting.sol\":5410:5416  voters */\n      0x01\n        /* \"2. Solidity/Projet1/Voting.sol\":5410:5426  voters[_address] */\n      0x00\n        /* \"2. Solidity/Projet1/Voting.sol\":5417:5425  _address */\n      dup4\n        /* \"2. Solidity/Projet1/Voting.sol\":5410:5426  voters[_address] */\n      0xffffffffffffffffffffffffffffffffffffffff\n      and\n      0xffffffffffffffffffffffffffffffffffffffff\n      and\n      dup2\n      mstore\n      0x20\n      add\n      swap1\n      dup2\n      mstore\n      0x20\n      add\n      0x00\n      keccak256\n        /* \"2. Solidity/Projet1/Voting.sol\":5410:5442  voters[_address].votedProposalId */\n      0x01\n      add\n      sload\n        /* \"2. Solidity/Projet1/Voting.sol\":5403:5442  return voters[_address].votedProposalId */\n      swap1\n      pop\n        /* \"2. Solidity/Projet1/Voting.sol\":5233:5450  function getVoterChoice(address _address) external view onlyWhitelisted returns(uint){... */\n      swap2\n      swap1\n      pop\n      jump\t// out\n        /* \"https://github.com/OpenZeppelin/openzeppelin-contracts/blob/master/contracts/access/Ownable.sol\":1638:1723  function owner() public view virtual returns (address) {... */\n    tag_55:\n        /* \"https://github.com/OpenZeppelin/openzeppelin-contracts/blob/master/contracts/access/Ownable.sol\":1684:1691  address */\n      0x00\n        /* \"https://github.com/OpenZeppelin/openzeppelin-contracts/blob/master/contracts/access/Ownable.sol\":1710:1716  _owner */\n      0x00\n      0x00\n      swap1\n      sload\n      swap1\n      0x0100\n      exp\n      swap1\n      div\n      0xffffffffffffffffffffffffffffffffffffffff\n      and\n        /* \"https://github.com/OpenZeppelin/openzeppelin-contracts/blob/master/contracts/access/Ownable.sol\":1703:1716  return _owner */\n      swap1\n      pop\n        /* \"https://github.com/OpenZeppelin/openzeppelin-contracts/blob/master/contracts/access/Ownable.sol\":1638:1723  function owner() public view virtual returns (address) {... */\n      swap1\n      jump\t// out\n        /* \"2. Solidity/Projet1/Voting.sol\":2842:2995  function endVotingSession() external ... */\n    tag_59:\n        /* \"https://github.com/OpenZeppelin/openzeppelin-contracts/blob/master/contracts/access/Ownable.sol\":1531:1544  _checkOwner() */\n      tag_196\n        /* \"https://github.com/OpenZeppelin/openzeppelin-contracts/blob/master/contracts/access/Ownable.sol\":1531:1542  _checkOwner */\n      tag_107\n        /* \"https://github.com/OpenZeppelin/openzeppelin-contracts/blob/master/contracts/access/Ownable.sol\":1531:1544  _checkOwner() */\n      jump\t// in\n    tag_196:\n        /* \"2. Solidity/Projet1/Voting.sol\":2916:2951  WorkflowStatus.VotingSessionStarted */\n      0x03\n        /* \"2. Solidity/Projet1/Voting.sol\":2953:2986  WorkflowStatus.VotingSessionEnded */\n      0x04\n        /* \"2. Solidity/Projet1/Voting.sol\":1942:1955  previousPhase */\n      dup2\n        /* \"2. Solidity/Projet1/Voting.sol\":1926:1955  votingStatus != previousPhase */\n      0x05\n      dup2\n      gt\n      iszero\n      tag_198\n      jumpi\n      tag_199\n      tag_76\n      jump\t// in\n    tag_199:\n    tag_198:\n        /* \"2. Solidity/Projet1/Voting.sol\":1926:1938  votingStatus */\n      0x03\n      0x00\n      swap1\n      sload\n      swap1\n      0x0100\n      exp\n      swap1\n      div\n      0xff\n      and\n        /* \"2. Solidity/Projet1/Voting.sol\":1926:1955  votingStatus != previousPhase */\n      0x05\n      dup2\n      gt\n      iszero\n      tag_200\n      jumpi\n      tag_201\n      tag_76\n      jump\t// in\n    tag_201:\n    tag_200:\n      eq\n        /* \"2. Solidity/Projet1/Voting.sol\":1922:2036  if (votingStatus != previousPhase) {... */\n      tag_202\n      jumpi\n        /* \"2. Solidity/Projet1/Voting.sol\":1996:2009  previousPhase */\n      dup2\n        /* \"2. Solidity/Projet1/Voting.sol\":2011:2023  votingStatus */\n      0x03\n      0x00\n      swap1\n      sload\n      swap1\n      0x0100\n      exp\n      swap1\n      div\n      0xff\n      and\n        /* \"2. Solidity/Projet1/Voting.sol\":1979:2024  WrongVotingPhase(previousPhase, votingStatus) */\n      mload(0x40)\n      0x2e73d6d900000000000000000000000000000000000000000000000000000000\n      dup2\n      mstore\n      0x04\n      add\n      tag_203\n      swap3\n      swap2\n      swap1\n      tag_81\n      jump\t// in\n    tag_203:\n      mload(0x40)\n      dup1\n      swap2\n      sub\n      swap1\n      revert\n        /* \"2. Solidity/Projet1/Voting.sol\":1922:2036  if (votingStatus != previousPhase) {... */\n    tag_202:\n        /* \"2. Solidity/Projet1/Voting.sol\":2061:2070  nextPhase */\n      dup1\n        /* \"2. Solidity/Projet1/Voting.sol\":2046:2058  votingStatus */\n      0x03\n      0x00\n        /* \"2. Solidity/Projet1/Voting.sol\":2046:2070  votingStatus = nextPhase */\n      0x0100\n      exp\n      dup2\n      sload\n      dup2\n      0xff\n      mul\n      not\n      and\n      swap1\n      dup4\n      0x05\n      dup2\n      gt\n      iszero\n      tag_204\n      jumpi\n      tag_205\n      tag_76\n      jump\t// in\n    tag_205:\n    tag_204:\n      mul\n      or\n      swap1\n      sstore\n      pop\n        /* \"2. Solidity/Projet1/Voting.sol\":2086:2132  WorkflowStatusChange(previousPhase, nextPhase) */\n      0x0a97a4ee45751e2abf3e4fc8946939630b11b371ea8ae39ccdc3056e98f5cc3f\n        /* \"2. Solidity/Projet1/Voting.sol\":2107:2120  previousPhase */\n      dup3\n        /* \"2. Solidity/Projet1/Voting.sol\":2122:2131  nextPhase */\n      dup3\n        /* \"2. Solidity/Projet1/Voting.sol\":2086:2132  WorkflowStatusChange(previousPhase, nextPhase) */\n      mload(0x40)\n      tag_206\n      swap3\n      swap2\n      swap1\n      tag_81\n      jump\t// in\n    tag_206:\n      mload(0x40)\n      dup1\n      swap2\n      sub\n      swap1\n      log1\n        /* \"https://github.com/OpenZeppelin/openzeppelin-contracts/blob/master/contracts/access/Ownable.sol\":1554:1555  _ */\n      pop\n      pop\n        /* \"2. Solidity/Projet1/Voting.sol\":2842:2995  function endVotingSession() external ... */\n      jump\t// out\n        /* \"2. Solidity/Projet1/Voting.sol\":844:873  uint public winningProposalId */\n    tag_61:\n      sload(0x04)\n      dup2\n      jump\t// out\n        /* \"2. Solidity/Projet1/Voting.sol\":2487:2663  function endProposalRegistration() external ... */\n    tag_64:\n        /* \"https://github.com/OpenZeppelin/openzeppelin-contracts/blob/master/contracts/access/Ownable.sol\":1531:1544  _checkOwner() */\n      tag_209\n        /* \"https://github.com/OpenZeppelin/openzeppelin-contracts/blob/master/contracts/access/Ownable.sol\":1531:1542  _checkOwner */\n      tag_107\n        /* \"https://github.com/OpenZeppelin/openzeppelin-contracts/blob/master/contracts/access/Ownable.sol\":1531:1544  _checkOwner() */\n      jump\t// in\n    tag_209:\n        /* \"2. Solidity/Projet1/Voting.sol\":2568:2611  WorkflowStatus.ProposalsRegistrationStarted */\n      0x01\n        /* \"2. Solidity/Projet1/Voting.sol\":2613:2654  WorkflowStatus.ProposalsRegistrationEnded */\n      0x02\n        /* \"2. Solidity/Projet1/Voting.sol\":1942:1955  previousPhase */\n      dup2\n        /* \"2. Solidity/Projet1/Voting.sol\":1926:1955  votingStatus != previousPhase */\n      0x05\n      dup2\n      gt\n      iszero\n      tag_211\n      jumpi\n      tag_212\n      tag_76\n      jump\t// in\n    tag_212:\n    tag_211:\n        /* \"2. Solidity/Projet1/Voting.sol\":1926:1938  votingStatus */\n      0x03\n      0x00\n      swap1\n      sload\n      swap1\n      0x0100\n      exp\n      swap1\n      div\n      0xff\n      and\n        /* \"2. Solidity/Projet1/Voting.sol\":1926:1955  votingStatus != previousPhase */\n      0x05\n      dup2\n      gt\n      iszero\n      tag_213\n      jumpi\n      tag_214\n      tag_76\n      jump\t// in\n    tag_214:\n    tag_213:\n      eq\n        /* \"2. Solidity/Projet1/Voting.sol\":1922:2036  if (votingStatus != previousPhase) {... */\n      tag_215\n      jumpi\n        /* \"2. Solidity/Projet1/Voting.sol\":1996:2009  previousPhase */\n      dup2\n        /* \"2. Solidity/Projet1/Voting.sol\":2011:2023  votingStatus */\n      0x03\n      0x00\n      swap1\n      sload\n      swap1\n      0x0100\n      exp\n      swap1\n      div\n      0xff\n      and\n        /* \"2. Solidity/Projet1/Voting.sol\":1979:2024  WrongVotingPhase(previousPhase, votingStatus) */\n      mload(0x40)\n      0x2e73d6d900000000000000000000000000000000000000000000000000000000\n      dup2\n      mstore\n      0x04\n      add\n      tag_216\n      swap3\n      swap2\n      swap1\n      tag_81\n      jump\t// in\n    tag_216:\n      mload(0x40)\n      dup1\n      swap2\n      sub\n      swap1\n      revert\n        /* \"2. Solidity/Projet1/Voting.sol\":1922:2036  if (votingStatus != previousPhase) {... */\n    tag_215:\n        /* \"2. Solidity/Projet1/Voting.sol\":2061:2070  nextPhase */\n      dup1\n        /* \"2. Solidity/Projet1/Voting.sol\":2046:2058  votingStatus */\n      0x03\n      0x00\n        /* \"2. Solidity/Projet1/Voting.sol\":2046:2070  votingStatus = nextPhase */\n      0x0100\n      exp\n      dup2\n      sload\n      dup2\n      0xff\n      mul\n      not\n      and\n      swap1\n      dup4\n      0x05\n      dup2\n      gt\n      iszero\n      tag_217\n      jumpi\n      tag_218\n      tag_76\n      jump\t// in\n    tag_218:\n    tag_217:\n      mul\n      or\n      swap1\n      sstore\n      pop\n        /* \"2. Solidity/Projet1/Voting.sol\":2086:2132  WorkflowStatusChange(previousPhase, nextPhase) */\n      0x0a97a4ee45751e2abf3e4fc8946939630b11b371ea8ae39ccdc3056e98f5cc3f\n        /* \"2. Solidity/Projet1/Voting.sol\":2107:2120  previousPhase */\n      dup3\n        /* \"2. Solidity/Projet1/Voting.sol\":2122:2131  nextPhase */\n      dup3\n        /* \"2. Solidity/Projet1/Voting.sol\":2086:2132  WorkflowStatusChange(previousPhase, nextPhase) */\n      mload(0x40)\n      tag_219\n      swap3\n      swap2\n      swap1\n      tag_81\n      jump\t// in\n    tag_219:\n      mload(0x40)\n      dup1\n      swap2\n      sub\n      swap1\n      log1\n        /* \"https://github.com/OpenZeppelin/openzeppelin-contracts/blob/master/contracts/access/Ownable.sol\":1554:1555  _ */\n      pop\n      pop\n        /* \"2. Solidity/Projet1/Voting.sol\":2487:2663  function endProposalRegistration() external ... */\n      jump\t// out\n        /* \"2. Solidity/Projet1/Voting.sol\":2671:2834  function startVotingSession() external ... */\n    tag_66:\n        /* \"https://github.com/OpenZeppelin/openzeppelin-contracts/blob/master/contracts/access/Ownable.sol\":1531:1544  _checkOwner() */\n      tag_222\n        /* \"https://github.com/OpenZeppelin/openzeppelin-contracts/blob/master/contracts/access/Ownable.sol\":1531:1542  _checkOwner */\n      tag_107\n        /* \"https://github.com/OpenZeppelin/openzeppelin-contracts/blob/master/contracts/access/Ownable.sol\":1531:1544  _checkOwner() */\n      jump\t// in\n    tag_222:\n        /* \"2. Solidity/Projet1/Voting.sol\":2747:2788  WorkflowStatus.ProposalsRegistrationEnded */\n      0x02\n        /* \"2. Solidity/Projet1/Voting.sol\":2790:2825  WorkflowStatus.VotingSessionStarted */\n      0x03\n        /* \"2. Solidity/Projet1/Voting.sol\":1942:1955  previousPhase */\n      dup2\n        /* \"2. Solidity/Projet1/Voting.sol\":1926:1955  votingStatus != previousPhase */\n      0x05\n      dup2\n      gt\n      iszero\n      tag_224\n      jumpi\n      tag_225\n      tag_76\n      jump\t// in\n    tag_225:\n    tag_224:\n        /* \"2. Solidity/Projet1/Voting.sol\":1926:1938  votingStatus */\n      0x03\n      0x00\n      swap1\n      sload\n      swap1\n      0x0100\n      exp\n      swap1\n      div\n      0xff\n      and\n        /* \"2. Solidity/Projet1/Voting.sol\":1926:1955  votingStatus != previousPhase */\n      0x05\n      dup2\n      gt\n      iszero\n      tag_226\n      jumpi\n      tag_227\n      tag_76\n      jump\t// in\n    tag_227:\n    tag_226:\n      eq\n        /* \"2. Solidity/Projet1/Voting.sol\":1922:2036  if (votingStatus != previousPhase) {... */\n      tag_228\n      jumpi\n        /* \"2. Solidity/Projet1/Voting.sol\":1996:2009  previousPhase */\n      dup2\n        /* \"2. Solidity/Projet1/Voting.sol\":2011:2023  votingStatus */\n      0x03\n      0x00\n      swap1\n      sload\n      swap1\n      0x0100\n      exp\n      swap1\n      div\n      0xff\n      and\n        /* \"2. Solidity/Projet1/Voting.sol\":1979:2024  WrongVotingPhase(previousPhase, votingStatus) */\n      mload(0x40)\n      0x2e73d6d900000000000000000000000000000000000000000000000000000000\n      dup2\n      mstore\n      0x04\n      add\n      tag_229\n      swap3\n      swap2\n      swap1\n      tag_81\n      jump\t// in\n    tag_229:\n      mload(0x40)\n      dup1\n      swap2\n      sub\n      swap1\n      revert\n        /* \"2. Solidity/Projet1/Voting.sol\":1922:2036  if (votingStatus != previousPhase) {... */\n    tag_228:\n        /* \"2. Solidity/Projet1/Voting.sol\":2061:2070  nextPhase */\n      dup1\n        /* \"2. Solidity/Projet1/Voting.sol\":2046:2058  votingStatus */\n      0x03\n      0x00\n        /* \"2. Solidity/Projet1/Voting.sol\":2046:2070  votingStatus = nextPhase */\n      0x0100\n      exp\n      dup2\n      sload\n      dup2\n      0xff\n      mul\n      not\n      and\n      swap1\n      dup4\n      0x05\n      dup2\n      gt\n      iszero\n      tag_230\n      jumpi\n      tag_231\n      tag_76\n      jump\t// in\n    tag_231:\n    tag_230:\n      mul\n      or\n      swap1\n      sstore\n      pop\n        /* \"2. Solidity/Projet1/Voting.sol\":2086:2132  WorkflowStatusChange(previousPhase, nextPhase) */\n      0x0a97a4ee45751e2abf3e4fc8946939630b11b371ea8ae39ccdc3056e98f5cc3f\n        /* \"2. Solidity/Projet1/Voting.sol\":2107:2120  previousPhase */\n      dup3\n        /* \"2. Solidity/Projet1/Voting.sol\":2122:2131  nextPhase */\n      dup3\n        /* \"2. Solidity/Projet1/Voting.sol\":2086:2132  WorkflowStatusChange(previousPhase, nextPhase) */\n      mload(0x40)\n      tag_232\n      swap3\n      swap2\n      swap1\n      tag_81\n      jump\t// in\n    tag_232:\n      mload(0x40)\n      dup1\n      swap2\n      sub\n      swap1\n      log1\n        /* \"https://github.com/OpenZeppelin/openzeppelin-contracts/blob/master/contracts/access/Ownable.sol\":1554:1555  _ */\n      pop\n      pop\n        /* \"2. Solidity/Projet1/Voting.sol\":2671:2834  function startVotingSession() external ... */\n      jump\t// out\n        /* \"https://github.com/OpenZeppelin/openzeppelin-contracts/blob/master/contracts/access/Ownable.sol\":2543:2758  function transferOwnership(address newOwner) public virtual onlyOwner {... */\n    tag_69:\n        /* \"https://github.com/OpenZeppelin/openzeppelin-contracts/blob/master/contracts/access/Ownable.sol\":1531:1544  _checkOwner() */\n      tag_235\n        /* \"https://github.com/OpenZeppelin/openzeppelin-contracts/blob/master/contracts/access/Ownable.sol\":1531:1542  _checkOwner */\n      tag_107\n        /* \"https://github.com/OpenZeppelin/openzeppelin-contracts/blob/master/contracts/access/Ownable.sol\":1531:1544  _checkOwner() */\n      jump\t// in\n    tag_235:\n        /* \"https://github.com/OpenZeppelin/openzeppelin-contracts/blob/master/contracts/access/Ownable.sol\":2647:2648  0 */\n      0x00\n        /* \"https://github.com/OpenZeppelin/openzeppelin-contracts/blob/master/contracts/access/Ownable.sol\":2627:2649  newOwner == address(0) */\n      0xffffffffffffffffffffffffffffffffffffffff\n      and\n        /* \"https://github.com/OpenZeppelin/openzeppelin-contracts/blob/master/contracts/access/Ownable.sol\":2627:2635  newOwner */\n      dup2\n        /* \"https://github.com/OpenZeppelin/openzeppelin-contracts/blob/master/contracts/access/Ownable.sol\":2627:2649  newOwner == address(0) */\n      0xffffffffffffffffffffffffffffffffffffffff\n      and\n      sub\n        /* \"https://github.com/OpenZeppelin/openzeppelin-contracts/blob/master/contracts/access/Ownable.sol\":2623:2714  if (newOwner == address(0)) {... */\n      tag_237\n      jumpi\n        /* \"https://github.com/OpenZeppelin/openzeppelin-contracts/blob/master/contracts/access/Ownable.sol\":2700:2701  0 */\n      0x00\n        /* \"https://github.com/OpenZeppelin/openzeppelin-contracts/blob/master/contracts/access/Ownable.sol\":2672:2703  OwnableInvalidOwner(address(0)) */\n      mload(0x40)\n      0x1e4fbdf700000000000000000000000000000000000000000000000000000000\n      dup2\n      mstore\n      0x04\n      add\n      tag_238\n      swap2\n      swap1\n      tag_57\n      jump\t// in\n    tag_238:\n      mload(0x40)\n      dup1\n      swap2\n      sub\n      swap1\n      revert\n        /* \"https://github.com/OpenZeppelin/openzeppelin-contracts/blob/master/contracts/access/Ownable.sol\":2623:2714  if (newOwner == address(0)) {... */\n    tag_237:\n        /* \"https://github.com/OpenZeppelin/openzeppelin-contracts/blob/master/contracts/access/Ownable.sol\":2723:2751  _transferOwnership(newOwner) */\n      tag_239\n        /* \"https://github.com/OpenZeppelin/openzeppelin-contracts/blob/master/contracts/access/Ownable.sol\":2742:2750  newOwner */\n      dup2\n        /* \"https://github.com/OpenZeppelin/openzeppelin-contracts/blob/master/contracts/access/Ownable.sol\":2723:2741  _transferOwnership */\n      tag_166\n        /* \"https://github.com/OpenZeppelin/openzeppelin-contracts/blob/master/contracts/access/Ownable.sol\":2723:2751  _transferOwnership(newOwner) */\n      jump\t// in\n    tag_239:\n        /* \"https://github.com/OpenZeppelin/openzeppelin-contracts/blob/master/contracts/access/Ownable.sol\":2543:2758  function transferOwnership(address newOwner) public virtual onlyOwner {... */\n      pop\n      jump\t// out\n        /* \"https://github.com/OpenZeppelin/openzeppelin-contracts/blob/master/contracts/access/Ownable.sol\":1796:1958  function _checkOwner() internal view virtual {... */\n    tag_107:\n        /* \"https://github.com/OpenZeppelin/openzeppelin-contracts/blob/master/contracts/access/Ownable.sol\":1866:1878  _msgSender() */\n      tag_241\n        /* \"https://github.com/OpenZeppelin/openzeppelin-contracts/blob/master/contracts/access/Ownable.sol\":1866:1876  _msgSender */\n      tag_242\n        /* \"https://github.com/OpenZeppelin/openzeppelin-contracts/blob/master/contracts/access/Ownable.sol\":1866:1878  _msgSender() */\n      jump\t// in\n    tag_241:\n        /* \"https://github.com/OpenZeppelin/openzeppelin-contracts/blob/master/contracts/access/Ownable.sol\":1855:1878  owner() != _msgSender() */\n      0xffffffffffffffffffffffffffffffffffffffff\n      and\n        /* \"https://github.com/OpenZeppelin/openzeppelin-contracts/blob/master/contracts/access/Ownable.sol\":1855:1862  owner() */\n      tag_243\n        /* \"https://github.com/OpenZeppelin/openzeppelin-contracts/blob/master/contracts/access/Ownable.sol\":1855:1860  owner */\n      tag_55\n        /* \"https://github.com/OpenZeppelin/openzeppelin-contracts/blob/master/contracts/access/Ownable.sol\":1855:1862  owner() */\n      jump\t// in\n    tag_243:\n        /* \"https://github.com/OpenZeppelin/openzeppelin-contracts/blob/master/contracts/access/Ownable.sol\":1855:1878  owner() != _msgSender() */\n      0xffffffffffffffffffffffffffffffffffffffff\n      and\n      eq\n        /* \"https://github.com/OpenZeppelin/openzeppelin-contracts/blob/master/contracts/access/Ownable.sol\":1851:1952  if (owner() != _msgSender()) {... */\n      tag_244\n      jumpi\n        /* \"https://github.com/OpenZeppelin/openzeppelin-contracts/blob/master/contracts/access/Ownable.sol\":1928:1940  _msgSender() */\n      tag_245\n        /* \"https://github.com/OpenZeppelin/openzeppelin-contracts/blob/master/contracts/access/Ownable.sol\":1928:1938  _msgSender */\n      tag_242\n        /* \"https://github.com/OpenZeppelin/openzeppelin-contracts/blob/master/contracts/access/Ownable.sol\":1928:1940  _msgSender() */\n      jump\t// in\n    tag_245:\n        /* \"https://github.com/OpenZeppelin/openzeppelin-contracts/blob/master/contracts/access/Ownable.sol\":1901:1941  OwnableUnauthorizedAccount(_msgSender()) */\n      mload(0x40)\n      0x118cdaa700000000000000000000000000000000000000000000000000000000\n      dup2\n      mstore\n      0x04\n      add\n      tag_246\n      swap2\n      swap1\n      tag_57\n      jump\t// in\n    tag_246:\n      mload(0x40)\n      dup1\n      swap2\n      sub\n      swap1\n      revert\n        /* \"https://github.com/OpenZeppelin/openzeppelin-contracts/blob/master/contracts/access/Ownable.sol\":1851:1952  if (owner() != _msgSender()) {... */\n    tag_244:\n        /* \"https://github.com/OpenZeppelin/openzeppelin-contracts/blob/master/contracts/access/Ownable.sol\":1796:1958  function _checkOwner() internal view virtual {... */\n      jump\t// out\n        /* \"https://github.com/OpenZeppelin/openzeppelin-contracts/blob/master/contracts/access/Ownable.sol\":2912:3099  function _transferOwnership(address newOwner) internal virtual {... */\n    tag_166:\n        /* \"https://github.com/OpenZeppelin/openzeppelin-contracts/blob/master/contracts/access/Ownable.sol\":2985:3001  address oldOwner */\n      0x00\n        /* \"https://github.com/OpenZeppelin/openzeppelin-contracts/blob/master/contracts/access/Ownable.sol\":3004:3010  _owner */\n      0x00\n      0x00\n      swap1\n      sload\n      swap1\n      0x0100\n      exp\n      swap1\n      div\n      0xffffffffffffffffffffffffffffffffffffffff\n      and\n        /* \"https://github.com/OpenZeppelin/openzeppelin-contracts/blob/master/contracts/access/Ownable.sol\":2985:3010  address oldOwner = _owner */\n      swap1\n      pop\n        /* \"https://github.com/OpenZeppelin/openzeppelin-contracts/blob/master/contracts/access/Ownable.sol\":3029:3037  newOwner */\n      dup2\n        /* \"https://github.com/OpenZeppelin/openzeppelin-contracts/blob/master/contracts/access/Ownable.sol\":3020:3026  _owner */\n      0x00\n      0x00\n        /* \"https://github.com/OpenZeppelin/openzeppelin-contracts/blob/master/contracts/access/Ownable.sol\":3020:3037  _owner = newOwner */\n      0x0100\n      exp\n      dup2\n      sload\n      dup2\n      0xffffffffffffffffffffffffffffffffffffffff\n      mul\n      not\n      and\n      swap1\n      dup4\n      0xffffffffffffffffffffffffffffffffffffffff\n      and\n      mul\n      or\n      swap1\n      sstore\n      pop\n        /* \"https://github.com/OpenZeppelin/openzeppelin-contracts/blob/master/contracts/access/Ownable.sol\":3083:3091  newOwner */\n      dup2\n        /* \"https://github.com/OpenZeppelin/openzeppelin-contracts/blob/master/contracts/access/Ownable.sol\":3052:3092  OwnershipTransferred(oldOwner, newOwner) */\n      0xffffffffffffffffffffffffffffffffffffffff\n      and\n        /* \"https://github.com/OpenZeppelin/openzeppelin-contracts/blob/master/contracts/access/Ownable.sol\":3073:3081  oldOwner */\n      dup2\n        /* \"https://github.com/OpenZeppelin/openzeppelin-contracts/blob/master/contracts/access/Ownable.sol\":3052:3092  OwnershipTransferred(oldOwner, newOwner) */\n      0xffffffffffffffffffffffffffffffffffffffff\n      and\n      0x8be0079c531659141344cd1fd0a4f28419497f9722a3daafe3b4186f6b6457e0\n      mload(0x40)\n      mload(0x40)\n      dup1\n      swap2\n      sub\n      swap1\n      log3\n        /* \"https://github.com/OpenZeppelin/openzeppelin-contracts/blob/master/contracts/access/Ownable.sol\":2975:3099  {... */\n      pop\n        /* \"https://github.com/OpenZeppelin/openzeppelin-contracts/blob/master/contracts/access/Ownable.sol\":2912:3099  function _transferOwnership(address newOwner) internal virtual {... */\n      pop\n      jump\t// out\n        /* \"https://github.com/OpenZeppelin/openzeppelin-contracts/blob/master/contracts/utils/Context.sol\":656:752  function _msgSender() internal view virtual returns (address) {... */\n    tag_242:\n        /* \"https://github.com/OpenZeppelin/openzeppelin-contracts/blob/master/contracts/utils/Context.sol\":709:716  address */\n      0x00\n        /* \"https://github.com/OpenZeppelin/openzeppelin-contracts/blob/master/contracts/utils/Context.sol\":735:745  msg.sender */\n      caller\n        /* \"https://github.com/OpenZeppelin/openzeppelin-contracts/blob/master/contracts/utils/Context.sol\":728:745  return msg.sender */\n      swap1\n      pop\n        /* \"https://github.com/OpenZeppelin/openzeppelin-contracts/blob/master/contracts/utils/Context.sol\":656:752  function _msgSender() internal view virtual returns (address) {... */\n      swap1\n      jump\t// out\n        /* \"#utility.yul\":88:205   */\n    tag_250:\n        /* \"#utility.yul\":197:198   */\n      0x00\n        /* \"#utility.yul\":194:195   */\n      0x00\n        /* \"#utility.yul\":187:199   */\n      revert\n        /* \"#utility.yul\":211:328   */\n    tag_251:\n        /* \"#utility.yul\":320:321   */\n      0x00\n        /* \"#utility.yul\":317:318   */\n      0x00\n        /* \"#utility.yul\":310:322   */\n      revert\n        /* \"#utility.yul\":334:411   */\n    tag_252:\n        /* \"#utility.yul\":371:378   */\n      0x00\n        /* \"#utility.yul\":400:405   */\n      dup2\n        /* \"#utility.yul\":389:405   */\n      swap1\n      pop\n        /* \"#utility.yul\":334:411   */\n      swap2\n      swap1\n      pop\n      jump\t// out\n        /* \"#utility.yul\":417:539   */\n    tag_253:\n        /* \"#utility.yul\":490:514   */\n      tag_307\n        /* \"#utility.yul\":508:513   */\n      dup2\n        /* \"#utility.yul\":490:514   */\n      tag_252\n      jump\t// in\n    tag_307:\n        /* \"#utility.yul\":483:488   */\n      dup2\n        /* \"#utility.yul\":480:515   */\n      eq\n        /* \"#utility.yul\":470:533   */\n      tag_308\n      jumpi\n        /* \"#utility.yul\":529:530   */\n      0x00\n        /* \"#utility.yul\":526:527   */\n      0x00\n        /* \"#utility.yul\":519:531   */\n      revert\n        /* \"#utility.yul\":470:533   */\n    tag_308:\n        /* \"#utility.yul\":417:539   */\n      pop\n      jump\t// out\n        /* \"#utility.yul\":545:684   */\n    tag_254:\n        /* \"#utility.yul\":591:596   */\n      0x00\n        /* \"#utility.yul\":629:635   */\n      dup2\n        /* \"#utility.yul\":616:636   */\n      calldataload\n        /* \"#utility.yul\":607:636   */\n      swap1\n      pop\n        /* \"#utility.yul\":645:678   */\n      tag_310\n        /* \"#utility.yul\":672:677   */\n      dup2\n        /* \"#utility.yul\":645:678   */\n      tag_253\n      jump\t// in\n    tag_310:\n        /* \"#utility.yul\":545:684   */\n      swap3\n      swap2\n      pop\n      pop\n      jump\t// out\n        /* \"#utility.yul\":690:1019   */\n    tag_23:\n        /* \"#utility.yul\":749:755   */\n      0x00\n        /* \"#utility.yul\":798:800   */\n      0x20\n        /* \"#utility.yul\":786:795   */\n      dup3\n        /* \"#utility.yul\":777:784   */\n      dup5\n        /* \"#utility.yul\":773:796   */\n      sub\n        /* \"#utility.yul\":769:801   */\n      slt\n        /* \"#utility.yul\":766:885   */\n      iszero\n      tag_312\n      jumpi\n        /* \"#utility.yul\":804:883   */\n      tag_313\n      tag_250\n      jump\t// in\n    tag_313:\n        /* \"#utility.yul\":766:885   */\n    tag_312:\n        /* \"#utility.yul\":924:925   */\n      0x00\n        /* \"#utility.yul\":949:1002   */\n      tag_314\n        /* \"#utility.yul\":994:1001   */\n      dup5\n        /* \"#utility.yul\":985:991   */\n      dup3\n        /* \"#utility.yul\":974:983   */\n      dup6\n        /* \"#utility.yul\":970:992   */\n      add\n        /* \"#utility.yul\":949:1002   */\n      tag_254\n      jump\t// in\n    tag_314:\n        /* \"#utility.yul\":939:1002   */\n      swap2\n      pop\n        /* \"#utility.yul\":895:1012   */\n      pop\n        /* \"#utility.yul\":690:1019   */\n      swap3\n      swap2\n      pop\n      pop\n      jump\t// out\n        /* \"#utility.yul\":1025:1124   */\n    tag_255:\n        /* \"#utility.yul\":1077:1083   */\n      0x00\n        /* \"#utility.yul\":1111:1116   */\n      dup2\n        /* \"#utility.yul\":1105:1117   */\n      mload\n        /* \"#utility.yul\":1095:1117   */\n      swap1\n      pop\n        /* \"#utility.yul\":1025:1124   */\n      swap2\n      swap1\n      pop\n      jump\t// out\n        /* \"#utility.yul\":1130:1299   */\n    tag_256:\n        /* \"#utility.yul\":1214:1225   */\n      0x00\n        /* \"#utility.yul\":1248:1254   */\n      dup3\n        /* \"#utility.yul\":1243:1246   */\n      dup3\n        /* \"#utility.yul\":1236:1255   */\n      mstore\n        /* \"#utility.yul\":1288:1292   */\n      0x20\n        /* \"#utility.yul\":1283:1286   */\n      dup3\n        /* \"#utility.yul\":1279:1293   */\n      add\n        /* \"#utility.yul\":1264:1293   */\n      swap1\n      pop\n        /* \"#utility.yul\":1130:1299   */\n      swap3\n      swap2\n      pop\n      pop\n      jump\t// out\n        /* \"#utility.yul\":1305:1444   */\n    tag_257:\n        /* \"#utility.yul\":1394:1400   */\n      dup3\n        /* \"#utility.yul\":1389:1392   */\n      dup2\n        /* \"#utility.yul\":1384:1387   */\n      dup4\n        /* \"#utility.yul\":1378:1401   */\n      mcopy\n        /* \"#utility.yul\":1435:1436   */\n      0x00\n        /* \"#utility.yul\":1426:1432   */\n      dup4\n        /* \"#utility.yul\":1421:1424   */\n      dup4\n        /* \"#utility.yul\":1417:1433   */\n      add\n        /* \"#utility.yul\":1410:1437   */\n      mstore\n        /* \"#utility.yul\":1305:1444   */\n      pop\n      pop\n      pop\n      jump\t// out\n        /* \"#utility.yul\":1450:1552   */\n    tag_258:\n        /* \"#utility.yul\":1491:1497   */\n      0x00\n        /* \"#utility.yul\":1542:1544   */\n      0x1f\n        /* \"#utility.yul\":1538:1545   */\n      not\n        /* \"#utility.yul\":1533:1535   */\n      0x1f\n        /* \"#utility.yul\":1526:1531   */\n      dup4\n        /* \"#utility.yul\":1522:1536   */\n      add\n        /* \"#utility.yul\":1518:1546   */\n      and\n        /* \"#utility.yul\":1508:1546   */\n      swap1\n      pop\n        /* \"#utility.yul\":1450:1552   */\n      swap2\n      swap1\n      pop\n      jump\t// out\n        /* \"#utility.yul\":1558:1935   */\n    tag_259:\n        /* \"#utility.yul\":1646:1649   */\n      0x00\n        /* \"#utility.yul\":1674:1713   */\n      tag_320\n        /* \"#utility.yul\":1707:1712   */\n      dup3\n        /* \"#utility.yul\":1674:1713   */\n      tag_255\n      jump\t// in\n    tag_320:\n        /* \"#utility.yul\":1729:1800   */\n      tag_321\n        /* \"#utility.yul\":1793:1799   */\n      dup2\n        /* \"#utility.yul\":1788:1791   */\n      dup6\n        /* \"#utility.yul\":1729:1800   */\n      tag_256\n      jump\t// in\n    tag_321:\n        /* \"#utility.yul\":1722:1800   */\n      swap4\n      pop\n        /* \"#utility.yul\":1809:1874   */\n      tag_322\n        /* \"#utility.yul\":1867:1873   */\n      dup2\n        /* \"#utility.yul\":1862:1865   */\n      dup6\n        /* \"#utility.yul\":1855:1859   */\n      0x20\n        /* \"#utility.yul\":1848:1853   */\n      dup7\n        /* \"#utility.yul\":1844:1860   */\n      add\n        /* \"#utility.yul\":1809:1874   */\n      tag_257\n      jump\t// in\n    tag_322:\n        /* \"#utility.yul\":1899:1928   */\n      tag_323\n        /* \"#utility.yul\":1921:1927   */\n      dup2\n        /* \"#utility.yul\":1899:1928   */\n      tag_258\n      jump\t// in\n    tag_323:\n        /* \"#utility.yul\":1894:1897   */\n      dup5\n        /* \"#utility.yul\":1890:1929   */\n      add\n        /* \"#utility.yul\":1883:1929   */\n      swap2\n      pop\n        /* \"#utility.yul\":1650:1935   */\n      pop\n        /* \"#utility.yul\":1558:1935   */\n      swap3\n      swap2\n      pop\n      pop\n      jump\t// out\n        /* \"#utility.yul\":1941:2059   */\n    tag_260:\n        /* \"#utility.yul\":2028:2052   */\n      tag_325\n        /* \"#utility.yul\":2046:2051   */\n      dup2\n        /* \"#utility.yul\":2028:2052   */\n      tag_252\n      jump\t// in\n    tag_325:\n        /* \"#utility.yul\":2023:2026   */\n      dup3\n        /* \"#utility.yul\":2016:2053   */\n      mstore\n        /* \"#utility.yul\":1941:2059   */\n      pop\n      pop\n      jump\t// out\n        /* \"#utility.yul\":2065:2488   */\n    tag_29:\n        /* \"#utility.yul\":2206:2210   */\n      0x00\n        /* \"#utility.yul\":2244:2246   */\n      0x40\n        /* \"#utility.yul\":2233:2242   */\n      dup3\n        /* \"#utility.yul\":2229:2247   */\n      add\n        /* \"#utility.yul\":2221:2247   */\n      swap1\n      pop\n        /* \"#utility.yul\":2293:2302   */\n      dup2\n        /* \"#utility.yul\":2287:2291   */\n      dup2\n        /* \"#utility.yul\":2283:2303   */\n      sub\n        /* \"#utility.yul\":2279:2280   */\n      0x00\n        /* \"#utility.yul\":2268:2277   */\n      dup4\n        /* \"#utility.yul\":2264:2281   */\n      add\n        /* \"#utility.yul\":2257:2304   */\n      mstore\n        /* \"#utility.yul\":2321:2399   */\n      tag_327\n        /* \"#utility.yul\":2394:2398   */\n      dup2\n        /* \"#utility.yul\":2385:2391   */\n      dup6\n        /* \"#utility.yul\":2321:2399   */\n      tag_259\n      jump\t// in\n    tag_327:\n        /* \"#utility.yul\":2313:2399   */\n      swap1\n      pop\n        /* \"#utility.yul\":2409:2481   */\n      tag_328\n        /* \"#utility.yul\":2477:2479   */\n      0x20\n        /* \"#utility.yul\":2466:2475   */\n      dup4\n        /* \"#utility.yul\":2462:2480   */\n      add\n        /* \"#utility.yul\":2453:2459   */\n      dup5\n        /* \"#utility.yul\":2409:2481   */\n      tag_260\n      jump\t// in\n    tag_328:\n        /* \"#utility.yul\":2065:2488   */\n      swap4\n      swap3\n      pop\n      pop\n      pop\n      jump\t// out\n        /* \"#utility.yul\":2494:2674   */\n    tag_76:\n        /* \"#utility.yul\":2542:2619   */\n      0x4e487b7100000000000000000000000000000000000000000000000000000000\n        /* \"#utility.yul\":2539:2540   */\n      0x00\n        /* \"#utility.yul\":2532:2620   */\n      mstore\n        /* \"#utility.yul\":2639:2643   */\n      0x21\n        /* \"#utility.yul\":2636:2637   */\n      0x04\n        /* \"#utility.yul\":2629:2644   */\n      mstore\n        /* \"#utility.yul\":2663:2667   */\n      0x24\n        /* \"#utility.yul\":2660:2661   */\n      0x00\n        /* \"#utility.yul\":2653:2668   */\n      revert\n        /* \"#utility.yul\":2680:2802   */\n    tag_261:\n        /* \"#utility.yul\":2770:2771   */\n      0x06\n        /* \"#utility.yul\":2763:2768   */\n      dup2\n        /* \"#utility.yul\":2760:2772   */\n      lt\n        /* \"#utility.yul\":2750:2796   */\n      tag_331\n      jumpi\n        /* \"#utility.yul\":2776:2794   */\n      tag_332\n      tag_76\n      jump\t// in\n    tag_332:\n        /* \"#utility.yul\":2750:2796   */\n    tag_331:\n        /* \"#utility.yul\":2680:2802   */\n      pop\n      jump\t// out\n        /* \"#utility.yul\":2808:2953   */\n    tag_262:\n        /* \"#utility.yul\":2862:2869   */\n      0x00\n        /* \"#utility.yul\":2891:2896   */\n      dup2\n        /* \"#utility.yul\":2880:2896   */\n      swap1\n      pop\n        /* \"#utility.yul\":2897:2947   */\n      tag_334\n        /* \"#utility.yul\":2941:2946   */\n      dup3\n        /* \"#utility.yul\":2897:2947   */\n      tag_261\n      jump\t// in\n    tag_334:\n        /* \"#utility.yul\":2808:2953   */\n      swap2\n      swap1\n      pop\n      jump\t// out\n        /* \"#utility.yul\":2959:3104   */\n    tag_263:\n        /* \"#utility.yul\":3024:3033   */\n      0x00\n        /* \"#utility.yul\":3057:3098   */\n      tag_336\n        /* \"#utility.yul\":3092:3097   */\n      dup3\n        /* \"#utility.yul\":3057:3098   */\n      tag_262\n      jump\t// in\n    tag_336:\n        /* \"#utility.yul\":3044:3098   */\n      swap1\n      pop\n        /* \"#utility.yul\":2959:3104   */\n      swap2\n      swap1\n      pop\n      jump\t// out\n        /* \"#utility.yul\":3110:3271   */\n    tag_264:\n        /* \"#utility.yul\":3212:3264   */\n      tag_338\n        /* \"#utility.yul\":3258:3263   */\n      dup2\n        /* \"#utility.yul\":3212:3264   */\n      tag_263\n      jump\t// in\n    tag_338:\n        /* \"#utility.yul\":3207:3210   */\n      dup3\n        /* \"#utility.yul\":3200:3265   */\n      mstore\n        /* \"#utility.yul\":3110:3271   */\n      pop\n      pop\n      jump\t// out\n        /* \"#utility.yul\":3277:3529   */\n    tag_35:\n        /* \"#utility.yul\":3385:3389   */\n      0x00\n        /* \"#utility.yul\":3423:3425   */\n      0x20\n        /* \"#utility.yul\":3412:3421   */\n      dup3\n        /* \"#utility.yul\":3408:3426   */\n      add\n        /* \"#utility.yul\":3400:3426   */\n      swap1\n      pop\n        /* \"#utility.yul\":3436:3522   */\n      tag_340\n        /* \"#utility.yul\":3519:3520   */\n      0x00\n        /* \"#utility.yul\":3508:3517   */\n      dup4\n        /* \"#utility.yul\":3504:3521   */\n      add\n        /* \"#utility.yul\":3495:3501   */\n      dup5\n        /* \"#utility.yul\":3436:3522   */\n      tag_264\n      jump\t// in\n    tag_340:\n        /* \"#utility.yul\":3277:3529   */\n      swap3\n      swap2\n      pop\n      pop\n      jump\t// out\n        /* \"#utility.yul\":3535:3652   */\n    tag_265:\n        /* \"#utility.yul\":3644:3645   */\n      0x00\n        /* \"#utility.yul\":3641:3642   */\n      0x00\n        /* \"#utility.yul\":3634:3646   */\n      revert\n        /* \"#utility.yul\":3658:3775   */\n    tag_266:\n        /* \"#utility.yul\":3767:3768   */\n      0x00\n        /* \"#utility.yul\":3764:3765   */\n      0x00\n        /* \"#utility.yul\":3757:3769   */\n      revert\n        /* \"#utility.yul\":3781:3898   */\n    tag_267:\n        /* \"#utility.yul\":3890:3891   */\n      0x00\n        /* \"#utility.yul\":3887:3888   */\n      0x00\n        /* \"#utility.yul\":3880:3892   */\n      revert\n        /* \"#utility.yul\":3918:4471   */\n    tag_268:\n        /* \"#utility.yul\":3976:3984   */\n      0x00\n        /* \"#utility.yul\":3986:3992   */\n      0x00\n        /* \"#utility.yul\":4036:4039   */\n      dup4\n        /* \"#utility.yul\":4029:4033   */\n      0x1f\n        /* \"#utility.yul\":4021:4027   */\n      dup5\n        /* \"#utility.yul\":4017:4034   */\n      add\n        /* \"#utility.yul\":4013:4040   */\n      slt\n        /* \"#utility.yul\":4003:4125   */\n      tag_345\n      jumpi\n        /* \"#utility.yul\":4044:4123   */\n      tag_346\n      tag_265\n      jump\t// in\n    tag_346:\n        /* \"#utility.yul\":4003:4125   */\n    tag_345:\n        /* \"#utility.yul\":4157:4163   */\n      dup3\n        /* \"#utility.yul\":4144:4164   */\n      calldataload\n        /* \"#utility.yul\":4134:4164   */\n      swap1\n      pop\n        /* \"#utility.yul\":4187:4205   */\n      0xffffffffffffffff\n        /* \"#utility.yul\":4179:4185   */\n      dup2\n        /* \"#utility.yul\":4176:4206   */\n      gt\n        /* \"#utility.yul\":4173:4290   */\n      iszero\n      tag_347\n      jumpi\n        /* \"#utility.yul\":4209:4288   */\n      tag_348\n      tag_266\n      jump\t// in\n    tag_348:\n        /* \"#utility.yul\":4173:4290   */\n    tag_347:\n        /* \"#utility.yul\":4323:4327   */\n      0x20\n        /* \"#utility.yul\":4315:4321   */\n      dup4\n        /* \"#utility.yul\":4311:4328   */\n      add\n        /* \"#utility.yul\":4299:4328   */\n      swap2\n      pop\n        /* \"#utility.yul\":4377:4380   */\n      dup4\n        /* \"#utility.yul\":4369:4373   */\n      0x01\n        /* \"#utility.yul\":4361:4367   */\n      dup3\n        /* \"#utility.yul\":4357:4374   */\n      mul\n        /* \"#utility.yul\":4347:4355   */\n      dup4\n        /* \"#utility.yul\":4343:4375   */\n      add\n        /* \"#utility.yul\":4340:4381   */\n      gt\n        /* \"#utility.yul\":4337:4465   */\n      iszero\n      tag_349\n      jumpi\n        /* \"#utility.yul\":4384:4463   */\n      tag_350\n      tag_267\n      jump\t// in\n    tag_350:\n        /* \"#utility.yul\":4337:4465   */\n    tag_349:\n        /* \"#utility.yul\":3918:4471   */\n      swap3\n      pop\n      swap3\n      swap1\n      pop\n      jump\t// out\n        /* \"#utility.yul\":4477:5006   */\n    tag_38:\n        /* \"#utility.yul\":4548:4554   */\n      0x00\n        /* \"#utility.yul\":4556:4562   */\n      0x00\n        /* \"#utility.yul\":4605:4607   */\n      0x20\n        /* \"#utility.yul\":4593:4602   */\n      dup4\n        /* \"#utility.yul\":4584:4591   */\n      dup6\n        /* \"#utility.yul\":4580:4603   */\n      sub\n        /* \"#utility.yul\":4576:4608   */\n      slt\n        /* \"#utility.yul\":4573:4692   */\n      iszero\n      tag_352\n      jumpi\n        /* \"#utility.yul\":4611:4690   */\n      tag_353\n      tag_250\n      jump\t// in\n    tag_353:\n        /* \"#utility.yul\":4573:4692   */\n    tag_352:\n        /* \"#utility.yul\":4759:4760   */\n      0x00\n        /* \"#utility.yul\":4748:4757   */\n      dup4\n        /* \"#utility.yul\":4744:4761   */\n      add\n        /* \"#utility.yul\":4731:4762   */\n      calldataload\n        /* \"#utility.yul\":4789:4807   */\n      0xffffffffffffffff\n        /* \"#utility.yul\":4781:4787   */\n      dup2\n        /* \"#utility.yul\":4778:4808   */\n      gt\n        /* \"#utility.yul\":4775:4892   */\n      iszero\n      tag_354\n      jumpi\n        /* \"#utility.yul\":4811:4890   */\n      tag_355\n      tag_251\n      jump\t// in\n    tag_355:\n        /* \"#utility.yul\":4775:4892   */\n    tag_354:\n        /* \"#utility.yul\":4924:4989   */\n      tag_356\n        /* \"#utility.yul\":4981:4988   */\n      dup6\n        /* \"#utility.yul\":4972:4978   */\n      dup3\n        /* \"#utility.yul\":4961:4970   */\n      dup7\n        /* \"#utility.yul\":4957:4979   */\n      add\n        /* \"#utility.yul\":4924:4989   */\n      tag_268\n      jump\t// in\n    tag_356:\n        /* \"#utility.yul\":4906:4989   */\n      swap3\n      pop\n      swap3\n      pop\n        /* \"#utility.yul\":4702:4999   */\n      pop\n        /* \"#utility.yul\":4477:5006   */\n      swap3\n      pop\n      swap3\n      swap1\n      pop\n      jump\t// out\n        /* \"#utility.yul\":5029:5597   */\n    tag_269:\n        /* \"#utility.yul\":5102:5110   */\n      0x00\n        /* \"#utility.yul\":5112:5118   */\n      0x00\n        /* \"#utility.yul\":5162:5165   */\n      dup4\n        /* \"#utility.yul\":5155:5159   */\n      0x1f\n        /* \"#utility.yul\":5147:5153   */\n      dup5\n        /* \"#utility.yul\":5143:5160   */\n      add\n        /* \"#utility.yul\":5139:5166   */\n      slt\n        /* \"#utility.yul\":5129:5251   */\n      tag_358\n      jumpi\n        /* \"#utility.yul\":5170:5249   */\n      tag_359\n      tag_265\n      jump\t// in\n    tag_359:\n        /* \"#utility.yul\":5129:5251   */\n    tag_358:\n        /* \"#utility.yul\":5283:5289   */\n      dup3\n        /* \"#utility.yul\":5270:5290   */\n      calldataload\n        /* \"#utility.yul\":5260:5290   */\n      swap1\n      pop\n        /* \"#utility.yul\":5313:5331   */\n      0xffffffffffffffff\n        /* \"#utility.yul\":5305:5311   */\n      dup2\n        /* \"#utility.yul\":5302:5332   */\n      gt\n        /* \"#utility.yul\":5299:5416   */\n      iszero\n      tag_360\n      jumpi\n        /* \"#utility.yul\":5335:5414   */\n      tag_361\n      tag_266\n      jump\t// in\n    tag_361:\n        /* \"#utility.yul\":5299:5416   */\n    tag_360:\n        /* \"#utility.yul\":5449:5453   */\n      0x20\n        /* \"#utility.yul\":5441:5447   */\n      dup4\n        /* \"#utility.yul\":5437:5454   */\n      add\n        /* \"#utility.yul\":5425:5454   */\n      swap2\n      pop\n        /* \"#utility.yul\":5503:5506   */\n      dup4\n        /* \"#utility.yul\":5495:5499   */\n      0x20\n        /* \"#utility.yul\":5487:5493   */\n      dup3\n        /* \"#utility.yul\":5483:5500   */\n      mul\n        /* \"#utility.yul\":5473:5481   */\n      dup4\n        /* \"#utility.yul\":5469:5501   */\n      add\n        /* \"#utility.yul\":5466:5507   */\n      gt\n        /* \"#utility.yul\":5463:5591   */\n      iszero\n      tag_362\n      jumpi\n        /* \"#utility.yul\":5510:5589   */\n      tag_363\n      tag_267\n      jump\t// in\n    tag_363:\n        /* \"#utility.yul\":5463:5591   */\n    tag_362:\n        /* \"#utility.yul\":5029:5597   */\n      swap3\n      pop\n      swap3\n      swap1\n      pop\n      jump\t// out\n        /* \"#utility.yul\":5603:6162   */\n    tag_46:\n        /* \"#utility.yul\":5689:5695   */\n      0x00\n        /* \"#utility.yul\":5697:5703   */\n      0x00\n        /* \"#utility.yul\":5746:5748   */\n      0x20\n        /* \"#utility.yul\":5734:5743   */\n      dup4\n        /* \"#utility.yul\":5725:5732   */\n      dup6\n        /* \"#utility.yul\":5721:5744   */\n      sub\n        /* \"#utility.yul\":5717:5749   */\n      slt\n        /* \"#utility.yul\":5714:5833   */\n      iszero\n      tag_365\n      jumpi\n        /* \"#utility.yul\":5752:5831   */\n      tag_366\n      tag_250\n      jump\t// in\n    tag_366:\n        /* \"#utility.yul\":5714:5833   */\n    tag_365:\n        /* \"#utility.yul\":5900:5901   */\n      0x00\n        /* \"#utility.yul\":5889:5898   */\n      dup4\n        /* \"#utility.yul\":5885:5902   */\n      add\n        /* \"#utility.yul\":5872:5903   */\n      calldataload\n        /* \"#utility.yul\":5930:5948   */\n      0xffffffffffffffff\n        /* \"#utility.yul\":5922:5928   */\n      dup2\n        /* \"#utility.yul\":5919:5949   */\n      gt\n        /* \"#utility.yul\":5916:6033   */\n      iszero\n      tag_367\n      jumpi\n        /* \"#utility.yul\":5952:6031   */\n      tag_368\n      tag_251\n      jump\t// in\n    tag_368:\n        /* \"#utility.yul\":5916:6033   */\n    tag_367:\n        /* \"#utility.yul\":6065:6145   */\n      tag_369\n        /* \"#utility.yul\":6137:6144   */\n      dup6\n        /* \"#utility.yul\":6128:6134   */\n      dup3\n        /* \"#utility.yul\":6117:6126   */\n      dup7\n        /* \"#utility.yul\":6113:6135   */\n      add\n        /* \"#utility.yul\":6065:6145   */\n      tag_269\n      jump\t// in\n    tag_369:\n        /* \"#utility.yul\":6047:6145   */\n      swap3\n      pop\n      swap3\n      pop\n        /* \"#utility.yul\":5843:6155   */\n      pop\n        /* \"#utility.yul\":5603:6162   */\n      swap3\n      pop\n      swap3\n      swap1\n      pop\n      jump\t// out\n        /* \"#utility.yul\":6168:6294   */\n    tag_270:\n        /* \"#utility.yul\":6205:6212   */\n      0x00\n        /* \"#utility.yul\":6245:6287   */\n      0xffffffffffffffffffffffffffffffffffffffff\n        /* \"#utility.yul\":6238:6243   */\n      dup3\n        /* \"#utility.yul\":6234:6288   */\n      and\n        /* \"#utility.yul\":6223:6288   */\n      swap1\n      pop\n        /* \"#utility.yul\":6168:6294   */\n      swap2\n      swap1\n      pop\n      jump\t// out\n        /* \"#utility.yul\":6300:6396   */\n    tag_271:\n        /* \"#utility.yul\":6337:6344   */\n      0x00\n        /* \"#utility.yul\":6366:6390   */\n      tag_372\n        /* \"#utility.yul\":6384:6389   */\n      dup3\n        /* \"#utility.yul\":6366:6390   */\n      tag_270\n      jump\t// in\n    tag_372:\n        /* \"#utility.yul\":6355:6390   */\n      swap1\n      pop\n        /* \"#utility.yul\":6300:6396   */\n      swap2\n      swap1\n      pop\n      jump\t// out\n        /* \"#utility.yul\":6402:6524   */\n    tag_272:\n        /* \"#utility.yul\":6475:6499   */\n      tag_374\n        /* \"#utility.yul\":6493:6498   */\n      dup2\n        /* \"#utility.yul\":6475:6499   */\n      tag_271\n      jump\t// in\n    tag_374:\n        /* \"#utility.yul\":6468:6473   */\n      dup2\n        /* \"#utility.yul\":6465:6500   */\n      eq\n        /* \"#utility.yul\":6455:6518   */\n      tag_375\n      jumpi\n        /* \"#utility.yul\":6514:6515   */\n      0x00\n        /* \"#utility.yul\":6511:6512   */\n      0x00\n        /* \"#utility.yul\":6504:6516   */\n      revert\n        /* \"#utility.yul\":6455:6518   */\n    tag_375:\n        /* \"#utility.yul\":6402:6524   */\n      pop\n      jump\t// out\n        /* \"#utility.yul\":6530:6669   */\n    tag_273:\n        /* \"#utility.yul\":6576:6581   */\n      0x00\n        /* \"#utility.yul\":6614:6620   */\n      dup2\n        /* \"#utility.yul\":6601:6621   */\n      calldataload\n        /* \"#utility.yul\":6592:6621   */\n      swap1\n      pop\n        /* \"#utility.yul\":6630:6663   */\n      tag_377\n        /* \"#utility.yul\":6657:6662   */\n      dup2\n        /* \"#utility.yul\":6630:6663   */\n      tag_272\n      jump\t// in\n    tag_377:\n        /* \"#utility.yul\":6530:6669   */\n      swap3\n      swap2\n      pop\n      pop\n      jump\t// out\n        /* \"#utility.yul\":6675:7004   */\n    tag_50:\n        /* \"#utility.yul\":6734:6740   */\n      0x00\n        /* \"#utility.yul\":6783:6785   */\n      0x20\n        /* \"#utility.yul\":6771:6780   */\n      dup3\n        /* \"#utility.yul\":6762:6769   */\n      dup5\n        /* \"#utility.yul\":6758:6781   */\n      sub\n        /* \"#utility.yul\":6754:6786   */\n      slt\n        /* \"#utility.yul\":6751:6870   */\n      iszero\n      tag_379\n      jumpi\n        /* \"#utility.yul\":6789:6868   */\n      tag_380\n      tag_250\n      jump\t// in\n    tag_380:\n        /* \"#utility.yul\":6751:6870   */\n    tag_379:\n        /* \"#utility.yul\":6909:6910   */\n      0x00\n        /* \"#utility.yul\":6934:6987   */\n      tag_381\n        /* \"#utility.yul\":6979:6986   */\n      dup5\n        /* \"#utility.yul\":6970:6976   */\n      dup3\n        /* \"#utility.yul\":6959:6968   */\n      dup6\n        /* \"#utility.yul\":6955:6977   */\n      add\n        /* \"#utility.yul\":6934:6987   */\n      tag_273\n      jump\t// in\n    tag_381:\n        /* \"#utility.yul\":6924:6987   */\n      swap2\n      pop\n        /* \"#utility.yul\":6880:6997   */\n      pop\n        /* \"#utility.yul\":6675:7004   */\n      swap3\n      swap2\n      pop\n      pop\n      jump\t// out\n        /* \"#utility.yul\":7010:7232   */\n    tag_53:\n        /* \"#utility.yul\":7103:7107   */\n      0x00\n        /* \"#utility.yul\":7141:7143   */\n      0x20\n        /* \"#utility.yul\":7130:7139   */\n      dup3\n        /* \"#utility.yul\":7126:7144   */\n      add\n        /* \"#utility.yul\":7118:7144   */\n      swap1\n      pop\n        /* \"#utility.yul\":7154:7225   */\n      tag_383\n        /* \"#utility.yul\":7222:7223   */\n      0x00\n        /* \"#utility.yul\":7211:7220   */\n      dup4\n        /* \"#utility.yul\":7207:7224   */\n      add\n        /* \"#utility.yul\":7198:7204   */\n      dup5\n        /* \"#utility.yul\":7154:7225   */\n      tag_260\n      jump\t// in\n    tag_383:\n        /* \"#utility.yul\":7010:7232   */\n      swap3\n      swap2\n      pop\n      pop\n      jump\t// out\n        /* \"#utility.yul\":7238:7356   */\n    tag_274:\n        /* \"#utility.yul\":7325:7349   */\n      tag_385\n        /* \"#utility.yul\":7343:7348   */\n      dup2\n        /* \"#utility.yul\":7325:7349   */\n      tag_271\n      jump\t// in\n    tag_385:\n        /* \"#utility.yul\":7320:7323   */\n      dup3\n        /* \"#utility.yul\":7313:7350   */\n      mstore\n        /* \"#utility.yul\":7238:7356   */\n      pop\n      pop\n      jump\t// out\n        /* \"#utility.yul\":7362:7584   */\n    tag_57:\n        /* \"#utility.yul\":7455:7459   */\n      0x00\n        /* \"#utility.yul\":7493:7495   */\n      0x20\n        /* \"#utility.yul\":7482:7491   */\n      dup3\n        /* \"#utility.yul\":7478:7496   */\n      add\n        /* \"#utility.yul\":7470:7496   */\n      swap1\n      pop\n        /* \"#utility.yul\":7506:7577   */\n      tag_387\n        /* \"#utility.yul\":7574:7575   */\n      0x00\n        /* \"#utility.yul\":7563:7572   */\n      dup4\n        /* \"#utility.yul\":7559:7576   */\n      add\n        /* \"#utility.yul\":7550:7556   */\n      dup5\n        /* \"#utility.yul\":7506:7577   */\n      tag_274\n      jump\t// in\n    tag_387:\n        /* \"#utility.yul\":7362:7584   */\n      swap3\n      swap2\n      pop\n      pop\n      jump\t// out\n        /* \"#utility.yul\":7590:7982   */\n    tag_81:\n        /* \"#utility.yul\":7741:7745   */\n      0x00\n        /* \"#utility.yul\":7779:7781   */\n      0x40\n        /* \"#utility.yul\":7768:7777   */\n      dup3\n        /* \"#utility.yul\":7764:7782   */\n      add\n        /* \"#utility.yul\":7756:7782   */\n      swap1\n      pop\n        /* \"#utility.yul\":7792:7878   */\n      tag_389\n        /* \"#utility.yul\":7875:7876   */\n      0x00\n        /* \"#utility.yul\":7864:7873   */\n      dup4\n        /* \"#utility.yul\":7860:7877   */\n      add\n        /* \"#utility.yul\":7851:7857   */\n      dup6\n        /* \"#utility.yul\":7792:7878   */\n      tag_264\n      jump\t// in\n    tag_389:\n        /* \"#utility.yul\":7888:7975   */\n      tag_390\n        /* \"#utility.yul\":7971:7973   */\n      0x20\n        /* \"#utility.yul\":7960:7969   */\n      dup4\n        /* \"#utility.yul\":7956:7974   */\n      add\n        /* \"#utility.yul\":7947:7953   */\n      dup5\n        /* \"#utility.yul\":7888:7975   */\n      tag_264\n      jump\t// in\n    tag_390:\n        /* \"#utility.yul\":7590:7982   */\n      swap4\n      swap3\n      pop\n      pop\n      pop\n      jump\t// out\n        /* \"#utility.yul\":7988:8160   */\n    tag_275:\n        /* \"#utility.yul\":8128:8152   */\n      0x596f75206861766520616c726561647920766f74656400000000000000000000\n        /* \"#utility.yul\":8124:8125   */\n      0x00\n        /* \"#utility.yul\":8116:8122   */\n      dup3\n        /* \"#utility.yul\":8112:8126   */\n      add\n        /* \"#utility.yul\":8105:8153   */\n      mstore\n        /* \"#utility.yul\":7988:8160   */\n      pop\n      jump\t// out\n        /* \"#utility.yul\":8166:8532   */\n    tag_276:\n        /* \"#utility.yul\":8308:8311   */\n      0x00\n        /* \"#utility.yul\":8329:8396   */\n      tag_393\n        /* \"#utility.yul\":8393:8395   */\n      0x16\n        /* \"#utility.yul\":8388:8391   */\n      dup4\n        /* \"#utility.yul\":8329:8396   */\n      tag_256\n      jump\t// in\n    tag_393:\n        /* \"#utility.yul\":8322:8396   */\n      swap2\n      pop\n        /* \"#utility.yul\":8405:8498   */\n      tag_394\n        /* \"#utility.yul\":8494:8497   */\n      dup3\n        /* \"#utility.yul\":8405:8498   */\n      tag_275\n      jump\t// in\n    tag_394:\n        /* \"#utility.yul\":8523:8525   */\n      0x20\n        /* \"#utility.yul\":8518:8521   */\n      dup3\n        /* \"#utility.yul\":8514:8526   */\n      add\n        /* \"#utility.yul\":8507:8526   */\n      swap1\n      pop\n        /* \"#utility.yul\":8166:8532   */\n      swap2\n      swap1\n      pop\n      jump\t// out\n        /* \"#utility.yul\":8538:8957   */\n    tag_85:\n        /* \"#utility.yul\":8704:8708   */\n      0x00\n        /* \"#utility.yul\":8742:8744   */\n      0x20\n        /* \"#utility.yul\":8731:8740   */\n      dup3\n        /* \"#utility.yul\":8727:8745   */\n      add\n        /* \"#utility.yul\":8719:8745   */\n      swap1\n      pop\n        /* \"#utility.yul\":8791:8800   */\n      dup2\n        /* \"#utility.yul\":8785:8789   */\n      dup2\n        /* \"#utility.yul\":8781:8801   */\n      sub\n        /* \"#utility.yul\":8777:8778   */\n      0x00\n        /* \"#utility.yul\":8766:8775   */\n      dup4\n        /* \"#utility.yul\":8762:8779   */\n      add\n        /* \"#utility.yul\":8755:8802   */\n      mstore\n        /* \"#utility.yul\":8819:8950   */\n      tag_396\n        /* \"#utility.yul\":8945:8949   */\n      dup2\n        /* \"#utility.yul\":8819:8950   */\n      tag_276\n      jump\t// in\n    tag_396:\n        /* \"#utility.yul\":8811:8950   */\n      swap1\n      pop\n        /* \"#utility.yul\":8538:8957   */\n      swap2\n      swap1\n      pop\n      jump\t// out\n        /* \"#utility.yul\":8963:9132   */\n    tag_277:\n        /* \"#utility.yul\":9103:9124   */\n      0x496e76616c69642070726f706f73616c20494400000000000000000000000000\n        /* \"#utility.yul\":9099:9100   */\n      0x00\n        /* \"#utility.yul\":9091:9097   */\n      dup3\n        /* \"#utility.yul\":9087:9101   */\n      add\n        /* \"#utility.yul\":9080:9125   */\n      mstore\n        /* \"#utility.yul\":8963:9132   */\n      pop\n      jump\t// out\n        /* \"#utility.yul\":9138:9504   */\n    tag_278:\n        /* \"#utility.yul\":9280:9283   */\n      0x00\n        /* \"#utility.yul\":9301:9368   */\n      tag_399\n        /* \"#utility.yul\":9365:9367   */\n      0x13\n        /* \"#utility.yul\":9360:9363   */\n      dup4\n        /* \"#utility.yul\":9301:9368   */\n      tag_256\n      jump\t// in\n    tag_399:\n        /* \"#utility.yul\":9294:9368   */\n      swap2\n      pop\n        /* \"#utility.yul\":9377:9470   */\n      tag_400\n        /* \"#utility.yul\":9466:9469   */\n      dup3\n        /* \"#utility.yul\":9377:9470   */\n      tag_277\n      jump\t// in\n    tag_400:\n        /* \"#utility.yul\":9495:9497   */\n      0x20\n        /* \"#utility.yul\":9490:9493   */\n      dup3\n        /* \"#utility.yul\":9486:9498   */\n      add\n        /* \"#utility.yul\":9479:9498   */\n      swap1\n      pop\n        /* \"#utility.yul\":9138:9504   */\n      swap2\n      swap1\n      pop\n      jump\t// out\n        /* \"#utility.yul\":9510:9929   */\n    tag_88:\n        /* \"#utility.yul\":9676:9680   */\n      0x00\n        /* \"#utility.yul\":9714:9716   */\n      0x20\n        /* \"#utility.yul\":9703:9712   */\n      dup3\n        /* \"#utility.yul\":9699:9717   */\n      add\n        /* \"#utility.yul\":9691:9717   */\n      swap1\n      pop\n        /* \"#utility.yul\":9763:9772   */\n      dup2\n        /* \"#utility.yul\":9757:9761   */\n      dup2\n        /* \"#utility.yul\":9753:9773   */\n      sub\n        /* \"#utility.yul\":9749:9750   */\n      0x00\n        /* \"#utility.yul\":9738:9747   */\n      dup4\n        /* \"#utility.yul\":9734:9751   */\n      add\n        /* \"#utility.yul\":9727:9774   */\n      mstore\n        /* \"#utility.yul\":9791:9922   */\n      tag_402\n        /* \"#utility.yul\":9917:9921   */\n      dup2\n        /* \"#utility.yul\":9791:9922   */\n      tag_278\n      jump\t// in\n    tag_402:\n        /* \"#utility.yul\":9783:9922   */\n      swap1\n      pop\n        /* \"#utility.yul\":9510:9929   */\n      swap2\n      swap1\n      pop\n      jump\t// out\n        /* \"#utility.yul\":9935:10115   */\n    tag_91:\n        /* \"#utility.yul\":9983:10060   */\n      0x4e487b7100000000000000000000000000000000000000000000000000000000\n        /* \"#utility.yul\":9980:9981   */\n      0x00\n        /* \"#utility.yul\":9973:10061   */\n      mstore\n        /* \"#utility.yul\":10080:10084   */\n      0x32\n        /* \"#utility.yul\":10077:10078   */\n      0x04\n        /* \"#utility.yul\":10070:10085   */\n      mstore\n        /* \"#utility.yul\":10104:10108   */\n      0x24\n        /* \"#utility.yul\":10101:10102   */\n      0x00\n        /* \"#utility.yul\":10094:10109   */\n      revert\n        /* \"#utility.yul\":10121:10301   */\n    tag_279:\n        /* \"#utility.yul\":10169:10246   */\n      0x4e487b7100000000000000000000000000000000000000000000000000000000\n        /* \"#utility.yul\":10166:10167   */\n      0x00\n        /* \"#utility.yul\":10159:10247   */\n      mstore\n        /* \"#utility.yul\":10266:10270   */\n      0x11\n        /* \"#utility.yul\":10263:10264   */\n      0x04\n        /* \"#utility.yul\":10256:10271   */\n      mstore\n        /* \"#utility.yul\":10290:10294   */\n      0x24\n        /* \"#utility.yul\":10287:10288   */\n      0x00\n        /* \"#utility.yul\":10280:10295   */\n      revert\n        /* \"#utility.yul\":10307:10498   */\n    tag_94:\n        /* \"#utility.yul\":10347:10350   */\n      0x00\n        /* \"#utility.yul\":10366:10386   */\n      tag_406\n        /* \"#utility.yul\":10384:10385   */\n      dup3\n        /* \"#utility.yul\":10366:10386   */\n      tag_252\n      jump\t// in\n    tag_406:\n        /* \"#utility.yul\":10361:10386   */\n      swap2\n      pop\n        /* \"#utility.yul\":10400:10420   */\n      tag_407\n        /* \"#utility.yul\":10418:10419   */\n      dup4\n        /* \"#utility.yul\":10400:10420   */\n      tag_252\n      jump\t// in\n    tag_407:\n        /* \"#utility.yul\":10395:10420   */\n      swap3\n      pop\n        /* \"#utility.yul\":10443:10444   */\n      dup3\n        /* \"#utility.yul\":10440:10441   */\n      dup3\n        /* \"#utility.yul\":10436:10445   */\n      add\n        /* \"#utility.yul\":10429:10445   */\n      swap1\n      pop\n        /* \"#utility.yul\":10464:10467   */\n      dup1\n        /* \"#utility.yul\":10461:10462   */\n      dup3\n        /* \"#utility.yul\":10458:10468   */\n      gt\n        /* \"#utility.yul\":10455:10491   */\n      iszero\n      tag_408\n      jumpi\n        /* \"#utility.yul\":10471:10489   */\n      tag_409\n      tag_279\n      jump\t// in\n    tag_409:\n        /* \"#utility.yul\":10455:10491   */\n    tag_408:\n        /* \"#utility.yul\":10307:10498   */\n      swap3\n      swap2\n      pop\n      pop\n      jump\t// out\n        /* \"#utility.yul\":10504:10836   */\n    tag_96:\n        /* \"#utility.yul\":10625:10629   */\n      0x00\n        /* \"#utility.yul\":10663:10665   */\n      0x40\n        /* \"#utility.yul\":10652:10661   */\n      dup3\n        /* \"#utility.yul\":10648:10666   */\n      add\n        /* \"#utility.yul\":10640:10666   */\n      swap1\n      pop\n        /* \"#utility.yul\":10676:10747   */\n      tag_411\n        /* \"#utility.yul\":10744:10745   */\n      0x00\n        /* \"#utility.yul\":10733:10742   */\n      dup4\n        /* \"#utility.yul\":10729:10746   */\n      add\n        /* \"#utility.yul\":10720:10726   */\n      dup6\n        /* \"#utility.yul\":10676:10747   */\n      tag_274\n      jump\t// in\n    tag_411:\n        /* \"#utility.yul\":10757:10829   */\n      tag_412\n        /* \"#utility.yul\":10825:10827   */\n      0x20\n        /* \"#utility.yul\":10814:10823   */\n      dup4\n        /* \"#utility.yul\":10810:10828   */\n      add\n        /* \"#utility.yul\":10801:10807   */\n      dup5\n        /* \"#utility.yul\":10757:10829   */\n      tag_260\n      jump\t// in\n    tag_412:\n        /* \"#utility.yul\":10504:10836   */\n      swap4\n      swap3\n      pop\n      pop\n      pop\n      jump\t// out\n        /* \"#utility.yul\":10842:11022   */\n    tag_280:\n        /* \"#utility.yul\":10890:10967   */\n      0x4e487b7100000000000000000000000000000000000000000000000000000000\n        /* \"#utility.yul\":10887:10888   */\n      0x00\n        /* \"#utility.yul\":10880:10968   */\n      mstore\n        /* \"#utility.yul\":10987:10991   */\n      0x22\n        /* \"#utility.yul\":10984:10985   */\n      0x04\n        /* \"#utility.yul\":10977:10992   */\n      mstore\n        /* \"#utility.yul\":11011:11015   */\n      0x24\n        /* \"#utility.yul\":11008:11009   */\n      0x00\n        /* \"#utility.yul\":11001:11016   */\n      revert\n        /* \"#utility.yul\":11028:11348   */\n    tag_100:\n        /* \"#utility.yul\":11072:11078   */\n      0x00\n        /* \"#utility.yul\":11109:11110   */\n      0x02\n        /* \"#utility.yul\":11103:11107   */\n      dup3\n        /* \"#utility.yul\":11099:11111   */\n      div\n        /* \"#utility.yul\":11089:11111   */\n      swap1\n      pop\n        /* \"#utility.yul\":11156:11157   */\n      0x01\n        /* \"#utility.yul\":11150:11154   */\n      dup3\n        /* \"#utility.yul\":11146:11158   */\n      and\n        /* \"#utility.yul\":11177:11195   */\n      dup1\n        /* \"#utility.yul\":11167:11248   */\n      tag_415\n      jumpi\n        /* \"#utility.yul\":11233:11237   */\n      0x7f\n        /* \"#utility.yul\":11225:11231   */\n      dup3\n        /* \"#utility.yul\":11221:11238   */\n      and\n        /* \"#utility.yul\":11211:11238   */\n      swap2\n      pop\n        /* \"#utility.yul\":11167:11248   */\n    tag_415:\n        /* \"#utility.yul\":11295:11297   */\n      0x20\n        /* \"#utility.yul\":11287:11293   */\n      dup3\n        /* \"#utility.yul\":11284:11298   */\n      lt\n        /* \"#utility.yul\":11264:11282   */\n      dup2\n        /* \"#utility.yul\":11261:11299   */\n      sub\n        /* \"#utility.yul\":11258:11342   */\n      tag_416\n      jumpi\n        /* \"#utility.yul\":11314:11332   */\n      tag_417\n      tag_280\n      jump\t// in\n    tag_417:\n        /* \"#utility.yul\":11258:11342   */\n    tag_416:\n        /* \"#utility.yul\":11079:11348   */\n      pop\n        /* \"#utility.yul\":11028:11348   */\n      swap2\n      swap1\n      pop\n      jump\t// out\n        /* \"#utility.yul\":11354:11534   */\n    tag_281:\n        /* \"#utility.yul\":11402:11479   */\n      0x4e487b7100000000000000000000000000000000000000000000000000000000\n        /* \"#utility.yul\":11399:11400   */\n      0x00\n        /* \"#utility.yul\":11392:11480   */\n      mstore\n        /* \"#utility.yul\":11499:11503   */\n      0x41\n        /* \"#utility.yul\":11496:11497   */\n      0x04\n        /* \"#utility.yul\":11489:11504   */\n      mstore\n        /* \"#utility.yul\":11523:11527   */\n      0x24\n        /* \"#utility.yul\":11520:11521   */\n      0x00\n        /* \"#utility.yul\":11513:11528   */\n      revert\n        /* \"#utility.yul\":11540:11681   */\n    tag_282:\n        /* \"#utility.yul\":11589:11593   */\n      0x00\n        /* \"#utility.yul\":11612:11615   */\n      dup2\n        /* \"#utility.yul\":11604:11615   */\n      swap1\n      pop\n        /* \"#utility.yul\":11635:11638   */\n      dup2\n        /* \"#utility.yul\":11632:11633   */\n      0x00\n        /* \"#utility.yul\":11625:11639   */\n      mstore\n        /* \"#utility.yul\":11669:11673   */\n      0x20\n        /* \"#utility.yul\":11666:11667   */\n      0x00\n        /* \"#utility.yul\":11656:11674   */\n      keccak256\n        /* \"#utility.yul\":11648:11674   */\n      swap1\n      pop\n        /* \"#utility.yul\":11540:11681   */\n      swap2\n      swap1\n      pop\n      jump\t// out\n        /* \"#utility.yul\":11687:11780   */\n    tag_283:\n        /* \"#utility.yul\":11724:11730   */\n      0x00\n        /* \"#utility.yul\":11771:11773   */\n      0x20\n        /* \"#utility.yul\":11766:11768   */\n      0x1f\n        /* \"#utility.yul\":11759:11764   */\n      dup4\n        /* \"#utility.yul\":11755:11769   */\n      add\n        /* \"#utility.yul\":11751:11774   */\n      div\n        /* \"#utility.yul\":11741:11774   */\n      swap1\n      pop\n        /* \"#utility.yul\":11687:11780   */\n      swap2\n      swap1\n      pop\n      jump\t// out\n        /* \"#utility.yul\":11786:11893   */\n    tag_284:\n        /* \"#utility.yul\":11830:11838   */\n      0x00\n        /* \"#utility.yul\":11880:11885   */\n      dup3\n        /* \"#utility.yul\":11874:11878   */\n      dup3\n        /* \"#utility.yul\":11870:11886   */\n      shl\n        /* \"#utility.yul\":11849:11886   */\n      swap1\n      pop\n        /* \"#utility.yul\":11786:11893   */\n      swap3\n      swap2\n      pop\n      pop\n      jump\t// out\n        /* \"#utility.yul\":11899:12292   */\n    tag_285:\n        /* \"#utility.yul\":11968:11974   */\n      0x00\n        /* \"#utility.yul\":12018:12019   */\n      0x08\n        /* \"#utility.yul\":12006:12016   */\n      dup4\n        /* \"#utility.yul\":12002:12020   */\n      mul\n        /* \"#utility.yul\":12041:12138   */\n      tag_423\n        /* \"#utility.yul\":12071:12137   */\n      0xffffffffffffffffffffffffffffffffffffffffffffffffffffffffffffffff\n        /* \"#utility.yul\":12060:12069   */\n      dup3\n        /* \"#utility.yul\":12041:12138   */\n      tag_284\n      jump\t// in\n    tag_423:\n        /* \"#utility.yul\":12159:12198   */\n      tag_424\n        /* \"#utility.yul\":12189:12197   */\n      dup7\n        /* \"#utility.yul\":12178:12187   */\n      dup4\n        /* \"#utility.yul\":12159:12198   */\n      tag_284\n      jump\t// in\n    tag_424:\n        /* \"#utility.yul\":12147:12198   */\n      swap6\n      pop\n        /* \"#utility.yul\":12231:12235   */\n      dup1\n        /* \"#utility.yul\":12227:12236   */\n      not\n        /* \"#utility.yul\":12220:12225   */\n      dup5\n        /* \"#utility.yul\":12216:12237   */\n      and\n        /* \"#utility.yul\":12207:12237   */\n      swap4\n      pop\n        /* \"#utility.yul\":12280:12284   */\n      dup1\n        /* \"#utility.yul\":12270:12278   */\n      dup7\n        /* \"#utility.yul\":12266:12285   */\n      and\n        /* \"#utility.yul\":12259:12264   */\n      dup5\n        /* \"#utility.yul\":12256:12286   */\n      or\n        /* \"#utility.yul\":12246:12286   */\n      swap3\n      pop\n        /* \"#utility.yul\":11975:12292   */\n      pop\n      pop\n        /* \"#utility.yul\":11899:12292   */\n      swap4\n      swap3\n      pop\n      pop\n      pop\n      jump\t// out\n        /* \"#utility.yul\":12298:12358   */\n    tag_286:\n        /* \"#utility.yul\":12326:12329   */\n      0x00\n        /* \"#utility.yul\":12347:12352   */\n      dup2\n        /* \"#utility.yul\":12340:12352   */\n      swap1\n      pop\n        /* \"#utility.yul\":12298:12358   */\n      swap2\n      swap1\n      pop\n      jump\t// out\n        /* \"#utility.yul\":12364:12506   */\n    tag_287:\n        /* \"#utility.yul\":12414:12423   */\n      0x00\n        /* \"#utility.yul\":12447:12500   */\n      tag_427\n        /* \"#utility.yul\":12465:12499   */\n      tag_428\n        /* \"#utility.yul\":12474:12498   */\n      tag_429\n        /* \"#utility.yul\":12492:12497   */\n      dup5\n        /* \"#utility.yul\":12474:12498   */\n      tag_252\n      jump\t// in\n    tag_429:\n        /* \"#utility.yul\":12465:12499   */\n      tag_286\n      jump\t// in\n    tag_428:\n        /* \"#utility.yul\":12447:12500   */\n      tag_252\n      jump\t// in\n    tag_427:\n        /* \"#utility.yul\":12434:12500   */\n      swap1\n      pop\n        /* \"#utility.yul\":12364:12506   */\n      swap2\n      swap1\n      pop\n      jump\t// out\n        /* \"#utility.yul\":12512:12587   */\n    tag_288:\n        /* \"#utility.yul\":12555:12558   */\n      0x00\n        /* \"#utility.yul\":12576:12581   */\n      dup2\n        /* \"#utility.yul\":12569:12581   */\n      swap1\n      pop\n        /* \"#utility.yul\":12512:12587   */\n      swap2\n      swap1\n      pop\n      jump\t// out\n        /* \"#utility.yul\":12593:12862   */\n    tag_289:\n        /* \"#utility.yul\":12703:12742   */\n      tag_432\n        /* \"#utility.yul\":12734:12741   */\n      dup4\n        /* \"#utility.yul\":12703:12742   */\n      tag_287\n      jump\t// in\n    tag_432:\n        /* \"#utility.yul\":12764:12855   */\n      tag_433\n        /* \"#utility.yul\":12813:12854   */\n      tag_434\n        /* \"#utility.yul\":12837:12853   */\n      dup3\n        /* \"#utility.yul\":12813:12854   */\n      tag_288\n      jump\t// in\n    tag_434:\n        /* \"#utility.yul\":12805:12811   */\n      dup5\n        /* \"#utility.yul\":12798:12802   */\n      dup5\n        /* \"#utility.yul\":12792:12803   */\n      sload\n        /* \"#utility.yul\":12764:12855   */\n      tag_285\n      jump\t// in\n    tag_433:\n        /* \"#utility.yul\":12758:12762   */\n      dup3\n        /* \"#utility.yul\":12751:12856   */\n      sstore\n        /* \"#utility.yul\":12669:12862   */\n      pop\n        /* \"#utility.yul\":12593:12862   */\n      pop\n      pop\n      pop\n      jump\t// out\n        /* \"#utility.yul\":12868:12941   */\n    tag_290:\n        /* \"#utility.yul\":12913:12916   */\n      0x00\n        /* \"#utility.yul\":12934:12935   */\n      0x00\n        /* \"#utility.yul\":12927:12935   */\n      swap1\n      pop\n        /* \"#utility.yul\":12868:12941   */\n      swap1\n      jump\t// out\n        /* \"#utility.yul\":12947:13136   */\n    tag_291:\n        /* \"#utility.yul\":13024:13056   */\n      tag_437\n      tag_290\n      jump\t// in\n    tag_437:\n        /* \"#utility.yul\":13065:13130   */\n      tag_438\n        /* \"#utility.yul\":13123:13129   */\n      dup2\n        /* \"#utility.yul\":13115:13121   */\n      dup5\n        /* \"#utility.yul\":13109:13113   */\n      dup5\n        /* \"#utility.yul\":13065:13130   */\n      tag_289\n      jump\t// in\n    tag_438:\n        /* \"#utility.yul\":13000:13136   */\n      pop\n        /* \"#utility.yul\":12947:13136   */\n      pop\n      pop\n      jump\t// out\n        /* \"#utility.yul\":13142:13328   */\n    tag_292:\n        /* \"#utility.yul\":13202:13322   */\n    tag_440:\n        /* \"#utility.yul\":13219:13222   */\n      dup2\n        /* \"#utility.yul\":13212:13217   */\n      dup2\n        /* \"#utility.yul\":13209:13223   */\n      lt\n        /* \"#utility.yul\":13202:13322   */\n      iszero\n      tag_442\n      jumpi\n        /* \"#utility.yul\":13273:13312   */\n      tag_443\n        /* \"#utility.yul\":13310:13311   */\n      0x00\n        /* \"#utility.yul\":13303:13308   */\n      dup3\n        /* \"#utility.yul\":13273:13312   */\n      tag_291\n      jump\t// in\n    tag_443:\n        /* \"#utility.yul\":13246:13247   */\n      0x01\n        /* \"#utility.yul\":13239:13244   */\n      dup2\n        /* \"#utility.yul\":13235:13248   */\n      add\n        /* \"#utility.yul\":13226:13248   */\n      swap1\n      pop\n        /* \"#utility.yul\":13202:13322   */\n      jump(tag_440)\n    tag_442:\n        /* \"#utility.yul\":13142:13328   */\n      pop\n      pop\n      jump\t// out\n        /* \"#utility.yul\":13334:13877   */\n    tag_293:\n        /* \"#utility.yul\":13435:13437   */\n      0x1f\n        /* \"#utility.yul\":13430:13433   */\n      dup3\n        /* \"#utility.yul\":13427:13438   */\n      gt\n        /* \"#utility.yul\":13424:13870   */\n      iszero\n      tag_445\n      jumpi\n        /* \"#utility.yul\":13469:13507   */\n      tag_446\n        /* \"#utility.yul\":13501:13506   */\n      dup2\n        /* \"#utility.yul\":13469:13507   */\n      tag_282\n      jump\t// in\n    tag_446:\n        /* \"#utility.yul\":13553:13582   */\n      tag_447\n        /* \"#utility.yul\":13571:13581   */\n      dup5\n        /* \"#utility.yul\":13553:13582   */\n      tag_283\n      jump\t// in\n    tag_447:\n        /* \"#utility.yul\":13543:13551   */\n      dup2\n        /* \"#utility.yul\":13539:13583   */\n      add\n        /* \"#utility.yul\":13736:13738   */\n      0x20\n        /* \"#utility.yul\":13724:13734   */\n      dup6\n        /* \"#utility.yul\":13721:13739   */\n      lt\n        /* \"#utility.yul\":13718:13767   */\n      iszero\n      tag_448\n      jumpi\n        /* \"#utility.yul\":13757:13765   */\n      dup2\n        /* \"#utility.yul\":13742:13765   */\n      swap1\n      pop\n        /* \"#utility.yul\":13718:13767   */\n    tag_448:\n        /* \"#utility.yul\":13780:13860   */\n      tag_449\n        /* \"#utility.yul\":13836:13858   */\n      tag_450\n        /* \"#utility.yul\":13854:13857   */\n      dup6\n        /* \"#utility.yul\":13836:13858   */\n      tag_283\n      jump\t// in\n    tag_450:\n        /* \"#utility.yul\":13826:13834   */\n      dup4\n        /* \"#utility.yul\":13822:13859   */\n      add\n        /* \"#utility.yul\":13809:13820   */\n      dup3\n        /* \"#utility.yul\":13780:13860   */\n      tag_292\n      jump\t// in\n    tag_449:\n        /* \"#utility.yul\":13439:13870   */\n      pop\n      pop\n        /* \"#utility.yul\":13424:13870   */\n    tag_445:\n        /* \"#utility.yul\":13334:13877   */\n      pop\n      pop\n      pop\n      jump\t// out\n        /* \"#utility.yul\":13883:14000   */\n    tag_294:\n        /* \"#utility.yul\":13937:13945   */\n      0x00\n        /* \"#utility.yul\":13987:13992   */\n      dup3\n        /* \"#utility.yul\":13981:13985   */\n      dup3\n        /* \"#utility.yul\":13977:13993   */\n      shr\n        /* \"#utility.yul\":13956:13993   */\n      swap1\n      pop\n        /* \"#utility.yul\":13883:14000   */\n      swap3\n      swap2\n      pop\n      pop\n      jump\t// out\n        /* \"#utility.yul\":14006:14175   */\n    tag_295:\n        /* \"#utility.yul\":14050:14056   */\n      0x00\n        /* \"#utility.yul\":14083:14134   */\n      tag_453\n        /* \"#utility.yul\":14131:14132   */\n      0x00\n        /* \"#utility.yul\":14127:14133   */\n      not\n        /* \"#utility.yul\":14119:14124   */\n      dup5\n        /* \"#utility.yul\":14116:14117   */\n      0x08\n        /* \"#utility.yul\":14112:14125   */\n      mul\n        /* \"#utility.yul\":14083:14134   */\n      tag_294\n      jump\t// in\n    tag_453:\n        /* \"#utility.yul\":14079:14135   */\n      not\n        /* \"#utility.yul\":14164:14168   */\n      dup1\n        /* \"#utility.yul\":14158:14162   */\n      dup4\n        /* \"#utility.yul\":14154:14169   */\n      and\n        /* \"#utility.yul\":14144:14169   */\n      swap2\n      pop\n        /* \"#utility.yul\":14057:14175   */\n      pop\n        /* \"#utility.yul\":14006:14175   */\n      swap3\n      swap2\n      pop\n      pop\n      jump\t// out\n        /* \"#utility.yul\":14180:14475   */\n    tag_296:\n        /* \"#utility.yul\":14256:14260   */\n      0x00\n        /* \"#utility.yul\":14402:14431   */\n      tag_455\n        /* \"#utility.yul\":14427:14430   */\n      dup4\n        /* \"#utility.yul\":14421:14425   */\n      dup4\n        /* \"#utility.yul\":14402:14431   */\n      tag_295\n      jump\t// in\n    tag_455:\n        /* \"#utility.yul\":14394:14431   */\n      swap2\n      pop\n        /* \"#utility.yul\":14464:14467   */\n      dup3\n        /* \"#utility.yul\":14461:14462   */\n      0x02\n        /* \"#utility.yul\":14457:14468   */\n      mul\n        /* \"#utility.yul\":14451:14455   */\n      dup3\n        /* \"#utility.yul\":14448:14469   */\n      or\n        /* \"#utility.yul\":14440:14469   */\n      swap1\n      pop\n        /* \"#utility.yul\":14180:14475   */\n      swap3\n      swap2\n      pop\n      pop\n      jump\t// out\n        /* \"#utility.yul\":14480:15875   */\n    tag_132:\n        /* \"#utility.yul\":14597:14634   */\n      tag_457\n        /* \"#utility.yul\":14630:14633   */\n      dup3\n        /* \"#utility.yul\":14597:14634   */\n      tag_255\n      jump\t// in\n    tag_457:\n        /* \"#utility.yul\":14699:14717   */\n      0xffffffffffffffff\n        /* \"#utility.yul\":14691:14697   */\n      dup2\n        /* \"#utility.yul\":14688:14718   */\n      gt\n        /* \"#utility.yul\":14685:14741   */\n      iszero\n      tag_458\n      jumpi\n        /* \"#utility.yul\":14721:14739   */\n      tag_459\n      tag_281\n      jump\t// in\n    tag_459:\n        /* \"#utility.yul\":14685:14741   */\n    tag_458:\n        /* \"#utility.yul\":14765:14803   */\n      tag_460\n        /* \"#utility.yul\":14797:14801   */\n      dup3\n        /* \"#utility.yul\":14791:14802   */\n      sload\n        /* \"#utility.yul\":14765:14803   */\n      tag_100\n      jump\t// in\n    tag_460:\n        /* \"#utility.yul\":14850:14917   */\n      tag_461\n        /* \"#utility.yul\":14910:14916   */\n      dup3\n        /* \"#utility.yul\":14902:14908   */\n      dup3\n        /* \"#utility.yul\":14896:14900   */\n      dup6\n        /* \"#utility.yul\":14850:14917   */\n      tag_293\n      jump\t// in\n    tag_461:\n        /* \"#utility.yul\":14944:14945   */\n      0x00\n        /* \"#utility.yul\":14968:14972   */\n      0x20\n        /* \"#utility.yul\":14955:14972   */\n      swap1\n      pop\n        /* \"#utility.yul\":15000:15002   */\n      0x1f\n        /* \"#utility.yul\":14992:14998   */\n      dup4\n        /* \"#utility.yul\":14989:15003   */\n      gt\n        /* \"#utility.yul\":15017:15018   */\n      0x01\n        /* \"#utility.yul\":15012:15630   */\n      dup2\n      eq\n      tag_463\n      jumpi\n        /* \"#utility.yul\":15674:15675   */\n      0x00\n        /* \"#utility.yul\":15691:15697   */\n      dup5\n        /* \"#utility.yul\":15688:15765   */\n      iszero\n      tag_464\n      jumpi\n        /* \"#utility.yul\":15740:15749   */\n      dup3\n        /* \"#utility.yul\":15735:15738   */\n      dup8\n        /* \"#utility.yul\":15731:15750   */\n      add\n        /* \"#utility.yul\":15725:15751   */\n      mload\n        /* \"#utility.yul\":15716:15751   */\n      swap1\n      pop\n        /* \"#utility.yul\":15688:15765   */\n    tag_464:\n        /* \"#utility.yul\":15791:15858   */\n      tag_465\n        /* \"#utility.yul\":15851:15857   */\n      dup6\n        /* \"#utility.yul\":15844:15849   */\n      dup3\n        /* \"#utility.yul\":15791:15858   */\n      tag_296\n      jump\t// in\n    tag_465:\n        /* \"#utility.yul\":15785:15789   */\n      dup7\n        /* \"#utility.yul\":15778:15859   */\n      sstore\n        /* \"#utility.yul\":15647:15869   */\n      pop\n        /* \"#utility.yul\":14982:15869   */\n      jump(tag_462)\n        /* \"#utility.yul\":15012:15630   */\n    tag_463:\n        /* \"#utility.yul\":15064:15068   */\n      0x1f\n        /* \"#utility.yul\":15060:15069   */\n      not\n        /* \"#utility.yul\":15052:15058   */\n      dup5\n        /* \"#utility.yul\":15048:15070   */\n      and\n        /* \"#utility.yul\":15098:15135   */\n      tag_466\n        /* \"#utility.yul\":15130:15134   */\n      dup7\n        /* \"#utility.yul\":15098:15135   */\n      tag_282\n      jump\t// in\n    tag_466:\n        /* \"#utility.yul\":15157:15158   */\n      0x00\n        /* \"#utility.yul\":15171:15379   */\n    tag_467:\n        /* \"#utility.yul\":15185:15192   */\n      dup3\n        /* \"#utility.yul\":15182:15183   */\n      dup2\n        /* \"#utility.yul\":15179:15193   */\n      lt\n        /* \"#utility.yul\":15171:15379   */\n      iszero\n      tag_469\n      jumpi\n        /* \"#utility.yul\":15264:15273   */\n      dup5\n        /* \"#utility.yul\":15259:15262   */\n      dup10\n        /* \"#utility.yul\":15255:15274   */\n      add\n        /* \"#utility.yul\":15249:15275   */\n      mload\n        /* \"#utility.yul\":15241:15247   */\n      dup3\n        /* \"#utility.yul\":15234:15276   */\n      sstore\n        /* \"#utility.yul\":15315:15316   */\n      0x01\n        /* \"#utility.yul\":15307:15313   */\n      dup3\n        /* \"#utility.yul\":15303:15317   */\n      add\n        /* \"#utility.yul\":15293:15317   */\n      swap2\n      pop\n        /* \"#utility.yul\":15362:15364   */\n      0x20\n        /* \"#utility.yul\":15351:15360   */\n      dup6\n        /* \"#utility.yul\":15347:15365   */\n      add\n        /* \"#utility.yul\":15334:15365   */\n      swap5\n      pop\n        /* \"#utility.yul\":15208:15212   */\n      0x20\n        /* \"#utility.yul\":15205:15206   */\n      dup2\n        /* \"#utility.yul\":15201:15213   */\n      add\n        /* \"#utility.yul\":15196:15213   */\n      swap1\n      pop\n        /* \"#utility.yul\":15171:15379   */\n      jump(tag_467)\n    tag_469:\n        /* \"#utility.yul\":15407:15413   */\n      dup7\n        /* \"#utility.yul\":15398:15405   */\n      dup4\n        /* \"#utility.yul\":15395:15414   */\n      lt\n        /* \"#utility.yul\":15392:15571   */\n      iszero\n      tag_470\n      jumpi\n        /* \"#utility.yul\":15465:15474   */\n      dup5\n        /* \"#utility.yul\":15460:15463   */\n      dup10\n        /* \"#utility.yul\":15456:15475   */\n      add\n        /* \"#utility.yul\":15450:15476   */\n      mload\n        /* \"#utility.yul\":15508:15556   */\n      tag_471\n        /* \"#utility.yul\":15550:15554   */\n      0x1f\n        /* \"#utility.yul\":15542:15548   */\n      dup10\n        /* \"#utility.yul\":15538:15555   */\n      and\n        /* \"#utility.yul\":15527:15536   */\n      dup3\n        /* \"#utility.yul\":15508:15556   */\n      tag_295\n      jump\t// in\n    tag_471:\n        /* \"#utility.yul\":15500:15506   */\n      dup4\n        /* \"#utility.yul\":15493:15557   */\n      sstore\n        /* \"#utility.yul\":15415:15571   */\n      pop\n        /* \"#utility.yul\":15392:15571   */\n    tag_470:\n        /* \"#utility.yul\":15617:15618   */\n      0x01\n        /* \"#utility.yul\":15613:15614   */\n      0x02\n        /* \"#utility.yul\":15605:15611   */\n      dup9\n        /* \"#utility.yul\":15601:15615   */\n      mul\n        /* \"#utility.yul\":15597:15619   */\n      add\n        /* \"#utility.yul\":15591:15595   */\n      dup9\n        /* \"#utility.yul\":15584:15620   */\n      sstore\n        /* \"#utility.yul\":15019:15630   */\n      pop\n      pop\n      pop\n        /* \"#utility.yul\":14982:15869   */\n    tag_462:\n      pop\n        /* \"#utility.yul\":14572:15875   */\n      pop\n      pop\n      pop\n        /* \"#utility.yul\":14480:15875   */\n      pop\n      pop\n      jump\t// out\n        /* \"#utility.yul\":15881:16075   */\n    tag_134:\n        /* \"#utility.yul\":15921:15925   */\n      0x00\n        /* \"#utility.yul\":15941:15961   */\n      tag_473\n        /* \"#utility.yul\":15959:15960   */\n      dup3\n        /* \"#utility.yul\":15941:15961   */\n      tag_252\n      jump\t// in\n    tag_473:\n        /* \"#utility.yul\":15936:15961   */\n      swap2\n      pop\n        /* \"#utility.yul\":15975:15995   */\n      tag_474\n        /* \"#utility.yul\":15993:15994   */\n      dup4\n        /* \"#utility.yul\":15975:15995   */\n      tag_252\n      jump\t// in\n    tag_474:\n        /* \"#utility.yul\":15970:15995   */\n      swap3\n      pop\n        /* \"#utility.yul\":16019:16020   */\n      dup3\n        /* \"#utility.yul\":16016:16017   */\n      dup3\n        /* \"#utility.yul\":16012:16021   */\n      sub\n        /* \"#utility.yul\":16004:16021   */\n      swap1\n      pop\n        /* \"#utility.yul\":16043:16044   */\n      dup2\n        /* \"#utility.yul\":16037:16041   */\n      dup2\n        /* \"#utility.yul\":16034:16045   */\n      gt\n        /* \"#utility.yul\":16031:16068   */\n      iszero\n      tag_475\n      jumpi\n        /* \"#utility.yul\":16048:16066   */\n      tag_476\n      tag_279\n      jump\t// in\n    tag_476:\n        /* \"#utility.yul\":16031:16068   */\n    tag_475:\n        /* \"#utility.yul\":15881:16075   */\n      swap3\n      swap2\n      pop\n      pop\n      jump\t// out\n        /* \"#utility.yul\":16081:16252   */\n    tag_297:\n        /* \"#utility.yul\":16221:16244   */\n      0x4e6f2070726f706f73616c20617661696c61626c650000000000000000000000\n        /* \"#utility.yul\":16217:16218   */\n      0x00\n        /* \"#utility.yul\":16209:16215   */\n      dup3\n        /* \"#utility.yul\":16205:16219   */\n      add\n        /* \"#utility.yul\":16198:16245   */\n      mstore\n        /* \"#utility.yul\":16081:16252   */\n      pop\n      jump\t// out\n        /* \"#utility.yul\":16258:16624   */\n    tag_298:\n        /* \"#utility.yul\":16400:16403   */\n      0x00\n        /* \"#utility.yul\":16421:16488   */\n      tag_479\n        /* \"#utility.yul\":16485:16487   */\n      0x15\n        /* \"#utility.yul\":16480:16483   */\n      dup4\n        /* \"#utility.yul\":16421:16488   */\n      tag_256\n      jump\t// in\n    tag_479:\n        /* \"#utility.yul\":16414:16488   */\n      swap2\n      pop\n        /* \"#utility.yul\":16497:16590   */\n      tag_480\n        /* \"#utility.yul\":16586:16589   */\n      dup3\n        /* \"#utility.yul\":16497:16590   */\n      tag_297\n      jump\t// in\n    tag_480:\n        /* \"#utility.yul\":16615:16617   */\n      0x20\n        /* \"#utility.yul\":16610:16613   */\n      dup3\n        /* \"#utility.yul\":16606:16618   */\n      add\n        /* \"#utility.yul\":16599:16618   */\n      swap1\n      pop\n        /* \"#utility.yul\":16258:16624   */\n      swap2\n      swap1\n      pop\n      jump\t// out\n        /* \"#utility.yul\":16630:17049   */\n    tag_148:\n        /* \"#utility.yul\":16796:16800   */\n      0x00\n        /* \"#utility.yul\":16834:16836   */\n      0x20\n        /* \"#utility.yul\":16823:16832   */\n      dup3\n        /* \"#utility.yul\":16819:16837   */\n      add\n        /* \"#utility.yul\":16811:16837   */\n      swap1\n      pop\n        /* \"#utility.yul\":16883:16892   */\n      dup2\n        /* \"#utility.yul\":16877:16881   */\n      dup2\n        /* \"#utility.yul\":16873:16893   */\n      sub\n        /* \"#utility.yul\":16869:16870   */\n      0x00\n        /* \"#utility.yul\":16858:16867   */\n      dup4\n        /* \"#utility.yul\":16854:16871   */\n      add\n        /* \"#utility.yul\":16847:16894   */\n      mstore\n        /* \"#utility.yul\":16911:17042   */\n      tag_482\n        /* \"#utility.yul\":17037:17041   */\n      dup2\n        /* \"#utility.yul\":16911:17042   */\n      tag_298\n      jump\t// in\n    tag_482:\n        /* \"#utility.yul\":16903:17042   */\n      swap1\n      pop\n        /* \"#utility.yul\":16630:17049   */\n      swap2\n      swap1\n      pop\n      jump\t// out\n        /* \"#utility.yul\":17055:17230   */\n    tag_299:\n        /* \"#utility.yul\":17195:17222   */\n      0x4164647265737320686173206e6f7420766f7465642079657400000000000000\n        /* \"#utility.yul\":17191:17192   */\n      0x00\n        /* \"#utility.yul\":17183:17189   */\n      dup3\n        /* \"#utility.yul\":17179:17193   */\n      add\n        /* \"#utility.yul\":17172:17223   */\n      mstore\n        /* \"#utility.yul\":17055:17230   */\n      pop\n      jump\t// out\n        /* \"#utility.yul\":17236:17602   */\n    tag_300:\n        /* \"#utility.yul\":17378:17381   */\n      0x00\n        /* \"#utility.yul\":17399:17466   */\n      tag_485\n        /* \"#utility.yul\":17463:17465   */\n      0x19\n        /* \"#utility.yul\":17458:17461   */\n      dup4\n        /* \"#utility.yul\":17399:17466   */\n      tag_256\n      jump\t// in\n    tag_485:\n        /* \"#utility.yul\":17392:17466   */\n      swap2\n      pop\n        /* \"#utility.yul\":17475:17568   */\n      tag_486\n        /* \"#utility.yul\":17564:17567   */\n      dup3\n        /* \"#utility.yul\":17475:17568   */\n      tag_299\n      jump\t// in\n    tag_486:\n        /* \"#utility.yul\":17593:17595   */\n      0x20\n        /* \"#utility.yul\":17588:17591   */\n      dup3\n        /* \"#utility.yul\":17584:17596   */\n      add\n        /* \"#utility.yul\":17577:17596   */\n      swap1\n      pop\n        /* \"#utility.yul\":17236:17602   */\n      swap2\n      swap1\n      pop\n      jump\t// out\n        /* \"#utility.yul\":17608:18027   */\n    tag_193:\n        /* \"#utility.yul\":17774:17778   */\n      0x00\n        /* \"#utility.yul\":17812:17814   */\n      0x20\n        /* \"#utility.yul\":17801:17810   */\n      dup3\n        /* \"#utility.yul\":17797:17815   */\n      add\n        /* \"#utility.yul\":17789:17815   */\n      swap1\n      pop\n        /* \"#utility.yul\":17861:17870   */\n      dup2\n        /* \"#utility.yul\":17855:17859   */\n      dup2\n        /* \"#utility.yul\":17851:17871   */\n      sub\n        /* \"#utility.yul\":17847:17848   */\n      0x00\n        /* \"#utility.yul\":17836:17845   */\n      dup4\n        /* \"#utility.yul\":17832:17849   */\n      add\n        /* \"#utility.yul\":17825:17872   */\n      mstore\n        /* \"#utility.yul\":17889:18020   */\n      tag_488\n        /* \"#utility.yul\":18015:18019   */\n      dup2\n        /* \"#utility.yul\":17889:18020   */\n      tag_300\n      jump\t// in\n    tag_488:\n        /* \"#utility.yul\":17881:18020   */\n      swap1\n      pop\n        /* \"#utility.yul\":17608:18027   */\n      swap2\n      swap1\n      pop\n      jump\t// out\n\n    auxdata: 0xa2646970667358221220374ed8c2c81dc356f0ae364004ef8353b3305661b4b200d3e4ece67ef20b7d7364736f6c634300081c0033\n}\n",
				"bytecode": {
					"linkReferences": {},
					"object": "608060405234801561000f575f5ffd5b50335f73ffffffffffffffffffffffffffffffffffffffff168173ffffffffffffffffffffffffffffffffffffffff1603610081575f6040517f1e4fbdf70000000000000000000000000000000000000000000000000000000081526004016100789190610196565b60405180910390fd5b6100908161009660201b60201c565b506101af565b5f5f5f9054906101000a900473ffffffffffffffffffffffffffffffffffffffff169050815f5f6101000a81548173ffffffffffffffffffffffffffffffffffffffff021916908373ffffffffffffffffffffffffffffffffffffffff1602179055508173ffffffffffffffffffffffffffffffffffffffff168173ffffffffffffffffffffffffffffffffffffffff167f8be0079c531659141344cd1fd0a4f28419497f9722a3daafe3b4186f6b6457e060405160405180910390a35050565b5f73ffffffffffffffffffffffffffffffffffffffff82169050919050565b5f61018082610157565b9050919050565b61019081610176565b82525050565b5f6020820190506101a95f830184610187565b92915050565b611c4c806101bc5f395ff3fe608060405234801561000f575f5ffd5b50600436106100f3575f3560e01c80637f64978311610095578063c64963c511610064578063c64963c514610210578063e85a8f2a1461022e578063ee74c67814610238578063f2fde38b14610242576100f3565b80637f6497831461019c5780638847103b146101b85780638da5cb5b146101e8578063a7bfab1614610206576100f3565b806319f41a40116100d157806319f41a401461014e5780632f95355b1461016c578063378a217814610188578063715018a614610192576100f3565b80630121b93f146100f7578063013cf08b146101135780630f7e283814610144575b5f5ffd5b610111600480360381019061010c91906112f9565b61025e565b005b61012d600480360381019061012891906112f9565b61055a565b60405161013b9291906113a3565b60405180910390f35b61014c61060f565b005b610156610706565b6040516101639190611444565b60405180910390f35b610186600480360381019061018191906114be565b610718565b005b61019061091a565b005b61019a610ad4565b005b6101b660048036038101906101b1919061155e565b610ae7565b005b6101d260048036038101906101cd9190611603565b610c74565b6040516101df919061162e565b60405180910390f35b6101f0610dd6565b6040516101fd9190611656565b60405180910390f35b61020e610dfd565b005b610218610ef5565b604051610225919061162e565b60405180910390f35b610236610efb565b005b610240610ff3565b005b61025c60048036038101906102579190611603565b6110eb565b005b60015f3373ffffffffffffffffffffffffffffffffffffffff1673ffffffffffffffffffffffffffffffffffffffff1681526020019081526020015f205f015f9054906101000a900460ff166102eb57336040517feadb950f0000000000000000000000000000000000000000000000000000000081526004016102e29190611656565b60405180910390fd5b6003806005811115610300576102ff6113d1565b5b60035f9054906101000a900460ff166005811115610321576103206113d1565b5b14610373578060035f9054906101000a900460ff166040517f2e73d6d900000000000000000000000000000000000000000000000000000000815260040161036a92919061166f565b60405180910390fd5b60015f3373ffffffffffffffffffffffffffffffffffffffff1673ffffffffffffffffffffffffffffffffffffffff1681526020019081526020015f205f0160019054906101000a900460ff1615610400576040517f08c379a00000000000000000000000000000000000000000000000000000000081526004016103f7906116e0565b60405180910390fd5b6002805490508210610447576040517f08c379a000000000000000000000000000000000000000000000000000000000815260040161043e90611748565b60405180910390fd5b6001805f3373ffffffffffffffffffffffffffffffffffffffff1673ffffffffffffffffffffffffffffffffffffffff1681526020019081526020015f205f0160016101000a81548160ff0219169083151502179055508160015f3373ffffffffffffffffffffffffffffffffffffffff1673ffffffffffffffffffffffffffffffffffffffff1681526020019081526020015f20600101819055506001600283815481106104f9576104f8611766565b5b905f5260205f2090600202016001015f82825461051691906117c0565b925050819055507f4d99b957a2bc29a30ebd96a7be8e68fe50a3c701db28a91436490b7d53870ca4338360405161054e9291906117f3565b60405180910390a15050565b60028181548110610569575f80fd5b905f5260205f2090600202015f91509050805f01805461058890611847565b80601f01602080910402602001604051908101604052809291908181526020018280546105b490611847565b80156105ff5780601f106105d6576101008083540402835291602001916105ff565b820191905f5260205f20905b8154815290600101906020018083116105e257829003601f168201915b5050505050908060010154905082565b61061761116f565b5f600181600581111561062d5761062c6113d1565b5b60035f9054906101000a900460ff16600581111561064e5761064d6113d1565b5b146106a0578160035f9054906101000a900460ff166040517f2e73d6d900000000000000000000000000000000000000000000000000000000815260040161069792919061166f565b60405180910390fd5b8060035f6101000a81548160ff021916908360058111156106c4576106c36113d1565b5b02179055507f0a97a4ee45751e2abf3e4fc8946939630b11b371ea8ae39ccdc3056e98f5cc3f82826040516106fa92919061166f565b60405180910390a15050565b60035f9054906101000a900460ff1681565b60015f3373ffffffffffffffffffffffffffffffffffffffff1673ffffffffffffffffffffffffffffffffffffffff1681526020019081526020015f205f015f9054906101000a900460ff166107a557336040517feadb950f00000000000000000000000000000000000000000000000000000000815260040161079c9190611656565b60405180910390fd5b60018060058111156107ba576107b96113d1565b5b60035f9054906101000a900460ff1660058111156107db576107da6113d1565b5b1461082d578060035f9054906101000a900460ff166040517f2e73d6d900000000000000000000000000000000000000000000000000000000815260040161082492919061166f565b60405180910390fd5b6002604051806040016040528085858080601f0160208091040260200160405190810160405280939291908181526020018383808284375f81840152601f19601f8201169050808301925050505050505081526020015f815250908060018154018082558091505060019003905f5260205f2090600202015f909190919091505f820151815f0190816108c09190611a44565b506020820151816001015550507f92e393e9b54e2f801d3ea4beb0c5e71a21cc34a5d34b77d0fb8a3aa1650dc18f60016002805490506109009190611b13565b60405161090d919061162e565b60405180910390a1505050565b61092261116f565b6004806005811115610937576109366113d1565b5b60035f9054906101000a900460ff166005811115610958576109576113d1565b5b146109aa578060035f9054906101000a900460ff166040517f2e73d6d90000000000000000000000000000000000000000000000000000000081526004016109a192919061166f565b60405180910390fd5b6002805490505f106109f1576040517f08c379a00000000000000000000000000000000000000000000000000000000081526004016109e890611b90565b60405180910390fd5b5f5f5f90505b600280549050811015610a635760028181548110610a1857610a17611766565b5b905f5260205f2090600202016001015460028381548110610a3c57610a3b611766565b5b905f5260205f209060020201600101541015610a56578091505b80806001019150506109f7565b5080600481905550600560035f6101000a81548160ff02191690836005811115610a9057610a8f6113d1565b5b02179055507f0a97a4ee45751e2abf3e4fc8946939630b11b371ea8ae39ccdc3056e98f5cc3f60046005604051610ac892919061166f565b60405180910390a15050565b610adc61116f565b610ae55f6111f6565b565b610aef61116f565b5f806005811115610b0357610b026113d1565b5b60035f9054906101000a900460ff166005811115610b2457610b236113d1565b5b14610b76578060035f9054906101000a900460ff166040517f2e73d6d9000000000000000000000000000000000000000000000000000000008152600401610b6d92919061166f565b60405180910390fd5b5f5f90505b83839050811015610c6e576001805f868685818110610b9d57610b9c611766565b5b9050602002016020810190610bb29190611603565b73ffffffffffffffffffffffffffffffffffffffff1673ffffffffffffffffffffffffffffffffffffffff1681526020019081526020015f205f015f6101000a81548160ff0219169083151502179055507fb6be2187d059cc2a55fe29e0e503b566e1e0f8c8780096e185429350acffd3dd848483818110610c3757610c36611766565b5b9050602002016020810190610c4c9190611603565b604051610c599190611656565b60405180910390a18080600101915050610b7b565b50505050565b5f60015f3373ffffffffffffffffffffffffffffffffffffffff1673ffffffffffffffffffffffffffffffffffffffff1681526020019081526020015f205f015f9054906101000a900460ff16610d0257336040517feadb950f000000000000000000000000000000000000000000000000000000008152600401610cf99190611656565b60405180910390fd5b60015f8373ffffffffffffffffffffffffffffffffffffffff1673ffffffffffffffffffffffffffffffffffffffff1681526020019081526020015f205f0160019054906101000a900460ff16610d8e576040517f08c379a0000000000000000000000000000000000000000000000000000000008152600401610d8590611bf8565b60405180910390fd5b60015f8373ffffffffffffffffffffffffffffffffffffffff1673ffffffffffffffffffffffffffffffffffffffff1681526020019081526020015f20600101549050919050565b5f5f5f9054906101000a900473ffffffffffffffffffffffffffffffffffffffff16905090565b610e0561116f565b60036004816005811115610e1c57610e1b6113d1565b5b60035f9054906101000a900460ff166005811115610e3d57610e3c6113d1565b5b14610e8f578160035f9054906101000a900460ff166040517f2e73d6d9000000000000000000000000000000000000000000000000000000008152600401610e8692919061166f565b60405180910390fd5b8060035f6101000a81548160ff02191690836005811115610eb357610eb26113d1565b5b02179055507f0a97a4ee45751e2abf3e4fc8946939630b11b371ea8ae39ccdc3056e98f5cc3f8282604051610ee992919061166f565b60405180910390a15050565b60045481565b610f0361116f565b60016002816005811115610f1a57610f196113d1565b5b60035f9054906101000a900460ff166005811115610f3b57610f3a6113d1565b5b14610f8d578160035f9054906101000a900460ff166040517f2e73d6d9000000000000000000000000000000000000000000000000000000008152600401610f8492919061166f565b60405180910390fd5b8060035f6101000a81548160ff02191690836005811115610fb157610fb06113d1565b5b02179055507f0a97a4ee45751e2abf3e4fc8946939630b11b371ea8ae39ccdc3056e98f5cc3f8282604051610fe792919061166f565b60405180910390a15050565b610ffb61116f565b60026003816005811115611012576110116113d1565b5b60035f9054906101000a900460ff166005811115611033576110326113d1565b5b14611085578160035f9054906101000a900460ff166040517f2e73d6d900000000000000000000000000000000000000000000000000000000815260040161107c92919061166f565b60405180910390fd5b8060035f6101000a81548160ff021916908360058111156110a9576110a86113d1565b5b02179055507f0a97a4ee45751e2abf3e4fc8946939630b11b371ea8ae39ccdc3056e98f5cc3f82826040516110df92919061166f565b60405180910390a15050565b6110f361116f565b5f73ffffffffffffffffffffffffffffffffffffffff168173ffffffffffffffffffffffffffffffffffffffff1603611163575f6040517f1e4fbdf700000000000000000000000000000000000000000000000000000000815260040161115a9190611656565b60405180910390fd5b61116c816111f6565b50565b6111776112b7565b73ffffffffffffffffffffffffffffffffffffffff16611195610dd6565b73ffffffffffffffffffffffffffffffffffffffff16146111f4576111b86112b7565b6040517f118cdaa70000000000000000000000000000000000000000000000000000000081526004016111eb9190611656565b60405180910390fd5b565b5f5f5f9054906101000a900473ffffffffffffffffffffffffffffffffffffffff169050815f5f6101000a81548173ffffffffffffffffffffffffffffffffffffffff021916908373ffffffffffffffffffffffffffffffffffffffff1602179055508173ffffffffffffffffffffffffffffffffffffffff168173ffffffffffffffffffffffffffffffffffffffff167f8be0079c531659141344cd1fd0a4f28419497f9722a3daafe3b4186f6b6457e060405160405180910390a35050565b5f33905090565b5f5ffd5b5f5ffd5b5f819050919050565b6112d8816112c6565b81146112e2575f5ffd5b50565b5f813590506112f3816112cf565b92915050565b5f6020828403121561130e5761130d6112be565b5b5f61131b848285016112e5565b91505092915050565b5f81519050919050565b5f82825260208201905092915050565b8281835e5f83830152505050565b5f601f19601f8301169050919050565b5f61136682611324565b611370818561132e565b935061138081856020860161133e565b6113898161134c565b840191505092915050565b61139d816112c6565b82525050565b5f6040820190508181035f8301526113bb818561135c565b90506113ca6020830184611394565b9392505050565b7f4e487b71000000000000000000000000000000000000000000000000000000005f52602160045260245ffd5b6006811061140f5761140e6113d1565b5b50565b5f81905061141f826113fe565b919050565b5f61142e82611412565b9050919050565b61143e81611424565b82525050565b5f6020820190506114575f830184611435565b92915050565b5f5ffd5b5f5ffd5b5f5ffd5b5f5f83601f84011261147e5761147d61145d565b5b8235905067ffffffffffffffff81111561149b5761149a611461565b5b6020830191508360018202830111156114b7576114b6611465565b5b9250929050565b5f5f602083850312156114d4576114d36112be565b5b5f83013567ffffffffffffffff8111156114f1576114f06112c2565b5b6114fd85828601611469565b92509250509250929050565b5f5f83601f84011261151e5761151d61145d565b5b8235905067ffffffffffffffff81111561153b5761153a611461565b5b60208301915083602082028301111561155757611556611465565b5b9250929050565b5f5f60208385031215611574576115736112be565b5b5f83013567ffffffffffffffff811115611591576115906112c2565b5b61159d85828601611509565b92509250509250929050565b5f73ffffffffffffffffffffffffffffffffffffffff82169050919050565b5f6115d2826115a9565b9050919050565b6115e2816115c8565b81146115ec575f5ffd5b50565b5f813590506115fd816115d9565b92915050565b5f60208284031215611618576116176112be565b5b5f611625848285016115ef565b91505092915050565b5f6020820190506116415f830184611394565b92915050565b611650816115c8565b82525050565b5f6020820190506116695f830184611647565b92915050565b5f6040820190506116825f830185611435565b61168f6020830184611435565b9392505050565b7f596f75206861766520616c726561647920766f746564000000000000000000005f82015250565b5f6116ca60168361132e565b91506116d582611696565b602082019050919050565b5f6020820190508181035f8301526116f7816116be565b9050919050565b7f496e76616c69642070726f706f73616c204944000000000000000000000000005f82015250565b5f61173260138361132e565b915061173d826116fe565b602082019050919050565b5f6020820190508181035f83015261175f81611726565b9050919050565b7f4e487b71000000000000000000000000000000000000000000000000000000005f52603260045260245ffd5b7f4e487b71000000000000000000000000000000000000000000000000000000005f52601160045260245ffd5b5f6117ca826112c6565b91506117d5836112c6565b92508282019050808211156117ed576117ec611793565b5b92915050565b5f6040820190506118065f830185611647565b6118136020830184611394565b9392505050565b7f4e487b71000000000000000000000000000000000000000000000000000000005f52602260045260245ffd5b5f600282049050600182168061185e57607f821691505b6020821081036118715761187061181a565b5b50919050565b7f4e487b71000000000000000000000000000000000000000000000000000000005f52604160045260245ffd5b5f819050815f5260205f209050919050565b5f6020601f8301049050919050565b5f82821b905092915050565b5f600883026119007fffffffffffffffffffffffffffffffffffffffffffffffffffffffffffffffff826118c5565b61190a86836118c5565b95508019841693508086168417925050509392505050565b5f819050919050565b5f61194561194061193b846112c6565b611922565b6112c6565b9050919050565b5f819050919050565b61195e8361192b565b61197261196a8261194c565b8484546118d1565b825550505050565b5f5f905090565b61198961197a565b611994818484611955565b505050565b5b818110156119b7576119ac5f82611981565b60018101905061199a565b5050565b601f8211156119fc576119cd816118a4565b6119d6846118b6565b810160208510156119e5578190505b6119f96119f1856118b6565b830182611999565b50505b505050565b5f82821c905092915050565b5f611a1c5f1984600802611a01565b1980831691505092915050565b5f611a348383611a0d565b9150826002028217905092915050565b611a4d82611324565b67ffffffffffffffff811115611a6657611a65611877565b5b611a708254611847565b611a7b8282856119bb565b5f60209050601f831160018114611aac575f8415611a9a578287015190505b611aa48582611a29565b865550611b0b565b601f198416611aba866118a4565b5f5b82811015611ae157848901518255600182019150602085019450602081019050611abc565b86831015611afe5784890151611afa601f891682611a0d565b8355505b6001600288020188555050505b505050505050565b5f611b1d826112c6565b9150611b28836112c6565b9250828203905081811115611b4057611b3f611793565b5b92915050565b7f4e6f2070726f706f73616c20617661696c61626c6500000000000000000000005f82015250565b5f611b7a60158361132e565b9150611b8582611b46565b602082019050919050565b5f6020820190508181035f830152611ba781611b6e565b9050919050565b7f4164647265737320686173206e6f7420766f74656420796574000000000000005f82015250565b5f611be260198361132e565b9150611bed82611bae565b602082019050919050565b5f6020820190508181035f830152611c0f81611bd6565b905091905056fea2646970667358221220374ed8c2c81dc356f0ae364004ef8353b3305661b4b200d3e4ece67ef20b7d7364736f6c634300081c0033",
					"opcodes": "PUSH1 0x80 PUSH1 0x40 MSTORE CALLVALUE DUP1 ISZERO PUSH2 0xF JUMPI PUSH0 PUSH0 REVERT JUMPDEST POP CALLER PUSH0 PUSH20 0xFFFFFFFFFFFFFFFFFFFFFFFFFFFFFFFFFFFFFFFF AND DUP2 PUSH20 0xFFFFFFFFFFFFFFFFFFFFFFFFFFFFFFFFFFFFFFFF AND SUB PUSH2 0x81 JUMPI PUSH0 PUSH1 0x40 MLOAD PUSH32 0x1E4FBDF700000000000000000000000000000000000000000000000000000000 DUP2 MSTORE PUSH1 0x4 ADD PUSH2 0x78 SWAP2 SWAP1 PUSH2 0x196 JUMP JUMPDEST PUSH1 0x40 MLOAD DUP1 SWAP2 SUB SWAP1 REVERT JUMPDEST PUSH2 0x90 DUP2 PUSH2 0x96 PUSH1 0x20 SHL PUSH1 0x20 SHR JUMP JUMPDEST POP PUSH2 0x1AF JUMP JUMPDEST PUSH0 PUSH0 PUSH0 SWAP1 SLOAD SWAP1 PUSH2 0x100 EXP SWAP1 DIV PUSH20 0xFFFFFFFFFFFFFFFFFFFFFFFFFFFFFFFFFFFFFFFF AND SWAP1 POP DUP2 PUSH0 PUSH0 PUSH2 0x100 EXP DUP2 SLOAD DUP2 PUSH20 0xFFFFFFFFFFFFFFFFFFFFFFFFFFFFFFFFFFFFFFFF MUL NOT AND SWAP1 DUP4 PUSH20 0xFFFFFFFFFFFFFFFFFFFFFFFFFFFFFFFFFFFFFFFF AND MUL OR SWAP1 SSTORE POP DUP2 PUSH20 0xFFFFFFFFFFFFFFFFFFFFFFFFFFFFFFFFFFFFFFFF AND DUP2 PUSH20 0xFFFFFFFFFFFFFFFFFFFFFFFFFFFFFFFFFFFFFFFF AND PUSH32 0x8BE0079C531659141344CD1FD0A4F28419497F9722A3DAAFE3B4186F6B6457E0 PUSH1 0x40 MLOAD PUSH1 0x40 MLOAD DUP1 SWAP2 SUB SWAP1 LOG3 POP POP JUMP JUMPDEST PUSH0 PUSH20 0xFFFFFFFFFFFFFFFFFFFFFFFFFFFFFFFFFFFFFFFF DUP3 AND SWAP1 POP SWAP2 SWAP1 POP JUMP JUMPDEST PUSH0 PUSH2 0x180 DUP3 PUSH2 0x157 JUMP JUMPDEST SWAP1 POP SWAP2 SWAP1 POP JUMP JUMPDEST PUSH2 0x190 DUP2 PUSH2 0x176 JUMP JUMPDEST DUP3 MSTORE POP POP JUMP JUMPDEST PUSH0 PUSH1 0x20 DUP3 ADD SWAP1 POP PUSH2 0x1A9 PUSH0 DUP4 ADD DUP5 PUSH2 0x187 JUMP JUMPDEST SWAP3 SWAP2 POP POP JUMP JUMPDEST PUSH2 0x1C4C DUP1 PUSH2 0x1BC PUSH0 CODECOPY PUSH0 RETURN INVALID PUSH1 0x80 PUSH1 0x40 MSTORE CALLVALUE DUP1 ISZERO PUSH2 0xF JUMPI PUSH0 PUSH0 REVERT JUMPDEST POP PUSH1 0x4 CALLDATASIZE LT PUSH2 0xF3 JUMPI PUSH0 CALLDATALOAD PUSH1 0xE0 SHR DUP1 PUSH4 0x7F649783 GT PUSH2 0x95 JUMPI DUP1 PUSH4 0xC64963C5 GT PUSH2 0x64 JUMPI DUP1 PUSH4 0xC64963C5 EQ PUSH2 0x210 JUMPI DUP1 PUSH4 0xE85A8F2A EQ PUSH2 0x22E JUMPI DUP1 PUSH4 0xEE74C678 EQ PUSH2 0x238 JUMPI DUP1 PUSH4 0xF2FDE38B EQ PUSH2 0x242 JUMPI PUSH2 0xF3 JUMP JUMPDEST DUP1 PUSH4 0x7F649783 EQ PUSH2 0x19C JUMPI DUP1 PUSH4 0x8847103B EQ PUSH2 0x1B8 JUMPI DUP1 PUSH4 0x8DA5CB5B EQ PUSH2 0x1E8 JUMPI DUP1 PUSH4 0xA7BFAB16 EQ PUSH2 0x206 JUMPI PUSH2 0xF3 JUMP JUMPDEST DUP1 PUSH4 0x19F41A40 GT PUSH2 0xD1 JUMPI DUP1 PUSH4 0x19F41A40 EQ PUSH2 0x14E JUMPI DUP1 PUSH4 0x2F95355B EQ PUSH2 0x16C JUMPI DUP1 PUSH4 0x378A2178 EQ PUSH2 0x188 JUMPI DUP1 PUSH4 0x715018A6 EQ PUSH2 0x192 JUMPI PUSH2 0xF3 JUMP JUMPDEST DUP1 PUSH4 0x121B93F EQ PUSH2 0xF7 JUMPI DUP1 PUSH4 0x13CF08B EQ PUSH2 0x113 JUMPI DUP1 PUSH4 0xF7E2838 EQ PUSH2 0x144 JUMPI JUMPDEST PUSH0 PUSH0 REVERT JUMPDEST PUSH2 0x111 PUSH1 0x4 DUP1 CALLDATASIZE SUB DUP2 ADD SWAP1 PUSH2 0x10C SWAP2 SWAP1 PUSH2 0x12F9 JUMP JUMPDEST PUSH2 0x25E JUMP JUMPDEST STOP JUMPDEST PUSH2 0x12D PUSH1 0x4 DUP1 CALLDATASIZE SUB DUP2 ADD SWAP1 PUSH2 0x128 SWAP2 SWAP1 PUSH2 0x12F9 JUMP JUMPDEST PUSH2 0x55A JUMP JUMPDEST PUSH1 0x40 MLOAD PUSH2 0x13B SWAP3 SWAP2 SWAP1 PUSH2 0x13A3 JUMP JUMPDEST PUSH1 0x40 MLOAD DUP1 SWAP2 SUB SWAP1 RETURN JUMPDEST PUSH2 0x14C PUSH2 0x60F JUMP JUMPDEST STOP JUMPDEST PUSH2 0x156 PUSH2 0x706 JUMP JUMPDEST PUSH1 0x40 MLOAD PUSH2 0x163 SWAP2 SWAP1 PUSH2 0x1444 JUMP JUMPDEST PUSH1 0x40 MLOAD DUP1 SWAP2 SUB SWAP1 RETURN JUMPDEST PUSH2 0x186 PUSH1 0x4 DUP1 CALLDATASIZE SUB DUP2 ADD SWAP1 PUSH2 0x181 SWAP2 SWAP1 PUSH2 0x14BE JUMP JUMPDEST PUSH2 0x718 JUMP JUMPDEST STOP JUMPDEST PUSH2 0x190 PUSH2 0x91A JUMP JUMPDEST STOP JUMPDEST PUSH2 0x19A PUSH2 0xAD4 JUMP JUMPDEST STOP JUMPDEST PUSH2 0x1B6 PUSH1 0x4 DUP1 CALLDATASIZE SUB DUP2 ADD SWAP1 PUSH2 0x1B1 SWAP2 SWAP1 PUSH2 0x155E JUMP JUMPDEST PUSH2 0xAE7 JUMP JUMPDEST STOP JUMPDEST PUSH2 0x1D2 PUSH1 0x4 DUP1 CALLDATASIZE SUB DUP2 ADD SWAP1 PUSH2 0x1CD SWAP2 SWAP1 PUSH2 0x1603 JUMP JUMPDEST PUSH2 0xC74 JUMP JUMPDEST PUSH1 0x40 MLOAD PUSH2 0x1DF SWAP2 SWAP1 PUSH2 0x162E JUMP JUMPDEST PUSH1 0x40 MLOAD DUP1 SWAP2 SUB SWAP1 RETURN JUMPDEST PUSH2 0x1F0 PUSH2 0xDD6 JUMP JUMPDEST PUSH1 0x40 MLOAD PUSH2 0x1FD SWAP2 SWAP1 PUSH2 0x1656 JUMP JUMPDEST PUSH1 0x40 MLOAD DUP1 SWAP2 SUB SWAP1 RETURN JUMPDEST PUSH2 0x20E PUSH2 0xDFD JUMP JUMPDEST STOP JUMPDEST PUSH2 0x218 PUSH2 0xEF5 JUMP JUMPDEST PUSH1 0x40 MLOAD PUSH2 0x225 SWAP2 SWAP1 PUSH2 0x162E JUMP JUMPDEST PUSH1 0x40 MLOAD DUP1 SWAP2 SUB SWAP1 RETURN JUMPDEST PUSH2 0x236 PUSH2 0xEFB JUMP JUMPDEST STOP JUMPDEST PUSH2 0x240 PUSH2 0xFF3 JUMP JUMPDEST STOP JUMPDEST PUSH2 0x25C PUSH1 0x4 DUP1 CALLDATASIZE SUB DUP2 ADD SWAP1 PUSH2 0x257 SWAP2 SWAP1 PUSH2 0x1603 JUMP JUMPDEST PUSH2 0x10EB JUMP JUMPDEST STOP JUMPDEST PUSH1 0x1 PUSH0 CALLER PUSH20 0xFFFFFFFFFFFFFFFFFFFFFFFFFFFFFFFFFFFFFFFF AND PUSH20 0xFFFFFFFFFFFFFFFFFFFFFFFFFFFFFFFFFFFFFFFF AND DUP2 MSTORE PUSH1 0x20 ADD SWAP1 DUP2 MSTORE PUSH1 0x20 ADD PUSH0 KECCAK256 PUSH0 ADD PUSH0 SWAP1 SLOAD SWAP1 PUSH2 0x100 EXP SWAP1 DIV PUSH1 0xFF AND PUSH2 0x2EB JUMPI CALLER PUSH1 0x40 MLOAD PUSH32 0xEADB950F00000000000000000000000000000000000000000000000000000000 DUP2 MSTORE PUSH1 0x4 ADD PUSH2 0x2E2 SWAP2 SWAP1 PUSH2 0x1656 JUMP JUMPDEST PUSH1 0x40 MLOAD DUP1 SWAP2 SUB SWAP1 REVERT JUMPDEST PUSH1 0x3 DUP1 PUSH1 0x5 DUP2 GT ISZERO PUSH2 0x300 JUMPI PUSH2 0x2FF PUSH2 0x13D1 JUMP JUMPDEST JUMPDEST PUSH1 0x3 PUSH0 SWAP1 SLOAD SWAP1 PUSH2 0x100 EXP SWAP1 DIV PUSH1 0xFF AND PUSH1 0x5 DUP2 GT ISZERO PUSH2 0x321 JUMPI PUSH2 0x320 PUSH2 0x13D1 JUMP JUMPDEST JUMPDEST EQ PUSH2 0x373 JUMPI DUP1 PUSH1 0x3 PUSH0 SWAP1 SLOAD SWAP1 PUSH2 0x100 EXP SWAP1 DIV PUSH1 0xFF AND PUSH1 0x40 MLOAD PUSH32 0x2E73D6D900000000000000000000000000000000000000000000000000000000 DUP2 MSTORE PUSH1 0x4 ADD PUSH2 0x36A SWAP3 SWAP2 SWAP1 PUSH2 0x166F JUMP JUMPDEST PUSH1 0x40 MLOAD DUP1 SWAP2 SUB SWAP1 REVERT JUMPDEST PUSH1 0x1 PUSH0 CALLER PUSH20 0xFFFFFFFFFFFFFFFFFFFFFFFFFFFFFFFFFFFFFFFF AND PUSH20 0xFFFFFFFFFFFFFFFFFFFFFFFFFFFFFFFFFFFFFFFF AND DUP2 MSTORE PUSH1 0x20 ADD SWAP1 DUP2 MSTORE PUSH1 0x20 ADD PUSH0 KECCAK256 PUSH0 ADD PUSH1 0x1 SWAP1 SLOAD SWAP1 PUSH2 0x100 EXP SWAP1 DIV PUSH1 0xFF AND ISZERO PUSH2 0x400 JUMPI PUSH1 0x40 MLOAD PUSH32 0x8C379A000000000000000000000000000000000000000000000000000000000 DUP2 MSTORE PUSH1 0x4 ADD PUSH2 0x3F7 SWAP1 PUSH2 0x16E0 JUMP JUMPDEST PUSH1 0x40 MLOAD DUP1 SWAP2 SUB SWAP1 REVERT JUMPDEST PUSH1 0x2 DUP1 SLOAD SWAP1 POP DUP3 LT PUSH2 0x447 JUMPI PUSH1 0x40 MLOAD PUSH32 0x8C379A000000000000000000000000000000000000000000000000000000000 DUP2 MSTORE PUSH1 0x4 ADD PUSH2 0x43E SWAP1 PUSH2 0x1748 JUMP JUMPDEST PUSH1 0x40 MLOAD DUP1 SWAP2 SUB SWAP1 REVERT JUMPDEST PUSH1 0x1 DUP1 PUSH0 CALLER PUSH20 0xFFFFFFFFFFFFFFFFFFFFFFFFFFFFFFFFFFFFFFFF AND PUSH20 0xFFFFFFFFFFFFFFFFFFFFFFFFFFFFFFFFFFFFFFFF AND DUP2 MSTORE PUSH1 0x20 ADD SWAP1 DUP2 MSTORE PUSH1 0x20 ADD PUSH0 KECCAK256 PUSH0 ADD PUSH1 0x1 PUSH2 0x100 EXP DUP2 SLOAD DUP2 PUSH1 0xFF MUL NOT AND SWAP1 DUP4 ISZERO ISZERO MUL OR SWAP1 SSTORE POP DUP2 PUSH1 0x1 PUSH0 CALLER PUSH20 0xFFFFFFFFFFFFFFFFFFFFFFFFFFFFFFFFFFFFFFFF AND PUSH20 0xFFFFFFFFFFFFFFFFFFFFFFFFFFFFFFFFFFFFFFFF AND DUP2 MSTORE PUSH1 0x20 ADD SWAP1 DUP2 MSTORE PUSH1 0x20 ADD PUSH0 KECCAK256 PUSH1 0x1 ADD DUP2 SWAP1 SSTORE POP PUSH1 0x1 PUSH1 0x2 DUP4 DUP2 SLOAD DUP2 LT PUSH2 0x4F9 JUMPI PUSH2 0x4F8 PUSH2 0x1766 JUMP JUMPDEST JUMPDEST SWAP1 PUSH0 MSTORE PUSH1 0x20 PUSH0 KECCAK256 SWAP1 PUSH1 0x2 MUL ADD PUSH1 0x1 ADD PUSH0 DUP3 DUP3 SLOAD PUSH2 0x516 SWAP2 SWAP1 PUSH2 0x17C0 JUMP JUMPDEST SWAP3 POP POP DUP2 SWAP1 SSTORE POP PUSH32 0x4D99B957A2BC29A30EBD96A7BE8E68FE50A3C701DB28A91436490B7D53870CA4 CALLER DUP4 PUSH1 0x40 MLOAD PUSH2 0x54E SWAP3 SWAP2 SWAP1 PUSH2 0x17F3 JUMP JUMPDEST PUSH1 0x40 MLOAD DUP1 SWAP2 SUB SWAP1 LOG1 POP POP JUMP JUMPDEST PUSH1 0x2 DUP2 DUP2 SLOAD DUP2 LT PUSH2 0x569 JUMPI PUSH0 DUP1 REVERT JUMPDEST SWAP1 PUSH0 MSTORE PUSH1 0x20 PUSH0 KECCAK256 SWAP1 PUSH1 0x2 MUL ADD PUSH0 SWAP2 POP SWAP1 POP DUP1 PUSH0 ADD DUP1 SLOAD PUSH2 0x588 SWAP1 PUSH2 0x1847 JUMP JUMPDEST DUP1 PUSH1 0x1F ADD PUSH1 0x20 DUP1 SWAP2 DIV MUL PUSH1 0x20 ADD PUSH1 0x40 MLOAD SWAP1 DUP2 ADD PUSH1 0x40 MSTORE DUP1 SWAP3 SWAP2 SWAP1 DUP2 DUP2 MSTORE PUSH1 0x20 ADD DUP3 DUP1 SLOAD PUSH2 0x5B4 SWAP1 PUSH2 0x1847 JUMP JUMPDEST DUP1 ISZERO PUSH2 0x5FF JUMPI DUP1 PUSH1 0x1F LT PUSH2 0x5D6 JUMPI PUSH2 0x100 DUP1 DUP4 SLOAD DIV MUL DUP4 MSTORE SWAP2 PUSH1 0x20 ADD SWAP2 PUSH2 0x5FF JUMP JUMPDEST DUP3 ADD SWAP2 SWAP1 PUSH0 MSTORE PUSH1 0x20 PUSH0 KECCAK256 SWAP1 JUMPDEST DUP2 SLOAD DUP2 MSTORE SWAP1 PUSH1 0x1 ADD SWAP1 PUSH1 0x20 ADD DUP1 DUP4 GT PUSH2 0x5E2 JUMPI DUP3 SWAP1 SUB PUSH1 0x1F AND DUP3 ADD SWAP2 JUMPDEST POP POP POP POP POP SWAP1 DUP1 PUSH1 0x1 ADD SLOAD SWAP1 POP DUP3 JUMP JUMPDEST PUSH2 0x617 PUSH2 0x116F JUMP JUMPDEST PUSH0 PUSH1 0x1 DUP2 PUSH1 0x5 DUP2 GT ISZERO PUSH2 0x62D JUMPI PUSH2 0x62C PUSH2 0x13D1 JUMP JUMPDEST JUMPDEST PUSH1 0x3 PUSH0 SWAP1 SLOAD SWAP1 PUSH2 0x100 EXP SWAP1 DIV PUSH1 0xFF AND PUSH1 0x5 DUP2 GT ISZERO PUSH2 0x64E JUMPI PUSH2 0x64D PUSH2 0x13D1 JUMP JUMPDEST JUMPDEST EQ PUSH2 0x6A0 JUMPI DUP2 PUSH1 0x3 PUSH0 SWAP1 SLOAD SWAP1 PUSH2 0x100 EXP SWAP1 DIV PUSH1 0xFF AND PUSH1 0x40 MLOAD PUSH32 0x2E73D6D900000000000000000000000000000000000000000000000000000000 DUP2 MSTORE PUSH1 0x4 ADD PUSH2 0x697 SWAP3 SWAP2 SWAP1 PUSH2 0x166F JUMP JUMPDEST PUSH1 0x40 MLOAD DUP1 SWAP2 SUB SWAP1 REVERT JUMPDEST DUP1 PUSH1 0x3 PUSH0 PUSH2 0x100 EXP DUP2 SLOAD DUP2 PUSH1 0xFF MUL NOT AND SWAP1 DUP4 PUSH1 0x5 DUP2 GT ISZERO PUSH2 0x6C4 JUMPI PUSH2 0x6C3 PUSH2 0x13D1 JUMP JUMPDEST JUMPDEST MUL OR SWAP1 SSTORE POP PUSH32 0xA97A4EE45751E2ABF3E4FC8946939630B11B371EA8AE39CCDC3056E98F5CC3F DUP3 DUP3 PUSH1 0x40 MLOAD PUSH2 0x6FA SWAP3 SWAP2 SWAP1 PUSH2 0x166F JUMP JUMPDEST PUSH1 0x40 MLOAD DUP1 SWAP2 SUB SWAP1 LOG1 POP POP JUMP JUMPDEST PUSH1 0x3 PUSH0 SWAP1 SLOAD SWAP1 PUSH2 0x100 EXP SWAP1 DIV PUSH1 0xFF AND DUP2 JUMP JUMPDEST PUSH1 0x1 PUSH0 CALLER PUSH20 0xFFFFFFFFFFFFFFFFFFFFFFFFFFFFFFFFFFFFFFFF AND PUSH20 0xFFFFFFFFFFFFFFFFFFFFFFFFFFFFFFFFFFFFFFFF AND DUP2 MSTORE PUSH1 0x20 ADD SWAP1 DUP2 MSTORE PUSH1 0x20 ADD PUSH0 KECCAK256 PUSH0 ADD PUSH0 SWAP1 SLOAD SWAP1 PUSH2 0x100 EXP SWAP1 DIV PUSH1 0xFF AND PUSH2 0x7A5 JUMPI CALLER PUSH1 0x40 MLOAD PUSH32 0xEADB950F00000000000000000000000000000000000000000000000000000000 DUP2 MSTORE PUSH1 0x4 ADD PUSH2 0x79C SWAP2 SWAP1 PUSH2 0x1656 JUMP JUMPDEST PUSH1 0x40 MLOAD DUP1 SWAP2 SUB SWAP1 REVERT JUMPDEST PUSH1 0x1 DUP1 PUSH1 0x5 DUP2 GT ISZERO PUSH2 0x7BA JUMPI PUSH2 0x7B9 PUSH2 0x13D1 JUMP JUMPDEST JUMPDEST PUSH1 0x3 PUSH0 SWAP1 SLOAD SWAP1 PUSH2 0x100 EXP SWAP1 DIV PUSH1 0xFF AND PUSH1 0x5 DUP2 GT ISZERO PUSH2 0x7DB JUMPI PUSH2 0x7DA PUSH2 0x13D1 JUMP JUMPDEST JUMPDEST EQ PUSH2 0x82D JUMPI DUP1 PUSH1 0x3 PUSH0 SWAP1 SLOAD SWAP1 PUSH2 0x100 EXP SWAP1 DIV PUSH1 0xFF AND PUSH1 0x40 MLOAD PUSH32 0x2E73D6D900000000000000000000000000000000000000000000000000000000 DUP2 MSTORE PUSH1 0x4 ADD PUSH2 0x824 SWAP3 SWAP2 SWAP1 PUSH2 0x166F JUMP JUMPDEST PUSH1 0x40 MLOAD DUP1 SWAP2 SUB SWAP1 REVERT JUMPDEST PUSH1 0x2 PUSH1 0x40 MLOAD DUP1 PUSH1 0x40 ADD PUSH1 0x40 MSTORE DUP1 DUP6 DUP6 DUP1 DUP1 PUSH1 0x1F ADD PUSH1 0x20 DUP1 SWAP2 DIV MUL PUSH1 0x20 ADD PUSH1 0x40 MLOAD SWAP1 DUP2 ADD PUSH1 0x40 MSTORE DUP1 SWAP4 SWAP3 SWAP2 SWAP1 DUP2 DUP2 MSTORE PUSH1 0x20 ADD DUP4 DUP4 DUP1 DUP3 DUP5 CALLDATACOPY PUSH0 DUP2 DUP5 ADD MSTORE PUSH1 0x1F NOT PUSH1 0x1F DUP3 ADD AND SWAP1 POP DUP1 DUP4 ADD SWAP3 POP POP POP POP POP POP POP DUP2 MSTORE PUSH1 0x20 ADD PUSH0 DUP2 MSTORE POP SWAP1 DUP1 PUSH1 0x1 DUP2 SLOAD ADD DUP1 DUP3 SSTORE DUP1 SWAP2 POP POP PUSH1 0x1 SWAP1 SUB SWAP1 PUSH0 MSTORE PUSH1 0x20 PUSH0 KECCAK256 SWAP1 PUSH1 0x2 MUL ADD PUSH0 SWAP1 SWAP2 SWAP1 SWAP2 SWAP1 SWAP2 POP PUSH0 DUP3 ADD MLOAD DUP2 PUSH0 ADD SWAP1 DUP2 PUSH2 0x8C0 SWAP2 SWAP1 PUSH2 0x1A44 JUMP JUMPDEST POP PUSH1 0x20 DUP3 ADD MLOAD DUP2 PUSH1 0x1 ADD SSTORE POP POP PUSH32 0x92E393E9B54E2F801D3EA4BEB0C5E71A21CC34A5D34B77D0FB8A3AA1650DC18F PUSH1 0x1 PUSH1 0x2 DUP1 SLOAD SWAP1 POP PUSH2 0x900 SWAP2 SWAP1 PUSH2 0x1B13 JUMP JUMPDEST PUSH1 0x40 MLOAD PUSH2 0x90D SWAP2 SWAP1 PUSH2 0x162E JUMP JUMPDEST PUSH1 0x40 MLOAD DUP1 SWAP2 SUB SWAP1 LOG1 POP POP POP JUMP JUMPDEST PUSH2 0x922 PUSH2 0x116F JUMP JUMPDEST PUSH1 0x4 DUP1 PUSH1 0x5 DUP2 GT ISZERO PUSH2 0x937 JUMPI PUSH2 0x936 PUSH2 0x13D1 JUMP JUMPDEST JUMPDEST PUSH1 0x3 PUSH0 SWAP1 SLOAD SWAP1 PUSH2 0x100 EXP SWAP1 DIV PUSH1 0xFF AND PUSH1 0x5 DUP2 GT ISZERO PUSH2 0x958 JUMPI PUSH2 0x957 PUSH2 0x13D1 JUMP JUMPDEST JUMPDEST EQ PUSH2 0x9AA JUMPI DUP1 PUSH1 0x3 PUSH0 SWAP1 SLOAD SWAP1 PUSH2 0x100 EXP SWAP1 DIV PUSH1 0xFF AND PUSH1 0x40 MLOAD PUSH32 0x2E73D6D900000000000000000000000000000000000000000000000000000000 DUP2 MSTORE PUSH1 0x4 ADD PUSH2 0x9A1 SWAP3 SWAP2 SWAP1 PUSH2 0x166F JUMP JUMPDEST PUSH1 0x40 MLOAD DUP1 SWAP2 SUB SWAP1 REVERT JUMPDEST PUSH1 0x2 DUP1 SLOAD SWAP1 POP PUSH0 LT PUSH2 0x9F1 JUMPI PUSH1 0x40 MLOAD PUSH32 0x8C379A000000000000000000000000000000000000000000000000000000000 DUP2 MSTORE PUSH1 0x4 ADD PUSH2 0x9E8 SWAP1 PUSH2 0x1B90 JUMP JUMPDEST PUSH1 0x40 MLOAD DUP1 SWAP2 SUB SWAP1 REVERT JUMPDEST PUSH0 PUSH0 PUSH0 SWAP1 POP JUMPDEST PUSH1 0x2 DUP1 SLOAD SWAP1 POP DUP2 LT ISZERO PUSH2 0xA63 JUMPI PUSH1 0x2 DUP2 DUP2 SLOAD DUP2 LT PUSH2 0xA18 JUMPI PUSH2 0xA17 PUSH2 0x1766 JUMP JUMPDEST JUMPDEST SWAP1 PUSH0 MSTORE PUSH1 0x20 PUSH0 KECCAK256 SWAP1 PUSH1 0x2 MUL ADD PUSH1 0x1 ADD SLOAD PUSH1 0x2 DUP4 DUP2 SLOAD DUP2 LT PUSH2 0xA3C JUMPI PUSH2 0xA3B PUSH2 0x1766 JUMP JUMPDEST JUMPDEST SWAP1 PUSH0 MSTORE PUSH1 0x20 PUSH0 KECCAK256 SWAP1 PUSH1 0x2 MUL ADD PUSH1 0x1 ADD SLOAD LT ISZERO PUSH2 0xA56 JUMPI DUP1 SWAP2 POP JUMPDEST DUP1 DUP1 PUSH1 0x1 ADD SWAP2 POP POP PUSH2 0x9F7 JUMP JUMPDEST POP DUP1 PUSH1 0x4 DUP2 SWAP1 SSTORE POP PUSH1 0x5 PUSH1 0x3 PUSH0 PUSH2 0x100 EXP DUP2 SLOAD DUP2 PUSH1 0xFF MUL NOT AND SWAP1 DUP4 PUSH1 0x5 DUP2 GT ISZERO PUSH2 0xA90 JUMPI PUSH2 0xA8F PUSH2 0x13D1 JUMP JUMPDEST JUMPDEST MUL OR SWAP1 SSTORE POP PUSH32 0xA97A4EE45751E2ABF3E4FC8946939630B11B371EA8AE39CCDC3056E98F5CC3F PUSH1 0x4 PUSH1 0x5 PUSH1 0x40 MLOAD PUSH2 0xAC8 SWAP3 SWAP2 SWAP1 PUSH2 0x166F JUMP JUMPDEST PUSH1 0x40 MLOAD DUP1 SWAP2 SUB SWAP1 LOG1 POP POP JUMP JUMPDEST PUSH2 0xADC PUSH2 0x116F JUMP JUMPDEST PUSH2 0xAE5 PUSH0 PUSH2 0x11F6 JUMP JUMPDEST JUMP JUMPDEST PUSH2 0xAEF PUSH2 0x116F JUMP JUMPDEST PUSH0 DUP1 PUSH1 0x5 DUP2 GT ISZERO PUSH2 0xB03 JUMPI PUSH2 0xB02 PUSH2 0x13D1 JUMP JUMPDEST JUMPDEST PUSH1 0x3 PUSH0 SWAP1 SLOAD SWAP1 PUSH2 0x100 EXP SWAP1 DIV PUSH1 0xFF AND PUSH1 0x5 DUP2 GT ISZERO PUSH2 0xB24 JUMPI PUSH2 0xB23 PUSH2 0x13D1 JUMP JUMPDEST JUMPDEST EQ PUSH2 0xB76 JUMPI DUP1 PUSH1 0x3 PUSH0 SWAP1 SLOAD SWAP1 PUSH2 0x100 EXP SWAP1 DIV PUSH1 0xFF AND PUSH1 0x40 MLOAD PUSH32 0x2E73D6D900000000000000000000000000000000000000000000000000000000 DUP2 MSTORE PUSH1 0x4 ADD PUSH2 0xB6D SWAP3 SWAP2 SWAP1 PUSH2 0x166F JUMP JUMPDEST PUSH1 0x40 MLOAD DUP1 SWAP2 SUB SWAP1 REVERT JUMPDEST PUSH0 PUSH0 SWAP1 POP JUMPDEST DUP4 DUP4 SWAP1 POP DUP2 LT ISZERO PUSH2 0xC6E JUMPI PUSH1 0x1 DUP1 PUSH0 DUP7 DUP7 DUP6 DUP2 DUP2 LT PUSH2 0xB9D JUMPI PUSH2 0xB9C PUSH2 0x1766 JUMP JUMPDEST JUMPDEST SWAP1 POP PUSH1 0x20 MUL ADD PUSH1 0x20 DUP2 ADD SWAP1 PUSH2 0xBB2 SWAP2 SWAP1 PUSH2 0x1603 JUMP JUMPDEST PUSH20 0xFFFFFFFFFFFFFFFFFFFFFFFFFFFFFFFFFFFFFFFF AND PUSH20 0xFFFFFFFFFFFFFFFFFFFFFFFFFFFFFFFFFFFFFFFF AND DUP2 MSTORE PUSH1 0x20 ADD SWAP1 DUP2 MSTORE PUSH1 0x20 ADD PUSH0 KECCAK256 PUSH0 ADD PUSH0 PUSH2 0x100 EXP DUP2 SLOAD DUP2 PUSH1 0xFF MUL NOT AND SWAP1 DUP4 ISZERO ISZERO MUL OR SWAP1 SSTORE POP PUSH32 0xB6BE2187D059CC2A55FE29E0E503B566E1E0F8C8780096E185429350ACFFD3DD DUP5 DUP5 DUP4 DUP2 DUP2 LT PUSH2 0xC37 JUMPI PUSH2 0xC36 PUSH2 0x1766 JUMP JUMPDEST JUMPDEST SWAP1 POP PUSH1 0x20 MUL ADD PUSH1 0x20 DUP2 ADD SWAP1 PUSH2 0xC4C SWAP2 SWAP1 PUSH2 0x1603 JUMP JUMPDEST PUSH1 0x40 MLOAD PUSH2 0xC59 SWAP2 SWAP1 PUSH2 0x1656 JUMP JUMPDEST PUSH1 0x40 MLOAD DUP1 SWAP2 SUB SWAP1 LOG1 DUP1 DUP1 PUSH1 0x1 ADD SWAP2 POP POP PUSH2 0xB7B JUMP JUMPDEST POP POP POP POP JUMP JUMPDEST PUSH0 PUSH1 0x1 PUSH0 CALLER PUSH20 0xFFFFFFFFFFFFFFFFFFFFFFFFFFFFFFFFFFFFFFFF AND PUSH20 0xFFFFFFFFFFFFFFFFFFFFFFFFFFFFFFFFFFFFFFFF AND DUP2 MSTORE PUSH1 0x20 ADD SWAP1 DUP2 MSTORE PUSH1 0x20 ADD PUSH0 KECCAK256 PUSH0 ADD PUSH0 SWAP1 SLOAD SWAP1 PUSH2 0x100 EXP SWAP1 DIV PUSH1 0xFF AND PUSH2 0xD02 JUMPI CALLER PUSH1 0x40 MLOAD PUSH32 0xEADB950F00000000000000000000000000000000000000000000000000000000 DUP2 MSTORE PUSH1 0x4 ADD PUSH2 0xCF9 SWAP2 SWAP1 PUSH2 0x1656 JUMP JUMPDEST PUSH1 0x40 MLOAD DUP1 SWAP2 SUB SWAP1 REVERT JUMPDEST PUSH1 0x1 PUSH0 DUP4 PUSH20 0xFFFFFFFFFFFFFFFFFFFFFFFFFFFFFFFFFFFFFFFF AND PUSH20 0xFFFFFFFFFFFFFFFFFFFFFFFFFFFFFFFFFFFFFFFF AND DUP2 MSTORE PUSH1 0x20 ADD SWAP1 DUP2 MSTORE PUSH1 0x20 ADD PUSH0 KECCAK256 PUSH0 ADD PUSH1 0x1 SWAP1 SLOAD SWAP1 PUSH2 0x100 EXP SWAP1 DIV PUSH1 0xFF AND PUSH2 0xD8E JUMPI PUSH1 0x40 MLOAD PUSH32 0x8C379A000000000000000000000000000000000000000000000000000000000 DUP2 MSTORE PUSH1 0x4 ADD PUSH2 0xD85 SWAP1 PUSH2 0x1BF8 JUMP JUMPDEST PUSH1 0x40 MLOAD DUP1 SWAP2 SUB SWAP1 REVERT JUMPDEST PUSH1 0x1 PUSH0 DUP4 PUSH20 0xFFFFFFFFFFFFFFFFFFFFFFFFFFFFFFFFFFFFFFFF AND PUSH20 0xFFFFFFFFFFFFFFFFFFFFFFFFFFFFFFFFFFFFFFFF AND DUP2 MSTORE PUSH1 0x20 ADD SWAP1 DUP2 MSTORE PUSH1 0x20 ADD PUSH0 KECCAK256 PUSH1 0x1 ADD SLOAD SWAP1 POP SWAP2 SWAP1 POP JUMP JUMPDEST PUSH0 PUSH0 PUSH0 SWAP1 SLOAD SWAP1 PUSH2 0x100 EXP SWAP1 DIV PUSH20 0xFFFFFFFFFFFFFFFFFFFFFFFFFFFFFFFFFFFFFFFF AND SWAP1 POP SWAP1 JUMP JUMPDEST PUSH2 0xE05 PUSH2 0x116F JUMP JUMPDEST PUSH1 0x3 PUSH1 0x4 DUP2 PUSH1 0x5 DUP2 GT ISZERO PUSH2 0xE1C JUMPI PUSH2 0xE1B PUSH2 0x13D1 JUMP JUMPDEST JUMPDEST PUSH1 0x3 PUSH0 SWAP1 SLOAD SWAP1 PUSH2 0x100 EXP SWAP1 DIV PUSH1 0xFF AND PUSH1 0x5 DUP2 GT ISZERO PUSH2 0xE3D JUMPI PUSH2 0xE3C PUSH2 0x13D1 JUMP JUMPDEST JUMPDEST EQ PUSH2 0xE8F JUMPI DUP2 PUSH1 0x3 PUSH0 SWAP1 SLOAD SWAP1 PUSH2 0x100 EXP SWAP1 DIV PUSH1 0xFF AND PUSH1 0x40 MLOAD PUSH32 0x2E73D6D900000000000000000000000000000000000000000000000000000000 DUP2 MSTORE PUSH1 0x4 ADD PUSH2 0xE86 SWAP3 SWAP2 SWAP1 PUSH2 0x166F JUMP JUMPDEST PUSH1 0x40 MLOAD DUP1 SWAP2 SUB SWAP1 REVERT JUMPDEST DUP1 PUSH1 0x3 PUSH0 PUSH2 0x100 EXP DUP2 SLOAD DUP2 PUSH1 0xFF MUL NOT AND SWAP1 DUP4 PUSH1 0x5 DUP2 GT ISZERO PUSH2 0xEB3 JUMPI PUSH2 0xEB2 PUSH2 0x13D1 JUMP JUMPDEST JUMPDEST MUL OR SWAP1 SSTORE POP PUSH32 0xA97A4EE45751E2ABF3E4FC8946939630B11B371EA8AE39CCDC3056E98F5CC3F DUP3 DUP3 PUSH1 0x40 MLOAD PUSH2 0xEE9 SWAP3 SWAP2 SWAP1 PUSH2 0x166F JUMP JUMPDEST PUSH1 0x40 MLOAD DUP1 SWAP2 SUB SWAP1 LOG1 POP POP JUMP JUMPDEST PUSH1 0x4 SLOAD DUP2 JUMP JUMPDEST PUSH2 0xF03 PUSH2 0x116F JUMP JUMPDEST PUSH1 0x1 PUSH1 0x2 DUP2 PUSH1 0x5 DUP2 GT ISZERO PUSH2 0xF1A JUMPI PUSH2 0xF19 PUSH2 0x13D1 JUMP JUMPDEST JUMPDEST PUSH1 0x3 PUSH0 SWAP1 SLOAD SWAP1 PUSH2 0x100 EXP SWAP1 DIV PUSH1 0xFF AND PUSH1 0x5 DUP2 GT ISZERO PUSH2 0xF3B JUMPI PUSH2 0xF3A PUSH2 0x13D1 JUMP JUMPDEST JUMPDEST EQ PUSH2 0xF8D JUMPI DUP2 PUSH1 0x3 PUSH0 SWAP1 SLOAD SWAP1 PUSH2 0x100 EXP SWAP1 DIV PUSH1 0xFF AND PUSH1 0x40 MLOAD PUSH32 0x2E73D6D900000000000000000000000000000000000000000000000000000000 DUP2 MSTORE PUSH1 0x4 ADD PUSH2 0xF84 SWAP3 SWAP2 SWAP1 PUSH2 0x166F JUMP JUMPDEST PUSH1 0x40 MLOAD DUP1 SWAP2 SUB SWAP1 REVERT JUMPDEST DUP1 PUSH1 0x3 PUSH0 PUSH2 0x100 EXP DUP2 SLOAD DUP2 PUSH1 0xFF MUL NOT AND SWAP1 DUP4 PUSH1 0x5 DUP2 GT ISZERO PUSH2 0xFB1 JUMPI PUSH2 0xFB0 PUSH2 0x13D1 JUMP JUMPDEST JUMPDEST MUL OR SWAP1 SSTORE POP PUSH32 0xA97A4EE45751E2ABF3E4FC8946939630B11B371EA8AE39CCDC3056E98F5CC3F DUP3 DUP3 PUSH1 0x40 MLOAD PUSH2 0xFE7 SWAP3 SWAP2 SWAP1 PUSH2 0x166F JUMP JUMPDEST PUSH1 0x40 MLOAD DUP1 SWAP2 SUB SWAP1 LOG1 POP POP JUMP JUMPDEST PUSH2 0xFFB PUSH2 0x116F JUMP JUMPDEST PUSH1 0x2 PUSH1 0x3 DUP2 PUSH1 0x5 DUP2 GT ISZERO PUSH2 0x1012 JUMPI PUSH2 0x1011 PUSH2 0x13D1 JUMP JUMPDEST JUMPDEST PUSH1 0x3 PUSH0 SWAP1 SLOAD SWAP1 PUSH2 0x100 EXP SWAP1 DIV PUSH1 0xFF AND PUSH1 0x5 DUP2 GT ISZERO PUSH2 0x1033 JUMPI PUSH2 0x1032 PUSH2 0x13D1 JUMP JUMPDEST JUMPDEST EQ PUSH2 0x1085 JUMPI DUP2 PUSH1 0x3 PUSH0 SWAP1 SLOAD SWAP1 PUSH2 0x100 EXP SWAP1 DIV PUSH1 0xFF AND PUSH1 0x40 MLOAD PUSH32 0x2E73D6D900000000000000000000000000000000000000000000000000000000 DUP2 MSTORE PUSH1 0x4 ADD PUSH2 0x107C SWAP3 SWAP2 SWAP1 PUSH2 0x166F JUMP JUMPDEST PUSH1 0x40 MLOAD DUP1 SWAP2 SUB SWAP1 REVERT JUMPDEST DUP1 PUSH1 0x3 PUSH0 PUSH2 0x100 EXP DUP2 SLOAD DUP2 PUSH1 0xFF MUL NOT AND SWAP1 DUP4 PUSH1 0x5 DUP2 GT ISZERO PUSH2 0x10A9 JUMPI PUSH2 0x10A8 PUSH2 0x13D1 JUMP JUMPDEST JUMPDEST MUL OR SWAP1 SSTORE POP PUSH32 0xA97A4EE45751E2ABF3E4FC8946939630B11B371EA8AE39CCDC3056E98F5CC3F DUP3 DUP3 PUSH1 0x40 MLOAD PUSH2 0x10DF SWAP3 SWAP2 SWAP1 PUSH2 0x166F JUMP JUMPDEST PUSH1 0x40 MLOAD DUP1 SWAP2 SUB SWAP1 LOG1 POP POP JUMP JUMPDEST PUSH2 0x10F3 PUSH2 0x116F JUMP JUMPDEST PUSH0 PUSH20 0xFFFFFFFFFFFFFFFFFFFFFFFFFFFFFFFFFFFFFFFF AND DUP2 PUSH20 0xFFFFFFFFFFFFFFFFFFFFFFFFFFFFFFFFFFFFFFFF AND SUB PUSH2 0x1163 JUMPI PUSH0 PUSH1 0x40 MLOAD PUSH32 0x1E4FBDF700000000000000000000000000000000000000000000000000000000 DUP2 MSTORE PUSH1 0x4 ADD PUSH2 0x115A SWAP2 SWAP1 PUSH2 0x1656 JUMP JUMPDEST PUSH1 0x40 MLOAD DUP1 SWAP2 SUB SWAP1 REVERT JUMPDEST PUSH2 0x116C DUP2 PUSH2 0x11F6 JUMP JUMPDEST POP JUMP JUMPDEST PUSH2 0x1177 PUSH2 0x12B7 JUMP JUMPDEST PUSH20 0xFFFFFFFFFFFFFFFFFFFFFFFFFFFFFFFFFFFFFFFF AND PUSH2 0x1195 PUSH2 0xDD6 JUMP JUMPDEST PUSH20 0xFFFFFFFFFFFFFFFFFFFFFFFFFFFFFFFFFFFFFFFF AND EQ PUSH2 0x11F4 JUMPI PUSH2 0x11B8 PUSH2 0x12B7 JUMP JUMPDEST PUSH1 0x40 MLOAD PUSH32 0x118CDAA700000000000000000000000000000000000000000000000000000000 DUP2 MSTORE PUSH1 0x4 ADD PUSH2 0x11EB SWAP2 SWAP1 PUSH2 0x1656 JUMP JUMPDEST PUSH1 0x40 MLOAD DUP1 SWAP2 SUB SWAP1 REVERT JUMPDEST JUMP JUMPDEST PUSH0 PUSH0 PUSH0 SWAP1 SLOAD SWAP1 PUSH2 0x100 EXP SWAP1 DIV PUSH20 0xFFFFFFFFFFFFFFFFFFFFFFFFFFFFFFFFFFFFFFFF AND SWAP1 POP DUP2 PUSH0 PUSH0 PUSH2 0x100 EXP DUP2 SLOAD DUP2 PUSH20 0xFFFFFFFFFFFFFFFFFFFFFFFFFFFFFFFFFFFFFFFF MUL NOT AND SWAP1 DUP4 PUSH20 0xFFFFFFFFFFFFFFFFFFFFFFFFFFFFFFFFFFFFFFFF AND MUL OR SWAP1 SSTORE POP DUP2 PUSH20 0xFFFFFFFFFFFFFFFFFFFFFFFFFFFFFFFFFFFFFFFF AND DUP2 PUSH20 0xFFFFFFFFFFFFFFFFFFFFFFFFFFFFFFFFFFFFFFFF AND PUSH32 0x8BE0079C531659141344CD1FD0A4F28419497F9722A3DAAFE3B4186F6B6457E0 PUSH1 0x40 MLOAD PUSH1 0x40 MLOAD DUP1 SWAP2 SUB SWAP1 LOG3 POP POP JUMP JUMPDEST PUSH0 CALLER SWAP1 POP SWAP1 JUMP JUMPDEST PUSH0 PUSH0 REVERT JUMPDEST PUSH0 PUSH0 REVERT JUMPDEST PUSH0 DUP2 SWAP1 POP SWAP2 SWAP1 POP JUMP JUMPDEST PUSH2 0x12D8 DUP2 PUSH2 0x12C6 JUMP JUMPDEST DUP2 EQ PUSH2 0x12E2 JUMPI PUSH0 PUSH0 REVERT JUMPDEST POP JUMP JUMPDEST PUSH0 DUP2 CALLDATALOAD SWAP1 POP PUSH2 0x12F3 DUP2 PUSH2 0x12CF JUMP JUMPDEST SWAP3 SWAP2 POP POP JUMP JUMPDEST PUSH0 PUSH1 0x20 DUP3 DUP5 SUB SLT ISZERO PUSH2 0x130E JUMPI PUSH2 0x130D PUSH2 0x12BE JUMP JUMPDEST JUMPDEST PUSH0 PUSH2 0x131B DUP5 DUP3 DUP6 ADD PUSH2 0x12E5 JUMP JUMPDEST SWAP2 POP POP SWAP3 SWAP2 POP POP JUMP JUMPDEST PUSH0 DUP2 MLOAD SWAP1 POP SWAP2 SWAP1 POP JUMP JUMPDEST PUSH0 DUP3 DUP3 MSTORE PUSH1 0x20 DUP3 ADD SWAP1 POP SWAP3 SWAP2 POP POP JUMP JUMPDEST DUP3 DUP2 DUP4 MCOPY PUSH0 DUP4 DUP4 ADD MSTORE POP POP POP JUMP JUMPDEST PUSH0 PUSH1 0x1F NOT PUSH1 0x1F DUP4 ADD AND SWAP1 POP SWAP2 SWAP1 POP JUMP JUMPDEST PUSH0 PUSH2 0x1366 DUP3 PUSH2 0x1324 JUMP JUMPDEST PUSH2 0x1370 DUP2 DUP6 PUSH2 0x132E JUMP JUMPDEST SWAP4 POP PUSH2 0x1380 DUP2 DUP6 PUSH1 0x20 DUP7 ADD PUSH2 0x133E JUMP JUMPDEST PUSH2 0x1389 DUP2 PUSH2 0x134C JUMP JUMPDEST DUP5 ADD SWAP2 POP POP SWAP3 SWAP2 POP POP JUMP JUMPDEST PUSH2 0x139D DUP2 PUSH2 0x12C6 JUMP JUMPDEST DUP3 MSTORE POP POP JUMP JUMPDEST PUSH0 PUSH1 0x40 DUP3 ADD SWAP1 POP DUP2 DUP2 SUB PUSH0 DUP4 ADD MSTORE PUSH2 0x13BB DUP2 DUP6 PUSH2 0x135C JUMP JUMPDEST SWAP1 POP PUSH2 0x13CA PUSH1 0x20 DUP4 ADD DUP5 PUSH2 0x1394 JUMP JUMPDEST SWAP4 SWAP3 POP POP POP JUMP JUMPDEST PUSH32 0x4E487B7100000000000000000000000000000000000000000000000000000000 PUSH0 MSTORE PUSH1 0x21 PUSH1 0x4 MSTORE PUSH1 0x24 PUSH0 REVERT JUMPDEST PUSH1 0x6 DUP2 LT PUSH2 0x140F JUMPI PUSH2 0x140E PUSH2 0x13D1 JUMP JUMPDEST JUMPDEST POP JUMP JUMPDEST PUSH0 DUP2 SWAP1 POP PUSH2 0x141F DUP3 PUSH2 0x13FE JUMP JUMPDEST SWAP2 SWAP1 POP JUMP JUMPDEST PUSH0 PUSH2 0x142E DUP3 PUSH2 0x1412 JUMP JUMPDEST SWAP1 POP SWAP2 SWAP1 POP JUMP JUMPDEST PUSH2 0x143E DUP2 PUSH2 0x1424 JUMP JUMPDEST DUP3 MSTORE POP POP JUMP JUMPDEST PUSH0 PUSH1 0x20 DUP3 ADD SWAP1 POP PUSH2 0x1457 PUSH0 DUP4 ADD DUP5 PUSH2 0x1435 JUMP JUMPDEST SWAP3 SWAP2 POP POP JUMP JUMPDEST PUSH0 PUSH0 REVERT JUMPDEST PUSH0 PUSH0 REVERT JUMPDEST PUSH0 PUSH0 REVERT JUMPDEST PUSH0 PUSH0 DUP4 PUSH1 0x1F DUP5 ADD SLT PUSH2 0x147E JUMPI PUSH2 0x147D PUSH2 0x145D JUMP JUMPDEST JUMPDEST DUP3 CALLDATALOAD SWAP1 POP PUSH8 0xFFFFFFFFFFFFFFFF DUP2 GT ISZERO PUSH2 0x149B JUMPI PUSH2 0x149A PUSH2 0x1461 JUMP JUMPDEST JUMPDEST PUSH1 0x20 DUP4 ADD SWAP2 POP DUP4 PUSH1 0x1 DUP3 MUL DUP4 ADD GT ISZERO PUSH2 0x14B7 JUMPI PUSH2 0x14B6 PUSH2 0x1465 JUMP JUMPDEST JUMPDEST SWAP3 POP SWAP3 SWAP1 POP JUMP JUMPDEST PUSH0 PUSH0 PUSH1 0x20 DUP4 DUP6 SUB SLT ISZERO PUSH2 0x14D4 JUMPI PUSH2 0x14D3 PUSH2 0x12BE JUMP JUMPDEST JUMPDEST PUSH0 DUP4 ADD CALLDATALOAD PUSH8 0xFFFFFFFFFFFFFFFF DUP2 GT ISZERO PUSH2 0x14F1 JUMPI PUSH2 0x14F0 PUSH2 0x12C2 JUMP JUMPDEST JUMPDEST PUSH2 0x14FD DUP6 DUP3 DUP7 ADD PUSH2 0x1469 JUMP JUMPDEST SWAP3 POP SWAP3 POP POP SWAP3 POP SWAP3 SWAP1 POP JUMP JUMPDEST PUSH0 PUSH0 DUP4 PUSH1 0x1F DUP5 ADD SLT PUSH2 0x151E JUMPI PUSH2 0x151D PUSH2 0x145D JUMP JUMPDEST JUMPDEST DUP3 CALLDATALOAD SWAP1 POP PUSH8 0xFFFFFFFFFFFFFFFF DUP2 GT ISZERO PUSH2 0x153B JUMPI PUSH2 0x153A PUSH2 0x1461 JUMP JUMPDEST JUMPDEST PUSH1 0x20 DUP4 ADD SWAP2 POP DUP4 PUSH1 0x20 DUP3 MUL DUP4 ADD GT ISZERO PUSH2 0x1557 JUMPI PUSH2 0x1556 PUSH2 0x1465 JUMP JUMPDEST JUMPDEST SWAP3 POP SWAP3 SWAP1 POP JUMP JUMPDEST PUSH0 PUSH0 PUSH1 0x20 DUP4 DUP6 SUB SLT ISZERO PUSH2 0x1574 JUMPI PUSH2 0x1573 PUSH2 0x12BE JUMP JUMPDEST JUMPDEST PUSH0 DUP4 ADD CALLDATALOAD PUSH8 0xFFFFFFFFFFFFFFFF DUP2 GT ISZERO PUSH2 0x1591 JUMPI PUSH2 0x1590 PUSH2 0x12C2 JUMP JUMPDEST JUMPDEST PUSH2 0x159D DUP6 DUP3 DUP7 ADD PUSH2 0x1509 JUMP JUMPDEST SWAP3 POP SWAP3 POP POP SWAP3 POP SWAP3 SWAP1 POP JUMP JUMPDEST PUSH0 PUSH20 0xFFFFFFFFFFFFFFFFFFFFFFFFFFFFFFFFFFFFFFFF DUP3 AND SWAP1 POP SWAP2 SWAP1 POP JUMP JUMPDEST PUSH0 PUSH2 0x15D2 DUP3 PUSH2 0x15A9 JUMP JUMPDEST SWAP1 POP SWAP2 SWAP1 POP JUMP JUMPDEST PUSH2 0x15E2 DUP2 PUSH2 0x15C8 JUMP JUMPDEST DUP2 EQ PUSH2 0x15EC JUMPI PUSH0 PUSH0 REVERT JUMPDEST POP JUMP JUMPDEST PUSH0 DUP2 CALLDATALOAD SWAP1 POP PUSH2 0x15FD DUP2 PUSH2 0x15D9 JUMP JUMPDEST SWAP3 SWAP2 POP POP JUMP JUMPDEST PUSH0 PUSH1 0x20 DUP3 DUP5 SUB SLT ISZERO PUSH2 0x1618 JUMPI PUSH2 0x1617 PUSH2 0x12BE JUMP JUMPDEST JUMPDEST PUSH0 PUSH2 0x1625 DUP5 DUP3 DUP6 ADD PUSH2 0x15EF JUMP JUMPDEST SWAP2 POP POP SWAP3 SWAP2 POP POP JUMP JUMPDEST PUSH0 PUSH1 0x20 DUP3 ADD SWAP1 POP PUSH2 0x1641 PUSH0 DUP4 ADD DUP5 PUSH2 0x1394 JUMP JUMPDEST SWAP3 SWAP2 POP POP JUMP JUMPDEST PUSH2 0x1650 DUP2 PUSH2 0x15C8 JUMP JUMPDEST DUP3 MSTORE POP POP JUMP JUMPDEST PUSH0 PUSH1 0x20 DUP3 ADD SWAP1 POP PUSH2 0x1669 PUSH0 DUP4 ADD DUP5 PUSH2 0x1647 JUMP JUMPDEST SWAP3 SWAP2 POP POP JUMP JUMPDEST PUSH0 PUSH1 0x40 DUP3 ADD SWAP1 POP PUSH2 0x1682 PUSH0 DUP4 ADD DUP6 PUSH2 0x1435 JUMP JUMPDEST PUSH2 0x168F PUSH1 0x20 DUP4 ADD DUP5 PUSH2 0x1435 JUMP JUMPDEST SWAP4 SWAP3 POP POP POP JUMP JUMPDEST PUSH32 0x596F75206861766520616C726561647920766F74656400000000000000000000 PUSH0 DUP3 ADD MSTORE POP JUMP JUMPDEST PUSH0 PUSH2 0x16CA PUSH1 0x16 DUP4 PUSH2 0x132E JUMP JUMPDEST SWAP2 POP PUSH2 0x16D5 DUP3 PUSH2 0x1696 JUMP JUMPDEST PUSH1 0x20 DUP3 ADD SWAP1 POP SWAP2 SWAP1 POP JUMP JUMPDEST PUSH0 PUSH1 0x20 DUP3 ADD SWAP1 POP DUP2 DUP2 SUB PUSH0 DUP4 ADD MSTORE PUSH2 0x16F7 DUP2 PUSH2 0x16BE JUMP JUMPDEST SWAP1 POP SWAP2 SWAP1 POP JUMP JUMPDEST PUSH32 0x496E76616C69642070726F706F73616C20494400000000000000000000000000 PUSH0 DUP3 ADD MSTORE POP JUMP JUMPDEST PUSH0 PUSH2 0x1732 PUSH1 0x13 DUP4 PUSH2 0x132E JUMP JUMPDEST SWAP2 POP PUSH2 0x173D DUP3 PUSH2 0x16FE JUMP JUMPDEST PUSH1 0x20 DUP3 ADD SWAP1 POP SWAP2 SWAP1 POP JUMP JUMPDEST PUSH0 PUSH1 0x20 DUP3 ADD SWAP1 POP DUP2 DUP2 SUB PUSH0 DUP4 ADD MSTORE PUSH2 0x175F DUP2 PUSH2 0x1726 JUMP JUMPDEST SWAP1 POP SWAP2 SWAP1 POP JUMP JUMPDEST PUSH32 0x4E487B7100000000000000000000000000000000000000000000000000000000 PUSH0 MSTORE PUSH1 0x32 PUSH1 0x4 MSTORE PUSH1 0x24 PUSH0 REVERT JUMPDEST PUSH32 0x4E487B7100000000000000000000000000000000000000000000000000000000 PUSH0 MSTORE PUSH1 0x11 PUSH1 0x4 MSTORE PUSH1 0x24 PUSH0 REVERT JUMPDEST PUSH0 PUSH2 0x17CA DUP3 PUSH2 0x12C6 JUMP JUMPDEST SWAP2 POP PUSH2 0x17D5 DUP4 PUSH2 0x12C6 JUMP JUMPDEST SWAP3 POP DUP3 DUP3 ADD SWAP1 POP DUP1 DUP3 GT ISZERO PUSH2 0x17ED JUMPI PUSH2 0x17EC PUSH2 0x1793 JUMP JUMPDEST JUMPDEST SWAP3 SWAP2 POP POP JUMP JUMPDEST PUSH0 PUSH1 0x40 DUP3 ADD SWAP1 POP PUSH2 0x1806 PUSH0 DUP4 ADD DUP6 PUSH2 0x1647 JUMP JUMPDEST PUSH2 0x1813 PUSH1 0x20 DUP4 ADD DUP5 PUSH2 0x1394 JUMP JUMPDEST SWAP4 SWAP3 POP POP POP JUMP JUMPDEST PUSH32 0x4E487B7100000000000000000000000000000000000000000000000000000000 PUSH0 MSTORE PUSH1 0x22 PUSH1 0x4 MSTORE PUSH1 0x24 PUSH0 REVERT JUMPDEST PUSH0 PUSH1 0x2 DUP3 DIV SWAP1 POP PUSH1 0x1 DUP3 AND DUP1 PUSH2 0x185E JUMPI PUSH1 0x7F DUP3 AND SWAP2 POP JUMPDEST PUSH1 0x20 DUP3 LT DUP2 SUB PUSH2 0x1871 JUMPI PUSH2 0x1870 PUSH2 0x181A JUMP JUMPDEST JUMPDEST POP SWAP2 SWAP1 POP JUMP JUMPDEST PUSH32 0x4E487B7100000000000000000000000000000000000000000000000000000000 PUSH0 MSTORE PUSH1 0x41 PUSH1 0x4 MSTORE PUSH1 0x24 PUSH0 REVERT JUMPDEST PUSH0 DUP2 SWAP1 POP DUP2 PUSH0 MSTORE PUSH1 0x20 PUSH0 KECCAK256 SWAP1 POP SWAP2 SWAP1 POP JUMP JUMPDEST PUSH0 PUSH1 0x20 PUSH1 0x1F DUP4 ADD DIV SWAP1 POP SWAP2 SWAP1 POP JUMP JUMPDEST PUSH0 DUP3 DUP3 SHL SWAP1 POP SWAP3 SWAP2 POP POP JUMP JUMPDEST PUSH0 PUSH1 0x8 DUP4 MUL PUSH2 0x1900 PUSH32 0xFFFFFFFFFFFFFFFFFFFFFFFFFFFFFFFFFFFFFFFFFFFFFFFFFFFFFFFFFFFFFFFF DUP3 PUSH2 0x18C5 JUMP JUMPDEST PUSH2 0x190A DUP7 DUP4 PUSH2 0x18C5 JUMP JUMPDEST SWAP6 POP DUP1 NOT DUP5 AND SWAP4 POP DUP1 DUP7 AND DUP5 OR SWAP3 POP POP POP SWAP4 SWAP3 POP POP POP JUMP JUMPDEST PUSH0 DUP2 SWAP1 POP SWAP2 SWAP1 POP JUMP JUMPDEST PUSH0 PUSH2 0x1945 PUSH2 0x1940 PUSH2 0x193B DUP5 PUSH2 0x12C6 JUMP JUMPDEST PUSH2 0x1922 JUMP JUMPDEST PUSH2 0x12C6 JUMP JUMPDEST SWAP1 POP SWAP2 SWAP1 POP JUMP JUMPDEST PUSH0 DUP2 SWAP1 POP SWAP2 SWAP1 POP JUMP JUMPDEST PUSH2 0x195E DUP4 PUSH2 0x192B JUMP JUMPDEST PUSH2 0x1972 PUSH2 0x196A DUP3 PUSH2 0x194C JUMP JUMPDEST DUP5 DUP5 SLOAD PUSH2 0x18D1 JUMP JUMPDEST DUP3 SSTORE POP POP POP POP JUMP JUMPDEST PUSH0 PUSH0 SWAP1 POP SWAP1 JUMP JUMPDEST PUSH2 0x1989 PUSH2 0x197A JUMP JUMPDEST PUSH2 0x1994 DUP2 DUP5 DUP5 PUSH2 0x1955 JUMP JUMPDEST POP POP POP JUMP JUMPDEST JUMPDEST DUP2 DUP2 LT ISZERO PUSH2 0x19B7 JUMPI PUSH2 0x19AC PUSH0 DUP3 PUSH2 0x1981 JUMP JUMPDEST PUSH1 0x1 DUP2 ADD SWAP1 POP PUSH2 0x199A JUMP JUMPDEST POP POP JUMP JUMPDEST PUSH1 0x1F DUP3 GT ISZERO PUSH2 0x19FC JUMPI PUSH2 0x19CD DUP2 PUSH2 0x18A4 JUMP JUMPDEST PUSH2 0x19D6 DUP5 PUSH2 0x18B6 JUMP JUMPDEST DUP2 ADD PUSH1 0x20 DUP6 LT ISZERO PUSH2 0x19E5 JUMPI DUP2 SWAP1 POP JUMPDEST PUSH2 0x19F9 PUSH2 0x19F1 DUP6 PUSH2 0x18B6 JUMP JUMPDEST DUP4 ADD DUP3 PUSH2 0x1999 JUMP JUMPDEST POP POP JUMPDEST POP POP POP JUMP JUMPDEST PUSH0 DUP3 DUP3 SHR SWAP1 POP SWAP3 SWAP2 POP POP JUMP JUMPDEST PUSH0 PUSH2 0x1A1C PUSH0 NOT DUP5 PUSH1 0x8 MUL PUSH2 0x1A01 JUMP JUMPDEST NOT DUP1 DUP4 AND SWAP2 POP POP SWAP3 SWAP2 POP POP JUMP JUMPDEST PUSH0 PUSH2 0x1A34 DUP4 DUP4 PUSH2 0x1A0D JUMP JUMPDEST SWAP2 POP DUP3 PUSH1 0x2 MUL DUP3 OR SWAP1 POP SWAP3 SWAP2 POP POP JUMP JUMPDEST PUSH2 0x1A4D DUP3 PUSH2 0x1324 JUMP JUMPDEST PUSH8 0xFFFFFFFFFFFFFFFF DUP2 GT ISZERO PUSH2 0x1A66 JUMPI PUSH2 0x1A65 PUSH2 0x1877 JUMP JUMPDEST JUMPDEST PUSH2 0x1A70 DUP3 SLOAD PUSH2 0x1847 JUMP JUMPDEST PUSH2 0x1A7B DUP3 DUP3 DUP6 PUSH2 0x19BB JUMP JUMPDEST PUSH0 PUSH1 0x20 SWAP1 POP PUSH1 0x1F DUP4 GT PUSH1 0x1 DUP2 EQ PUSH2 0x1AAC JUMPI PUSH0 DUP5 ISZERO PUSH2 0x1A9A JUMPI DUP3 DUP8 ADD MLOAD SWAP1 POP JUMPDEST PUSH2 0x1AA4 DUP6 DUP3 PUSH2 0x1A29 JUMP JUMPDEST DUP7 SSTORE POP PUSH2 0x1B0B JUMP JUMPDEST PUSH1 0x1F NOT DUP5 AND PUSH2 0x1ABA DUP7 PUSH2 0x18A4 JUMP JUMPDEST PUSH0 JUMPDEST DUP3 DUP2 LT ISZERO PUSH2 0x1AE1 JUMPI DUP5 DUP10 ADD MLOAD DUP3 SSTORE PUSH1 0x1 DUP3 ADD SWAP2 POP PUSH1 0x20 DUP6 ADD SWAP5 POP PUSH1 0x20 DUP2 ADD SWAP1 POP PUSH2 0x1ABC JUMP JUMPDEST DUP7 DUP4 LT ISZERO PUSH2 0x1AFE JUMPI DUP5 DUP10 ADD MLOAD PUSH2 0x1AFA PUSH1 0x1F DUP10 AND DUP3 PUSH2 0x1A0D JUMP JUMPDEST DUP4 SSTORE POP JUMPDEST PUSH1 0x1 PUSH1 0x2 DUP9 MUL ADD DUP9 SSTORE POP POP POP JUMPDEST POP POP POP POP POP POP JUMP JUMPDEST PUSH0 PUSH2 0x1B1D DUP3 PUSH2 0x12C6 JUMP JUMPDEST SWAP2 POP PUSH2 0x1B28 DUP4 PUSH2 0x12C6 JUMP JUMPDEST SWAP3 POP DUP3 DUP3 SUB SWAP1 POP DUP2 DUP2 GT ISZERO PUSH2 0x1B40 JUMPI PUSH2 0x1B3F PUSH2 0x1793 JUMP JUMPDEST JUMPDEST SWAP3 SWAP2 POP POP JUMP JUMPDEST PUSH32 0x4E6F2070726F706F73616C20617661696C61626C650000000000000000000000 PUSH0 DUP3 ADD MSTORE POP JUMP JUMPDEST PUSH0 PUSH2 0x1B7A PUSH1 0x15 DUP4 PUSH2 0x132E JUMP JUMPDEST SWAP2 POP PUSH2 0x1B85 DUP3 PUSH2 0x1B46 JUMP JUMPDEST PUSH1 0x20 DUP3 ADD SWAP1 POP SWAP2 SWAP1 POP JUMP JUMPDEST PUSH0 PUSH1 0x20 DUP3 ADD SWAP1 POP DUP2 DUP2 SUB PUSH0 DUP4 ADD MSTORE PUSH2 0x1BA7 DUP2 PUSH2 0x1B6E JUMP JUMPDEST SWAP1 POP SWAP2 SWAP1 POP JUMP JUMPDEST PUSH32 0x4164647265737320686173206E6F7420766F7465642079657400000000000000 PUSH0 DUP3 ADD MSTORE POP JUMP JUMPDEST PUSH0 PUSH2 0x1BE2 PUSH1 0x19 DUP4 PUSH2 0x132E JUMP JUMPDEST SWAP2 POP PUSH2 0x1BED DUP3 PUSH2 0x1BAE JUMP JUMPDEST PUSH1 0x20 DUP3 ADD SWAP1 POP SWAP2 SWAP1 POP JUMP JUMPDEST PUSH0 PUSH1 0x20 DUP3 ADD SWAP1 POP DUP2 DUP2 SUB PUSH0 DUP4 ADD MSTORE PUSH2 0x1C0F DUP2 PUSH2 0x1BD6 JUMP JUMPDEST SWAP1 POP SWAP2 SWAP1 POP JUMP INVALID LOG2 PUSH5 0x6970667358 0x22 SLT KECCAK256 CALLDATACOPY 0x4E 0xD8 0xC2 0xC8 SAR 0xC3 JUMP CREATE 0xAE CALLDATASIZE BLOCKHASH DIV 0xEF DUP4 MSTORE8 0xB3 ADDRESS JUMP PUSH2 0xB4B2 STOP 0xD3 0xE4 0xEC 0xE6 PUSH31 0xF20B7D7364736F6C634300081C003300000000000000000000000000000000 "
				},
				"gasEstimates": {
					"creation": {
						"codeDepositCost": "1448800",
						"executionCost": "infinite",
						"totalCost": "infinite"
					},
					"external": {
						"addToWhitelist(address[])": "infinite",
						"endProposalRegistration()": "infinite",
						"endVotingSession()": "infinite",
						"getVoterChoice(address)": "infinite",
						"owner()": "2581",
						"proposals(uint256)": "infinite",
						"registerProposal(string)": "infinite",
						"renounceOwnership()": "infinite",
						"startProposalRegistration()": "infinite",
						"startVotingSession()": "infinite",
						"tallyVotes()": "infinite",
						"transferOwnership(address)": "infinite",
						"vote(uint256)": "infinite",
						"votingStatus()": "2577",
						"winningProposalId()": "2447"
					}
				},
				"methodIdentifiers": {
					"addToWhitelist(address[])": "7f649783",
					"endProposalRegistration()": "e85a8f2a",
					"endVotingSession()": "a7bfab16",
					"getVoterChoice(address)": "8847103b",
					"owner()": "8da5cb5b",
					"proposals(uint256)": "013cf08b",
					"registerProposal(string)": "2f95355b",
					"renounceOwnership()": "715018a6",
					"startProposalRegistration()": "0f7e2838",
					"startVotingSession()": "ee74c678",
					"tallyVotes()": "378a2178",
					"transferOwnership(address)": "f2fde38b",
					"vote(uint256)": "0121b93f",
					"votingStatus()": "19f41a40",
					"winningProposalId()": "c64963c5"
				}
			},
			"storageLayout": {
				"storage": [
					{
						"astId": 416,
						"contract": "2. Solidity/Projet1/Voting.sol:Voting",
						"label": "_owner",
						"offset": 0,
						"slot": "0",
						"type": "t_address"
					},
					{
						"astId": 28,
						"contract": "2. Solidity/Projet1/Voting.sol:Voting",
						"label": "voters",
						"offset": 0,
						"slot": "1",
						"type": "t_mapping(t_address,t_struct(Voter)11_storage)"
					},
					{
						"astId": 32,
						"contract": "2. Solidity/Projet1/Voting.sol:Voting",
						"label": "proposals",
						"offset": 0,
						"slot": "2",
						"type": "t_array(t_struct(Proposal)16_storage)dyn_storage"
					},
					{
						"astId": 35,
						"contract": "2. Solidity/Projet1/Voting.sol:Voting",
						"label": "votingStatus",
						"offset": 0,
						"slot": "3",
						"type": "t_enum(WorkflowStatus)23"
					},
					{
						"astId": 37,
						"contract": "2. Solidity/Projet1/Voting.sol:Voting",
						"label": "winningProposalId",
						"offset": 0,
						"slot": "4",
						"type": "t_uint256"
					}
				],
				"types": {
					"t_address": {
						"encoding": "inplace",
						"label": "address",
						"numberOfBytes": "20"
					},
					"t_array(t_struct(Proposal)16_storage)dyn_storage": {
						"base": "t_struct(Proposal)16_storage",
						"encoding": "dynamic_array",
						"label": "struct Voting.Proposal[]",
						"numberOfBytes": "32"
					},
					"t_bool": {
						"encoding": "inplace",
						"label": "bool",
						"numberOfBytes": "1"
					},
					"t_enum(WorkflowStatus)23": {
						"encoding": "inplace",
						"label": "enum Voting.WorkflowStatus",
						"numberOfBytes": "1"
					},
					"t_mapping(t_address,t_struct(Voter)11_storage)": {
						"encoding": "mapping",
						"key": "t_address",
						"label": "mapping(address => struct Voting.Voter)",
						"numberOfBytes": "32",
						"value": "t_struct(Voter)11_storage"
					},
					"t_string_storage": {
						"encoding": "bytes",
						"label": "string",
						"numberOfBytes": "32"
					},
					"t_struct(Proposal)16_storage": {
						"encoding": "inplace",
						"label": "struct Voting.Proposal",
						"members": [
							{
								"astId": 13,
								"contract": "2. Solidity/Projet1/Voting.sol:Voting",
								"label": "description",
								"offset": 0,
								"slot": "0",
								"type": "t_string_storage"
							},
							{
								"astId": 15,
								"contract": "2. Solidity/Projet1/Voting.sol:Voting",
								"label": "voteCount",
								"offset": 0,
								"slot": "1",
								"type": "t_uint256"
							}
						],
						"numberOfBytes": "64"
					},
					"t_struct(Voter)11_storage": {
						"encoding": "inplace",
						"label": "struct Voting.Voter",
						"members": [
							{
								"astId": 6,
								"contract": "2. Solidity/Projet1/Voting.sol:Voting",
								"label": "isRegistered",
								"offset": 0,
								"slot": "0",
								"type": "t_bool"
							},
							{
								"astId": 8,
								"contract": "2. Solidity/Projet1/Voting.sol:Voting",
								"label": "hasVoted",
								"offset": 1,
								"slot": "0",
								"type": "t_bool"
							},
							{
								"astId": 10,
								"contract": "2. Solidity/Projet1/Voting.sol:Voting",
								"label": "votedProposalId",
								"offset": 0,
								"slot": "1",
								"type": "t_uint256"
							}
						],
						"numberOfBytes": "64"
					},
					"t_uint256": {
						"encoding": "inplace",
						"label": "uint256",
						"numberOfBytes": "32"
					}
				}
			},
			"userdoc": {
				"kind": "user",
				"methods": {},
				"version": 1
			}
		}
	}
}