{
	"2. Solidity/Projet1/VotingPlus.sol": {
		"VotingPlus": {
			"abi": [
				{
					"inputs": [],
					"stateMutability": "nonpayable",
					"type": "constructor"
				},
				{
					"inputs": [
						{
							"internalType": "address",
							"name": "add",
							"type": "address"
						}
					],
					"name": "AddressNotWhitelisted",
					"type": "error"
				},
				{
					"inputs": [
						{
							"internalType": "address",
							"name": "owner",
							"type": "address"
						}
					],
					"name": "OwnableInvalidOwner",
					"type": "error"
				},
				{
					"inputs": [
						{
							"internalType": "address",
							"name": "account",
							"type": "address"
						}
					],
					"name": "OwnableUnauthorizedAccount",
					"type": "error"
				},
				{
					"inputs": [
						{
							"internalType": "enum VotingPlus.WorkflowStatus",
							"name": "expected",
							"type": "uint8"
						},
						{
							"internalType": "enum VotingPlus.WorkflowStatus",
							"name": "current",
							"type": "uint8"
						}
					],
					"name": "WrongVotingPhase",
					"type": "error"
				},
				{
					"anonymous": false,
					"inputs": [
						{
							"indexed": true,
							"internalType": "address",
							"name": "previousOwner",
							"type": "address"
						},
						{
							"indexed": true,
							"internalType": "address",
							"name": "newOwner",
							"type": "address"
						}
					],
					"name": "OwnershipTransferred",
					"type": "event"
				},
				{
					"anonymous": false,
					"inputs": [
						{
							"indexed": false,
							"internalType": "uint256",
							"name": "proposalId",
							"type": "uint256"
						}
					],
					"name": "ProposalRegistered",
					"type": "event"
				},
				{
					"anonymous": false,
					"inputs": [
						{
							"indexed": false,
							"internalType": "uint256[]",
							"name": "tiedProposalId",
							"type": "uint256[]"
						}
					],
					"name": "TiedProposalsIdentified",
					"type": "event"
				},
				{
					"anonymous": false,
					"inputs": [
						{
							"indexed": false,
							"internalType": "address",
							"name": "voter",
							"type": "address"
						},
						{
							"indexed": false,
							"internalType": "uint256",
							"name": "proposalId",
							"type": "uint256"
						}
					],
					"name": "Voted",
					"type": "event"
				},
				{
					"anonymous": false,
					"inputs": [
						{
							"indexed": false,
							"internalType": "address",
							"name": "voterAddress",
							"type": "address"
						}
					],
					"name": "VoterRegistered",
					"type": "event"
				},
				{
					"anonymous": false,
					"inputs": [
						{
							"indexed": false,
							"internalType": "enum VotingPlus.WorkflowStatus",
							"name": "previousStatus",
							"type": "uint8"
						},
						{
							"indexed": false,
							"internalType": "enum VotingPlus.WorkflowStatus",
							"name": "newStatus",
							"type": "uint8"
						}
					],
					"name": "WorkflowStatusChange",
					"type": "event"
				},
				{
					"inputs": [
						{
							"internalType": "address[]",
							"name": "_addressArray",
							"type": "address[]"
						}
					],
					"name": "addToWhitelist",
					"outputs": [],
					"stateMutability": "nonpayable",
					"type": "function"
				},
				{
					"inputs": [],
					"name": "endProposalRegistration",
					"outputs": [],
					"stateMutability": "nonpayable",
					"type": "function"
				},
				{
					"inputs": [],
					"name": "endVotingSession",
					"outputs": [],
					"stateMutability": "nonpayable",
					"type": "function"
				},
				{
					"inputs": [],
					"name": "getSessionAllActiveProposals",
					"outputs": [
						{
							"components": [
								{
									"internalType": "string",
									"name": "description",
									"type": "string"
								},
								{
									"internalType": "uint256",
									"name": "voteCount",
									"type": "uint256"
								}
							],
							"internalType": "struct VotingPlus.Proposal[]",
							"name": "activeProposals",
							"type": "tuple[]"
						},
						{
							"internalType": "uint256[]",
							"name": "activeProposalIds",
							"type": "uint256[]"
						}
					],
					"stateMutability": "view",
					"type": "function"
				},
				{
					"inputs": [
						{
							"internalType": "uint256",
							"name": "_session",
							"type": "uint256"
						}
					],
					"name": "getSessionAllProposals",
					"outputs": [
						{
							"components": [
								{
									"internalType": "string",
									"name": "description",
									"type": "string"
								},
								{
									"internalType": "uint256",
									"name": "voteCount",
									"type": "uint256"
								}
							],
							"internalType": "struct VotingPlus.Proposal[]",
							"name": "",
							"type": "tuple[]"
						}
					],
					"stateMutability": "view",
					"type": "function"
				},
				{
					"inputs": [
						{
							"internalType": "uint256",
							"name": "_session",
							"type": "uint256"
						},
						{
							"internalType": "uint256",
							"name": "_proposalId",
							"type": "uint256"
						}
					],
					"name": "getSessionProposal",
					"outputs": [
						{
							"components": [
								{
									"internalType": "string",
									"name": "description",
									"type": "string"
								},
								{
									"internalType": "uint256",
									"name": "voteCount",
									"type": "uint256"
								}
							],
							"internalType": "struct VotingPlus.Proposal",
							"name": "",
							"type": "tuple"
						}
					],
					"stateMutability": "view",
					"type": "function"
				},
				{
					"inputs": [
						{
							"internalType": "address",
							"name": "_address",
							"type": "address"
						},
						{
							"internalType": "uint256",
							"name": "_session",
							"type": "uint256"
						}
					],
					"name": "getSessionVoterChoice",
					"outputs": [
						{
							"internalType": "uint256",
							"name": "",
							"type": "uint256"
						}
					],
					"stateMutability": "view",
					"type": "function"
				},
				{
					"inputs": [
						{
							"internalType": "uint256",
							"name": "_session",
							"type": "uint256"
						}
					],
					"name": "getSessionWinningProposalId",
					"outputs": [
						{
							"internalType": "uint256",
							"name": "",
							"type": "uint256"
						}
					],
					"stateMutability": "view",
					"type": "function"
				},
				{
					"inputs": [],
					"name": "owner",
					"outputs": [
						{
							"internalType": "address",
							"name": "",
							"type": "address"
						}
					],
					"stateMutability": "view",
					"type": "function"
				},
				{
					"inputs": [
						{
							"internalType": "string",
							"name": "_proposal",
							"type": "string"
						}
					],
					"name": "registerProposal",
					"outputs": [],
					"stateMutability": "nonpayable",
					"type": "function"
				},
				{
					"inputs": [
						{
							"internalType": "address[]",
							"name": "_addressArray",
							"type": "address[]"
						}
					],
					"name": "removeFromWhitelist",
					"outputs": [],
					"stateMutability": "nonpayable",
					"type": "function"
				},
				{
					"inputs": [],
					"name": "renounceOwnership",
					"outputs": [],
					"stateMutability": "nonpayable",
					"type": "function"
				},
				{
					"inputs": [],
					"name": "resetSession",
					"outputs": [],
					"stateMutability": "nonpayable",
					"type": "function"
				},
				{
					"inputs": [],
					"name": "startProposalRegistration",
					"outputs": [],
					"stateMutability": "nonpayable",
					"type": "function"
				},
				{
					"inputs": [],
					"name": "startTieSession",
					"outputs": [],
					"stateMutability": "nonpayable",
					"type": "function"
				},
				{
					"inputs": [],
					"name": "startVotingSession",
					"outputs": [],
					"stateMutability": "nonpayable",
					"type": "function"
				},
				{
					"inputs": [],
					"name": "tallyVotes",
					"outputs": [],
					"stateMutability": "nonpayable",
					"type": "function"
				},
				{
					"inputs": [
						{
							"internalType": "address",
							"name": "newOwner",
							"type": "address"
						}
					],
					"name": "transferOwnership",
					"outputs": [],
					"stateMutability": "nonpayable",
					"type": "function"
				},
				{
					"inputs": [
						{
							"internalType": "uint256",
							"name": "_proposalId",
							"type": "uint256"
						}
					],
					"name": "vote",
					"outputs": [],
					"stateMutability": "nonpayable",
					"type": "function"
				},
				{
					"inputs": [],
					"name": "votingStatus",
					"outputs": [
						{
							"internalType": "enum VotingPlus.WorkflowStatus",
							"name": "",
							"type": "uint8"
						}
					],
					"stateMutability": "view",
					"type": "function"
				}
			],
			"devdoc": {
				"errors": {
					"OwnableInvalidOwner(address)": [
						{
							"details": "The owner is not a valid owner account. (eg. `address(0)`)"
						}
					],
					"OwnableUnauthorizedAccount(address)": [
						{
							"details": "The caller account is not authorized to perform an operation."
						}
					]
				},
				"kind": "dev",
				"methods": {
					"owner()": {
						"details": "Returns the address of the current owner."
					},
					"renounceOwnership()": {
						"details": "Leaves the contract without owner. It will not be possible to call `onlyOwner` functions. Can only be called by the current owner. NOTE: Renouncing ownership will leave the contract without an owner, thereby disabling any functionality that is only available to the owner."
					},
					"transferOwnership(address)": {
						"details": "Transfers ownership of the contract to a new account (`newOwner`). Can only be called by the current owner."
					}
				},
				"version": 1
			},
			"evm": {
				"assembly": "    /* \"2. Solidity/Projet1/VotingPlus.sol\":1708:14378  contract VotingPlus is Ownable{... */\n  mstore(0x40, 0x80)\n    /* \"2. Solidity/Projet1/VotingPlus.sol\":4702:4745  constructor() Ownable(msg.sender){... */\n  callvalue\n  dup1\n  iszero\n  tag_1\n  jumpi\n  revert(0x00, 0x00)\ntag_1:\n  pop\n    /* \"2. Solidity/Projet1/VotingPlus.sol\":4724:4734  msg.sender */\n  caller\n    /* \"https://github.com/OpenZeppelin/openzeppelin-contracts/blob/master/contracts/access/Ownable.sol\":1297:1298  0 */\n  0x00\n    /* \"https://github.com/OpenZeppelin/openzeppelin-contracts/blob/master/contracts/access/Ownable.sol\":1273:1299  initialOwner == address(0) */\n  0xffffffffffffffffffffffffffffffffffffffff\n  and\n    /* \"https://github.com/OpenZeppelin/openzeppelin-contracts/blob/master/contracts/access/Ownable.sol\":1273:1285  initialOwner */\n  dup2\n    /* \"https://github.com/OpenZeppelin/openzeppelin-contracts/blob/master/contracts/access/Ownable.sol\":1273:1299  initialOwner == address(0) */\n  0xffffffffffffffffffffffffffffffffffffffff\n  and\n  sub\n    /* \"https://github.com/OpenZeppelin/openzeppelin-contracts/blob/master/contracts/access/Ownable.sol\":1269:1364  if (initialOwner == address(0)) {... */\n  tag_5\n  jumpi\n    /* \"https://github.com/OpenZeppelin/openzeppelin-contracts/blob/master/contracts/access/Ownable.sol\":1350:1351  0 */\n  0x00\n    /* \"https://github.com/OpenZeppelin/openzeppelin-contracts/blob/master/contracts/access/Ownable.sol\":1322:1353  OwnableInvalidOwner(address(0)) */\n  mload(0x40)\n  0x1e4fbdf700000000000000000000000000000000000000000000000000000000\n  dup2\n  mstore\n  0x04\n  add\n  tag_6\n  swap2\n  swap1\n  tag_7\n  jump\t// in\ntag_6:\n  mload(0x40)\n  dup1\n  swap2\n  sub\n  swap1\n  revert\n    /* \"https://github.com/OpenZeppelin/openzeppelin-contracts/blob/master/contracts/access/Ownable.sol\":1269:1364  if (initialOwner == address(0)) {... */\ntag_5:\n    /* \"https://github.com/OpenZeppelin/openzeppelin-contracts/blob/master/contracts/access/Ownable.sol\":1373:1405  _transferOwnership(initialOwner) */\n  tag_8\n    /* \"https://github.com/OpenZeppelin/openzeppelin-contracts/blob/master/contracts/access/Ownable.sol\":1392:1404  initialOwner */\n  dup2\n    /* \"https://github.com/OpenZeppelin/openzeppelin-contracts/blob/master/contracts/access/Ownable.sol\":1373:1391  _transferOwnership */\n  shl(0x20, tag_9)\n    /* \"https://github.com/OpenZeppelin/openzeppelin-contracts/blob/master/contracts/access/Ownable.sol\":1373:1405  _transferOwnership(initialOwner) */\n  0x20\n  shr\n  jump\t// in\ntag_8:\n    /* \"https://github.com/OpenZeppelin/openzeppelin-contracts/blob/master/contracts/access/Ownable.sol\":1225:1412  constructor(address initialOwner) {... */\n  pop\n    /* \"2. Solidity/Projet1/VotingPlus.sol\":1708:14378  contract VotingPlus is Ownable{... */\n  jump(tag_11)\n    /* \"https://github.com/OpenZeppelin/openzeppelin-contracts/blob/master/contracts/access/Ownable.sol\":2912:3099  function _transferOwnership(address newOwner) internal virtual {... */\ntag_9:\n    /* \"https://github.com/OpenZeppelin/openzeppelin-contracts/blob/master/contracts/access/Ownable.sol\":2985:3001  address oldOwner */\n  0x00\n    /* \"https://github.com/OpenZeppelin/openzeppelin-contracts/blob/master/contracts/access/Ownable.sol\":3004:3010  _owner */\n  0x00\n  0x00\n  swap1\n  sload\n  swap1\n  0x0100\n  exp\n  swap1\n  div\n  0xffffffffffffffffffffffffffffffffffffffff\n  and\n    /* \"https://github.com/OpenZeppelin/openzeppelin-contracts/blob/master/contracts/access/Ownable.sol\":2985:3010  address oldOwner = _owner */\n  swap1\n  pop\n    /* \"https://github.com/OpenZeppelin/openzeppelin-contracts/blob/master/contracts/access/Ownable.sol\":3029:3037  newOwner */\n  dup2\n    /* \"https://github.com/OpenZeppelin/openzeppelin-contracts/blob/master/contracts/access/Ownable.sol\":3020:3026  _owner */\n  0x00\n  0x00\n    /* \"https://github.com/OpenZeppelin/openzeppelin-contracts/blob/master/contracts/access/Ownable.sol\":3020:3037  _owner = newOwner */\n  0x0100\n  exp\n  dup2\n  sload\n  dup2\n  0xffffffffffffffffffffffffffffffffffffffff\n  mul\n  not\n  and\n  swap1\n  dup4\n  0xffffffffffffffffffffffffffffffffffffffff\n  and\n  mul\n  or\n  swap1\n  sstore\n  pop\n    /* \"https://github.com/OpenZeppelin/openzeppelin-contracts/blob/master/contracts/access/Ownable.sol\":3083:3091  newOwner */\n  dup2\n    /* \"https://github.com/OpenZeppelin/openzeppelin-contracts/blob/master/contracts/access/Ownable.sol\":3052:3092  OwnershipTransferred(oldOwner, newOwner) */\n  0xffffffffffffffffffffffffffffffffffffffff\n  and\n    /* \"https://github.com/OpenZeppelin/openzeppelin-contracts/blob/master/contracts/access/Ownable.sol\":3073:3081  oldOwner */\n  dup2\n    /* \"https://github.com/OpenZeppelin/openzeppelin-contracts/blob/master/contracts/access/Ownable.sol\":3052:3092  OwnershipTransferred(oldOwner, newOwner) */\n  0xffffffffffffffffffffffffffffffffffffffff\n  and\n  0x8be0079c531659141344cd1fd0a4f28419497f9722a3daafe3b4186f6b6457e0\n  mload(0x40)\n  mload(0x40)\n  dup1\n  swap2\n  sub\n  swap1\n  log3\n    /* \"https://github.com/OpenZeppelin/openzeppelin-contracts/blob/master/contracts/access/Ownable.sol\":2975:3099  {... */\n  pop\n    /* \"https://github.com/OpenZeppelin/openzeppelin-contracts/blob/master/contracts/access/Ownable.sol\":2912:3099  function _transferOwnership(address newOwner) internal virtual {... */\n  pop\n  jump\t// out\n    /* \"#utility.yul\":7:133   */\ntag_13:\n    /* \"#utility.yul\":44:51   */\n  0x00\n    /* \"#utility.yul\":84:126   */\n  0xffffffffffffffffffffffffffffffffffffffff\n    /* \"#utility.yul\":77:82   */\n  dup3\n    /* \"#utility.yul\":73:127   */\n  and\n    /* \"#utility.yul\":62:127   */\n  swap1\n  pop\n    /* \"#utility.yul\":7:133   */\n  swap2\n  swap1\n  pop\n  jump\t// out\n    /* \"#utility.yul\":139:235   */\ntag_14:\n    /* \"#utility.yul\":176:183   */\n  0x00\n    /* \"#utility.yul\":205:229   */\n  tag_19\n    /* \"#utility.yul\":223:228   */\n  dup3\n    /* \"#utility.yul\":205:229   */\n  tag_13\n  jump\t// in\ntag_19:\n    /* \"#utility.yul\":194:229   */\n  swap1\n  pop\n    /* \"#utility.yul\":139:235   */\n  swap2\n  swap1\n  pop\n  jump\t// out\n    /* \"#utility.yul\":241:359   */\ntag_15:\n    /* \"#utility.yul\":328:352   */\n  tag_21\n    /* \"#utility.yul\":346:351   */\n  dup2\n    /* \"#utility.yul\":328:352   */\n  tag_14\n  jump\t// in\ntag_21:\n    /* \"#utility.yul\":323:326   */\n  dup3\n    /* \"#utility.yul\":316:353   */\n  mstore\n    /* \"#utility.yul\":241:359   */\n  pop\n  pop\n  jump\t// out\n    /* \"#utility.yul\":365:587   */\ntag_7:\n    /* \"#utility.yul\":458:462   */\n  0x00\n    /* \"#utility.yul\":496:498   */\n  0x20\n    /* \"#utility.yul\":485:494   */\n  dup3\n    /* \"#utility.yul\":481:499   */\n  add\n    /* \"#utility.yul\":473:499   */\n  swap1\n  pop\n    /* \"#utility.yul\":509:580   */\n  tag_23\n    /* \"#utility.yul\":577:578   */\n  0x00\n    /* \"#utility.yul\":566:575   */\n  dup4\n    /* \"#utility.yul\":562:579   */\n  add\n    /* \"#utility.yul\":553:559   */\n  dup5\n    /* \"#utility.yul\":509:580   */\n  tag_15\n  jump\t// in\ntag_23:\n    /* \"#utility.yul\":365:587   */\n  swap3\n  swap2\n  pop\n  pop\n  jump\t// out\n    /* \"2. Solidity/Projet1/VotingPlus.sol\":1708:14378  contract VotingPlus is Ownable{... */\ntag_11:\n  dataSize(sub_0)\n  dup1\n  dataOffset(sub_0)\n  0x00\n  codecopy\n  0x00\n  return\nstop\n\nsub_0: assembly {\n        /* \"2. Solidity/Projet1/VotingPlus.sol\":1708:14378  contract VotingPlus is Ownable{... */\n      mstore(0x40, 0x80)\n      callvalue\n      dup1\n      iszero\n      tag_1\n      jumpi\n      revert(0x00, 0x00)\n    tag_1:\n      pop\n      jumpi(tag_2, lt(calldatasize, 0x04))\n      shr(0xe0, calldataload(0x00))\n      dup1\n      0x8da5cb5b\n      gt\n      tag_23\n      jumpi\n      dup1\n      0xeb0fc7ca\n      gt\n      tag_24\n      jumpi\n      dup1\n      0xeb0fc7ca\n      eq\n      tag_18\n      jumpi\n      dup1\n      0xee74c678\n      eq\n      tag_19\n      jumpi\n      dup1\n      0xf2fde38b\n      eq\n      tag_20\n      jumpi\n      dup1\n      0xf8a3ce82\n      eq\n      tag_21\n      jumpi\n      dup1\n      0xfaabb3b3\n      eq\n      tag_22\n      jumpi\n      jump(tag_2)\n    tag_24:\n      dup1\n      0x8da5cb5b\n      eq\n      tag_13\n      jumpi\n      dup1\n      0x8de86dcf\n      eq\n      tag_14\n      jumpi\n      dup1\n      0x98ab9e92\n      eq\n      tag_15\n      jumpi\n      dup1\n      0xa7bfab16\n      eq\n      tag_16\n      jumpi\n      dup1\n      0xe85a8f2a\n      eq\n      tag_17\n      jumpi\n      jump(tag_2)\n    tag_23:\n      dup1\n      0x4f9026b6\n      gt\n      tag_25\n      jumpi\n      dup1\n      0x4f9026b6\n      eq\n      tag_8\n      jumpi\n      dup1\n      0x548db174\n      eq\n      tag_9\n      jumpi\n      dup1\n      0x5d354d51\n      eq\n      tag_10\n      jumpi\n      dup1\n      0x715018a6\n      eq\n      tag_11\n      jumpi\n      dup1\n      0x7f649783\n      eq\n      tag_12\n      jumpi\n      jump(tag_2)\n    tag_25:\n      dup1\n      0x0121b93f\n      eq\n      tag_3\n      jumpi\n      dup1\n      0x0f7e2838\n      eq\n      tag_4\n      jumpi\n      dup1\n      0x19f41a40\n      eq\n      tag_5\n      jumpi\n      dup1\n      0x2f95355b\n      eq\n      tag_6\n      jumpi\n      dup1\n      0x378a2178\n      eq\n      tag_7\n      jumpi\n    tag_2:\n      revert(0x00, 0x00)\n        /* \"2. Solidity/Projet1/VotingPlus.sol\":9876:10720  function vote(uint _proposalId) external ... */\n    tag_3:\n      tag_26\n      0x04\n      dup1\n      calldatasize\n      sub\n      dup2\n      add\n      swap1\n      tag_27\n      swap2\n      swap1\n      tag_28\n      jump\t// in\n    tag_27:\n      tag_29\n      jump\t// in\n    tag_26:\n      stop\n        /* \"2. Solidity/Projet1/VotingPlus.sol\":4803:4972  function startProposalRegistration() external ... */\n    tag_4:\n      tag_30\n      tag_31\n      jump\t// in\n    tag_30:\n      stop\n        /* \"2. Solidity/Projet1/VotingPlus.sol\":2601:2635  WorkflowStatus public votingStatus */\n    tag_5:\n      tag_32\n      tag_33\n      jump\t// in\n    tag_32:\n      mload(0x40)\n      tag_34\n      swap2\n      swap1\n      tag_35\n      jump\t// in\n    tag_34:\n      mload(0x40)\n      dup1\n      swap2\n      sub\n      swap1\n      return\n        /* \"2. Solidity/Projet1/VotingPlus.sol\":7305:7699  function registerProposal(string calldata _proposal) external ... */\n    tag_6:\n      tag_36\n      0x04\n      dup1\n      calldatasize\n      sub\n      dup2\n      add\n      swap1\n      tag_37\n      swap2\n      swap1\n      tag_38\n      jump\t// in\n    tag_37:\n      tag_39\n      jump\t// in\n    tag_36:\n      stop\n        /* \"2. Solidity/Projet1/VotingPlus.sol\":10786:13233  function tallyVotes() external ... */\n    tag_7:\n      tag_40\n      tag_41\n      jump\t// in\n    tag_40:\n      stop\n        /* \"2. Solidity/Projet1/VotingPlus.sol\":5709:5860  function startTieSession() external ... */\n    tag_8:\n      tag_42\n      tag_43\n      jump\t// in\n    tag_42:\n      stop\n        /* \"2. Solidity/Projet1/VotingPlus.sol\":6630:6933  function removeFromWhitelist(address[] calldata _addressArray) external ... */\n    tag_9:\n      tag_44\n      0x04\n      dup1\n      calldatasize\n      sub\n      dup2\n      add\n      swap1\n      tag_45\n      swap2\n      swap1\n      tag_46\n      jump\t// in\n    tag_45:\n      tag_47\n      jump\t// in\n    tag_44:\n      stop\n        /* \"2. Solidity/Projet1/VotingPlus.sol\":8479:8643  function getSessionProposal(uint _session, uint _proposalId) external view returns(Proposal memory){... */\n    tag_10:\n      tag_48\n      0x04\n      dup1\n      calldatasize\n      sub\n      dup2\n      add\n      swap1\n      tag_49\n      swap2\n      swap1\n      tag_50\n      jump\t// in\n    tag_49:\n      tag_51\n      jump\t// in\n    tag_48:\n      mload(0x40)\n      tag_52\n      swap2\n      swap1\n      tag_53\n      jump\t// in\n    tag_52:\n      mload(0x40)\n      dup1\n      swap2\n      sub\n      swap1\n      return\n        /* \"https://github.com/OpenZeppelin/openzeppelin-contracts/blob/master/contracts/access/Ownable.sol\":2293:2394  function renounceOwnership() public virtual onlyOwner {... */\n    tag_11:\n      tag_54\n      tag_55\n      jump\t// in\n    tag_54:\n      stop\n        /* \"2. Solidity/Projet1/VotingPlus.sol\":6251:6602  function addToWhitelist(address[] calldata _addressArray) external ... */\n    tag_12:\n      tag_56\n      0x04\n      dup1\n      calldatasize\n      sub\n      dup2\n      add\n      swap1\n      tag_57\n      swap2\n      swap1\n      tag_46\n      jump\t// in\n    tag_57:\n      tag_58\n      jump\t// in\n    tag_56:\n      stop\n        /* \"https://github.com/OpenZeppelin/openzeppelin-contracts/blob/master/contracts/access/Ownable.sol\":1638:1723  function owner() public view virtual returns (address) {... */\n    tag_13:\n      tag_59\n      tag_60\n      jump\t// in\n    tag_59:\n      mload(0x40)\n      tag_61\n      swap2\n      swap1\n      tag_62\n      jump\t// in\n    tag_61:\n      mload(0x40)\n      dup1\n      swap2\n      sub\n      swap1\n      return\n        /* \"2. Solidity/Projet1/VotingPlus.sol\":8712:9806  function getSessionAllActiveProposals() external view returns(Proposal[] memory activeProposals, uint[] memory activeProposalIds){... */\n    tag_14:\n      tag_63\n      tag_64\n      jump\t// in\n    tag_63:\n      mload(0x40)\n      tag_65\n      swap3\n      swap2\n      swap1\n      tag_66\n      jump\t// in\n    tag_65:\n      mload(0x40)\n      dup1\n      swap2\n      sub\n      swap1\n      return\n        /* \"2. Solidity/Projet1/VotingPlus.sol\":14162:14373  function getSessionWinningProposalId(uint _session) external view returns(uint){... */\n    tag_15:\n      tag_67\n      0x04\n      dup1\n      calldatasize\n      sub\n      dup2\n      add\n      swap1\n      tag_68\n      swap2\n      swap1\n      tag_28\n      jump\t// in\n    tag_68:\n      tag_69\n      jump\t// in\n    tag_67:\n      mload(0x40)\n      tag_70\n      swap2\n      swap1\n      tag_71\n      jump\t// in\n    tag_70:\n      mload(0x40)\n      dup1\n      swap2\n      sub\n      swap1\n      return\n        /* \"2. Solidity/Projet1/VotingPlus.sol\":5512:5665  function endVotingSession() external ... */\n    tag_16:\n      tag_72\n      tag_73\n      jump\t// in\n    tag_72:\n      stop\n        /* \"2. Solidity/Projet1/VotingPlus.sol\":4980:5333  function endProposalRegistration() external ... */\n    tag_17:\n      tag_74\n      tag_75\n      jump\t// in\n    tag_74:\n      stop\n        /* \"2. Solidity/Projet1/VotingPlus.sol\":13858:14154  function getSessionVoterChoice(address _address, uint _session) external view onlyWhitelisted (_session) returns(uint){... */\n    tag_18:\n      tag_76\n      0x04\n      dup1\n      calldatasize\n      sub\n      dup2\n      add\n      swap1\n      tag_77\n      swap2\n      swap1\n      tag_78\n      jump\t// in\n    tag_77:\n      tag_79\n      jump\t// in\n    tag_76:\n      mload(0x40)\n      tag_80\n      swap2\n      swap1\n      tag_71\n      jump\t// in\n    tag_80:\n      mload(0x40)\n      dup1\n      swap2\n      sub\n      swap1\n      return\n        /* \"2. Solidity/Projet1/VotingPlus.sol\":5341:5504  function startVotingSession() external ... */\n    tag_19:\n      tag_81\n      tag_82\n      jump\t// in\n    tag_81:\n      stop\n        /* \"https://github.com/OpenZeppelin/openzeppelin-contracts/blob/master/contracts/access/Ownable.sol\":2543:2758  function transferOwnership(address newOwner) public virtual onlyOwner {... */\n    tag_20:\n      tag_83\n      0x04\n      dup1\n      calldatasize\n      sub\n      dup2\n      add\n      swap1\n      tag_84\n      swap2\n      swap1\n      tag_85\n      jump\t// in\n    tag_84:\n      tag_86\n      jump\t// in\n    tag_83:\n      stop\n        /* \"2. Solidity/Projet1/VotingPlus.sol\":5890:6180  function resetSession() external onlyOwner{... */\n    tag_21:\n      tag_87\n      tag_88\n      jump\t// in\n    tag_87:\n      stop\n        /* \"2. Solidity/Projet1/VotingPlus.sol\":8279:8418  function getSessionAllProposals(uint _session) external view returns(Proposal[] memory){... */\n    tag_22:\n      tag_89\n      0x04\n      dup1\n      calldatasize\n      sub\n      dup2\n      add\n      swap1\n      tag_90\n      swap2\n      swap1\n      tag_28\n      jump\t// in\n    tag_90:\n      tag_91\n      jump\t// in\n    tag_89:\n      mload(0x40)\n      tag_92\n      swap2\n      swap1\n      tag_93\n      jump\t// in\n    tag_92:\n      mload(0x40)\n      dup1\n      swap2\n      sub\n      swap1\n      return\n        /* \"2. Solidity/Projet1/VotingPlus.sol\":9876:10720  function vote(uint _proposalId) external ... */\n    tag_29:\n        /* \"2. Solidity/Projet1/VotingPlus.sol\":9940:9954  currentSession */\n      sload(0x09)\n        /* \"2. Solidity/Projet1/VotingPlus.sol\":3847:3860  sessionVoters */\n      0x01\n        /* \"2. Solidity/Projet1/VotingPlus.sol\":3847:3871  sessionVoters[sessionId] */\n      0x00\n        /* \"2. Solidity/Projet1/VotingPlus.sol\":3861:3870  sessionId */\n      dup3\n        /* \"2. Solidity/Projet1/VotingPlus.sol\":3847:3871  sessionVoters[sessionId] */\n      dup2\n      mstore\n      0x20\n      add\n      swap1\n      dup2\n      mstore\n      0x20\n      add\n      0x00\n      keccak256\n        /* \"2. Solidity/Projet1/VotingPlus.sol\":3847:3883  sessionVoters[sessionId][msg.sender] */\n      0x00\n        /* \"2. Solidity/Projet1/VotingPlus.sol\":3872:3882  msg.sender */\n      caller\n        /* \"2. Solidity/Projet1/VotingPlus.sol\":3847:3883  sessionVoters[sessionId][msg.sender] */\n      0xffffffffffffffffffffffffffffffffffffffff\n      and\n      0xffffffffffffffffffffffffffffffffffffffff\n      and\n      dup2\n      mstore\n      0x20\n      add\n      swap1\n      dup2\n      mstore\n      0x20\n      add\n      0x00\n      keccak256\n        /* \"2. Solidity/Projet1/VotingPlus.sol\":3847:3896  sessionVoters[sessionId][msg.sender].isRegistered */\n      0x00\n      add\n      0x00\n      swap1\n      sload\n      swap1\n      0x0100\n      exp\n      swap1\n      div\n      0xff\n      and\n        /* \"2. Solidity/Projet1/VotingPlus.sol\":3843:3964  if(!sessionVoters[sessionId][msg.sender].isRegistered){... */\n      tag_95\n      jumpi\n        /* \"2. Solidity/Projet1/VotingPlus.sol\":3941:3951  msg.sender */\n      caller\n        /* \"2. Solidity/Projet1/VotingPlus.sol\":3919:3952  AddressNotWhitelisted(msg.sender) */\n      mload(0x40)\n      0xeadb950f00000000000000000000000000000000000000000000000000000000\n      dup2\n      mstore\n      0x04\n      add\n      tag_96\n      swap2\n      swap1\n      tag_62\n      jump\t// in\n    tag_96:\n      mload(0x40)\n      dup1\n      swap2\n      sub\n      swap1\n      revert\n        /* \"2. Solidity/Projet1/VotingPlus.sol\":3843:3964  if(!sessionVoters[sessionId][msg.sender].isRegistered){... */\n    tag_95:\n        /* \"2. Solidity/Projet1/VotingPlus.sol\":9978:10013  WorkflowStatus.VotingSessionStarted */\n      0x03\n        /* \"2. Solidity/Projet1/VotingPlus.sol\":4078:4091  expectedPhase */\n      dup1\n        /* \"2. Solidity/Projet1/VotingPlus.sol\":4062:4091  votingStatus != expectedPhase */\n      0x05\n      dup2\n      gt\n      iszero\n      tag_98\n      jumpi\n      tag_99\n      tag_100\n      jump\t// in\n    tag_99:\n    tag_98:\n        /* \"2. Solidity/Projet1/VotingPlus.sol\":4062:4074  votingStatus */\n      0x04\n      0x00\n      swap1\n      sload\n      swap1\n      0x0100\n      exp\n      swap1\n      div\n      0xff\n      and\n        /* \"2. Solidity/Projet1/VotingPlus.sol\":4062:4091  votingStatus != expectedPhase */\n      0x05\n      dup2\n      gt\n      iszero\n      tag_101\n      jumpi\n      tag_102\n      tag_100\n      jump\t// in\n    tag_102:\n    tag_101:\n      eq\n        /* \"2. Solidity/Projet1/VotingPlus.sol\":4058:4172  if (votingStatus != expectedPhase) {... */\n      tag_103\n      jumpi\n        /* \"2. Solidity/Projet1/VotingPlus.sol\":4132:4145  expectedPhase */\n      dup1\n        /* \"2. Solidity/Projet1/VotingPlus.sol\":4147:4159  votingStatus */\n      0x04\n      0x00\n      swap1\n      sload\n      swap1\n      0x0100\n      exp\n      swap1\n      div\n      0xff\n      and\n        /* \"2. Solidity/Projet1/VotingPlus.sol\":4115:4160  WrongVotingPhase(expectedPhase, votingStatus) */\n      mload(0x40)\n      0x2e73d6d900000000000000000000000000000000000000000000000000000000\n      dup2\n      mstore\n      0x04\n      add\n      tag_104\n      swap3\n      swap2\n      swap1\n      tag_105\n      jump\t// in\n    tag_104:\n      mload(0x40)\n      dup1\n      swap2\n      sub\n      swap1\n      revert\n        /* \"2. Solidity/Projet1/VotingPlus.sol\":4058:4172  if (votingStatus != expectedPhase) {... */\n    tag_103:\n        /* \"2. Solidity/Projet1/VotingPlus.sol\":10034:10047  sessionVoters */\n      0x01\n        /* \"2. Solidity/Projet1/VotingPlus.sol\":10034:10063  sessionVoters[currentSession] */\n      0x00\n        /* \"2. Solidity/Projet1/VotingPlus.sol\":10048:10062  currentSession */\n      sload(0x09)\n        /* \"2. Solidity/Projet1/VotingPlus.sol\":10034:10063  sessionVoters[currentSession] */\n      dup2\n      mstore\n      0x20\n      add\n      swap1\n      dup2\n      mstore\n      0x20\n      add\n      0x00\n      keccak256\n        /* \"2. Solidity/Projet1/VotingPlus.sol\":10034:10075  sessionVoters[currentSession][msg.sender] */\n      0x00\n        /* \"2. Solidity/Projet1/VotingPlus.sol\":10064:10074  msg.sender */\n      caller\n        /* \"2. Solidity/Projet1/VotingPlus.sol\":10034:10075  sessionVoters[currentSession][msg.sender] */\n      0xffffffffffffffffffffffffffffffffffffffff\n      and\n      0xffffffffffffffffffffffffffffffffffffffff\n      and\n      dup2\n      mstore\n      0x20\n      add\n      swap1\n      dup2\n      mstore\n      0x20\n      add\n      0x00\n      keccak256\n        /* \"2. Solidity/Projet1/VotingPlus.sol\":10034:10084  sessionVoters[currentSession][msg.sender].hasVoted */\n      0x00\n      add\n      0x01\n      swap1\n      sload\n      swap1\n      0x0100\n      exp\n      swap1\n      div\n      0xff\n      and\n        /* \"2. Solidity/Projet1/VotingPlus.sol\":10033:10084  !sessionVoters[currentSession][msg.sender].hasVoted */\n      iszero\n        /* \"2. Solidity/Projet1/VotingPlus.sol\":10025:10111  require(!sessionVoters[currentSession][msg.sender].hasVoted, \"You have already voted\") */\n      tag_107\n      jumpi\n      mload(0x40)\n      0x08c379a000000000000000000000000000000000000000000000000000000000\n      dup2\n      mstore\n      0x04\n      add\n      tag_108\n      swap1\n      tag_109\n      jump\t// in\n    tag_108:\n      mload(0x40)\n      dup1\n      swap2\n      sub\n      swap1\n      revert\n    tag_107:\n        /* \"2. Solidity/Projet1/VotingPlus.sol\":10144:10160  sessionProposals */\n      0x02\n        /* \"2. Solidity/Projet1/VotingPlus.sol\":10144:10176  sessionProposals[currentSession] */\n      0x00\n        /* \"2. Solidity/Projet1/VotingPlus.sol\":10161:10175  currentSession */\n      sload(0x09)\n        /* \"2. Solidity/Projet1/VotingPlus.sol\":10144:10176  sessionProposals[currentSession] */\n      dup2\n      mstore\n      0x20\n      add\n      swap1\n      dup2\n      mstore\n      0x20\n      add\n      0x00\n      keccak256\n        /* \"2. Solidity/Projet1/VotingPlus.sol\":10144:10183  sessionProposals[currentSession].length */\n      dup1\n      sload\n      swap1\n      pop\n        /* \"2. Solidity/Projet1/VotingPlus.sol\":10130:10141  _proposalId */\n      dup4\n        /* \"2. Solidity/Projet1/VotingPlus.sol\":10130:10183  _proposalId < sessionProposals[currentSession].length */\n      lt\n        /* \"2. Solidity/Projet1/VotingPlus.sol\":10122:10207  require(_proposalId < sessionProposals[currentSession].length, \"Invalid proposal ID\") */\n      tag_110\n      jumpi\n      mload(0x40)\n      0x08c379a000000000000000000000000000000000000000000000000000000000\n      dup2\n      mstore\n      0x04\n      add\n      tag_111\n      swap1\n      tag_112\n      jump\t// in\n    tag_111:\n      mload(0x40)\n      dup1\n      swap2\n      sub\n      swap1\n      revert\n    tag_110:\n        /* \"2. Solidity/Projet1/VotingPlus.sol\":10281:10285  true */\n      0x01\n        /* \"2. Solidity/Projet1/VotingPlus.sol\":10226:10285  sessionActiveProposals[currentSession][_proposalId] == true */\n      iszero\n      iszero\n        /* \"2. Solidity/Projet1/VotingPlus.sol\":10226:10248  sessionActiveProposals */\n      0x03\n        /* \"2. Solidity/Projet1/VotingPlus.sol\":10226:10264  sessionActiveProposals[currentSession] */\n      0x00\n        /* \"2. Solidity/Projet1/VotingPlus.sol\":10249:10263  currentSession */\n      sload(0x09)\n        /* \"2. Solidity/Projet1/VotingPlus.sol\":10226:10264  sessionActiveProposals[currentSession] */\n      dup2\n      mstore\n      0x20\n      add\n      swap1\n      dup2\n      mstore\n      0x20\n      add\n      0x00\n      keccak256\n        /* \"2. Solidity/Projet1/VotingPlus.sol\":10226:10277  sessionActiveProposals[currentSession][_proposalId] */\n      0x00\n        /* \"2. Solidity/Projet1/VotingPlus.sol\":10265:10276  _proposalId */\n      dup6\n        /* \"2. Solidity/Projet1/VotingPlus.sol\":10226:10277  sessionActiveProposals[currentSession][_proposalId] */\n      dup2\n      mstore\n      0x20\n      add\n      swap1\n      dup2\n      mstore\n      0x20\n      add\n      0x00\n      keccak256\n      0x00\n      swap1\n      sload\n      swap1\n      0x0100\n      exp\n      swap1\n      div\n      0xff\n      and\n        /* \"2. Solidity/Projet1/VotingPlus.sol\":10226:10285  sessionActiveProposals[currentSession][_proposalId] == true */\n      iszero\n      iszero\n      eq\n        /* \"2. Solidity/Projet1/VotingPlus.sol\":10218:10365  require(sessionActiveProposals[currentSession][_proposalId] == true, \"Voting is not allowed on this proposal. Please choose an eligible proposal.\") */\n      tag_113\n      jumpi\n      mload(0x40)\n      0x08c379a000000000000000000000000000000000000000000000000000000000\n      dup2\n      mstore\n      0x04\n      add\n      tag_114\n      swap1\n      tag_115\n      jump\t// in\n    tag_114:\n      mload(0x40)\n      dup1\n      swap2\n      sub\n      swap1\n      revert\n    tag_113:\n        /* \"2. Solidity/Projet1/VotingPlus.sol\":10431:10435  true */\n      0x01\n        /* \"2. Solidity/Projet1/VotingPlus.sol\":10378:10391  sessionVoters */\n      dup1\n        /* \"2. Solidity/Projet1/VotingPlus.sol\":10378:10407  sessionVoters[currentSession] */\n      0x00\n        /* \"2. Solidity/Projet1/VotingPlus.sol\":10392:10406  currentSession */\n      sload(0x09)\n        /* \"2. Solidity/Projet1/VotingPlus.sol\":10378:10407  sessionVoters[currentSession] */\n      dup2\n      mstore\n      0x20\n      add\n      swap1\n      dup2\n      mstore\n      0x20\n      add\n      0x00\n      keccak256\n        /* \"2. Solidity/Projet1/VotingPlus.sol\":10378:10419  sessionVoters[currentSession][msg.sender] */\n      0x00\n        /* \"2. Solidity/Projet1/VotingPlus.sol\":10408:10418  msg.sender */\n      caller\n        /* \"2. Solidity/Projet1/VotingPlus.sol\":10378:10419  sessionVoters[currentSession][msg.sender] */\n      0xffffffffffffffffffffffffffffffffffffffff\n      and\n      0xffffffffffffffffffffffffffffffffffffffff\n      and\n      dup2\n      mstore\n      0x20\n      add\n      swap1\n      dup2\n      mstore\n      0x20\n      add\n      0x00\n      keccak256\n        /* \"2. Solidity/Projet1/VotingPlus.sol\":10378:10428  sessionVoters[currentSession][msg.sender].hasVoted */\n      0x00\n      add\n      0x01\n        /* \"2. Solidity/Projet1/VotingPlus.sol\":10378:10435  sessionVoters[currentSession][msg.sender].hasVoted = true */\n      0x0100\n      exp\n      dup2\n      sload\n      dup2\n      0xff\n      mul\n      not\n      and\n      swap1\n      dup4\n      iszero\n      iszero\n      mul\n      or\n      swap1\n      sstore\n      pop\n        /* \"2. Solidity/Projet1/VotingPlus.sol\":10506:10517  _proposalId */\n      dup3\n        /* \"2. Solidity/Projet1/VotingPlus.sol\":10446:10459  sessionVoters */\n      0x01\n        /* \"2. Solidity/Projet1/VotingPlus.sol\":10446:10475  sessionVoters[currentSession] */\n      0x00\n        /* \"2. Solidity/Projet1/VotingPlus.sol\":10460:10474  currentSession */\n      sload(0x09)\n        /* \"2. Solidity/Projet1/VotingPlus.sol\":10446:10475  sessionVoters[currentSession] */\n      dup2\n      mstore\n      0x20\n      add\n      swap1\n      dup2\n      mstore\n      0x20\n      add\n      0x00\n      keccak256\n        /* \"2. Solidity/Projet1/VotingPlus.sol\":10446:10487  sessionVoters[currentSession][msg.sender] */\n      0x00\n        /* \"2. Solidity/Projet1/VotingPlus.sol\":10476:10486  msg.sender */\n      caller\n        /* \"2. Solidity/Projet1/VotingPlus.sol\":10446:10487  sessionVoters[currentSession][msg.sender] */\n      0xffffffffffffffffffffffffffffffffffffffff\n      and\n      0xffffffffffffffffffffffffffffffffffffffff\n      and\n      dup2\n      mstore\n      0x20\n      add\n      swap1\n      dup2\n      mstore\n      0x20\n      add\n      0x00\n      keccak256\n        /* \"2. Solidity/Projet1/VotingPlus.sol\":10446:10503  sessionVoters[currentSession][msg.sender].votedProposalId */\n      0x01\n      add\n        /* \"2. Solidity/Projet1/VotingPlus.sol\":10446:10517  sessionVoters[currentSession][msg.sender].votedProposalId = _proposalId */\n      dup2\n      swap1\n      sstore\n      pop\n        /* \"2. Solidity/Projet1/VotingPlus.sol\":10587:10588  1 */\n      0x01\n        /* \"2. Solidity/Projet1/VotingPlus.sol\":10528:10544  sessionProposals */\n      0x02\n        /* \"2. Solidity/Projet1/VotingPlus.sol\":10528:10560  sessionProposals[currentSession] */\n      0x00\n        /* \"2. Solidity/Projet1/VotingPlus.sol\":10545:10559  currentSession */\n      sload(0x09)\n        /* \"2. Solidity/Projet1/VotingPlus.sol\":10528:10560  sessionProposals[currentSession] */\n      dup2\n      mstore\n      0x20\n      add\n      swap1\n      dup2\n      mstore\n      0x20\n      add\n      0x00\n      keccak256\n        /* \"2. Solidity/Projet1/VotingPlus.sol\":10561:10572  _proposalId */\n      dup5\n        /* \"2. Solidity/Projet1/VotingPlus.sol\":10528:10573  sessionProposals[currentSession][_proposalId] */\n      dup2\n      sload\n      dup2\n      lt\n      tag_116\n      jumpi\n      tag_117\n      tag_118\n      jump\t// in\n    tag_117:\n    tag_116:\n      swap1\n      0x00\n      mstore\n      keccak256(0x00, 0x20)\n      swap1\n      0x02\n      mul\n      add\n        /* \"2. Solidity/Projet1/VotingPlus.sol\":10528:10583  sessionProposals[currentSession][_proposalId].voteCount */\n      0x01\n      add\n      0x00\n        /* \"2. Solidity/Projet1/VotingPlus.sol\":10528:10588  sessionProposals[currentSession][_proposalId].voteCount += 1 */\n      dup3\n      dup3\n      sload\n      tag_120\n      swap2\n      swap1\n      tag_121\n      jump\t// in\n    tag_120:\n      swap3\n      pop\n      pop\n      dup2\n      swap1\n      sstore\n      pop\n        /* \"2. Solidity/Projet1/VotingPlus.sol\":10599:10612  votersAddress */\n      0x07\n        /* \"2. Solidity/Projet1/VotingPlus.sol\":10618:10628  msg.sender */\n      caller\n        /* \"2. Solidity/Projet1/VotingPlus.sol\":10599:10629  votersAddress.push(msg.sender) */\n      swap1\n      dup1\n      0x01\n      dup2\n      sload\n      add\n      dup1\n      dup3\n      sstore\n      dup1\n      swap2\n      pop\n      pop\n      0x01\n      swap1\n      sub\n      swap1\n      0x00\n      mstore\n      keccak256(0x00, 0x20)\n      add\n      0x00\n      swap1\n      swap2\n      swap1\n      swap2\n      swap1\n      swap2\n      0x0100\n      exp\n      dup2\n      sload\n      dup2\n      0xffffffffffffffffffffffffffffffffffffffff\n      mul\n      not\n      and\n      swap1\n      dup4\n      0xffffffffffffffffffffffffffffffffffffffff\n      and\n      mul\n      or\n      swap1\n      sstore\n      pop\n        /* \"2. Solidity/Projet1/VotingPlus.sol\":10682:10712  Voted(msg.sender, _proposalId) */\n      0x4d99b957a2bc29a30ebd96a7be8e68fe50a3c701db28a91436490b7d53870ca4\n        /* \"2. Solidity/Projet1/VotingPlus.sol\":10688:10698  msg.sender */\n      caller\n        /* \"2. Solidity/Projet1/VotingPlus.sol\":10700:10711  _proposalId */\n      dup5\n        /* \"2. Solidity/Projet1/VotingPlus.sol\":10682:10712  Voted(msg.sender, _proposalId) */\n      mload(0x40)\n      tag_123\n      swap3\n      swap2\n      swap1\n      tag_124\n      jump\t// in\n    tag_123:\n      mload(0x40)\n      dup1\n      swap2\n      sub\n      swap1\n      log1\n        /* \"2. Solidity/Projet1/VotingPlus.sol\":3974:3975  _ */\n      pop\n        /* \"2. Solidity/Projet1/VotingPlus.sol\":9876:10720  function vote(uint _proposalId) external ... */\n      pop\n      pop\n      jump\t// out\n        /* \"2. Solidity/Projet1/VotingPlus.sol\":4803:4972  function startProposalRegistration() external ... */\n    tag_31:\n        /* \"https://github.com/OpenZeppelin/openzeppelin-contracts/blob/master/contracts/access/Ownable.sol\":1531:1544  _checkOwner() */\n      tag_126\n        /* \"https://github.com/OpenZeppelin/openzeppelin-contracts/blob/master/contracts/access/Ownable.sol\":1531:1542  _checkOwner */\n      tag_127\n        /* \"https://github.com/OpenZeppelin/openzeppelin-contracts/blob/master/contracts/access/Ownable.sol\":1531:1544  _checkOwner() */\n      jump\t// in\n    tag_126:\n        /* \"2. Solidity/Projet1/VotingPlus.sol\":4886:4918  WorkflowStatus.RegisteringVoters */\n      0x00\n        /* \"2. Solidity/Projet1/VotingPlus.sol\":4920:4963  WorkflowStatus.ProposalsRegistrationStarted */\n      0x01\n        /* \"2. Solidity/Projet1/VotingPlus.sol\":4310:4323  previousPhase */\n      dup2\n        /* \"2. Solidity/Projet1/VotingPlus.sol\":4294:4323  votingStatus != previousPhase */\n      0x05\n      dup2\n      gt\n      iszero\n      tag_129\n      jumpi\n      tag_130\n      tag_100\n      jump\t// in\n    tag_130:\n    tag_129:\n        /* \"2. Solidity/Projet1/VotingPlus.sol\":4294:4306  votingStatus */\n      0x04\n      0x00\n      swap1\n      sload\n      swap1\n      0x0100\n      exp\n      swap1\n      div\n      0xff\n      and\n        /* \"2. Solidity/Projet1/VotingPlus.sol\":4294:4323  votingStatus != previousPhase */\n      0x05\n      dup2\n      gt\n      iszero\n      tag_131\n      jumpi\n      tag_132\n      tag_100\n      jump\t// in\n    tag_132:\n    tag_131:\n      eq\n        /* \"2. Solidity/Projet1/VotingPlus.sol\":4290:4529  if (votingStatus != previousPhase) { // Check if the workflow is in the correct phase before moving to the next, prevent from skipping phases or moving backwards... */\n      tag_133\n      jumpi\n        /* \"2. Solidity/Projet1/VotingPlus.sol\":4489:4502  previousPhase */\n      dup2\n        /* \"2. Solidity/Projet1/VotingPlus.sol\":4504:4516  votingStatus */\n      0x04\n      0x00\n      swap1\n      sload\n      swap1\n      0x0100\n      exp\n      swap1\n      div\n      0xff\n      and\n        /* \"2. Solidity/Projet1/VotingPlus.sol\":4472:4517  WrongVotingPhase(previousPhase, votingStatus) */\n      mload(0x40)\n      0x2e73d6d900000000000000000000000000000000000000000000000000000000\n      dup2\n      mstore\n      0x04\n      add\n      tag_134\n      swap3\n      swap2\n      swap1\n      tag_105\n      jump\t// in\n    tag_134:\n      mload(0x40)\n      dup1\n      swap2\n      sub\n      swap1\n      revert\n        /* \"2. Solidity/Projet1/VotingPlus.sol\":4290:4529  if (votingStatus != previousPhase) { // Check if the workflow is in the correct phase before moving to the next, prevent from skipping phases or moving backwards... */\n    tag_133:\n        /* \"2. Solidity/Projet1/VotingPlus.sol\":4554:4563  nextPhase */\n      dup1\n        /* \"2. Solidity/Projet1/VotingPlus.sol\":4539:4551  votingStatus */\n      0x04\n      0x00\n        /* \"2. Solidity/Projet1/VotingPlus.sol\":4539:4563  votingStatus = nextPhase */\n      0x0100\n      exp\n      dup2\n      sload\n      dup2\n      0xff\n      mul\n      not\n      and\n      swap1\n      dup4\n      0x05\n      dup2\n      gt\n      iszero\n      tag_135\n      jumpi\n      tag_136\n      tag_100\n      jump\t// in\n    tag_136:\n    tag_135:\n      mul\n      or\n      swap1\n      sstore\n      pop\n        /* \"2. Solidity/Projet1/VotingPlus.sol\":4579:4625  WorkflowStatusChange(previousPhase, nextPhase) */\n      0x0a97a4ee45751e2abf3e4fc8946939630b11b371ea8ae39ccdc3056e98f5cc3f\n        /* \"2. Solidity/Projet1/VotingPlus.sol\":4600:4613  previousPhase */\n      dup3\n        /* \"2. Solidity/Projet1/VotingPlus.sol\":4615:4624  nextPhase */\n      dup3\n        /* \"2. Solidity/Projet1/VotingPlus.sol\":4579:4625  WorkflowStatusChange(previousPhase, nextPhase) */\n      mload(0x40)\n      tag_137\n      swap3\n      swap2\n      swap1\n      tag_105\n      jump\t// in\n    tag_137:\n      mload(0x40)\n      dup1\n      swap2\n      sub\n      swap1\n      log1\n        /* \"https://github.com/OpenZeppelin/openzeppelin-contracts/blob/master/contracts/access/Ownable.sol\":1554:1555  _ */\n      pop\n      pop\n        /* \"2. Solidity/Projet1/VotingPlus.sol\":4803:4972  function startProposalRegistration() external ... */\n      jump\t// out\n        /* \"2. Solidity/Projet1/VotingPlus.sol\":2601:2635  WorkflowStatus public votingStatus */\n    tag_33:\n      0x04\n      0x00\n      swap1\n      sload\n      swap1\n      0x0100\n      exp\n      swap1\n      div\n      0xff\n      and\n      dup2\n      jump\t// out\n        /* \"2. Solidity/Projet1/VotingPlus.sol\":7305:7699  function registerProposal(string calldata _proposal) external ... */\n    tag_39:\n        /* \"2. Solidity/Projet1/VotingPlus.sol\":7390:7404  currentSession */\n      sload(0x09)\n        /* \"2. Solidity/Projet1/VotingPlus.sol\":3847:3860  sessionVoters */\n      0x01\n        /* \"2. Solidity/Projet1/VotingPlus.sol\":3847:3871  sessionVoters[sessionId] */\n      0x00\n        /* \"2. Solidity/Projet1/VotingPlus.sol\":3861:3870  sessionId */\n      dup3\n        /* \"2. Solidity/Projet1/VotingPlus.sol\":3847:3871  sessionVoters[sessionId] */\n      dup2\n      mstore\n      0x20\n      add\n      swap1\n      dup2\n      mstore\n      0x20\n      add\n      0x00\n      keccak256\n        /* \"2. Solidity/Projet1/VotingPlus.sol\":3847:3883  sessionVoters[sessionId][msg.sender] */\n      0x00\n        /* \"2. Solidity/Projet1/VotingPlus.sol\":3872:3882  msg.sender */\n      caller\n        /* \"2. Solidity/Projet1/VotingPlus.sol\":3847:3883  sessionVoters[sessionId][msg.sender] */\n      0xffffffffffffffffffffffffffffffffffffffff\n      and\n      0xffffffffffffffffffffffffffffffffffffffff\n      and\n      dup2\n      mstore\n      0x20\n      add\n      swap1\n      dup2\n      mstore\n      0x20\n      add\n      0x00\n      keccak256\n        /* \"2. Solidity/Projet1/VotingPlus.sol\":3847:3896  sessionVoters[sessionId][msg.sender].isRegistered */\n      0x00\n      add\n      0x00\n      swap1\n      sload\n      swap1\n      0x0100\n      exp\n      swap1\n      div\n      0xff\n      and\n        /* \"2. Solidity/Projet1/VotingPlus.sol\":3843:3964  if(!sessionVoters[sessionId][msg.sender].isRegistered){... */\n      tag_140\n      jumpi\n        /* \"2. Solidity/Projet1/VotingPlus.sol\":3941:3951  msg.sender */\n      caller\n        /* \"2. Solidity/Projet1/VotingPlus.sol\":3919:3952  AddressNotWhitelisted(msg.sender) */\n      mload(0x40)\n      0xeadb950f00000000000000000000000000000000000000000000000000000000\n      dup2\n      mstore\n      0x04\n      add\n      tag_141\n      swap2\n      swap1\n      tag_62\n      jump\t// in\n    tag_141:\n      mload(0x40)\n      dup1\n      swap2\n      sub\n      swap1\n      revert\n        /* \"2. Solidity/Projet1/VotingPlus.sol\":3843:3964  if(!sessionVoters[sessionId][msg.sender].isRegistered){... */\n    tag_140:\n        /* \"2. Solidity/Projet1/VotingPlus.sol\":7428:7471  WorkflowStatus.ProposalsRegistrationStarted */\n      0x01\n        /* \"2. Solidity/Projet1/VotingPlus.sol\":4078:4091  expectedPhase */\n      dup1\n        /* \"2. Solidity/Projet1/VotingPlus.sol\":4062:4091  votingStatus != expectedPhase */\n      0x05\n      dup2\n      gt\n      iszero\n      tag_143\n      jumpi\n      tag_144\n      tag_100\n      jump\t// in\n    tag_144:\n    tag_143:\n        /* \"2. Solidity/Projet1/VotingPlus.sol\":4062:4074  votingStatus */\n      0x04\n      0x00\n      swap1\n      sload\n      swap1\n      0x0100\n      exp\n      swap1\n      div\n      0xff\n      and\n        /* \"2. Solidity/Projet1/VotingPlus.sol\":4062:4091  votingStatus != expectedPhase */\n      0x05\n      dup2\n      gt\n      iszero\n      tag_145\n      jumpi\n      tag_146\n      tag_100\n      jump\t// in\n    tag_146:\n    tag_145:\n      eq\n        /* \"2. Solidity/Projet1/VotingPlus.sol\":4058:4172  if (votingStatus != expectedPhase) {... */\n      tag_147\n      jumpi\n        /* \"2. Solidity/Projet1/VotingPlus.sol\":4132:4145  expectedPhase */\n      dup1\n        /* \"2. Solidity/Projet1/VotingPlus.sol\":4147:4159  votingStatus */\n      0x04\n      0x00\n      swap1\n      sload\n      swap1\n      0x0100\n      exp\n      swap1\n      div\n      0xff\n      and\n        /* \"2. Solidity/Projet1/VotingPlus.sol\":4115:4160  WrongVotingPhase(expectedPhase, votingStatus) */\n      mload(0x40)\n      0x2e73d6d900000000000000000000000000000000000000000000000000000000\n      dup2\n      mstore\n      0x04\n      add\n      tag_148\n      swap3\n      swap2\n      swap1\n      tag_105\n      jump\t// in\n    tag_148:\n      mload(0x40)\n      dup1\n      swap2\n      sub\n      swap1\n      revert\n        /* \"2. Solidity/Projet1/VotingPlus.sol\":4058:4172  if (votingStatus != expectedPhase) {... */\n    tag_147:\n        /* \"2. Solidity/Projet1/VotingPlus.sol\":7483:7499  sessionProposals */\n      0x02\n        /* \"2. Solidity/Projet1/VotingPlus.sol\":7483:7515  sessionProposals[currentSession] */\n      0x00\n        /* \"2. Solidity/Projet1/VotingPlus.sol\":7500:7514  currentSession */\n      sload(0x09)\n        /* \"2. Solidity/Projet1/VotingPlus.sol\":7483:7515  sessionProposals[currentSession] */\n      dup2\n      mstore\n      0x20\n      add\n      swap1\n      dup2\n      mstore\n      0x20\n      add\n      0x00\n      keccak256\n        /* \"2. Solidity/Projet1/VotingPlus.sol\":7521:7543  Proposal(_proposal, 0) */\n      mload(0x40)\n      dup1\n      0x40\n      add\n      0x40\n      mstore\n      dup1\n        /* \"2. Solidity/Projet1/VotingPlus.sol\":7530:7539  _proposal */\n      dup7\n      dup7\n        /* \"2. Solidity/Projet1/VotingPlus.sol\":7521:7543  Proposal(_proposal, 0) */\n      dup1\n      dup1\n      0x1f\n      add\n      0x20\n      dup1\n      swap2\n      div\n      mul\n      0x20\n      add\n      mload(0x40)\n      swap1\n      dup2\n      add\n      0x40\n      mstore\n      dup1\n      swap4\n      swap3\n      swap2\n      swap1\n      dup2\n      dup2\n      mstore\n      0x20\n      add\n      dup4\n      dup4\n      dup1\n      dup3\n      dup5\n      calldatacopy\n      0x00\n      dup2\n      dup5\n      add\n      mstore\n      not(0x1f)\n      0x1f\n      dup3\n      add\n      and\n      swap1\n      pop\n      dup1\n      dup4\n      add\n      swap3\n      pop\n      pop\n      pop\n      pop\n      pop\n      pop\n      pop\n      dup2\n      mstore\n      0x20\n      add\n        /* \"2. Solidity/Projet1/VotingPlus.sol\":7541:7542  0 */\n      0x00\n        /* \"2. Solidity/Projet1/VotingPlus.sol\":7521:7543  Proposal(_proposal, 0) */\n      dup2\n      mstore\n      pop\n        /* \"2. Solidity/Projet1/VotingPlus.sol\":7483:7544  sessionProposals[currentSession].push(Proposal(_proposal, 0)) */\n      swap1\n      dup1\n      0x01\n      dup2\n      sload\n      add\n      dup1\n      dup3\n      sstore\n      dup1\n      swap2\n      pop\n      pop\n      0x01\n      swap1\n      sub\n      swap1\n      0x00\n      mstore\n      keccak256(0x00, 0x20)\n      swap1\n      0x02\n      mul\n      add\n      0x00\n      swap1\n      swap2\n      swap1\n      swap2\n      swap1\n      swap2\n      pop\n      0x00\n      dup3\n      add\n      mload\n      dup2\n      0x00\n      add\n      swap1\n      dup2\n      tag_151\n      swap2\n      swap1\n      tag_152\n      jump\t// in\n    tag_151:\n      pop\n      0x20\n      dup3\n      add\n      mload\n      dup2\n      0x01\n      add\n      sstore\n      pop\n      pop\n        /* \"2. Solidity/Projet1/VotingPlus.sol\":7628:7691  ProposalRegistered(sessionProposals[currentSession].length - 1) */\n      0x92e393e9b54e2f801d3ea4beb0c5e71a21cc34a5d34b77d0fb8a3aa1650dc18f\n        /* \"2. Solidity/Projet1/VotingPlus.sol\":7689:7690  1 */\n      0x01\n        /* \"2. Solidity/Projet1/VotingPlus.sol\":7647:7663  sessionProposals */\n      0x02\n        /* \"2. Solidity/Projet1/VotingPlus.sol\":7647:7679  sessionProposals[currentSession] */\n      0x00\n        /* \"2. Solidity/Projet1/VotingPlus.sol\":7664:7678  currentSession */\n      sload(0x09)\n        /* \"2. Solidity/Projet1/VotingPlus.sol\":7647:7679  sessionProposals[currentSession] */\n      dup2\n      mstore\n      0x20\n      add\n      swap1\n      dup2\n      mstore\n      0x20\n      add\n      0x00\n      keccak256\n        /* \"2. Solidity/Projet1/VotingPlus.sol\":7647:7686  sessionProposals[currentSession].length */\n      dup1\n      sload\n      swap1\n      pop\n        /* \"2. Solidity/Projet1/VotingPlus.sol\":7647:7690  sessionProposals[currentSession].length - 1 */\n      tag_153\n      swap2\n      swap1\n      tag_154\n      jump\t// in\n    tag_153:\n        /* \"2. Solidity/Projet1/VotingPlus.sol\":7628:7691  ProposalRegistered(sessionProposals[currentSession].length - 1) */\n      mload(0x40)\n      tag_155\n      swap2\n      swap1\n      tag_71\n      jump\t// in\n    tag_155:\n      mload(0x40)\n      dup1\n      swap2\n      sub\n      swap1\n      log1\n        /* \"2. Solidity/Projet1/VotingPlus.sol\":3974:3975  _ */\n      pop\n        /* \"2. Solidity/Projet1/VotingPlus.sol\":7305:7699  function registerProposal(string calldata _proposal) external ... */\n      pop\n      pop\n      pop\n      jump\t// out\n        /* \"2. Solidity/Projet1/VotingPlus.sol\":10786:13233  function tallyVotes() external ... */\n    tag_41:\n        /* \"https://github.com/OpenZeppelin/openzeppelin-contracts/blob/master/contracts/access/Ownable.sol\":1531:1544  _checkOwner() */\n      tag_157\n        /* \"https://github.com/OpenZeppelin/openzeppelin-contracts/blob/master/contracts/access/Ownable.sol\":1531:1542  _checkOwner */\n      tag_127\n        /* \"https://github.com/OpenZeppelin/openzeppelin-contracts/blob/master/contracts/access/Ownable.sol\":1531:1544  _checkOwner() */\n      jump\t// in\n    tag_157:\n        /* \"2. Solidity/Projet1/VotingPlus.sol\":10856:10889  WorkflowStatus.VotingSessionEnded */\n      0x04\n        /* \"2. Solidity/Projet1/VotingPlus.sol\":4078:4091  expectedPhase */\n      dup1\n        /* \"2. Solidity/Projet1/VotingPlus.sol\":4062:4091  votingStatus != expectedPhase */\n      0x05\n      dup2\n      gt\n      iszero\n      tag_159\n      jumpi\n      tag_160\n      tag_100\n      jump\t// in\n    tag_160:\n    tag_159:\n        /* \"2. Solidity/Projet1/VotingPlus.sol\":4062:4074  votingStatus */\n      0x04\n      0x00\n      swap1\n      sload\n      swap1\n      0x0100\n      exp\n      swap1\n      div\n      0xff\n      and\n        /* \"2. Solidity/Projet1/VotingPlus.sol\":4062:4091  votingStatus != expectedPhase */\n      0x05\n      dup2\n      gt\n      iszero\n      tag_161\n      jumpi\n      tag_162\n      tag_100\n      jump\t// in\n    tag_162:\n    tag_161:\n      eq\n        /* \"2. Solidity/Projet1/VotingPlus.sol\":4058:4172  if (votingStatus != expectedPhase) {... */\n      tag_163\n      jumpi\n        /* \"2. Solidity/Projet1/VotingPlus.sol\":4132:4145  expectedPhase */\n      dup1\n        /* \"2. Solidity/Projet1/VotingPlus.sol\":4147:4159  votingStatus */\n      0x04\n      0x00\n      swap1\n      sload\n      swap1\n      0x0100\n      exp\n      swap1\n      div\n      0xff\n      and\n        /* \"2. Solidity/Projet1/VotingPlus.sol\":4115:4160  WrongVotingPhase(expectedPhase, votingStatus) */\n      mload(0x40)\n      0x2e73d6d900000000000000000000000000000000000000000000000000000000\n      dup2\n      mstore\n      0x04\n      add\n      tag_164\n      swap3\n      swap2\n      swap1\n      tag_105\n      jump\t// in\n    tag_164:\n      mload(0x40)\n      dup1\n      swap2\n      sub\n      swap1\n      revert\n        /* \"2. Solidity/Projet1/VotingPlus.sol\":4058:4172  if (votingStatus != expectedPhase) {... */\n    tag_163:\n        /* \"2. Solidity/Projet1/VotingPlus.sol\":10915:10931  sessionProposals */\n      0x02\n        /* \"2. Solidity/Projet1/VotingPlus.sol\":10915:10947  sessionProposals[currentSession] */\n      0x00\n        /* \"2. Solidity/Projet1/VotingPlus.sol\":10932:10946  currentSession */\n      sload(0x09)\n        /* \"2. Solidity/Projet1/VotingPlus.sol\":10915:10947  sessionProposals[currentSession] */\n      dup2\n      mstore\n      0x20\n      add\n      swap1\n      dup2\n      mstore\n      0x20\n      add\n      0x00\n      keccak256\n        /* \"2. Solidity/Projet1/VotingPlus.sol\":10915:10954  sessionProposals[currentSession].length */\n      dup1\n      sload\n      swap1\n      pop\n        /* \"2. Solidity/Projet1/VotingPlus.sol\":10911:10912  0 */\n      0x00\n        /* \"2. Solidity/Projet1/VotingPlus.sol\":10911:10954  0 < sessionProposals[currentSession].length */\n      lt\n        /* \"2. Solidity/Projet1/VotingPlus.sol\":10903:10980  require(0 < sessionProposals[currentSession].length, \"No proposal available\") */\n      tag_166\n      jumpi\n      mload(0x40)\n      0x08c379a000000000000000000000000000000000000000000000000000000000\n      dup2\n      mstore\n      0x04\n      add\n      tag_167\n      swap1\n      tag_168\n      jump\t// in\n    tag_167:\n      mload(0x40)\n      dup1\n      swap2\n      sub\n      swap1\n      revert\n    tag_166:\n        /* \"2. Solidity/Projet1/VotingPlus.sol\":11068:11080  uint maxVote */\n      0x00\n        /* \"2. Solidity/Projet1/VotingPlus.sol\":11096:11102  uint i */\n      0x00\n        /* \"2. Solidity/Projet1/VotingPlus.sol\":11105:11106  0 */\n      0x00\n        /* \"2. Solidity/Projet1/VotingPlus.sol\":11096:11106  uint i = 0 */\n      swap1\n      pop\n        /* \"2. Solidity/Projet1/VotingPlus.sol\":11091:11438  for (uint i = 0; i < sessionProposals[currentSession].length; i++) {... */\n    tag_169:\n        /* \"2. Solidity/Projet1/VotingPlus.sol\":11112:11128  sessionProposals */\n      0x02\n        /* \"2. Solidity/Projet1/VotingPlus.sol\":11112:11144  sessionProposals[currentSession] */\n      0x00\n        /* \"2. Solidity/Projet1/VotingPlus.sol\":11129:11143  currentSession */\n      sload(0x09)\n        /* \"2. Solidity/Projet1/VotingPlus.sol\":11112:11144  sessionProposals[currentSession] */\n      dup2\n      mstore\n      0x20\n      add\n      swap1\n      dup2\n      mstore\n      0x20\n      add\n      0x00\n      keccak256\n        /* \"2. Solidity/Projet1/VotingPlus.sol\":11112:11151  sessionProposals[currentSession].length */\n      dup1\n      sload\n      swap1\n      pop\n        /* \"2. Solidity/Projet1/VotingPlus.sol\":11108:11109  i */\n      dup2\n        /* \"2. Solidity/Projet1/VotingPlus.sol\":11108:11151  i < sessionProposals[currentSession].length */\n      lt\n        /* \"2. Solidity/Projet1/VotingPlus.sol\":11091:11438  for (uint i = 0; i < sessionProposals[currentSession].length; i++) {... */\n      iszero\n      tag_170\n      jumpi\n        /* \"2. Solidity/Projet1/VotingPlus.sol\":11205:11221  sessionProposals */\n      0x02\n        /* \"2. Solidity/Projet1/VotingPlus.sol\":11205:11237  sessionProposals[currentSession] */\n      0x00\n        /* \"2. Solidity/Projet1/VotingPlus.sol\":11222:11236  currentSession */\n      sload(0x09)\n        /* \"2. Solidity/Projet1/VotingPlus.sol\":11205:11237  sessionProposals[currentSession] */\n      dup2\n      mstore\n      0x20\n      add\n      swap1\n      dup2\n      mstore\n      0x20\n      add\n      0x00\n      keccak256\n        /* \"2. Solidity/Projet1/VotingPlus.sol\":11238:11239  i */\n      dup2\n        /* \"2. Solidity/Projet1/VotingPlus.sol\":11205:11240  sessionProposals[currentSession][i] */\n      dup2\n      sload\n      dup2\n      lt\n      tag_172\n      jumpi\n      tag_173\n      tag_118\n      jump\t// in\n    tag_173:\n    tag_172:\n      swap1\n      0x00\n      mstore\n      keccak256(0x00, 0x20)\n      swap1\n      0x02\n      mul\n      add\n        /* \"2. Solidity/Projet1/VotingPlus.sol\":11205:11250  sessionProposals[currentSession][i].voteCount */\n      0x01\n      add\n      sload\n        /* \"2. Solidity/Projet1/VotingPlus.sol\":11195:11202  maxVote */\n      dup3\n        /* \"2. Solidity/Projet1/VotingPlus.sol\":11195:11250  maxVote < sessionProposals[currentSession][i].voteCount */\n      lt\n        /* \"2. Solidity/Projet1/VotingPlus.sol\":11195:11321  maxVote < sessionProposals[currentSession][i].voteCount && ... */\n      dup1\n      iszero\n      tag_175\n      jumpi\n      pop\n        /* \"2. Solidity/Projet1/VotingPlus.sol\":11317:11321  true */\n      0x01\n        /* \"2. Solidity/Projet1/VotingPlus.sol\":11272:11321  sessionActiveProposals[currentSession][i] == true */\n      iszero\n      iszero\n        /* \"2. Solidity/Projet1/VotingPlus.sol\":11272:11294  sessionActiveProposals */\n      0x03\n        /* \"2. Solidity/Projet1/VotingPlus.sol\":11272:11310  sessionActiveProposals[currentSession] */\n      0x00\n        /* \"2. Solidity/Projet1/VotingPlus.sol\":11295:11309  currentSession */\n      sload(0x09)\n        /* \"2. Solidity/Projet1/VotingPlus.sol\":11272:11310  sessionActiveProposals[currentSession] */\n      dup2\n      mstore\n      0x20\n      add\n      swap1\n      dup2\n      mstore\n      0x20\n      add\n      0x00\n      keccak256\n        /* \"2. Solidity/Projet1/VotingPlus.sol\":11272:11313  sessionActiveProposals[currentSession][i] */\n      0x00\n        /* \"2. Solidity/Projet1/VotingPlus.sol\":11311:11312  i */\n      dup4\n        /* \"2. Solidity/Projet1/VotingPlus.sol\":11272:11313  sessionActiveProposals[currentSession][i] */\n      dup2\n      mstore\n      0x20\n      add\n      swap1\n      dup2\n      mstore\n      0x20\n      add\n      0x00\n      keccak256\n      0x00\n      swap1\n      sload\n      swap1\n      0x0100\n      exp\n      swap1\n      div\n      0xff\n      and\n        /* \"2. Solidity/Projet1/VotingPlus.sol\":11272:11321  sessionActiveProposals[currentSession][i] == true */\n      iszero\n      iszero\n      eq\n        /* \"2. Solidity/Projet1/VotingPlus.sol\":11195:11321  maxVote < sessionProposals[currentSession][i].voteCount && ... */\n    tag_175:\n        /* \"2. Solidity/Projet1/VotingPlus.sol\":11173:11427  if (... */\n      iszero\n      tag_176\n      jumpi\n        /* \"2. Solidity/Projet1/VotingPlus.sol\":11366:11382  sessionProposals */\n      0x02\n        /* \"2. Solidity/Projet1/VotingPlus.sol\":11366:11398  sessionProposals[currentSession] */\n      0x00\n        /* \"2. Solidity/Projet1/VotingPlus.sol\":11383:11397  currentSession */\n      sload(0x09)\n        /* \"2. Solidity/Projet1/VotingPlus.sol\":11366:11398  sessionProposals[currentSession] */\n      dup2\n      mstore\n      0x20\n      add\n      swap1\n      dup2\n      mstore\n      0x20\n      add\n      0x00\n      keccak256\n        /* \"2. Solidity/Projet1/VotingPlus.sol\":11399:11400  i */\n      dup2\n        /* \"2. Solidity/Projet1/VotingPlus.sol\":11366:11401  sessionProposals[currentSession][i] */\n      dup2\n      sload\n      dup2\n      lt\n      tag_177\n      jumpi\n      tag_178\n      tag_118\n      jump\t// in\n    tag_178:\n    tag_177:\n      swap1\n      0x00\n      mstore\n      keccak256(0x00, 0x20)\n      swap1\n      0x02\n      mul\n      add\n        /* \"2. Solidity/Projet1/VotingPlus.sol\":11366:11411  sessionProposals[currentSession][i].voteCount */\n      0x01\n      add\n      sload\n        /* \"2. Solidity/Projet1/VotingPlus.sol\":11356:11411  maxVote = sessionProposals[currentSession][i].voteCount */\n      swap2\n      pop\n        /* \"2. Solidity/Projet1/VotingPlus.sol\":11173:11427  if (... */\n    tag_176:\n        /* \"2. Solidity/Projet1/VotingPlus.sol\":11153:11156  i++ */\n      dup1\n      dup1\n      0x01\n      add\n      swap2\n      pop\n      pop\n        /* \"2. Solidity/Projet1/VotingPlus.sol\":11091:11438  for (uint i = 0; i < sessionProposals[currentSession].length; i++) {... */\n      jump(tag_169)\n    tag_170:\n      pop\n        /* \"2. Solidity/Projet1/VotingPlus.sol\":11556:11562  uint i */\n      0x00\n        /* \"2. Solidity/Projet1/VotingPlus.sol\":11563:11564  0 */\n      0x00\n        /* \"2. Solidity/Projet1/VotingPlus.sol\":11556:11564  uint i=0 */\n      swap1\n      pop\n        /* \"2. Solidity/Projet1/VotingPlus.sol\":11551:11764  for (uint i=0; i < sessionProposals[currentSession].length; i++){... */\n    tag_180:\n        /* \"2. Solidity/Projet1/VotingPlus.sol\":11570:11586  sessionProposals */\n      0x02\n        /* \"2. Solidity/Projet1/VotingPlus.sol\":11570:11602  sessionProposals[currentSession] */\n      0x00\n        /* \"2. Solidity/Projet1/VotingPlus.sol\":11587:11601  currentSession */\n      sload(0x09)\n        /* \"2. Solidity/Projet1/VotingPlus.sol\":11570:11602  sessionProposals[currentSession] */\n      dup2\n      mstore\n      0x20\n      add\n      swap1\n      dup2\n      mstore\n      0x20\n      add\n      0x00\n      keccak256\n        /* \"2. Solidity/Projet1/VotingPlus.sol\":11570:11609  sessionProposals[currentSession].length */\n      dup1\n      sload\n      swap1\n      pop\n        /* \"2. Solidity/Projet1/VotingPlus.sol\":11566:11567  i */\n      dup2\n        /* \"2. Solidity/Projet1/VotingPlus.sol\":11566:11609  i < sessionProposals[currentSession].length */\n      lt\n        /* \"2. Solidity/Projet1/VotingPlus.sol\":11551:11764  for (uint i=0; i < sessionProposals[currentSession].length; i++){... */\n      iszero\n      tag_181\n      jumpi\n        /* \"2. Solidity/Projet1/VotingPlus.sol\":11683:11690  maxVote */\n      dup2\n        /* \"2. Solidity/Projet1/VotingPlus.sol\":11634:11650  sessionProposals */\n      0x02\n        /* \"2. Solidity/Projet1/VotingPlus.sol\":11634:11666  sessionProposals[currentSession] */\n      0x00\n        /* \"2. Solidity/Projet1/VotingPlus.sol\":11651:11665  currentSession */\n      sload(0x09)\n        /* \"2. Solidity/Projet1/VotingPlus.sol\":11634:11666  sessionProposals[currentSession] */\n      dup2\n      mstore\n      0x20\n      add\n      swap1\n      dup2\n      mstore\n      0x20\n      add\n      0x00\n      keccak256\n        /* \"2. Solidity/Projet1/VotingPlus.sol\":11667:11668  i */\n      dup3\n        /* \"2. Solidity/Projet1/VotingPlus.sol\":11634:11669  sessionProposals[currentSession][i] */\n      dup2\n      sload\n      dup2\n      lt\n      tag_183\n      jumpi\n      tag_184\n      tag_118\n      jump\t// in\n    tag_184:\n    tag_183:\n      swap1\n      0x00\n      mstore\n      keccak256(0x00, 0x20)\n      swap1\n      0x02\n      mul\n      add\n        /* \"2. Solidity/Projet1/VotingPlus.sol\":11634:11679  sessionProposals[currentSession][i].voteCount */\n      0x01\n      add\n      sload\n        /* \"2. Solidity/Projet1/VotingPlus.sol\":11634:11690  sessionProposals[currentSession][i].voteCount == maxVote */\n      sub\n        /* \"2. Solidity/Projet1/VotingPlus.sol\":11630:11753  if (sessionProposals[currentSession][i].voteCount == maxVote){... */\n      tag_186\n      jumpi\n        /* \"2. Solidity/Projet1/VotingPlus.sol\":11710:11729  mostVotedProposalId */\n      0x06\n        /* \"2. Solidity/Projet1/VotingPlus.sol\":11735:11736  i */\n      dup2\n        /* \"2. Solidity/Projet1/VotingPlus.sol\":11710:11737  mostVotedProposalId.push(i) */\n      swap1\n      dup1\n      0x01\n      dup2\n      sload\n      add\n      dup1\n      dup3\n      sstore\n      dup1\n      swap2\n      pop\n      pop\n      0x01\n      swap1\n      sub\n      swap1\n      0x00\n      mstore\n      keccak256(0x00, 0x20)\n      add\n      0x00\n      swap1\n      swap2\n      swap1\n      swap2\n      swap1\n      swap2\n      pop\n      sstore\n        /* \"2. Solidity/Projet1/VotingPlus.sol\":11630:11753  if (sessionProposals[currentSession][i].voteCount == maxVote){... */\n    tag_186:\n        /* \"2. Solidity/Projet1/VotingPlus.sol\":11611:11614  i++ */\n      dup1\n      dup1\n      0x01\n      add\n      swap2\n      pop\n      pop\n        /* \"2. Solidity/Projet1/VotingPlus.sol\":11551:11764  for (uint i=0; i < sessionProposals[currentSession].length; i++){... */\n      jump(tag_180)\n    tag_181:\n      pop\n        /* \"2. Solidity/Projet1/VotingPlus.sol\":11866:11867  1 */\n      0x01\n        /* \"2. Solidity/Projet1/VotingPlus.sol\":11836:11855  mostVotedProposalId */\n      0x06\n        /* \"2. Solidity/Projet1/VotingPlus.sol\":11836:11862  mostVotedProposalId.length */\n      dup1\n      sload\n      swap1\n      pop\n        /* \"2. Solidity/Projet1/VotingPlus.sol\":11836:11867  mostVotedProposalId.length == 1 */\n      sub\n        /* \"2. Solidity/Projet1/VotingPlus.sol\":11833:13226  if(mostVotedProposalId.length == 1){... */\n      tag_188\n      jumpi\n        /* \"2. Solidity/Projet1/VotingPlus.sol\":11926:11945  mostVotedProposalId */\n      0x06\n        /* \"2. Solidity/Projet1/VotingPlus.sol\":11946:11947  0 */\n      0x00\n        /* \"2. Solidity/Projet1/VotingPlus.sol\":11926:11948  mostVotedProposalId[0] */\n      dup2\n      sload\n      dup2\n      lt\n      tag_189\n      jumpi\n      tag_190\n      tag_118\n      jump\t// in\n    tag_190:\n    tag_189:\n      swap1\n      0x00\n      mstore\n      keccak256(0x00, 0x20)\n      add\n      sload\n        /* \"2. Solidity/Projet1/VotingPlus.sol\":11883:11907  sessionWinningProposalId */\n      0x05\n        /* \"2. Solidity/Projet1/VotingPlus.sol\":11883:11923  sessionWinningProposalId[currentSession] */\n      0x00\n        /* \"2. Solidity/Projet1/VotingPlus.sol\":11908:11922  currentSession */\n      sload(0x09)\n        /* \"2. Solidity/Projet1/VotingPlus.sol\":11883:11923  sessionWinningProposalId[currentSession] */\n      dup2\n      mstore\n      0x20\n      add\n      swap1\n      dup2\n      mstore\n      0x20\n      add\n      0x00\n      keccak256\n        /* \"2. Solidity/Projet1/VotingPlus.sol\":11883:11948  sessionWinningProposalId[currentSession] = mostVotedProposalId[0] */\n      dup2\n      swap1\n      sstore\n      pop\n        /* \"2. Solidity/Projet1/VotingPlus.sol\":11978:12005  WorkflowStatus.VotesTallied */\n      0x05\n        /* \"2. Solidity/Projet1/VotingPlus.sol\":11963:11975  votingStatus */\n      0x04\n      0x00\n        /* \"2. Solidity/Projet1/VotingPlus.sol\":11963:12005  votingStatus = WorkflowStatus.VotesTallied */\n      0x0100\n      exp\n      dup2\n      sload\n      dup2\n      0xff\n      mul\n      not\n      and\n      swap1\n      dup4\n      0x05\n      dup2\n      gt\n      iszero\n      tag_192\n      jumpi\n      tag_193\n      tag_100\n      jump\t// in\n    tag_193:\n    tag_192:\n      mul\n      or\n      swap1\n      sstore\n      pop\n        /* \"2. Solidity/Projet1/VotingPlus.sol\":12025:12109  WorkflowStatusChange(WorkflowStatus.VotingSessionEnded, WorkflowStatus.VotesTallied) */\n      0x0a97a4ee45751e2abf3e4fc8946939630b11b371ea8ae39ccdc3056e98f5cc3f\n        /* \"2. Solidity/Projet1/VotingPlus.sol\":12046:12079  WorkflowStatus.VotingSessionEnded */\n      0x04\n        /* \"2. Solidity/Projet1/VotingPlus.sol\":12081:12108  WorkflowStatus.VotesTallied */\n      0x05\n        /* \"2. Solidity/Projet1/VotingPlus.sol\":12025:12109  WorkflowStatusChange(WorkflowStatus.VotingSessionEnded, WorkflowStatus.VotesTallied) */\n      mload(0x40)\n      tag_194\n      swap3\n      swap2\n      swap1\n      tag_105\n      jump\t// in\n    tag_194:\n      mload(0x40)\n      dup1\n      swap2\n      sub\n      swap1\n      log1\n        /* \"2. Solidity/Projet1/VotingPlus.sol\":11833:13226  if(mostVotedProposalId.length == 1){... */\n      jump(tag_195)\n    tag_188:\n        /* \"2. Solidity/Projet1/VotingPlus.sol\":12263:12276  lastTieLength */\n      sload(0x08)\n        /* \"2. Solidity/Projet1/VotingPlus.sol\":12234:12253  mostVotedProposalId */\n      0x06\n        /* \"2. Solidity/Projet1/VotingPlus.sol\":12234:12260  mostVotedProposalId.length */\n      dup1\n      sload\n      swap1\n      pop\n        /* \"2. Solidity/Projet1/VotingPlus.sol\":12234:12276  mostVotedProposalId.length < lastTieLength */\n      lt\n        /* \"2. Solidity/Projet1/VotingPlus.sol\":12231:13226  if(mostVotedProposalId.length < lastTieLength){... */\n      iszero\n      tag_196\n      jumpi\n        /* \"2. Solidity/Projet1/VotingPlus.sol\":12297:12341  TiedProposalsIdentified(mostVotedProposalId) */\n      0xd5020a459a3e0cd6b6fdefde70374f31cb668b547d1223219fbc26f70dfa3554\n        /* \"2. Solidity/Projet1/VotingPlus.sol\":12321:12340  mostVotedProposalId */\n      0x06\n        /* \"2. Solidity/Projet1/VotingPlus.sol\":12297:12341  TiedProposalsIdentified(mostVotedProposalId) */\n      mload(0x40)\n      tag_197\n      swap2\n      swap1\n      tag_198\n      jump\t// in\n    tag_197:\n      mload(0x40)\n      dup1\n      swap2\n      sub\n      swap1\n      log1\n        /* \"2. Solidity/Projet1/VotingPlus.sol\":12413:12419  uint i */\n      0x00\n        /* \"2. Solidity/Projet1/VotingPlus.sol\":12420:12421  0 */\n      0x00\n        /* \"2. Solidity/Projet1/VotingPlus.sol\":12413:12421  uint i=0 */\n      swap1\n      pop\n        /* \"2. Solidity/Projet1/VotingPlus.sol\":12408:12627  for (uint i=0; i < sessionProposals[currentSession].length; i++){... */\n    tag_199:\n        /* \"2. Solidity/Projet1/VotingPlus.sol\":12427:12443  sessionProposals */\n      0x02\n        /* \"2. Solidity/Projet1/VotingPlus.sol\":12427:12459  sessionProposals[currentSession] */\n      0x00\n        /* \"2. Solidity/Projet1/VotingPlus.sol\":12444:12458  currentSession */\n      sload(0x09)\n        /* \"2. Solidity/Projet1/VotingPlus.sol\":12427:12459  sessionProposals[currentSession] */\n      dup2\n      mstore\n      0x20\n      add\n      swap1\n      dup2\n      mstore\n      0x20\n      add\n      0x00\n      keccak256\n        /* \"2. Solidity/Projet1/VotingPlus.sol\":12427:12466  sessionProposals[currentSession].length */\n      dup1\n      sload\n      swap1\n      pop\n        /* \"2. Solidity/Projet1/VotingPlus.sol\":12423:12424  i */\n      dup2\n        /* \"2. Solidity/Projet1/VotingPlus.sol\":12423:12466  i < sessionProposals[currentSession].length */\n      lt\n        /* \"2. Solidity/Projet1/VotingPlus.sol\":12408:12627  for (uint i=0; i < sessionProposals[currentSession].length; i++){... */\n      iszero\n      tag_200\n      jumpi\n        /* \"2. Solidity/Projet1/VotingPlus.sol\":12495:12519  isProposalInMostVoted(i) */\n      tag_202\n        /* \"2. Solidity/Projet1/VotingPlus.sol\":12517:12518  i */\n      dup2\n        /* \"2. Solidity/Projet1/VotingPlus.sol\":12495:12516  isProposalInMostVoted */\n      tag_203\n        /* \"2. Solidity/Projet1/VotingPlus.sol\":12495:12519  isProposalInMostVoted(i) */\n      jump\t// in\n    tag_202:\n        /* \"2. Solidity/Projet1/VotingPlus.sol\":12491:12612  if(!isProposalInMostVoted(i)){... */\n      tag_204\n      jumpi\n        /* \"2. Solidity/Projet1/VotingPlus.sol\":12587:12592  false */\n      0x00\n        /* \"2. Solidity/Projet1/VotingPlus.sol\":12543:12565  sessionActiveProposals */\n      0x03\n        /* \"2. Solidity/Projet1/VotingPlus.sol\":12543:12581  sessionActiveProposals[currentSession] */\n      0x00\n        /* \"2. Solidity/Projet1/VotingPlus.sol\":12566:12580  currentSession */\n      sload(0x09)\n        /* \"2. Solidity/Projet1/VotingPlus.sol\":12543:12581  sessionActiveProposals[currentSession] */\n      dup2\n      mstore\n      0x20\n      add\n      swap1\n      dup2\n      mstore\n      0x20\n      add\n      0x00\n      keccak256\n        /* \"2. Solidity/Projet1/VotingPlus.sol\":12543:12584  sessionActiveProposals[currentSession][i] */\n      0x00\n        /* \"2. Solidity/Projet1/VotingPlus.sol\":12582:12583  i */\n      dup4\n        /* \"2. Solidity/Projet1/VotingPlus.sol\":12543:12584  sessionActiveProposals[currentSession][i] */\n      dup2\n      mstore\n      0x20\n      add\n      swap1\n      dup2\n      mstore\n      0x20\n      add\n      0x00\n      keccak256\n      0x00\n        /* \"2. Solidity/Projet1/VotingPlus.sol\":12543:12592  sessionActiveProposals[currentSession][i] = false */\n      0x0100\n      exp\n      dup2\n      sload\n      dup2\n      0xff\n      mul\n      not\n      and\n      swap1\n      dup4\n      iszero\n      iszero\n      mul\n      or\n      swap1\n      sstore\n      pop\n        /* \"2. Solidity/Projet1/VotingPlus.sol\":12491:12612  if(!isProposalInMostVoted(i)){... */\n    tag_204:\n        /* \"2. Solidity/Projet1/VotingPlus.sol\":12468:12471  i++ */\n      dup1\n      dup1\n      0x01\n      add\n      swap2\n      pop\n      pop\n        /* \"2. Solidity/Projet1/VotingPlus.sol\":12408:12627  for (uint i=0; i < sessionProposals[currentSession].length; i++){... */\n      jump(tag_199)\n    tag_200:\n      pop\n        /* \"2. Solidity/Projet1/VotingPlus.sol\":12655:12672  resetVotersVote() */\n      tag_205\n        /* \"2. Solidity/Projet1/VotingPlus.sol\":12655:12670  resetVotersVote */\n      tag_206\n        /* \"2. Solidity/Projet1/VotingPlus.sol\":12655:12672  resetVotersVote() */\n      jump\t// in\n    tag_205:\n        /* \"2. Solidity/Projet1/VotingPlus.sol\":12687:12707  resetProposalCount() */\n      tag_207\n        /* \"2. Solidity/Projet1/VotingPlus.sol\":12687:12705  resetProposalCount */\n      tag_208\n        /* \"2. Solidity/Projet1/VotingPlus.sol\":12687:12707  resetProposalCount() */\n      jump\t// in\n    tag_207:\n        /* \"2. Solidity/Projet1/VotingPlus.sol\":12738:12757  mostVotedProposalId */\n      0x06\n        /* \"2. Solidity/Projet1/VotingPlus.sol\":12738:12764  mostVotedProposalId.length */\n      dup1\n      sload\n      swap1\n      pop\n        /* \"2. Solidity/Projet1/VotingPlus.sol\":12722:12735  lastTieLength */\n      0x08\n        /* \"2. Solidity/Projet1/VotingPlus.sol\":12722:12764  lastTieLength = mostVotedProposalId.length */\n      dup2\n      swap1\n      sstore\n      pop\n        /* \"2. Solidity/Projet1/VotingPlus.sol\":12786:12805  mostVotedProposalId */\n      0x06\n      0x00\n        /* \"2. Solidity/Projet1/VotingPlus.sol\":12779:12805  delete mostVotedProposalId */\n      tag_209\n      swap2\n      swap1\n      tag_210\n      jump\t// in\n    tag_209:\n        /* \"2. Solidity/Projet1/VotingPlus.sol\":12231:13226  if(mostVotedProposalId.length < lastTieLength){... */\n      jump(tag_211)\n    tag_196:\n        /* \"2. Solidity/Projet1/VotingPlus.sol\":12989:13008  mostVotedProposalId */\n      0x06\n        /* \"2. Solidity/Projet1/VotingPlus.sol\":13009:13052  getRandomNumber(mostVotedProposalId.length) */\n      tag_212\n        /* \"2. Solidity/Projet1/VotingPlus.sol\":13025:13044  mostVotedProposalId */\n      0x06\n        /* \"2. Solidity/Projet1/VotingPlus.sol\":13025:13051  mostVotedProposalId.length */\n      dup1\n      sload\n      swap1\n      pop\n        /* \"2. Solidity/Projet1/VotingPlus.sol\":13009:13024  getRandomNumber */\n      tag_213\n        /* \"2. Solidity/Projet1/VotingPlus.sol\":13009:13052  getRandomNumber(mostVotedProposalId.length) */\n      jump\t// in\n    tag_212:\n        /* \"2. Solidity/Projet1/VotingPlus.sol\":12989:13053  mostVotedProposalId[getRandomNumber(mostVotedProposalId.length)] */\n      dup2\n      sload\n      dup2\n      lt\n      tag_214\n      jumpi\n      tag_215\n      tag_118\n      jump\t// in\n    tag_215:\n    tag_214:\n      swap1\n      0x00\n      mstore\n      keccak256(0x00, 0x20)\n      add\n      sload\n        /* \"2. Solidity/Projet1/VotingPlus.sol\":12946:12970  sessionWinningProposalId */\n      0x05\n        /* \"2. Solidity/Projet1/VotingPlus.sol\":12946:12986  sessionWinningProposalId[currentSession] */\n      0x00\n        /* \"2. Solidity/Projet1/VotingPlus.sol\":12971:12985  currentSession */\n      sload(0x09)\n        /* \"2. Solidity/Projet1/VotingPlus.sol\":12946:12986  sessionWinningProposalId[currentSession] */\n      dup2\n      mstore\n      0x20\n      add\n      swap1\n      dup2\n      mstore\n      0x20\n      add\n      0x00\n      keccak256\n        /* \"2. Solidity/Projet1/VotingPlus.sol\":12946:13053  sessionWinningProposalId[currentSession] = mostVotedProposalId[getRandomNumber(mostVotedProposalId.length)] */\n      dup2\n      swap1\n      sstore\n      pop\n        /* \"2. Solidity/Projet1/VotingPlus.sol\":13083:13110  WorkflowStatus.VotesTallied */\n      0x05\n        /* \"2. Solidity/Projet1/VotingPlus.sol\":13068:13080  votingStatus */\n      0x04\n      0x00\n        /* \"2. Solidity/Projet1/VotingPlus.sol\":13068:13110  votingStatus = WorkflowStatus.VotesTallied */\n      0x0100\n      exp\n      dup2\n      sload\n      dup2\n      0xff\n      mul\n      not\n      and\n      swap1\n      dup4\n      0x05\n      dup2\n      gt\n      iszero\n      tag_217\n      jumpi\n      tag_218\n      tag_100\n      jump\t// in\n    tag_218:\n    tag_217:\n      mul\n      or\n      swap1\n      sstore\n      pop\n        /* \"2. Solidity/Projet1/VotingPlus.sol\":13130:13214  WorkflowStatusChange(WorkflowStatus.VotingSessionEnded, WorkflowStatus.VotesTallied) */\n      0x0a97a4ee45751e2abf3e4fc8946939630b11b371ea8ae39ccdc3056e98f5cc3f\n        /* \"2. Solidity/Projet1/VotingPlus.sol\":13151:13184  WorkflowStatus.VotingSessionEnded */\n      0x04\n        /* \"2. Solidity/Projet1/VotingPlus.sol\":13186:13213  WorkflowStatus.VotesTallied */\n      0x05\n        /* \"2. Solidity/Projet1/VotingPlus.sol\":13130:13214  WorkflowStatusChange(WorkflowStatus.VotingSessionEnded, WorkflowStatus.VotesTallied) */\n      mload(0x40)\n      tag_219\n      swap3\n      swap2\n      swap1\n      tag_105\n      jump\t// in\n    tag_219:\n      mload(0x40)\n      dup1\n      swap2\n      sub\n      swap1\n      log1\n        /* \"2. Solidity/Projet1/VotingPlus.sol\":12231:13226  if(mostVotedProposalId.length < lastTieLength){... */\n    tag_211:\n        /* \"2. Solidity/Projet1/VotingPlus.sol\":11833:13226  if(mostVotedProposalId.length == 1){... */\n    tag_195:\n        /* \"2. Solidity/Projet1/VotingPlus.sol\":10890:13233  {... */\n      pop\n        /* \"https://github.com/OpenZeppelin/openzeppelin-contracts/blob/master/contracts/access/Ownable.sol\":1554:1555  _ */\n      pop\n        /* \"2. Solidity/Projet1/VotingPlus.sol\":10786:13233  function tallyVotes() external ... */\n      jump\t// out\n        /* \"2. Solidity/Projet1/VotingPlus.sol\":5709:5860  function startTieSession() external ... */\n    tag_43:\n        /* \"https://github.com/OpenZeppelin/openzeppelin-contracts/blob/master/contracts/access/Ownable.sol\":1531:1544  _checkOwner() */\n      tag_221\n        /* \"https://github.com/OpenZeppelin/openzeppelin-contracts/blob/master/contracts/access/Ownable.sol\":1531:1542  _checkOwner */\n      tag_127\n        /* \"https://github.com/OpenZeppelin/openzeppelin-contracts/blob/master/contracts/access/Ownable.sol\":1531:1544  _checkOwner() */\n      jump\t// in\n    tag_221:\n        /* \"2. Solidity/Projet1/VotingPlus.sol\":5781:5814  WorkflowStatus.VotingSessionEnded */\n      0x04\n        /* \"2. Solidity/Projet1/VotingPlus.sol\":5816:5851  WorkflowStatus.VotingSessionStarted */\n      0x03\n        /* \"2. Solidity/Projet1/VotingPlus.sol\":4310:4323  previousPhase */\n      dup2\n        /* \"2. Solidity/Projet1/VotingPlus.sol\":4294:4323  votingStatus != previousPhase */\n      0x05\n      dup2\n      gt\n      iszero\n      tag_223\n      jumpi\n      tag_224\n      tag_100\n      jump\t// in\n    tag_224:\n    tag_223:\n        /* \"2. Solidity/Projet1/VotingPlus.sol\":4294:4306  votingStatus */\n      0x04\n      0x00\n      swap1\n      sload\n      swap1\n      0x0100\n      exp\n      swap1\n      div\n      0xff\n      and\n        /* \"2. Solidity/Projet1/VotingPlus.sol\":4294:4323  votingStatus != previousPhase */\n      0x05\n      dup2\n      gt\n      iszero\n      tag_225\n      jumpi\n      tag_226\n      tag_100\n      jump\t// in\n    tag_226:\n    tag_225:\n      eq\n        /* \"2. Solidity/Projet1/VotingPlus.sol\":4290:4529  if (votingStatus != previousPhase) { // Check if the workflow is in the correct phase before moving to the next, prevent from skipping phases or moving backwards... */\n      tag_227\n      jumpi\n        /* \"2. Solidity/Projet1/VotingPlus.sol\":4489:4502  previousPhase */\n      dup2\n        /* \"2. Solidity/Projet1/VotingPlus.sol\":4504:4516  votingStatus */\n      0x04\n      0x00\n      swap1\n      sload\n      swap1\n      0x0100\n      exp\n      swap1\n      div\n      0xff\n      and\n        /* \"2. Solidity/Projet1/VotingPlus.sol\":4472:4517  WrongVotingPhase(previousPhase, votingStatus) */\n      mload(0x40)\n      0x2e73d6d900000000000000000000000000000000000000000000000000000000\n      dup2\n      mstore\n      0x04\n      add\n      tag_228\n      swap3\n      swap2\n      swap1\n      tag_105\n      jump\t// in\n    tag_228:\n      mload(0x40)\n      dup1\n      swap2\n      sub\n      swap1\n      revert\n        /* \"2. Solidity/Projet1/VotingPlus.sol\":4290:4529  if (votingStatus != previousPhase) { // Check if the workflow is in the correct phase before moving to the next, prevent from skipping phases or moving backwards... */\n    tag_227:\n        /* \"2. Solidity/Projet1/VotingPlus.sol\":4554:4563  nextPhase */\n      dup1\n        /* \"2. Solidity/Projet1/VotingPlus.sol\":4539:4551  votingStatus */\n      0x04\n      0x00\n        /* \"2. Solidity/Projet1/VotingPlus.sol\":4539:4563  votingStatus = nextPhase */\n      0x0100\n      exp\n      dup2\n      sload\n      dup2\n      0xff\n      mul\n      not\n      and\n      swap1\n      dup4\n      0x05\n      dup2\n      gt\n      iszero\n      tag_229\n      jumpi\n      tag_230\n      tag_100\n      jump\t// in\n    tag_230:\n    tag_229:\n      mul\n      or\n      swap1\n      sstore\n      pop\n        /* \"2. Solidity/Projet1/VotingPlus.sol\":4579:4625  WorkflowStatusChange(previousPhase, nextPhase) */\n      0x0a97a4ee45751e2abf3e4fc8946939630b11b371ea8ae39ccdc3056e98f5cc3f\n        /* \"2. Solidity/Projet1/VotingPlus.sol\":4600:4613  previousPhase */\n      dup3\n        /* \"2. Solidity/Projet1/VotingPlus.sol\":4615:4624  nextPhase */\n      dup3\n        /* \"2. Solidity/Projet1/VotingPlus.sol\":4579:4625  WorkflowStatusChange(previousPhase, nextPhase) */\n      mload(0x40)\n      tag_231\n      swap3\n      swap2\n      swap1\n      tag_105\n      jump\t// in\n    tag_231:\n      mload(0x40)\n      dup1\n      swap2\n      sub\n      swap1\n      log1\n        /* \"https://github.com/OpenZeppelin/openzeppelin-contracts/blob/master/contracts/access/Ownable.sol\":1554:1555  _ */\n      pop\n      pop\n        /* \"2. Solidity/Projet1/VotingPlus.sol\":5709:5860  function startTieSession() external ... */\n      jump\t// out\n        /* \"2. Solidity/Projet1/VotingPlus.sol\":6630:6933  function removeFromWhitelist(address[] calldata _addressArray) external ... */\n    tag_47:\n        /* \"https://github.com/OpenZeppelin/openzeppelin-contracts/blob/master/contracts/access/Ownable.sol\":1531:1544  _checkOwner() */\n      tag_234\n        /* \"https://github.com/OpenZeppelin/openzeppelin-contracts/blob/master/contracts/access/Ownable.sol\":1531:1542  _checkOwner */\n      tag_127\n        /* \"https://github.com/OpenZeppelin/openzeppelin-contracts/blob/master/contracts/access/Ownable.sol\":1531:1544  _checkOwner() */\n      jump\t// in\n    tag_234:\n        /* \"2. Solidity/Projet1/VotingPlus.sol\":6741:6773  WorkflowStatus.RegisteringVoters */\n      0x00\n        /* \"2. Solidity/Projet1/VotingPlus.sol\":4078:4091  expectedPhase */\n      dup1\n        /* \"2. Solidity/Projet1/VotingPlus.sol\":4062:4091  votingStatus != expectedPhase */\n      0x05\n      dup2\n      gt\n      iszero\n      tag_236\n      jumpi\n      tag_237\n      tag_100\n      jump\t// in\n    tag_237:\n    tag_236:\n        /* \"2. Solidity/Projet1/VotingPlus.sol\":4062:4074  votingStatus */\n      0x04\n      0x00\n      swap1\n      sload\n      swap1\n      0x0100\n      exp\n      swap1\n      div\n      0xff\n      and\n        /* \"2. Solidity/Projet1/VotingPlus.sol\":4062:4091  votingStatus != expectedPhase */\n      0x05\n      dup2\n      gt\n      iszero\n      tag_238\n      jumpi\n      tag_239\n      tag_100\n      jump\t// in\n    tag_239:\n    tag_238:\n      eq\n        /* \"2. Solidity/Projet1/VotingPlus.sol\":4058:4172  if (votingStatus != expectedPhase) {... */\n      tag_240\n      jumpi\n        /* \"2. Solidity/Projet1/VotingPlus.sol\":4132:4145  expectedPhase */\n      dup1\n        /* \"2. Solidity/Projet1/VotingPlus.sol\":4147:4159  votingStatus */\n      0x04\n      0x00\n      swap1\n      sload\n      swap1\n      0x0100\n      exp\n      swap1\n      div\n      0xff\n      and\n        /* \"2. Solidity/Projet1/VotingPlus.sol\":4115:4160  WrongVotingPhase(expectedPhase, votingStatus) */\n      mload(0x40)\n      0x2e73d6d900000000000000000000000000000000000000000000000000000000\n      dup2\n      mstore\n      0x04\n      add\n      tag_241\n      swap3\n      swap2\n      swap1\n      tag_105\n      jump\t// in\n    tag_241:\n      mload(0x40)\n      dup1\n      swap2\n      sub\n      swap1\n      revert\n        /* \"2. Solidity/Projet1/VotingPlus.sol\":4058:4172  if (votingStatus != expectedPhase) {... */\n    tag_240:\n        /* \"2. Solidity/Projet1/VotingPlus.sol\":6790:6796  uint i */\n      0x00\n        /* \"2. Solidity/Projet1/VotingPlus.sol\":6797:6798  0 */\n      0x00\n        /* \"2. Solidity/Projet1/VotingPlus.sol\":6790:6798  uint i=0 */\n      swap1\n      pop\n        /* \"2. Solidity/Projet1/VotingPlus.sol\":6785:6926  for (uint i=0; i<_addressArray.length; i++){... */\n    tag_243:\n        /* \"2. Solidity/Projet1/VotingPlus.sol\":6802:6815  _addressArray */\n      dup4\n      dup4\n        /* \"2. Solidity/Projet1/VotingPlus.sol\":6802:6822  _addressArray.length */\n      swap1\n      pop\n        /* \"2. Solidity/Projet1/VotingPlus.sol\":6800:6801  i */\n      dup2\n        /* \"2. Solidity/Projet1/VotingPlus.sol\":6800:6822  i<_addressArray.length */\n      lt\n        /* \"2. Solidity/Projet1/VotingPlus.sol\":6785:6926  for (uint i=0; i<_addressArray.length; i++){... */\n      iszero\n      tag_244\n      jumpi\n        /* \"2. Solidity/Projet1/VotingPlus.sol\":6906:6911  false */\n      0x00\n        /* \"2. Solidity/Projet1/VotingPlus.sol\":6843:6856  sessionVoters */\n      0x01\n        /* \"2. Solidity/Projet1/VotingPlus.sol\":6843:6872  sessionVoters[currentSession] */\n      0x00\n        /* \"2. Solidity/Projet1/VotingPlus.sol\":6857:6871  currentSession */\n      sload(0x09)\n        /* \"2. Solidity/Projet1/VotingPlus.sol\":6843:6872  sessionVoters[currentSession] */\n      dup2\n      mstore\n      0x20\n      add\n      swap1\n      dup2\n      mstore\n      0x20\n      add\n      0x00\n      keccak256\n        /* \"2. Solidity/Projet1/VotingPlus.sol\":6843:6890  sessionVoters[currentSession][_addressArray[i]] */\n      0x00\n        /* \"2. Solidity/Projet1/VotingPlus.sol\":6873:6886  _addressArray */\n      dup7\n      dup7\n        /* \"2. Solidity/Projet1/VotingPlus.sol\":6887:6888  i */\n      dup6\n        /* \"2. Solidity/Projet1/VotingPlus.sol\":6873:6889  _addressArray[i] */\n      dup2\n      dup2\n      lt\n      tag_246\n      jumpi\n      tag_247\n      tag_118\n      jump\t// in\n    tag_247:\n    tag_246:\n      swap1\n      pop\n      0x20\n      mul\n      add\n      0x20\n      dup2\n      add\n      swap1\n      tag_248\n      swap2\n      swap1\n      tag_85\n      jump\t// in\n    tag_248:\n        /* \"2. Solidity/Projet1/VotingPlus.sol\":6843:6890  sessionVoters[currentSession][_addressArray[i]] */\n      0xffffffffffffffffffffffffffffffffffffffff\n      and\n      0xffffffffffffffffffffffffffffffffffffffff\n      and\n      dup2\n      mstore\n      0x20\n      add\n      swap1\n      dup2\n      mstore\n      0x20\n      add\n      0x00\n      keccak256\n        /* \"2. Solidity/Projet1/VotingPlus.sol\":6843:6903  sessionVoters[currentSession][_addressArray[i]].isRegistered */\n      0x00\n      add\n      0x00\n        /* \"2. Solidity/Projet1/VotingPlus.sol\":6843:6911  sessionVoters[currentSession][_addressArray[i]].isRegistered = false */\n      0x0100\n      exp\n      dup2\n      sload\n      dup2\n      0xff\n      mul\n      not\n      and\n      swap1\n      dup4\n      iszero\n      iszero\n      mul\n      or\n      swap1\n      sstore\n      pop\n        /* \"2. Solidity/Projet1/VotingPlus.sol\":6824:6827  i++ */\n      dup1\n      dup1\n      0x01\n      add\n      swap2\n      pop\n      pop\n        /* \"2. Solidity/Projet1/VotingPlus.sol\":6785:6926  for (uint i=0; i<_addressArray.length; i++){... */\n      jump(tag_243)\n    tag_244:\n      pop\n        /* \"https://github.com/OpenZeppelin/openzeppelin-contracts/blob/master/contracts/access/Ownable.sol\":1554:1555  _ */\n      pop\n        /* \"2. Solidity/Projet1/VotingPlus.sol\":6630:6933  function removeFromWhitelist(address[] calldata _addressArray) external ... */\n      pop\n      pop\n      jump\t// out\n        /* \"2. Solidity/Projet1/VotingPlus.sol\":8479:8643  function getSessionProposal(uint _session, uint _proposalId) external view returns(Proposal memory){... */\n    tag_51:\n        /* \"2. Solidity/Projet1/VotingPlus.sol\":8562:8577  Proposal memory */\n      tag_249\n      tag_250\n      jump\t// in\n    tag_249:\n        /* \"2. Solidity/Projet1/VotingPlus.sol\":8596:8612  sessionProposals */\n      0x02\n        /* \"2. Solidity/Projet1/VotingPlus.sol\":8596:8622  sessionProposals[_session] */\n      0x00\n        /* \"2. Solidity/Projet1/VotingPlus.sol\":8613:8621  _session */\n      dup5\n        /* \"2. Solidity/Projet1/VotingPlus.sol\":8596:8622  sessionProposals[_session] */\n      dup2\n      mstore\n      0x20\n      add\n      swap1\n      dup2\n      mstore\n      0x20\n      add\n      0x00\n      keccak256\n        /* \"2. Solidity/Projet1/VotingPlus.sol\":8623:8634  _proposalId */\n      dup3\n        /* \"2. Solidity/Projet1/VotingPlus.sol\":8596:8635  sessionProposals[_session][_proposalId] */\n      dup2\n      sload\n      dup2\n      lt\n      tag_252\n      jumpi\n      tag_253\n      tag_118\n      jump\t// in\n    tag_253:\n    tag_252:\n      swap1\n      0x00\n      mstore\n      keccak256(0x00, 0x20)\n      swap1\n      0x02\n      mul\n      add\n        /* \"2. Solidity/Projet1/VotingPlus.sol\":8589:8635  return sessionProposals[_session][_proposalId] */\n      mload(0x40)\n      dup1\n      0x40\n      add\n      0x40\n      mstore\n      swap1\n      dup2\n      0x00\n      dup3\n      add\n      dup1\n      sload\n      tag_255\n      swap1\n      tag_256\n      jump\t// in\n    tag_255:\n      dup1\n      0x1f\n      add\n      0x20\n      dup1\n      swap2\n      div\n      mul\n      0x20\n      add\n      mload(0x40)\n      swap1\n      dup2\n      add\n      0x40\n      mstore\n      dup1\n      swap3\n      swap2\n      swap1\n      dup2\n      dup2\n      mstore\n      0x20\n      add\n      dup3\n      dup1\n      sload\n      tag_257\n      swap1\n      tag_256\n      jump\t// in\n    tag_257:\n      dup1\n      iszero\n      tag_258\n      jumpi\n      dup1\n      0x1f\n      lt\n      tag_259\n      jumpi\n      0x0100\n      dup1\n      dup4\n      sload\n      div\n      mul\n      dup4\n      mstore\n      swap2\n      0x20\n      add\n      swap2\n      jump(tag_258)\n    tag_259:\n      dup3\n      add\n      swap2\n      swap1\n      0x00\n      mstore\n      keccak256(0x00, 0x20)\n      swap1\n    tag_260:\n      dup2\n      sload\n      dup2\n      mstore\n      swap1\n      0x01\n      add\n      swap1\n      0x20\n      add\n      dup1\n      dup4\n      gt\n      tag_260\n      jumpi\n      dup3\n      swap1\n      sub\n      0x1f\n      and\n      dup3\n      add\n      swap2\n    tag_258:\n      pop\n      pop\n      pop\n      pop\n      pop\n      dup2\n      mstore\n      0x20\n      add\n      0x01\n      dup3\n      add\n      sload\n      dup2\n      mstore\n      pop\n      pop\n      swap1\n      pop\n        /* \"2. Solidity/Projet1/VotingPlus.sol\":8479:8643  function getSessionProposal(uint _session, uint _proposalId) external view returns(Proposal memory){... */\n      swap3\n      swap2\n      pop\n      pop\n      jump\t// out\n        /* \"https://github.com/OpenZeppelin/openzeppelin-contracts/blob/master/contracts/access/Ownable.sol\":2293:2394  function renounceOwnership() public virtual onlyOwner {... */\n    tag_55:\n        /* \"https://github.com/OpenZeppelin/openzeppelin-contracts/blob/master/contracts/access/Ownable.sol\":1531:1544  _checkOwner() */\n      tag_262\n        /* \"https://github.com/OpenZeppelin/openzeppelin-contracts/blob/master/contracts/access/Ownable.sol\":1531:1542  _checkOwner */\n      tag_127\n        /* \"https://github.com/OpenZeppelin/openzeppelin-contracts/blob/master/contracts/access/Ownable.sol\":1531:1544  _checkOwner() */\n      jump\t// in\n    tag_262:\n        /* \"https://github.com/OpenZeppelin/openzeppelin-contracts/blob/master/contracts/access/Ownable.sol\":2357:2387  _transferOwnership(address(0)) */\n      tag_264\n        /* \"https://github.com/OpenZeppelin/openzeppelin-contracts/blob/master/contracts/access/Ownable.sol\":2384:2385  0 */\n      0x00\n        /* \"https://github.com/OpenZeppelin/openzeppelin-contracts/blob/master/contracts/access/Ownable.sol\":2357:2375  _transferOwnership */\n      tag_265\n        /* \"https://github.com/OpenZeppelin/openzeppelin-contracts/blob/master/contracts/access/Ownable.sol\":2357:2387  _transferOwnership(address(0)) */\n      jump\t// in\n    tag_264:\n        /* \"https://github.com/OpenZeppelin/openzeppelin-contracts/blob/master/contracts/access/Ownable.sol\":2293:2394  function renounceOwnership() public virtual onlyOwner {... */\n      jump\t// out\n        /* \"2. Solidity/Projet1/VotingPlus.sol\":6251:6602  function addToWhitelist(address[] calldata _addressArray) external ... */\n    tag_58:\n        /* \"https://github.com/OpenZeppelin/openzeppelin-contracts/blob/master/contracts/access/Ownable.sol\":1531:1544  _checkOwner() */\n      tag_267\n        /* \"https://github.com/OpenZeppelin/openzeppelin-contracts/blob/master/contracts/access/Ownable.sol\":1531:1542  _checkOwner */\n      tag_127\n        /* \"https://github.com/OpenZeppelin/openzeppelin-contracts/blob/master/contracts/access/Ownable.sol\":1531:1544  _checkOwner() */\n      jump\t// in\n    tag_267:\n        /* \"2. Solidity/Projet1/VotingPlus.sol\":6357:6389  WorkflowStatus.RegisteringVoters */\n      0x00\n        /* \"2. Solidity/Projet1/VotingPlus.sol\":4078:4091  expectedPhase */\n      dup1\n        /* \"2. Solidity/Projet1/VotingPlus.sol\":4062:4091  votingStatus != expectedPhase */\n      0x05\n      dup2\n      gt\n      iszero\n      tag_269\n      jumpi\n      tag_270\n      tag_100\n      jump\t// in\n    tag_270:\n    tag_269:\n        /* \"2. Solidity/Projet1/VotingPlus.sol\":4062:4074  votingStatus */\n      0x04\n      0x00\n      swap1\n      sload\n      swap1\n      0x0100\n      exp\n      swap1\n      div\n      0xff\n      and\n        /* \"2. Solidity/Projet1/VotingPlus.sol\":4062:4091  votingStatus != expectedPhase */\n      0x05\n      dup2\n      gt\n      iszero\n      tag_271\n      jumpi\n      tag_272\n      tag_100\n      jump\t// in\n    tag_272:\n    tag_271:\n      eq\n        /* \"2. Solidity/Projet1/VotingPlus.sol\":4058:4172  if (votingStatus != expectedPhase) {... */\n      tag_273\n      jumpi\n        /* \"2. Solidity/Projet1/VotingPlus.sol\":4132:4145  expectedPhase */\n      dup1\n        /* \"2. Solidity/Projet1/VotingPlus.sol\":4147:4159  votingStatus */\n      0x04\n      0x00\n      swap1\n      sload\n      swap1\n      0x0100\n      exp\n      swap1\n      div\n      0xff\n      and\n        /* \"2. Solidity/Projet1/VotingPlus.sol\":4115:4160  WrongVotingPhase(expectedPhase, votingStatus) */\n      mload(0x40)\n      0x2e73d6d900000000000000000000000000000000000000000000000000000000\n      dup2\n      mstore\n      0x04\n      add\n      tag_274\n      swap3\n      swap2\n      swap1\n      tag_105\n      jump\t// in\n    tag_274:\n      mload(0x40)\n      dup1\n      swap2\n      sub\n      swap1\n      revert\n        /* \"2. Solidity/Projet1/VotingPlus.sol\":4058:4172  if (votingStatus != expectedPhase) {... */\n    tag_273:\n        /* \"2. Solidity/Projet1/VotingPlus.sol\":6406:6412  uint i */\n      0x00\n        /* \"2. Solidity/Projet1/VotingPlus.sol\":6413:6414  0 */\n      0x00\n        /* \"2. Solidity/Projet1/VotingPlus.sol\":6406:6414  uint i=0 */\n      swap1\n      pop\n        /* \"2. Solidity/Projet1/VotingPlus.sol\":6401:6595  for (uint i=0; i<_addressArray.length; i++){... */\n    tag_276:\n        /* \"2. Solidity/Projet1/VotingPlus.sol\":6418:6431  _addressArray */\n      dup4\n      dup4\n        /* \"2. Solidity/Projet1/VotingPlus.sol\":6418:6438  _addressArray.length */\n      swap1\n      pop\n        /* \"2. Solidity/Projet1/VotingPlus.sol\":6416:6417  i */\n      dup2\n        /* \"2. Solidity/Projet1/VotingPlus.sol\":6416:6438  i<_addressArray.length */\n      lt\n        /* \"2. Solidity/Projet1/VotingPlus.sol\":6401:6595  for (uint i=0; i<_addressArray.length; i++){... */\n      iszero\n      tag_277\n      jumpi\n        /* \"2. Solidity/Projet1/VotingPlus.sol\":6522:6526  true */\n      0x01\n        /* \"2. Solidity/Projet1/VotingPlus.sol\":6459:6472  sessionVoters */\n      dup1\n        /* \"2. Solidity/Projet1/VotingPlus.sol\":6459:6488  sessionVoters[currentSession] */\n      0x00\n        /* \"2. Solidity/Projet1/VotingPlus.sol\":6473:6487  currentSession */\n      sload(0x09)\n        /* \"2. Solidity/Projet1/VotingPlus.sol\":6459:6488  sessionVoters[currentSession] */\n      dup2\n      mstore\n      0x20\n      add\n      swap1\n      dup2\n      mstore\n      0x20\n      add\n      0x00\n      keccak256\n        /* \"2. Solidity/Projet1/VotingPlus.sol\":6459:6506  sessionVoters[currentSession][_addressArray[i]] */\n      0x00\n        /* \"2. Solidity/Projet1/VotingPlus.sol\":6489:6502  _addressArray */\n      dup7\n      dup7\n        /* \"2. Solidity/Projet1/VotingPlus.sol\":6503:6504  i */\n      dup6\n        /* \"2. Solidity/Projet1/VotingPlus.sol\":6489:6505  _addressArray[i] */\n      dup2\n      dup2\n      lt\n      tag_279\n      jumpi\n      tag_280\n      tag_118\n      jump\t// in\n    tag_280:\n    tag_279:\n      swap1\n      pop\n      0x20\n      mul\n      add\n      0x20\n      dup2\n      add\n      swap1\n      tag_281\n      swap2\n      swap1\n      tag_85\n      jump\t// in\n    tag_281:\n        /* \"2. Solidity/Projet1/VotingPlus.sol\":6459:6506  sessionVoters[currentSession][_addressArray[i]] */\n      0xffffffffffffffffffffffffffffffffffffffff\n      and\n      0xffffffffffffffffffffffffffffffffffffffff\n      and\n      dup2\n      mstore\n      0x20\n      add\n      swap1\n      dup2\n      mstore\n      0x20\n      add\n      0x00\n      keccak256\n        /* \"2. Solidity/Projet1/VotingPlus.sol\":6459:6519  sessionVoters[currentSession][_addressArray[i]].isRegistered */\n      0x00\n      add\n      0x00\n        /* \"2. Solidity/Projet1/VotingPlus.sol\":6459:6526  sessionVoters[currentSession][_addressArray[i]].isRegistered = true */\n      0x0100\n      exp\n      dup2\n      sload\n      dup2\n      0xff\n      mul\n      not\n      and\n      swap1\n      dup4\n      iszero\n      iszero\n      mul\n      or\n      swap1\n      sstore\n      pop\n        /* \"2. Solidity/Projet1/VotingPlus.sol\":6546:6579  VoterRegistered(_addressArray[i]) */\n      0xb6be2187d059cc2a55fe29e0e503b566e1e0f8c8780096e185429350acffd3dd\n        /* \"2. Solidity/Projet1/VotingPlus.sol\":6562:6575  _addressArray */\n      dup5\n      dup5\n        /* \"2. Solidity/Projet1/VotingPlus.sol\":6576:6577  i */\n      dup4\n        /* \"2. Solidity/Projet1/VotingPlus.sol\":6562:6578  _addressArray[i] */\n      dup2\n      dup2\n      lt\n      tag_282\n      jumpi\n      tag_283\n      tag_118\n      jump\t// in\n    tag_283:\n    tag_282:\n      swap1\n      pop\n      0x20\n      mul\n      add\n      0x20\n      dup2\n      add\n      swap1\n      tag_284\n      swap2\n      swap1\n      tag_85\n      jump\t// in\n    tag_284:\n        /* \"2. Solidity/Projet1/VotingPlus.sol\":6546:6579  VoterRegistered(_addressArray[i]) */\n      mload(0x40)\n      tag_285\n      swap2\n      swap1\n      tag_62\n      jump\t// in\n    tag_285:\n      mload(0x40)\n      dup1\n      swap2\n      sub\n      swap1\n      log1\n        /* \"2. Solidity/Projet1/VotingPlus.sol\":6440:6443  i++ */\n      dup1\n      dup1\n      0x01\n      add\n      swap2\n      pop\n      pop\n        /* \"2. Solidity/Projet1/VotingPlus.sol\":6401:6595  for (uint i=0; i<_addressArray.length; i++){... */\n      jump(tag_276)\n    tag_277:\n      pop\n        /* \"https://github.com/OpenZeppelin/openzeppelin-contracts/blob/master/contracts/access/Ownable.sol\":1554:1555  _ */\n      pop\n        /* \"2. Solidity/Projet1/VotingPlus.sol\":6251:6602  function addToWhitelist(address[] calldata _addressArray) external ... */\n      pop\n      pop\n      jump\t// out\n        /* \"https://github.com/OpenZeppelin/openzeppelin-contracts/blob/master/contracts/access/Ownable.sol\":1638:1723  function owner() public view virtual returns (address) {... */\n    tag_60:\n        /* \"https://github.com/OpenZeppelin/openzeppelin-contracts/blob/master/contracts/access/Ownable.sol\":1684:1691  address */\n      0x00\n        /* \"https://github.com/OpenZeppelin/openzeppelin-contracts/blob/master/contracts/access/Ownable.sol\":1710:1716  _owner */\n      0x00\n      0x00\n      swap1\n      sload\n      swap1\n      0x0100\n      exp\n      swap1\n      div\n      0xffffffffffffffffffffffffffffffffffffffff\n      and\n        /* \"https://github.com/OpenZeppelin/openzeppelin-contracts/blob/master/contracts/access/Ownable.sol\":1703:1716  return _owner */\n      swap1\n      pop\n        /* \"https://github.com/OpenZeppelin/openzeppelin-contracts/blob/master/contracts/access/Ownable.sol\":1638:1723  function owner() public view virtual returns (address) {... */\n      swap1\n      jump\t// out\n        /* \"2. Solidity/Projet1/VotingPlus.sol\":8712:9806  function getSessionAllActiveProposals() external view returns(Proposal[] memory activeProposals, uint[] memory activeProposalIds){... */\n    tag_64:\n        /* \"2. Solidity/Projet1/VotingPlus.sol\":8774:8807  Proposal[] memory activeProposals */\n      0x60\n        /* \"2. Solidity/Projet1/VotingPlus.sol\":8809:8840  uint[] memory activeProposalIds */\n      dup1\n        /* \"2. Solidity/Projet1/VotingPlus.sol\":9001:9017  uint activeCount */\n      0x00\n        /* \"2. Solidity/Projet1/VotingPlus.sol\":9020:9021  0 */\n      0x00\n        /* \"2. Solidity/Projet1/VotingPlus.sol\":9001:9021  uint activeCount = 0 */\n      swap1\n      pop\n        /* \"2. Solidity/Projet1/VotingPlus.sol\":9037:9043  uint i */\n      0x00\n        /* \"2. Solidity/Projet1/VotingPlus.sol\":9044:9045  0 */\n      0x00\n        /* \"2. Solidity/Projet1/VotingPlus.sol\":9037:9045  uint i=0 */\n      swap1\n      pop\n        /* \"2. Solidity/Projet1/VotingPlus.sol\":9032:9223  for (uint i=0; i < sessionProposals[currentSession].length; i++){... */\n    tag_288:\n        /* \"2. Solidity/Projet1/VotingPlus.sol\":9051:9067  sessionProposals */\n      0x02\n        /* \"2. Solidity/Projet1/VotingPlus.sol\":9051:9083  sessionProposals[currentSession] */\n      0x00\n        /* \"2. Solidity/Projet1/VotingPlus.sol\":9068:9082  currentSession */\n      sload(0x09)\n        /* \"2. Solidity/Projet1/VotingPlus.sol\":9051:9083  sessionProposals[currentSession] */\n      dup2\n      mstore\n      0x20\n      add\n      swap1\n      dup2\n      mstore\n      0x20\n      add\n      0x00\n      keccak256\n        /* \"2. Solidity/Projet1/VotingPlus.sol\":9051:9090  sessionProposals[currentSession].length */\n      dup1\n      sload\n      swap1\n      pop\n        /* \"2. Solidity/Projet1/VotingPlus.sol\":9047:9048  i */\n      dup2\n        /* \"2. Solidity/Projet1/VotingPlus.sol\":9047:9090  i < sessionProposals[currentSession].length */\n      lt\n        /* \"2. Solidity/Projet1/VotingPlus.sol\":9032:9223  for (uint i=0; i < sessionProposals[currentSession].length; i++){... */\n      iszero\n      tag_289\n      jumpi\n        /* \"2. Solidity/Projet1/VotingPlus.sol\":9159:9163  true */\n      0x01\n        /* \"2. Solidity/Projet1/VotingPlus.sol\":9114:9163  sessionActiveProposals[currentSession][i] == true */\n      iszero\n      iszero\n        /* \"2. Solidity/Projet1/VotingPlus.sol\":9114:9136  sessionActiveProposals */\n      0x03\n        /* \"2. Solidity/Projet1/VotingPlus.sol\":9114:9152  sessionActiveProposals[currentSession] */\n      0x00\n        /* \"2. Solidity/Projet1/VotingPlus.sol\":9137:9151  currentSession */\n      sload(0x09)\n        /* \"2. Solidity/Projet1/VotingPlus.sol\":9114:9152  sessionActiveProposals[currentSession] */\n      dup2\n      mstore\n      0x20\n      add\n      swap1\n      dup2\n      mstore\n      0x20\n      add\n      0x00\n      keccak256\n        /* \"2. Solidity/Projet1/VotingPlus.sol\":9114:9155  sessionActiveProposals[currentSession][i] */\n      0x00\n        /* \"2. Solidity/Projet1/VotingPlus.sol\":9153:9154  i */\n      dup4\n        /* \"2. Solidity/Projet1/VotingPlus.sol\":9114:9155  sessionActiveProposals[currentSession][i] */\n      dup2\n      mstore\n      0x20\n      add\n      swap1\n      dup2\n      mstore\n      0x20\n      add\n      0x00\n      keccak256\n      0x00\n      swap1\n      sload\n      swap1\n      0x0100\n      exp\n      swap1\n      div\n      0xff\n      and\n        /* \"2. Solidity/Projet1/VotingPlus.sol\":9114:9163  sessionActiveProposals[currentSession][i] == true */\n      iszero\n      iszero\n      sub\n        /* \"2. Solidity/Projet1/VotingPlus.sol\":9111:9212  if(sessionActiveProposals[currentSession][i] == true){... */\n      tag_291\n      jumpi\n        /* \"2. Solidity/Projet1/VotingPlus.sol\":9183:9196  activeCount++ */\n      dup2\n      dup1\n      tag_292\n      swap1\n      tag_293\n      jump\t// in\n    tag_292:\n      swap3\n      pop\n      pop\n        /* \"2. Solidity/Projet1/VotingPlus.sol\":9111:9212  if(sessionActiveProposals[currentSession][i] == true){... */\n    tag_291:\n        /* \"2. Solidity/Projet1/VotingPlus.sol\":9092:9095  i++ */\n      dup1\n      dup1\n      0x01\n      add\n      swap2\n      pop\n      pop\n        /* \"2. Solidity/Projet1/VotingPlus.sol\":9032:9223  for (uint i=0; i < sessionProposals[currentSession].length; i++){... */\n      jump(tag_288)\n    tag_289:\n      pop\n        /* \"2. Solidity/Projet1/VotingPlus.sol\":9320:9331  activeCount */\n      dup1\n        /* \"2. Solidity/Projet1/VotingPlus.sol\":9305:9332  new Proposal[](activeCount) */\n      0xffffffffffffffff\n      dup2\n      gt\n      iszero\n      tag_294\n      jumpi\n      tag_295\n      tag_296\n      jump\t// in\n    tag_295:\n    tag_294:\n      mload(0x40)\n      swap1\n      dup1\n      dup3\n      mstore\n      dup1\n      0x20\n      mul\n      0x20\n      add\n      dup3\n      add\n      0x40\n      mstore\n      dup1\n      iszero\n      tag_297\n      jumpi\n      dup2\n      0x20\n      add\n    tag_298:\n      tag_299\n      tag_250\n      jump\t// in\n    tag_299:\n      dup2\n      mstore\n      0x20\n      add\n      swap1\n      0x01\n      swap1\n      sub\n      swap1\n      dup2\n      tag_298\n      jumpi\n      swap1\n      pop\n    tag_297:\n      pop\n        /* \"2. Solidity/Projet1/VotingPlus.sol\":9287:9332  activeProposals = new Proposal[](activeCount) */\n      swap3\n      pop\n        /* \"2. Solidity/Projet1/VotingPlus.sol\":9374:9385  activeCount */\n      dup1\n        /* \"2. Solidity/Projet1/VotingPlus.sol\":9363:9386  new uint[](activeCount) */\n      0xffffffffffffffff\n      dup2\n      gt\n      iszero\n      tag_300\n      jumpi\n      tag_301\n      tag_296\n      jump\t// in\n    tag_301:\n    tag_300:\n      mload(0x40)\n      swap1\n      dup1\n      dup3\n      mstore\n      dup1\n      0x20\n      mul\n      0x20\n      add\n      dup3\n      add\n      0x40\n      mstore\n      dup1\n      iszero\n      tag_302\n      jumpi\n      dup2\n      0x20\n      add\n      0x20\n      dup3\n      mul\n      dup1\n      calldatasize\n      dup4\n      calldatacopy\n      dup1\n      dup3\n      add\n      swap2\n      pop\n      pop\n      swap1\n      pop\n    tag_302:\n      pop\n        /* \"2. Solidity/Projet1/VotingPlus.sol\":9343:9386  activeProposalIds = new uint[](activeCount) */\n      swap2\n      pop\n        /* \"2. Solidity/Projet1/VotingPlus.sol\":9463:9473  uint index */\n      0x00\n        /* \"2. Solidity/Projet1/VotingPlus.sol\":9476:9477  0 */\n      0x00\n        /* \"2. Solidity/Projet1/VotingPlus.sol\":9463:9477  uint index = 0 */\n      swap1\n      pop\n        /* \"2. Solidity/Projet1/VotingPlus.sol\":9493:9499  uint i */\n      0x00\n        /* \"2. Solidity/Projet1/VotingPlus.sol\":9500:9501  0 */\n      0x00\n        /* \"2. Solidity/Projet1/VotingPlus.sol\":9493:9501  uint i=0 */\n      swap1\n      pop\n        /* \"2. Solidity/Projet1/VotingPlus.sol\":9488:9799  for (uint i=0; i < sessionProposals[currentSession].length; i++){... */\n    tag_303:\n        /* \"2. Solidity/Projet1/VotingPlus.sol\":9507:9523  sessionProposals */\n      0x02\n        /* \"2. Solidity/Projet1/VotingPlus.sol\":9507:9539  sessionProposals[currentSession] */\n      0x00\n        /* \"2. Solidity/Projet1/VotingPlus.sol\":9524:9538  currentSession */\n      sload(0x09)\n        /* \"2. Solidity/Projet1/VotingPlus.sol\":9507:9539  sessionProposals[currentSession] */\n      dup2\n      mstore\n      0x20\n      add\n      swap1\n      dup2\n      mstore\n      0x20\n      add\n      0x00\n      keccak256\n        /* \"2. Solidity/Projet1/VotingPlus.sol\":9507:9546  sessionProposals[currentSession].length */\n      dup1\n      sload\n      swap1\n      pop\n        /* \"2. Solidity/Projet1/VotingPlus.sol\":9503:9504  i */\n      dup2\n        /* \"2. Solidity/Projet1/VotingPlus.sol\":9503:9546  i < sessionProposals[currentSession].length */\n      lt\n        /* \"2. Solidity/Projet1/VotingPlus.sol\":9488:9799  for (uint i=0; i < sessionProposals[currentSession].length; i++){... */\n      iszero\n      tag_304\n      jumpi\n        /* \"2. Solidity/Projet1/VotingPlus.sol\":9615:9619  true */\n      0x01\n        /* \"2. Solidity/Projet1/VotingPlus.sol\":9570:9619  sessionActiveProposals[currentSession][i] == true */\n      iszero\n      iszero\n        /* \"2. Solidity/Projet1/VotingPlus.sol\":9570:9592  sessionActiveProposals */\n      0x03\n        /* \"2. Solidity/Projet1/VotingPlus.sol\":9570:9608  sessionActiveProposals[currentSession] */\n      0x00\n        /* \"2. Solidity/Projet1/VotingPlus.sol\":9593:9607  currentSession */\n      sload(0x09)\n        /* \"2. Solidity/Projet1/VotingPlus.sol\":9570:9608  sessionActiveProposals[currentSession] */\n      dup2\n      mstore\n      0x20\n      add\n      swap1\n      dup2\n      mstore\n      0x20\n      add\n      0x00\n      keccak256\n        /* \"2. Solidity/Projet1/VotingPlus.sol\":9570:9611  sessionActiveProposals[currentSession][i] */\n      0x00\n        /* \"2. Solidity/Projet1/VotingPlus.sol\":9609:9610  i */\n      dup4\n        /* \"2. Solidity/Projet1/VotingPlus.sol\":9570:9611  sessionActiveProposals[currentSession][i] */\n      dup2\n      mstore\n      0x20\n      add\n      swap1\n      dup2\n      mstore\n      0x20\n      add\n      0x00\n      keccak256\n      0x00\n      swap1\n      sload\n      swap1\n      0x0100\n      exp\n      swap1\n      div\n      0xff\n      and\n        /* \"2. Solidity/Projet1/VotingPlus.sol\":9570:9619  sessionActiveProposals[currentSession][i] == true */\n      iszero\n      iszero\n      sub\n        /* \"2. Solidity/Projet1/VotingPlus.sol\":9567:9788  if(sessionActiveProposals[currentSession][i] == true){... */\n      tag_306\n      jumpi\n        /* \"2. Solidity/Projet1/VotingPlus.sol\":9664:9680  sessionProposals */\n      0x02\n        /* \"2. Solidity/Projet1/VotingPlus.sol\":9664:9696  sessionProposals[currentSession] */\n      0x00\n        /* \"2. Solidity/Projet1/VotingPlus.sol\":9681:9695  currentSession */\n      sload(0x09)\n        /* \"2. Solidity/Projet1/VotingPlus.sol\":9664:9696  sessionProposals[currentSession] */\n      dup2\n      mstore\n      0x20\n      add\n      swap1\n      dup2\n      mstore\n      0x20\n      add\n      0x00\n      keccak256\n        /* \"2. Solidity/Projet1/VotingPlus.sol\":9697:9698  i */\n      dup2\n        /* \"2. Solidity/Projet1/VotingPlus.sol\":9664:9699  sessionProposals[currentSession][i] */\n      dup2\n      sload\n      dup2\n      lt\n      tag_307\n      jumpi\n      tag_308\n      tag_118\n      jump\t// in\n    tag_308:\n    tag_307:\n      swap1\n      0x00\n      mstore\n      keccak256(0x00, 0x20)\n      swap1\n      0x02\n      mul\n      add\n        /* \"2. Solidity/Projet1/VotingPlus.sol\":9639:9699  activeProposals[index] = sessionProposals[currentSession][i] */\n      mload(0x40)\n      dup1\n      0x40\n      add\n      0x40\n      mstore\n      swap1\n      dup2\n      0x00\n      dup3\n      add\n      dup1\n      sload\n      tag_310\n      swap1\n      tag_256\n      jump\t// in\n    tag_310:\n      dup1\n      0x1f\n      add\n      0x20\n      dup1\n      swap2\n      div\n      mul\n      0x20\n      add\n      mload(0x40)\n      swap1\n      dup2\n      add\n      0x40\n      mstore\n      dup1\n      swap3\n      swap2\n      swap1\n      dup2\n      dup2\n      mstore\n      0x20\n      add\n      dup3\n      dup1\n      sload\n      tag_311\n      swap1\n      tag_256\n      jump\t// in\n    tag_311:\n      dup1\n      iszero\n      tag_312\n      jumpi\n      dup1\n      0x1f\n      lt\n      tag_313\n      jumpi\n      0x0100\n      dup1\n      dup4\n      sload\n      div\n      mul\n      dup4\n      mstore\n      swap2\n      0x20\n      add\n      swap2\n      jump(tag_312)\n    tag_313:\n      dup3\n      add\n      swap2\n      swap1\n      0x00\n      mstore\n      keccak256(0x00, 0x20)\n      swap1\n    tag_314:\n      dup2\n      sload\n      dup2\n      mstore\n      swap1\n      0x01\n      add\n      swap1\n      0x20\n      add\n      dup1\n      dup4\n      gt\n      tag_314\n      jumpi\n      dup3\n      swap1\n      sub\n      0x1f\n      and\n      dup3\n      add\n      swap2\n    tag_312:\n      pop\n      pop\n      pop\n      pop\n      pop\n      dup2\n      mstore\n      0x20\n      add\n      0x01\n      dup3\n      add\n      sload\n      dup2\n      mstore\n      pop\n      pop\n        /* \"2. Solidity/Projet1/VotingPlus.sol\":9639:9654  activeProposals */\n      dup6\n        /* \"2. Solidity/Projet1/VotingPlus.sol\":9655:9660  index */\n      dup4\n        /* \"2. Solidity/Projet1/VotingPlus.sol\":9639:9661  activeProposals[index] */\n      dup2\n      mload\n      dup2\n      lt\n      tag_315\n      jumpi\n      tag_316\n      tag_118\n      jump\t// in\n    tag_316:\n    tag_315:\n      0x20\n      mul\n      0x20\n      add\n      add\n        /* \"2. Solidity/Projet1/VotingPlus.sol\":9639:9699  activeProposals[index] = sessionProposals[currentSession][i] */\n      dup2\n      swap1\n      mstore\n      pop\n        /* \"2. Solidity/Projet1/VotingPlus.sol\":9745:9746  i */\n      dup1\n        /* \"2. Solidity/Projet1/VotingPlus.sol\":9718:9735  activeProposalIds */\n      dup5\n        /* \"2. Solidity/Projet1/VotingPlus.sol\":9736:9741  index */\n      dup4\n        /* \"2. Solidity/Projet1/VotingPlus.sol\":9718:9742  activeProposalIds[index] */\n      dup2\n      mload\n      dup2\n      lt\n      tag_317\n      jumpi\n      tag_318\n      tag_118\n      jump\t// in\n    tag_318:\n    tag_317:\n      0x20\n      mul\n      0x20\n      add\n      add\n        /* \"2. Solidity/Projet1/VotingPlus.sol\":9718:9746  activeProposalIds[index] = i */\n      dup2\n      dup2\n      mstore\n      pop\n      pop\n        /* \"2. Solidity/Projet1/VotingPlus.sol\":9765:9772  index++ */\n      dup2\n      dup1\n      tag_319\n      swap1\n      tag_293\n      jump\t// in\n    tag_319:\n      swap3\n      pop\n      pop\n        /* \"2. Solidity/Projet1/VotingPlus.sol\":9567:9788  if(sessionActiveProposals[currentSession][i] == true){... */\n    tag_306:\n        /* \"2. Solidity/Projet1/VotingPlus.sol\":9548:9551  i++ */\n      dup1\n      dup1\n      0x01\n      add\n      swap2\n      pop\n      pop\n        /* \"2. Solidity/Projet1/VotingPlus.sol\":9488:9799  for (uint i=0; i < sessionProposals[currentSession].length; i++){... */\n      jump(tag_303)\n    tag_304:\n      pop\n        /* \"2. Solidity/Projet1/VotingPlus.sol\":8841:9806  {... */\n      pop\n      pop\n        /* \"2. Solidity/Projet1/VotingPlus.sol\":8712:9806  function getSessionAllActiveProposals() external view returns(Proposal[] memory activeProposals, uint[] memory activeProposalIds){... */\n      swap1\n      swap2\n      jump\t// out\n        /* \"2. Solidity/Projet1/VotingPlus.sol\":14162:14373  function getSessionWinningProposalId(uint _session) external view returns(uint){... */\n    tag_69:\n        /* \"2. Solidity/Projet1/VotingPlus.sol\":14236:14240  uint */\n      0x00\n        /* \"2. Solidity/Projet1/VotingPlus.sol\":14272:14286  currentSession */\n      sload(0x09)\n        /* \"2. Solidity/Projet1/VotingPlus.sol\":14260:14268  _session */\n      dup3\n        /* \"2. Solidity/Projet1/VotingPlus.sol\":14260:14286  _session <= currentSession */\n      gt\n      iszero\n        /* \"2. Solidity/Projet1/VotingPlus.sol\":14252:14313  require(_session <= currentSession, \"Select a valid session\") */\n      tag_321\n      jumpi\n      mload(0x40)\n      0x08c379a000000000000000000000000000000000000000000000000000000000\n      dup2\n      mstore\n      0x04\n      add\n      tag_322\n      swap1\n      tag_323\n      jump\t// in\n    tag_322:\n      mload(0x40)\n      dup1\n      swap2\n      sub\n      swap1\n      revert\n    tag_321:\n        /* \"2. Solidity/Projet1/VotingPlus.sol\":14331:14355  sessionWinningProposalId */\n      0x05\n        /* \"2. Solidity/Projet1/VotingPlus.sol\":14331:14365  sessionWinningProposalId[_session] */\n      0x00\n        /* \"2. Solidity/Projet1/VotingPlus.sol\":14356:14364  _session */\n      dup4\n        /* \"2. Solidity/Projet1/VotingPlus.sol\":14331:14365  sessionWinningProposalId[_session] */\n      dup2\n      mstore\n      0x20\n      add\n      swap1\n      dup2\n      mstore\n      0x20\n      add\n      0x00\n      keccak256\n      sload\n        /* \"2. Solidity/Projet1/VotingPlus.sol\":14324:14365  return sessionWinningProposalId[_session] */\n      swap1\n      pop\n        /* \"2. Solidity/Projet1/VotingPlus.sol\":14162:14373  function getSessionWinningProposalId(uint _session) external view returns(uint){... */\n      swap2\n      swap1\n      pop\n      jump\t// out\n        /* \"2. Solidity/Projet1/VotingPlus.sol\":5512:5665  function endVotingSession() external ... */\n    tag_73:\n        /* \"https://github.com/OpenZeppelin/openzeppelin-contracts/blob/master/contracts/access/Ownable.sol\":1531:1544  _checkOwner() */\n      tag_325\n        /* \"https://github.com/OpenZeppelin/openzeppelin-contracts/blob/master/contracts/access/Ownable.sol\":1531:1542  _checkOwner */\n      tag_127\n        /* \"https://github.com/OpenZeppelin/openzeppelin-contracts/blob/master/contracts/access/Ownable.sol\":1531:1544  _checkOwner() */\n      jump\t// in\n    tag_325:\n        /* \"2. Solidity/Projet1/VotingPlus.sol\":5586:5621  WorkflowStatus.VotingSessionStarted */\n      0x03\n        /* \"2. Solidity/Projet1/VotingPlus.sol\":5623:5656  WorkflowStatus.VotingSessionEnded */\n      0x04\n        /* \"2. Solidity/Projet1/VotingPlus.sol\":4310:4323  previousPhase */\n      dup2\n        /* \"2. Solidity/Projet1/VotingPlus.sol\":4294:4323  votingStatus != previousPhase */\n      0x05\n      dup2\n      gt\n      iszero\n      tag_327\n      jumpi\n      tag_328\n      tag_100\n      jump\t// in\n    tag_328:\n    tag_327:\n        /* \"2. Solidity/Projet1/VotingPlus.sol\":4294:4306  votingStatus */\n      0x04\n      0x00\n      swap1\n      sload\n      swap1\n      0x0100\n      exp\n      swap1\n      div\n      0xff\n      and\n        /* \"2. Solidity/Projet1/VotingPlus.sol\":4294:4323  votingStatus != previousPhase */\n      0x05\n      dup2\n      gt\n      iszero\n      tag_329\n      jumpi\n      tag_330\n      tag_100\n      jump\t// in\n    tag_330:\n    tag_329:\n      eq\n        /* \"2. Solidity/Projet1/VotingPlus.sol\":4290:4529  if (votingStatus != previousPhase) { // Check if the workflow is in the correct phase before moving to the next, prevent from skipping phases or moving backwards... */\n      tag_331\n      jumpi\n        /* \"2. Solidity/Projet1/VotingPlus.sol\":4489:4502  previousPhase */\n      dup2\n        /* \"2. Solidity/Projet1/VotingPlus.sol\":4504:4516  votingStatus */\n      0x04\n      0x00\n      swap1\n      sload\n      swap1\n      0x0100\n      exp\n      swap1\n      div\n      0xff\n      and\n        /* \"2. Solidity/Projet1/VotingPlus.sol\":4472:4517  WrongVotingPhase(previousPhase, votingStatus) */\n      mload(0x40)\n      0x2e73d6d900000000000000000000000000000000000000000000000000000000\n      dup2\n      mstore\n      0x04\n      add\n      tag_332\n      swap3\n      swap2\n      swap1\n      tag_105\n      jump\t// in\n    tag_332:\n      mload(0x40)\n      dup1\n      swap2\n      sub\n      swap1\n      revert\n        /* \"2. Solidity/Projet1/VotingPlus.sol\":4290:4529  if (votingStatus != previousPhase) { // Check if the workflow is in the correct phase before moving to the next, prevent from skipping phases or moving backwards... */\n    tag_331:\n        /* \"2. Solidity/Projet1/VotingPlus.sol\":4554:4563  nextPhase */\n      dup1\n        /* \"2. Solidity/Projet1/VotingPlus.sol\":4539:4551  votingStatus */\n      0x04\n      0x00\n        /* \"2. Solidity/Projet1/VotingPlus.sol\":4539:4563  votingStatus = nextPhase */\n      0x0100\n      exp\n      dup2\n      sload\n      dup2\n      0xff\n      mul\n      not\n      and\n      swap1\n      dup4\n      0x05\n      dup2\n      gt\n      iszero\n      tag_333\n      jumpi\n      tag_334\n      tag_100\n      jump\t// in\n    tag_334:\n    tag_333:\n      mul\n      or\n      swap1\n      sstore\n      pop\n        /* \"2. Solidity/Projet1/VotingPlus.sol\":4579:4625  WorkflowStatusChange(previousPhase, nextPhase) */\n      0x0a97a4ee45751e2abf3e4fc8946939630b11b371ea8ae39ccdc3056e98f5cc3f\n        /* \"2. Solidity/Projet1/VotingPlus.sol\":4600:4613  previousPhase */\n      dup3\n        /* \"2. Solidity/Projet1/VotingPlus.sol\":4615:4624  nextPhase */\n      dup3\n        /* \"2. Solidity/Projet1/VotingPlus.sol\":4579:4625  WorkflowStatusChange(previousPhase, nextPhase) */\n      mload(0x40)\n      tag_335\n      swap3\n      swap2\n      swap1\n      tag_105\n      jump\t// in\n    tag_335:\n      mload(0x40)\n      dup1\n      swap2\n      sub\n      swap1\n      log1\n        /* \"https://github.com/OpenZeppelin/openzeppelin-contracts/blob/master/contracts/access/Ownable.sol\":1554:1555  _ */\n      pop\n      pop\n        /* \"2. Solidity/Projet1/VotingPlus.sol\":5512:5665  function endVotingSession() external ... */\n      jump\t// out\n        /* \"2. Solidity/Projet1/VotingPlus.sol\":4980:5333  function endProposalRegistration() external ... */\n    tag_75:\n        /* \"https://github.com/OpenZeppelin/openzeppelin-contracts/blob/master/contracts/access/Ownable.sol\":1531:1544  _checkOwner() */\n      tag_338\n        /* \"https://github.com/OpenZeppelin/openzeppelin-contracts/blob/master/contracts/access/Ownable.sol\":1531:1542  _checkOwner */\n      tag_127\n        /* \"https://github.com/OpenZeppelin/openzeppelin-contracts/blob/master/contracts/access/Ownable.sol\":1531:1544  _checkOwner() */\n      jump\t// in\n    tag_338:\n        /* \"2. Solidity/Projet1/VotingPlus.sol\":5061:5104  WorkflowStatus.ProposalsRegistrationStarted */\n      0x01\n        /* \"2. Solidity/Projet1/VotingPlus.sol\":5106:5147  WorkflowStatus.ProposalsRegistrationEnded */\n      0x02\n        /* \"2. Solidity/Projet1/VotingPlus.sol\":4310:4323  previousPhase */\n      dup2\n        /* \"2. Solidity/Projet1/VotingPlus.sol\":4294:4323  votingStatus != previousPhase */\n      0x05\n      dup2\n      gt\n      iszero\n      tag_340\n      jumpi\n      tag_341\n      tag_100\n      jump\t// in\n    tag_341:\n    tag_340:\n        /* \"2. Solidity/Projet1/VotingPlus.sol\":4294:4306  votingStatus */\n      0x04\n      0x00\n      swap1\n      sload\n      swap1\n      0x0100\n      exp\n      swap1\n      div\n      0xff\n      and\n        /* \"2. Solidity/Projet1/VotingPlus.sol\":4294:4323  votingStatus != previousPhase */\n      0x05\n      dup2\n      gt\n      iszero\n      tag_342\n      jumpi\n      tag_343\n      tag_100\n      jump\t// in\n    tag_343:\n    tag_342:\n      eq\n        /* \"2. Solidity/Projet1/VotingPlus.sol\":4290:4529  if (votingStatus != previousPhase) { // Check if the workflow is in the correct phase before moving to the next, prevent from skipping phases or moving backwards... */\n      tag_344\n      jumpi\n        /* \"2. Solidity/Projet1/VotingPlus.sol\":4489:4502  previousPhase */\n      dup2\n        /* \"2. Solidity/Projet1/VotingPlus.sol\":4504:4516  votingStatus */\n      0x04\n      0x00\n      swap1\n      sload\n      swap1\n      0x0100\n      exp\n      swap1\n      div\n      0xff\n      and\n        /* \"2. Solidity/Projet1/VotingPlus.sol\":4472:4517  WrongVotingPhase(previousPhase, votingStatus) */\n      mload(0x40)\n      0x2e73d6d900000000000000000000000000000000000000000000000000000000\n      dup2\n      mstore\n      0x04\n      add\n      tag_345\n      swap3\n      swap2\n      swap1\n      tag_105\n      jump\t// in\n    tag_345:\n      mload(0x40)\n      dup1\n      swap2\n      sub\n      swap1\n      revert\n        /* \"2. Solidity/Projet1/VotingPlus.sol\":4290:4529  if (votingStatus != previousPhase) { // Check if the workflow is in the correct phase before moving to the next, prevent from skipping phases or moving backwards... */\n    tag_344:\n        /* \"2. Solidity/Projet1/VotingPlus.sol\":4554:4563  nextPhase */\n      dup1\n        /* \"2. Solidity/Projet1/VotingPlus.sol\":4539:4551  votingStatus */\n      0x04\n      0x00\n        /* \"2. Solidity/Projet1/VotingPlus.sol\":4539:4563  votingStatus = nextPhase */\n      0x0100\n      exp\n      dup2\n      sload\n      dup2\n      0xff\n      mul\n      not\n      and\n      swap1\n      dup4\n      0x05\n      dup2\n      gt\n      iszero\n      tag_346\n      jumpi\n      tag_347\n      tag_100\n      jump\t// in\n    tag_347:\n    tag_346:\n      mul\n      or\n      swap1\n      sstore\n      pop\n        /* \"2. Solidity/Projet1/VotingPlus.sol\":4579:4625  WorkflowStatusChange(previousPhase, nextPhase) */\n      0x0a97a4ee45751e2abf3e4fc8946939630b11b371ea8ae39ccdc3056e98f5cc3f\n        /* \"2. Solidity/Projet1/VotingPlus.sol\":4600:4613  previousPhase */\n      dup3\n        /* \"2. Solidity/Projet1/VotingPlus.sol\":4615:4624  nextPhase */\n      dup3\n        /* \"2. Solidity/Projet1/VotingPlus.sol\":4579:4625  WorkflowStatusChange(previousPhase, nextPhase) */\n      mload(0x40)\n      tag_348\n      swap3\n      swap2\n      swap1\n      tag_105\n      jump\t// in\n    tag_348:\n      mload(0x40)\n      dup1\n      swap2\n      sub\n      swap1\n      log1\n        /* \"2. Solidity/Projet1/VotingPlus.sol\":5175:5191  sessionProposals */\n      0x02\n        /* \"2. Solidity/Projet1/VotingPlus.sol\":5175:5207  sessionProposals[currentSession] */\n      0x00\n        /* \"2. Solidity/Projet1/VotingPlus.sol\":5192:5206  currentSession */\n      sload(0x09)\n        /* \"2. Solidity/Projet1/VotingPlus.sol\":5175:5207  sessionProposals[currentSession] */\n      dup2\n      mstore\n      0x20\n      add\n      swap1\n      dup2\n      mstore\n      0x20\n      add\n      0x00\n      keccak256\n        /* \"2. Solidity/Projet1/VotingPlus.sol\":5175:5214  sessionProposals[currentSession].length */\n      dup1\n      sload\n      swap1\n      pop\n        /* \"2. Solidity/Projet1/VotingPlus.sol\":5159:5172  lastTieLength */\n      0x08\n        /* \"2. Solidity/Projet1/VotingPlus.sol\":5159:5214  lastTieLength = sessionProposals[currentSession].length */\n      dup2\n      swap1\n      sstore\n      pop\n        /* \"2. Solidity/Projet1/VotingPlus.sol\":5255:5283  setSessionProposalToActive() */\n      tag_350\n        /* \"2. Solidity/Projet1/VotingPlus.sol\":5255:5281  setSessionProposalToActive */\n      tag_351\n        /* \"2. Solidity/Projet1/VotingPlus.sol\":5255:5283  setSessionProposalToActive() */\n      jump\t// in\n    tag_350:\n        /* \"https://github.com/OpenZeppelin/openzeppelin-contracts/blob/master/contracts/access/Ownable.sol\":1554:1555  _ */\n      pop\n      pop\n        /* \"2. Solidity/Projet1/VotingPlus.sol\":4980:5333  function endProposalRegistration() external ... */\n      jump\t// out\n        /* \"2. Solidity/Projet1/VotingPlus.sol\":13858:14154  function getSessionVoterChoice(address _address, uint _session) external view onlyWhitelisted (_session) returns(uint){... */\n    tag_79:\n        /* \"2. Solidity/Projet1/VotingPlus.sol\":13971:13975  uint */\n      0x00\n        /* \"2. Solidity/Projet1/VotingPlus.sol\":13953:13961  _session */\n      dup2\n        /* \"2. Solidity/Projet1/VotingPlus.sol\":3847:3860  sessionVoters */\n      0x01\n        /* \"2. Solidity/Projet1/VotingPlus.sol\":3847:3871  sessionVoters[sessionId] */\n      0x00\n        /* \"2. Solidity/Projet1/VotingPlus.sol\":3861:3870  sessionId */\n      dup3\n        /* \"2. Solidity/Projet1/VotingPlus.sol\":3847:3871  sessionVoters[sessionId] */\n      dup2\n      mstore\n      0x20\n      add\n      swap1\n      dup2\n      mstore\n      0x20\n      add\n      0x00\n      keccak256\n        /* \"2. Solidity/Projet1/VotingPlus.sol\":3847:3883  sessionVoters[sessionId][msg.sender] */\n      0x00\n        /* \"2. Solidity/Projet1/VotingPlus.sol\":3872:3882  msg.sender */\n      caller\n        /* \"2. Solidity/Projet1/VotingPlus.sol\":3847:3883  sessionVoters[sessionId][msg.sender] */\n      0xffffffffffffffffffffffffffffffffffffffff\n      and\n      0xffffffffffffffffffffffffffffffffffffffff\n      and\n      dup2\n      mstore\n      0x20\n      add\n      swap1\n      dup2\n      mstore\n      0x20\n      add\n      0x00\n      keccak256\n        /* \"2. Solidity/Projet1/VotingPlus.sol\":3847:3896  sessionVoters[sessionId][msg.sender].isRegistered */\n      0x00\n      add\n      0x00\n      swap1\n      sload\n      swap1\n      0x0100\n      exp\n      swap1\n      div\n      0xff\n      and\n        /* \"2. Solidity/Projet1/VotingPlus.sol\":3843:3964  if(!sessionVoters[sessionId][msg.sender].isRegistered){... */\n      tag_353\n      jumpi\n        /* \"2. Solidity/Projet1/VotingPlus.sol\":3941:3951  msg.sender */\n      caller\n        /* \"2. Solidity/Projet1/VotingPlus.sol\":3919:3952  AddressNotWhitelisted(msg.sender) */\n      mload(0x40)\n      0xeadb950f00000000000000000000000000000000000000000000000000000000\n      dup2\n      mstore\n      0x04\n      add\n      tag_354\n      swap2\n      swap1\n      tag_62\n      jump\t// in\n    tag_354:\n      mload(0x40)\n      dup1\n      swap2\n      sub\n      swap1\n      revert\n        /* \"2. Solidity/Projet1/VotingPlus.sol\":3843:3964  if(!sessionVoters[sessionId][msg.sender].isRegistered){... */\n    tag_353:\n        /* \"2. Solidity/Projet1/VotingPlus.sol\":13995:14008  sessionVoters */\n      0x01\n        /* \"2. Solidity/Projet1/VotingPlus.sol\":13995:14018  sessionVoters[_session] */\n      0x00\n        /* \"2. Solidity/Projet1/VotingPlus.sol\":14009:14017  _session */\n      dup5\n        /* \"2. Solidity/Projet1/VotingPlus.sol\":13995:14018  sessionVoters[_session] */\n      dup2\n      mstore\n      0x20\n      add\n      swap1\n      dup2\n      mstore\n      0x20\n      add\n      0x00\n      keccak256\n        /* \"2. Solidity/Projet1/VotingPlus.sol\":13995:14028  sessionVoters[_session][_address] */\n      0x00\n        /* \"2. Solidity/Projet1/VotingPlus.sol\":14019:14027  _address */\n      dup6\n        /* \"2. Solidity/Projet1/VotingPlus.sol\":13995:14028  sessionVoters[_session][_address] */\n      0xffffffffffffffffffffffffffffffffffffffff\n      and\n      0xffffffffffffffffffffffffffffffffffffffff\n      and\n      dup2\n      mstore\n      0x20\n      add\n      swap1\n      dup2\n      mstore\n      0x20\n      add\n      0x00\n      keccak256\n        /* \"2. Solidity/Projet1/VotingPlus.sol\":13995:14037  sessionVoters[_session][_address].hasVoted */\n      0x00\n      add\n      0x01\n      swap1\n      sload\n      swap1\n      0x0100\n      exp\n      swap1\n      div\n      0xff\n      and\n        /* \"2. Solidity/Projet1/VotingPlus.sol\":13987:14079  require(sessionVoters[_session][_address].hasVoted, \"Address has not voted on that session\") */\n      tag_356\n      jumpi\n      mload(0x40)\n      0x08c379a000000000000000000000000000000000000000000000000000000000\n      dup2\n      mstore\n      0x04\n      add\n      tag_357\n      swap1\n      tag_358\n      jump\t// in\n    tag_357:\n      mload(0x40)\n      dup1\n      swap2\n      sub\n      swap1\n      revert\n    tag_356:\n        /* \"2. Solidity/Projet1/VotingPlus.sol\":14097:14110  sessionVoters */\n      0x01\n        /* \"2. Solidity/Projet1/VotingPlus.sol\":14097:14120  sessionVoters[_session] */\n      0x00\n        /* \"2. Solidity/Projet1/VotingPlus.sol\":14111:14119  _session */\n      dup5\n        /* \"2. Solidity/Projet1/VotingPlus.sol\":14097:14120  sessionVoters[_session] */\n      dup2\n      mstore\n      0x20\n      add\n      swap1\n      dup2\n      mstore\n      0x20\n      add\n      0x00\n      keccak256\n        /* \"2. Solidity/Projet1/VotingPlus.sol\":14097:14130  sessionVoters[_session][_address] */\n      0x00\n        /* \"2. Solidity/Projet1/VotingPlus.sol\":14121:14129  _address */\n      dup6\n        /* \"2. Solidity/Projet1/VotingPlus.sol\":14097:14130  sessionVoters[_session][_address] */\n      0xffffffffffffffffffffffffffffffffffffffff\n      and\n      0xffffffffffffffffffffffffffffffffffffffff\n      and\n      dup2\n      mstore\n      0x20\n      add\n      swap1\n      dup2\n      mstore\n      0x20\n      add\n      0x00\n      keccak256\n        /* \"2. Solidity/Projet1/VotingPlus.sol\":14097:14146  sessionVoters[_session][_address].votedProposalId */\n      0x01\n      add\n      sload\n        /* \"2. Solidity/Projet1/VotingPlus.sol\":14090:14146  return sessionVoters[_session][_address].votedProposalId */\n      swap2\n      pop\n        /* \"2. Solidity/Projet1/VotingPlus.sol\":13858:14154  function getSessionVoterChoice(address _address, uint _session) external view onlyWhitelisted (_session) returns(uint){... */\n      pop\n      swap3\n      swap2\n      pop\n      pop\n      jump\t// out\n        /* \"2. Solidity/Projet1/VotingPlus.sol\":5341:5504  function startVotingSession() external ... */\n    tag_82:\n        /* \"https://github.com/OpenZeppelin/openzeppelin-contracts/blob/master/contracts/access/Ownable.sol\":1531:1544  _checkOwner() */\n      tag_360\n        /* \"https://github.com/OpenZeppelin/openzeppelin-contracts/blob/master/contracts/access/Ownable.sol\":1531:1542  _checkOwner */\n      tag_127\n        /* \"https://github.com/OpenZeppelin/openzeppelin-contracts/blob/master/contracts/access/Ownable.sol\":1531:1544  _checkOwner() */\n      jump\t// in\n    tag_360:\n        /* \"2. Solidity/Projet1/VotingPlus.sol\":5417:5458  WorkflowStatus.ProposalsRegistrationEnded */\n      0x02\n        /* \"2. Solidity/Projet1/VotingPlus.sol\":5460:5495  WorkflowStatus.VotingSessionStarted */\n      0x03\n        /* \"2. Solidity/Projet1/VotingPlus.sol\":4310:4323  previousPhase */\n      dup2\n        /* \"2. Solidity/Projet1/VotingPlus.sol\":4294:4323  votingStatus != previousPhase */\n      0x05\n      dup2\n      gt\n      iszero\n      tag_362\n      jumpi\n      tag_363\n      tag_100\n      jump\t// in\n    tag_363:\n    tag_362:\n        /* \"2. Solidity/Projet1/VotingPlus.sol\":4294:4306  votingStatus */\n      0x04\n      0x00\n      swap1\n      sload\n      swap1\n      0x0100\n      exp\n      swap1\n      div\n      0xff\n      and\n        /* \"2. Solidity/Projet1/VotingPlus.sol\":4294:4323  votingStatus != previousPhase */\n      0x05\n      dup2\n      gt\n      iszero\n      tag_364\n      jumpi\n      tag_365\n      tag_100\n      jump\t// in\n    tag_365:\n    tag_364:\n      eq\n        /* \"2. Solidity/Projet1/VotingPlus.sol\":4290:4529  if (votingStatus != previousPhase) { // Check if the workflow is in the correct phase before moving to the next, prevent from skipping phases or moving backwards... */\n      tag_366\n      jumpi\n        /* \"2. Solidity/Projet1/VotingPlus.sol\":4489:4502  previousPhase */\n      dup2\n        /* \"2. Solidity/Projet1/VotingPlus.sol\":4504:4516  votingStatus */\n      0x04\n      0x00\n      swap1\n      sload\n      swap1\n      0x0100\n      exp\n      swap1\n      div\n      0xff\n      and\n        /* \"2. Solidity/Projet1/VotingPlus.sol\":4472:4517  WrongVotingPhase(previousPhase, votingStatus) */\n      mload(0x40)\n      0x2e73d6d900000000000000000000000000000000000000000000000000000000\n      dup2\n      mstore\n      0x04\n      add\n      tag_367\n      swap3\n      swap2\n      swap1\n      tag_105\n      jump\t// in\n    tag_367:\n      mload(0x40)\n      dup1\n      swap2\n      sub\n      swap1\n      revert\n        /* \"2. Solidity/Projet1/VotingPlus.sol\":4290:4529  if (votingStatus != previousPhase) { // Check if the workflow is in the correct phase before moving to the next, prevent from skipping phases or moving backwards... */\n    tag_366:\n        /* \"2. Solidity/Projet1/VotingPlus.sol\":4554:4563  nextPhase */\n      dup1\n        /* \"2. Solidity/Projet1/VotingPlus.sol\":4539:4551  votingStatus */\n      0x04\n      0x00\n        /* \"2. Solidity/Projet1/VotingPlus.sol\":4539:4563  votingStatus = nextPhase */\n      0x0100\n      exp\n      dup2\n      sload\n      dup2\n      0xff\n      mul\n      not\n      and\n      swap1\n      dup4\n      0x05\n      dup2\n      gt\n      iszero\n      tag_368\n      jumpi\n      tag_369\n      tag_100\n      jump\t// in\n    tag_369:\n    tag_368:\n      mul\n      or\n      swap1\n      sstore\n      pop\n        /* \"2. Solidity/Projet1/VotingPlus.sol\":4579:4625  WorkflowStatusChange(previousPhase, nextPhase) */\n      0x0a97a4ee45751e2abf3e4fc8946939630b11b371ea8ae39ccdc3056e98f5cc3f\n        /* \"2. Solidity/Projet1/VotingPlus.sol\":4600:4613  previousPhase */\n      dup3\n        /* \"2. Solidity/Projet1/VotingPlus.sol\":4615:4624  nextPhase */\n      dup3\n        /* \"2. Solidity/Projet1/VotingPlus.sol\":4579:4625  WorkflowStatusChange(previousPhase, nextPhase) */\n      mload(0x40)\n      tag_370\n      swap3\n      swap2\n      swap1\n      tag_105\n      jump\t// in\n    tag_370:\n      mload(0x40)\n      dup1\n      swap2\n      sub\n      swap1\n      log1\n        /* \"https://github.com/OpenZeppelin/openzeppelin-contracts/blob/master/contracts/access/Ownable.sol\":1554:1555  _ */\n      pop\n      pop\n        /* \"2. Solidity/Projet1/VotingPlus.sol\":5341:5504  function startVotingSession() external ... */\n      jump\t// out\n        /* \"https://github.com/OpenZeppelin/openzeppelin-contracts/blob/master/contracts/access/Ownable.sol\":2543:2758  function transferOwnership(address newOwner) public virtual onlyOwner {... */\n    tag_86:\n        /* \"https://github.com/OpenZeppelin/openzeppelin-contracts/blob/master/contracts/access/Ownable.sol\":1531:1544  _checkOwner() */\n      tag_373\n        /* \"https://github.com/OpenZeppelin/openzeppelin-contracts/blob/master/contracts/access/Ownable.sol\":1531:1542  _checkOwner */\n      tag_127\n        /* \"https://github.com/OpenZeppelin/openzeppelin-contracts/blob/master/contracts/access/Ownable.sol\":1531:1544  _checkOwner() */\n      jump\t// in\n    tag_373:\n        /* \"https://github.com/OpenZeppelin/openzeppelin-contracts/blob/master/contracts/access/Ownable.sol\":2647:2648  0 */\n      0x00\n        /* \"https://github.com/OpenZeppelin/openzeppelin-contracts/blob/master/contracts/access/Ownable.sol\":2627:2649  newOwner == address(0) */\n      0xffffffffffffffffffffffffffffffffffffffff\n      and\n        /* \"https://github.com/OpenZeppelin/openzeppelin-contracts/blob/master/contracts/access/Ownable.sol\":2627:2635  newOwner */\n      dup2\n        /* \"https://github.com/OpenZeppelin/openzeppelin-contracts/blob/master/contracts/access/Ownable.sol\":2627:2649  newOwner == address(0) */\n      0xffffffffffffffffffffffffffffffffffffffff\n      and\n      sub\n        /* \"https://github.com/OpenZeppelin/openzeppelin-contracts/blob/master/contracts/access/Ownable.sol\":2623:2714  if (newOwner == address(0)) {... */\n      tag_375\n      jumpi\n        /* \"https://github.com/OpenZeppelin/openzeppelin-contracts/blob/master/contracts/access/Ownable.sol\":2700:2701  0 */\n      0x00\n        /* \"https://github.com/OpenZeppelin/openzeppelin-contracts/blob/master/contracts/access/Ownable.sol\":2672:2703  OwnableInvalidOwner(address(0)) */\n      mload(0x40)\n      0x1e4fbdf700000000000000000000000000000000000000000000000000000000\n      dup2\n      mstore\n      0x04\n      add\n      tag_376\n      swap2\n      swap1\n      tag_62\n      jump\t// in\n    tag_376:\n      mload(0x40)\n      dup1\n      swap2\n      sub\n      swap1\n      revert\n        /* \"https://github.com/OpenZeppelin/openzeppelin-contracts/blob/master/contracts/access/Ownable.sol\":2623:2714  if (newOwner == address(0)) {... */\n    tag_375:\n        /* \"https://github.com/OpenZeppelin/openzeppelin-contracts/blob/master/contracts/access/Ownable.sol\":2723:2751  _transferOwnership(newOwner) */\n      tag_377\n        /* \"https://github.com/OpenZeppelin/openzeppelin-contracts/blob/master/contracts/access/Ownable.sol\":2742:2750  newOwner */\n      dup2\n        /* \"https://github.com/OpenZeppelin/openzeppelin-contracts/blob/master/contracts/access/Ownable.sol\":2723:2741  _transferOwnership */\n      tag_265\n        /* \"https://github.com/OpenZeppelin/openzeppelin-contracts/blob/master/contracts/access/Ownable.sol\":2723:2751  _transferOwnership(newOwner) */\n      jump\t// in\n    tag_377:\n        /* \"https://github.com/OpenZeppelin/openzeppelin-contracts/blob/master/contracts/access/Ownable.sol\":2543:2758  function transferOwnership(address newOwner) public virtual onlyOwner {... */\n      pop\n      jump\t// out\n        /* \"2. Solidity/Projet1/VotingPlus.sol\":5890:6180  function resetSession() external onlyOwner{... */\n    tag_88:\n        /* \"https://github.com/OpenZeppelin/openzeppelin-contracts/blob/master/contracts/access/Ownable.sol\":1531:1544  _checkOwner() */\n      tag_379\n        /* \"https://github.com/OpenZeppelin/openzeppelin-contracts/blob/master/contracts/access/Ownable.sol\":1531:1542  _checkOwner */\n      tag_127\n        /* \"https://github.com/OpenZeppelin/openzeppelin-contracts/blob/master/contracts/access/Ownable.sol\":1531:1544  _checkOwner() */\n      jump\t// in\n    tag_379:\n        /* \"2. Solidity/Projet1/VotingPlus.sol\":5943:5957  currentSession */\n      0x09\n      0x00\n        /* \"2. Solidity/Projet1/VotingPlus.sol\":5943:5959  currentSession++ */\n      dup2\n      sload\n      dup1\n      swap3\n      swap2\n      swap1\n      tag_381\n      swap1\n      tag_293\n      jump\t// in\n    tag_381:\n      swap2\n      swap1\n      pop\n      sstore\n      pop\n        /* \"2. Solidity/Projet1/VotingPlus.sol\":5977:5996  mostVotedProposalId */\n      0x06\n      0x00\n        /* \"2. Solidity/Projet1/VotingPlus.sol\":5970:5996  delete mostVotedProposalId */\n      tag_382\n      swap2\n      swap1\n      tag_210\n      jump\t// in\n    tag_382:\n        /* \"2. Solidity/Projet1/VotingPlus.sol\":6014:6027  votersAddress */\n      0x07\n      0x00\n        /* \"2. Solidity/Projet1/VotingPlus.sol\":6007:6027  delete votersAddress */\n      tag_383\n      swap2\n      swap1\n      tag_384\n      jump\t// in\n    tag_383:\n        /* \"2. Solidity/Projet1/VotingPlus.sol\":6043:6111  WorkflowStatusChange(votingStatus, WorkflowStatus.RegisteringVoters) */\n      0x0a97a4ee45751e2abf3e4fc8946939630b11b371ea8ae39ccdc3056e98f5cc3f\n        /* \"2. Solidity/Projet1/VotingPlus.sol\":6064:6076  votingStatus */\n      0x04\n      0x00\n      swap1\n      sload\n      swap1\n      0x0100\n      exp\n      swap1\n      div\n      0xff\n      and\n        /* \"2. Solidity/Projet1/VotingPlus.sol\":6078:6110  WorkflowStatus.RegisteringVoters */\n      0x00\n        /* \"2. Solidity/Projet1/VotingPlus.sol\":6043:6111  WorkflowStatusChange(votingStatus, WorkflowStatus.RegisteringVoters) */\n      mload(0x40)\n      tag_385\n      swap3\n      swap2\n      swap1\n      tag_105\n      jump\t// in\n    tag_385:\n      mload(0x40)\n      dup1\n      swap2\n      sub\n      swap1\n      log1\n        /* \"2. Solidity/Projet1/VotingPlus.sol\":6137:6169  WorkflowStatus.RegisteringVoters */\n      0x00\n        /* \"2. Solidity/Projet1/VotingPlus.sol\":6122:6134  votingStatus */\n      0x04\n      0x00\n        /* \"2. Solidity/Projet1/VotingPlus.sol\":6122:6169  votingStatus = WorkflowStatus.RegisteringVoters */\n      0x0100\n      exp\n      dup2\n      sload\n      dup2\n      0xff\n      mul\n      not\n      and\n      swap1\n      dup4\n      0x05\n      dup2\n      gt\n      iszero\n      tag_386\n      jumpi\n      tag_387\n      tag_100\n      jump\t// in\n    tag_387:\n    tag_386:\n      mul\n      or\n      swap1\n      sstore\n      pop\n        /* \"2. Solidity/Projet1/VotingPlus.sol\":5890:6180  function resetSession() external onlyOwner{... */\n      jump\t// out\n        /* \"2. Solidity/Projet1/VotingPlus.sol\":8279:8418  function getSessionAllProposals(uint _session) external view returns(Proposal[] memory){... */\n    tag_91:\n        /* \"2. Solidity/Projet1/VotingPlus.sol\":8348:8365  Proposal[] memory */\n      0x60\n        /* \"2. Solidity/Projet1/VotingPlus.sol\":8384:8400  sessionProposals */\n      0x02\n        /* \"2. Solidity/Projet1/VotingPlus.sol\":8384:8410  sessionProposals[_session] */\n      0x00\n        /* \"2. Solidity/Projet1/VotingPlus.sol\":8401:8409  _session */\n      dup4\n        /* \"2. Solidity/Projet1/VotingPlus.sol\":8384:8410  sessionProposals[_session] */\n      dup2\n      mstore\n      0x20\n      add\n      swap1\n      dup2\n      mstore\n      0x20\n      add\n      0x00\n      keccak256\n        /* \"2. Solidity/Projet1/VotingPlus.sol\":8377:8410  return sessionProposals[_session] */\n      dup1\n      sload\n      dup1\n      0x20\n      mul\n      0x20\n      add\n      mload(0x40)\n      swap1\n      dup2\n      add\n      0x40\n      mstore\n      dup1\n      swap3\n      swap2\n      swap1\n      dup2\n      dup2\n      mstore\n      0x20\n      add\n      0x00\n      swap1\n    tag_389:\n      dup3\n      dup3\n      lt\n      iszero\n      tag_390\n      jumpi\n      dup4\n      dup3\n      swap1\n      0x00\n      mstore\n      keccak256(0x00, 0x20)\n      swap1\n      0x02\n      mul\n      add\n      mload(0x40)\n      dup1\n      0x40\n      add\n      0x40\n      mstore\n      swap1\n      dup2\n      0x00\n      dup3\n      add\n      dup1\n      sload\n      tag_392\n      swap1\n      tag_256\n      jump\t// in\n    tag_392:\n      dup1\n      0x1f\n      add\n      0x20\n      dup1\n      swap2\n      div\n      mul\n      0x20\n      add\n      mload(0x40)\n      swap1\n      dup2\n      add\n      0x40\n      mstore\n      dup1\n      swap3\n      swap2\n      swap1\n      dup2\n      dup2\n      mstore\n      0x20\n      add\n      dup3\n      dup1\n      sload\n      tag_393\n      swap1\n      tag_256\n      jump\t// in\n    tag_393:\n      dup1\n      iszero\n      tag_394\n      jumpi\n      dup1\n      0x1f\n      lt\n      tag_395\n      jumpi\n      0x0100\n      dup1\n      dup4\n      sload\n      div\n      mul\n      dup4\n      mstore\n      swap2\n      0x20\n      add\n      swap2\n      jump(tag_394)\n    tag_395:\n      dup3\n      add\n      swap2\n      swap1\n      0x00\n      mstore\n      keccak256(0x00, 0x20)\n      swap1\n    tag_396:\n      dup2\n      sload\n      dup2\n      mstore\n      swap1\n      0x01\n      add\n      swap1\n      0x20\n      add\n      dup1\n      dup4\n      gt\n      tag_396\n      jumpi\n      dup3\n      swap1\n      sub\n      0x1f\n      and\n      dup3\n      add\n      swap2\n    tag_394:\n      pop\n      pop\n      pop\n      pop\n      pop\n      dup2\n      mstore\n      0x20\n      add\n      0x01\n      dup3\n      add\n      sload\n      dup2\n      mstore\n      pop\n      pop\n      dup2\n      mstore\n      0x20\n      add\n      swap1\n      0x01\n      add\n      swap1\n      jump(tag_389)\n    tag_390:\n      pop\n      pop\n      pop\n      pop\n      swap1\n      pop\n        /* \"2. Solidity/Projet1/VotingPlus.sol\":8279:8418  function getSessionAllProposals(uint _session) external view returns(Proposal[] memory){... */\n      swap2\n      swap1\n      pop\n      jump\t// out\n        /* \"https://github.com/OpenZeppelin/openzeppelin-contracts/blob/master/contracts/access/Ownable.sol\":1796:1958  function _checkOwner() internal view virtual {... */\n    tag_127:\n        /* \"https://github.com/OpenZeppelin/openzeppelin-contracts/blob/master/contracts/access/Ownable.sol\":1866:1878  _msgSender() */\n      tag_398\n        /* \"https://github.com/OpenZeppelin/openzeppelin-contracts/blob/master/contracts/access/Ownable.sol\":1866:1876  _msgSender */\n      tag_399\n        /* \"https://github.com/OpenZeppelin/openzeppelin-contracts/blob/master/contracts/access/Ownable.sol\":1866:1878  _msgSender() */\n      jump\t// in\n    tag_398:\n        /* \"https://github.com/OpenZeppelin/openzeppelin-contracts/blob/master/contracts/access/Ownable.sol\":1855:1878  owner() != _msgSender() */\n      0xffffffffffffffffffffffffffffffffffffffff\n      and\n        /* \"https://github.com/OpenZeppelin/openzeppelin-contracts/blob/master/contracts/access/Ownable.sol\":1855:1862  owner() */\n      tag_400\n        /* \"https://github.com/OpenZeppelin/openzeppelin-contracts/blob/master/contracts/access/Ownable.sol\":1855:1860  owner */\n      tag_60\n        /* \"https://github.com/OpenZeppelin/openzeppelin-contracts/blob/master/contracts/access/Ownable.sol\":1855:1862  owner() */\n      jump\t// in\n    tag_400:\n        /* \"https://github.com/OpenZeppelin/openzeppelin-contracts/blob/master/contracts/access/Ownable.sol\":1855:1878  owner() != _msgSender() */\n      0xffffffffffffffffffffffffffffffffffffffff\n      and\n      eq\n        /* \"https://github.com/OpenZeppelin/openzeppelin-contracts/blob/master/contracts/access/Ownable.sol\":1851:1952  if (owner() != _msgSender()) {... */\n      tag_401\n      jumpi\n        /* \"https://github.com/OpenZeppelin/openzeppelin-contracts/blob/master/contracts/access/Ownable.sol\":1928:1940  _msgSender() */\n      tag_402\n        /* \"https://github.com/OpenZeppelin/openzeppelin-contracts/blob/master/contracts/access/Ownable.sol\":1928:1938  _msgSender */\n      tag_399\n        /* \"https://github.com/OpenZeppelin/openzeppelin-contracts/blob/master/contracts/access/Ownable.sol\":1928:1940  _msgSender() */\n      jump\t// in\n    tag_402:\n        /* \"https://github.com/OpenZeppelin/openzeppelin-contracts/blob/master/contracts/access/Ownable.sol\":1901:1941  OwnableUnauthorizedAccount(_msgSender()) */\n      mload(0x40)\n      0x118cdaa700000000000000000000000000000000000000000000000000000000\n      dup2\n      mstore\n      0x04\n      add\n      tag_403\n      swap2\n      swap1\n      tag_62\n      jump\t// in\n    tag_403:\n      mload(0x40)\n      dup1\n      swap2\n      sub\n      swap1\n      revert\n        /* \"https://github.com/OpenZeppelin/openzeppelin-contracts/blob/master/contracts/access/Ownable.sol\":1851:1952  if (owner() != _msgSender()) {... */\n    tag_401:\n        /* \"https://github.com/OpenZeppelin/openzeppelin-contracts/blob/master/contracts/access/Ownable.sol\":1796:1958  function _checkOwner() internal view virtual {... */\n      jump\t// out\n        /* \"2. Solidity/Projet1/VotingPlus.sol\":13271:13556  function isProposalInMostVoted(uint proposalId) private view returns (bool) {... */\n    tag_203:\n        /* \"2. Solidity/Projet1/VotingPlus.sol\":13341:13345  bool */\n      0x00\n        /* \"2. Solidity/Projet1/VotingPlus.sol\":13363:13369  uint i */\n      0x00\n        /* \"2. Solidity/Projet1/VotingPlus.sol\":13372:13373  0 */\n      0x00\n        /* \"2. Solidity/Projet1/VotingPlus.sol\":13363:13373  uint i = 0 */\n      swap1\n      pop\n        /* \"2. Solidity/Projet1/VotingPlus.sol\":13358:13526  for (uint i = 0; i < mostVotedProposalId.length; i++) {... */\n    tag_405:\n        /* \"2. Solidity/Projet1/VotingPlus.sol\":13379:13398  mostVotedProposalId */\n      0x06\n        /* \"2. Solidity/Projet1/VotingPlus.sol\":13379:13405  mostVotedProposalId.length */\n      dup1\n      sload\n      swap1\n      pop\n        /* \"2. Solidity/Projet1/VotingPlus.sol\":13375:13376  i */\n      dup2\n        /* \"2. Solidity/Projet1/VotingPlus.sol\":13375:13405  i < mostVotedProposalId.length */\n      lt\n        /* \"2. Solidity/Projet1/VotingPlus.sol\":13358:13526  for (uint i = 0; i < mostVotedProposalId.length; i++) {... */\n      iszero\n      tag_406\n      jumpi\n        /* \"2. Solidity/Projet1/VotingPlus.sol\":13457:13467  proposalId */\n      dup3\n        /* \"2. Solidity/Projet1/VotingPlus.sol\":13431:13450  mostVotedProposalId */\n      0x06\n        /* \"2. Solidity/Projet1/VotingPlus.sol\":13451:13452  i */\n      dup3\n        /* \"2. Solidity/Projet1/VotingPlus.sol\":13431:13453  mostVotedProposalId[i] */\n      dup2\n      sload\n      dup2\n      lt\n      tag_408\n      jumpi\n      tag_409\n      tag_118\n      jump\t// in\n    tag_409:\n    tag_408:\n      swap1\n      0x00\n      mstore\n      keccak256(0x00, 0x20)\n      add\n      sload\n        /* \"2. Solidity/Projet1/VotingPlus.sol\":13431:13467  mostVotedProposalId[i] == proposalId */\n      sub\n        /* \"2. Solidity/Projet1/VotingPlus.sol\":13427:13515  if (mostVotedProposalId[i] == proposalId) {... */\n      tag_411\n      jumpi\n        /* \"2. Solidity/Projet1/VotingPlus.sol\":13495:13499  true */\n      0x01\n        /* \"2. Solidity/Projet1/VotingPlus.sol\":13488:13499  return true */\n      swap2\n      pop\n      pop\n      jump(tag_404)\n        /* \"2. Solidity/Projet1/VotingPlus.sol\":13427:13515  if (mostVotedProposalId[i] == proposalId) {... */\n    tag_411:\n        /* \"2. Solidity/Projet1/VotingPlus.sol\":13407:13410  i++ */\n      dup1\n      dup1\n      0x01\n      add\n      swap2\n      pop\n      pop\n        /* \"2. Solidity/Projet1/VotingPlus.sol\":13358:13526  for (uint i = 0; i < mostVotedProposalId.length; i++) {... */\n      jump(tag_405)\n    tag_406:\n      pop\n        /* \"2. Solidity/Projet1/VotingPlus.sol\":13543:13548  false */\n      0x00\n        /* \"2. Solidity/Projet1/VotingPlus.sol\":13536:13548  return false */\n      swap1\n      pop\n        /* \"2. Solidity/Projet1/VotingPlus.sol\":13271:13556  function isProposalInMostVoted(uint proposalId) private view returns (bool) {... */\n    tag_404:\n      swap2\n      swap1\n      pop\n      jump\t// out\n        /* \"2. Solidity/Projet1/VotingPlus.sol\":6963:7233  function resetVotersVote() private {... */\n    tag_206:\n        /* \"2. Solidity/Projet1/VotingPlus.sol\":7013:7019  uint i */\n      0x00\n        /* \"2. Solidity/Projet1/VotingPlus.sol\":7020:7021  0 */\n      0x00\n        /* \"2. Solidity/Projet1/VotingPlus.sol\":7013:7021  uint i=0 */\n      swap1\n      pop\n        /* \"2. Solidity/Projet1/VotingPlus.sol\":7009:7226  for(uint i=0; i < votersAddress.length; i++){... */\n    tag_413:\n        /* \"2. Solidity/Projet1/VotingPlus.sol\":7027:7040  votersAddress */\n      0x07\n        /* \"2. Solidity/Projet1/VotingPlus.sol\":7027:7047  votersAddress.length */\n      dup1\n      sload\n      swap1\n      pop\n        /* \"2. Solidity/Projet1/VotingPlus.sol\":7023:7024  i */\n      dup2\n        /* \"2. Solidity/Projet1/VotingPlus.sol\":7023:7047  i < votersAddress.length */\n      lt\n        /* \"2. Solidity/Projet1/VotingPlus.sol\":7009:7226  for(uint i=0; i < votersAddress.length; i++){... */\n      iszero\n      tag_414\n      jumpi\n        /* \"2. Solidity/Projet1/VotingPlus.sol\":7127:7132  false */\n      0x00\n        /* \"2. Solidity/Projet1/VotingPlus.sol\":7068:7081  sessionVoters */\n      0x01\n        /* \"2. Solidity/Projet1/VotingPlus.sol\":7068:7097  sessionVoters[currentSession] */\n      0x00\n        /* \"2. Solidity/Projet1/VotingPlus.sol\":7082:7096  currentSession */\n      sload(0x09)\n        /* \"2. Solidity/Projet1/VotingPlus.sol\":7068:7097  sessionVoters[currentSession] */\n      dup2\n      mstore\n      0x20\n      add\n      swap1\n      dup2\n      mstore\n      0x20\n      add\n      0x00\n      keccak256\n        /* \"2. Solidity/Projet1/VotingPlus.sol\":7068:7115  sessionVoters[currentSession][votersAddress[i]] */\n      0x00\n        /* \"2. Solidity/Projet1/VotingPlus.sol\":7098:7111  votersAddress */\n      0x07\n        /* \"2. Solidity/Projet1/VotingPlus.sol\":7112:7113  i */\n      dup5\n        /* \"2. Solidity/Projet1/VotingPlus.sol\":7098:7114  votersAddress[i] */\n      dup2\n      sload\n      dup2\n      lt\n      tag_416\n      jumpi\n      tag_417\n      tag_118\n      jump\t// in\n    tag_417:\n    tag_416:\n      swap1\n      0x00\n      mstore\n      keccak256(0x00, 0x20)\n      add\n      0x00\n      swap1\n      sload\n      swap1\n      0x0100\n      exp\n      swap1\n      div\n      0xffffffffffffffffffffffffffffffffffffffff\n      and\n        /* \"2. Solidity/Projet1/VotingPlus.sol\":7068:7115  sessionVoters[currentSession][votersAddress[i]] */\n      0xffffffffffffffffffffffffffffffffffffffff\n      and\n      0xffffffffffffffffffffffffffffffffffffffff\n      and\n      dup2\n      mstore\n      0x20\n      add\n      swap1\n      dup2\n      mstore\n      0x20\n      add\n      0x00\n      keccak256\n        /* \"2. Solidity/Projet1/VotingPlus.sol\":7068:7124  sessionVoters[currentSession][votersAddress[i]].hasVoted */\n      0x00\n      add\n      0x01\n        /* \"2. Solidity/Projet1/VotingPlus.sol\":7068:7132  sessionVoters[currentSession][votersAddress[i]].hasVoted = false */\n      0x0100\n      exp\n      dup2\n      sload\n      dup2\n      0xff\n      mul\n      not\n      and\n      swap1\n      dup4\n      iszero\n      iszero\n      mul\n      or\n      swap1\n      sstore\n      pop\n        /* \"2. Solidity/Projet1/VotingPlus.sol\":7213:7214  0 */\n      0x00\n        /* \"2. Solidity/Projet1/VotingPlus.sol\":7147:7160  sessionVoters */\n      0x01\n        /* \"2. Solidity/Projet1/VotingPlus.sol\":7147:7176  sessionVoters[currentSession] */\n      0x00\n        /* \"2. Solidity/Projet1/VotingPlus.sol\":7161:7175  currentSession */\n      sload(0x09)\n        /* \"2. Solidity/Projet1/VotingPlus.sol\":7147:7176  sessionVoters[currentSession] */\n      dup2\n      mstore\n      0x20\n      add\n      swap1\n      dup2\n      mstore\n      0x20\n      add\n      0x00\n      keccak256\n        /* \"2. Solidity/Projet1/VotingPlus.sol\":7147:7194  sessionVoters[currentSession][votersAddress[i]] */\n      0x00\n        /* \"2. Solidity/Projet1/VotingPlus.sol\":7177:7190  votersAddress */\n      0x07\n        /* \"2. Solidity/Projet1/VotingPlus.sol\":7191:7192  i */\n      dup5\n        /* \"2. Solidity/Projet1/VotingPlus.sol\":7177:7193  votersAddress[i] */\n      dup2\n      sload\n      dup2\n      lt\n      tag_419\n      jumpi\n      tag_420\n      tag_118\n      jump\t// in\n    tag_420:\n    tag_419:\n      swap1\n      0x00\n      mstore\n      keccak256(0x00, 0x20)\n      add\n      0x00\n      swap1\n      sload\n      swap1\n      0x0100\n      exp\n      swap1\n      div\n      0xffffffffffffffffffffffffffffffffffffffff\n      and\n        /* \"2. Solidity/Projet1/VotingPlus.sol\":7147:7194  sessionVoters[currentSession][votersAddress[i]] */\n      0xffffffffffffffffffffffffffffffffffffffff\n      and\n      0xffffffffffffffffffffffffffffffffffffffff\n      and\n      dup2\n      mstore\n      0x20\n      add\n      swap1\n      dup2\n      mstore\n      0x20\n      add\n      0x00\n      keccak256\n        /* \"2. Solidity/Projet1/VotingPlus.sol\":7147:7210  sessionVoters[currentSession][votersAddress[i]].votedProposalId */\n      0x01\n      add\n        /* \"2. Solidity/Projet1/VotingPlus.sol\":7147:7214  sessionVoters[currentSession][votersAddress[i]].votedProposalId = 0 */\n      dup2\n      swap1\n      sstore\n      pop\n        /* \"2. Solidity/Projet1/VotingPlus.sol\":7049:7052  i++ */\n      dup1\n      dup1\n      0x01\n      add\n      swap2\n      pop\n      pop\n        /* \"2. Solidity/Projet1/VotingPlus.sol\":7009:7226  for(uint i=0; i < votersAddress.length; i++){... */\n      jump(tag_413)\n    tag_414:\n      pop\n        /* \"2. Solidity/Projet1/VotingPlus.sol\":6963:7233  function resetVotersVote() private {... */\n      jump\t// out\n        /* \"2. Solidity/Projet1/VotingPlus.sol\":7760:7955  function resetProposalCount() private {... */\n    tag_208:\n        /* \"2. Solidity/Projet1/VotingPlus.sol\":7813:7819  uint i */\n      0x00\n        /* \"2. Solidity/Projet1/VotingPlus.sol\":7820:7821  0 */\n      0x00\n        /* \"2. Solidity/Projet1/VotingPlus.sol\":7813:7821  uint i=0 */\n      swap1\n      pop\n        /* \"2. Solidity/Projet1/VotingPlus.sol\":7809:7948  for(uint i=0; i < sessionProposals[currentSession].length; i++){... */\n    tag_423:\n        /* \"2. Solidity/Projet1/VotingPlus.sol\":7827:7843  sessionProposals */\n      0x02\n        /* \"2. Solidity/Projet1/VotingPlus.sol\":7827:7859  sessionProposals[currentSession] */\n      0x00\n        /* \"2. Solidity/Projet1/VotingPlus.sol\":7844:7858  currentSession */\n      sload(0x09)\n        /* \"2. Solidity/Projet1/VotingPlus.sol\":7827:7859  sessionProposals[currentSession] */\n      dup2\n      mstore\n      0x20\n      add\n      swap1\n      dup2\n      mstore\n      0x20\n      add\n      0x00\n      keccak256\n        /* \"2. Solidity/Projet1/VotingPlus.sol\":7827:7866  sessionProposals[currentSession].length */\n      dup1\n      sload\n      swap1\n      pop\n        /* \"2. Solidity/Projet1/VotingPlus.sol\":7823:7824  i */\n      dup2\n        /* \"2. Solidity/Projet1/VotingPlus.sol\":7823:7866  i < sessionProposals[currentSession].length */\n      lt\n        /* \"2. Solidity/Projet1/VotingPlus.sol\":7809:7948  for(uint i=0; i < sessionProposals[currentSession].length; i++){... */\n      iszero\n      tag_424\n      jumpi\n        /* \"2. Solidity/Projet1/VotingPlus.sol\":7935:7936  0 */\n      0x00\n        /* \"2. Solidity/Projet1/VotingPlus.sol\":7887:7903  sessionProposals */\n      0x02\n        /* \"2. Solidity/Projet1/VotingPlus.sol\":7887:7919  sessionProposals[currentSession] */\n      0x00\n        /* \"2. Solidity/Projet1/VotingPlus.sol\":7904:7918  currentSession */\n      sload(0x09)\n        /* \"2. Solidity/Projet1/VotingPlus.sol\":7887:7919  sessionProposals[currentSession] */\n      dup2\n      mstore\n      0x20\n      add\n      swap1\n      dup2\n      mstore\n      0x20\n      add\n      0x00\n      keccak256\n        /* \"2. Solidity/Projet1/VotingPlus.sol\":7920:7921  i */\n      dup3\n        /* \"2. Solidity/Projet1/VotingPlus.sol\":7887:7922  sessionProposals[currentSession][i] */\n      dup2\n      sload\n      dup2\n      lt\n      tag_426\n      jumpi\n      tag_427\n      tag_118\n      jump\t// in\n    tag_427:\n    tag_426:\n      swap1\n      0x00\n      mstore\n      keccak256(0x00, 0x20)\n      swap1\n      0x02\n      mul\n      add\n        /* \"2. Solidity/Projet1/VotingPlus.sol\":7887:7932  sessionProposals[currentSession][i].voteCount */\n      0x01\n      add\n        /* \"2. Solidity/Projet1/VotingPlus.sol\":7887:7936  sessionProposals[currentSession][i].voteCount = 0 */\n      dup2\n      swap1\n      sstore\n      pop\n        /* \"2. Solidity/Projet1/VotingPlus.sol\":7868:7871  i++ */\n      dup1\n      dup1\n      0x01\n      add\n      swap2\n      pop\n      pop\n        /* \"2. Solidity/Projet1/VotingPlus.sol\":7809:7948  for(uint i=0; i < sessionProposals[currentSession].length; i++){... */\n      jump(tag_423)\n    tag_424:\n      pop\n        /* \"2. Solidity/Projet1/VotingPlus.sol\":7760:7955  function resetProposalCount() private {... */\n      jump\t// out\n        /* \"2. Solidity/Projet1/VotingPlus.sol\":13564:13790  function getRandomNumber(uint _range) private view returns (uint) {... */\n    tag_213:\n        /* \"2. Solidity/Projet1/VotingPlus.sol\":13624:13628  uint */\n      0x00\n        /* \"2. Solidity/Projet1/VotingPlus.sol\":13641:13659  uint _randomNumber */\n      0x00\n        /* \"2. Solidity/Projet1/VotingPlus.sol\":13694:13709  block.timestamp */\n      timestamp\n        /* \"2. Solidity/Projet1/VotingPlus.sol\":13711:13727  block.prevrandao */\n      prevrandao\n        /* \"2. Solidity/Projet1/VotingPlus.sol\":13729:13739  msg.sender */\n      caller\n        /* \"2. Solidity/Projet1/VotingPlus.sol\":13677:13740  abi.encodePacked(block.timestamp, block.prevrandao, msg.sender) */\n      add(0x20, mload(0x40))\n      tag_430\n      swap4\n      swap3\n      swap2\n      swap1\n      tag_431\n      jump\t// in\n    tag_430:\n      mload(0x40)\n      0x20\n      dup2\n      dup4\n      sub\n      sub\n      dup2\n      mstore\n      swap1\n      0x40\n      mstore\n        /* \"2. Solidity/Projet1/VotingPlus.sol\":13667:13741  keccak256(abi.encodePacked(block.timestamp, block.prevrandao, msg.sender)) */\n      dup1\n      mload\n      swap1\n      0x20\n      add\n      keccak256\n        /* \"2. Solidity/Projet1/VotingPlus.sol\":13662:13742  uint(keccak256(abi.encodePacked(block.timestamp, block.prevrandao, msg.sender))) */\n      0x00\n      shr\n        /* \"2. Solidity/Projet1/VotingPlus.sol\":13641:13742  uint _randomNumber = uint(keccak256(abi.encodePacked(block.timestamp, block.prevrandao, msg.sender))) */\n      swap1\n      pop\n        /* \"2. Solidity/Projet1/VotingPlus.sol\":13776:13782  _range */\n      dup3\n        /* \"2. Solidity/Projet1/VotingPlus.sol\":13760:13773  _randomNumber */\n      dup2\n        /* \"2. Solidity/Projet1/VotingPlus.sol\":13760:13782  _randomNumber % _range */\n      tag_432\n      swap2\n      swap1\n      tag_433\n      jump\t// in\n    tag_432:\n        /* \"2. Solidity/Projet1/VotingPlus.sol\":13753:13782  return _randomNumber % _range */\n      swap2\n      pop\n      pop\n        /* \"2. Solidity/Projet1/VotingPlus.sol\":13564:13790  function getRandomNumber(uint _range) private view returns (uint) {... */\n      swap2\n      swap1\n      pop\n      jump\t// out\n        /* \"https://github.com/OpenZeppelin/openzeppelin-contracts/blob/master/contracts/access/Ownable.sol\":2912:3099  function _transferOwnership(address newOwner) internal virtual {... */\n    tag_265:\n        /* \"https://github.com/OpenZeppelin/openzeppelin-contracts/blob/master/contracts/access/Ownable.sol\":2985:3001  address oldOwner */\n      0x00\n        /* \"https://github.com/OpenZeppelin/openzeppelin-contracts/blob/master/contracts/access/Ownable.sol\":3004:3010  _owner */\n      0x00\n      0x00\n      swap1\n      sload\n      swap1\n      0x0100\n      exp\n      swap1\n      div\n      0xffffffffffffffffffffffffffffffffffffffff\n      and\n        /* \"https://github.com/OpenZeppelin/openzeppelin-contracts/blob/master/contracts/access/Ownable.sol\":2985:3010  address oldOwner = _owner */\n      swap1\n      pop\n        /* \"https://github.com/OpenZeppelin/openzeppelin-contracts/blob/master/contracts/access/Ownable.sol\":3029:3037  newOwner */\n      dup2\n        /* \"https://github.com/OpenZeppelin/openzeppelin-contracts/blob/master/contracts/access/Ownable.sol\":3020:3026  _owner */\n      0x00\n      0x00\n        /* \"https://github.com/OpenZeppelin/openzeppelin-contracts/blob/master/contracts/access/Ownable.sol\":3020:3037  _owner = newOwner */\n      0x0100\n      exp\n      dup2\n      sload\n      dup2\n      0xffffffffffffffffffffffffffffffffffffffff\n      mul\n      not\n      and\n      swap1\n      dup4\n      0xffffffffffffffffffffffffffffffffffffffff\n      and\n      mul\n      or\n      swap1\n      sstore\n      pop\n        /* \"https://github.com/OpenZeppelin/openzeppelin-contracts/blob/master/contracts/access/Ownable.sol\":3083:3091  newOwner */\n      dup2\n        /* \"https://github.com/OpenZeppelin/openzeppelin-contracts/blob/master/contracts/access/Ownable.sol\":3052:3092  OwnershipTransferred(oldOwner, newOwner) */\n      0xffffffffffffffffffffffffffffffffffffffff\n      and\n        /* \"https://github.com/OpenZeppelin/openzeppelin-contracts/blob/master/contracts/access/Ownable.sol\":3073:3081  oldOwner */\n      dup2\n        /* \"https://github.com/OpenZeppelin/openzeppelin-contracts/blob/master/contracts/access/Ownable.sol\":3052:3092  OwnershipTransferred(oldOwner, newOwner) */\n      0xffffffffffffffffffffffffffffffffffffffff\n      and\n      0x8be0079c531659141344cd1fd0a4f28419497f9722a3daafe3b4186f6b6457e0\n      mload(0x40)\n      mload(0x40)\n      dup1\n      swap2\n      sub\n      swap1\n      log3\n        /* \"https://github.com/OpenZeppelin/openzeppelin-contracts/blob/master/contracts/access/Ownable.sol\":2975:3099  {... */\n      pop\n        /* \"https://github.com/OpenZeppelin/openzeppelin-contracts/blob/master/contracts/access/Ownable.sol\":2912:3099  function _transferOwnership(address newOwner) internal virtual {... */\n      pop\n      jump\t// out\n        /* \"2. Solidity/Projet1/VotingPlus.sol\":8022:8224  function setSessionProposalToActive() private{... */\n    tag_351:\n        /* \"2. Solidity/Projet1/VotingPlus.sol\":8083:8089  uint i */\n      0x00\n        /* \"2. Solidity/Projet1/VotingPlus.sol\":8090:8091  0 */\n      0x00\n        /* \"2. Solidity/Projet1/VotingPlus.sol\":8083:8091  uint i=0 */\n      swap1\n      pop\n        /* \"2. Solidity/Projet1/VotingPlus.sol\":8078:8217  for (uint i=0; i < sessionProposals[currentSession].length; i++){... */\n    tag_436:\n        /* \"2. Solidity/Projet1/VotingPlus.sol\":8097:8113  sessionProposals */\n      0x02\n        /* \"2. Solidity/Projet1/VotingPlus.sol\":8097:8129  sessionProposals[currentSession] */\n      0x00\n        /* \"2. Solidity/Projet1/VotingPlus.sol\":8114:8128  currentSession */\n      sload(0x09)\n        /* \"2. Solidity/Projet1/VotingPlus.sol\":8097:8129  sessionProposals[currentSession] */\n      dup2\n      mstore\n      0x20\n      add\n      swap1\n      dup2\n      mstore\n      0x20\n      add\n      0x00\n      keccak256\n        /* \"2. Solidity/Projet1/VotingPlus.sol\":8097:8136  sessionProposals[currentSession].length */\n      dup1\n      sload\n      swap1\n      pop\n        /* \"2. Solidity/Projet1/VotingPlus.sol\":8093:8094  i */\n      dup2\n        /* \"2. Solidity/Projet1/VotingPlus.sol\":8093:8136  i < sessionProposals[currentSession].length */\n      lt\n        /* \"2. Solidity/Projet1/VotingPlus.sol\":8078:8217  for (uint i=0; i < sessionProposals[currentSession].length; i++){... */\n      iszero\n      tag_437\n      jumpi\n        /* \"2. Solidity/Projet1/VotingPlus.sol\":8201:8205  true */\n      0x01\n        /* \"2. Solidity/Projet1/VotingPlus.sol\":8157:8179  sessionActiveProposals */\n      0x03\n        /* \"2. Solidity/Projet1/VotingPlus.sol\":8157:8195  sessionActiveProposals[currentSession] */\n      0x00\n        /* \"2. Solidity/Projet1/VotingPlus.sol\":8180:8194  currentSession */\n      sload(0x09)\n        /* \"2. Solidity/Projet1/VotingPlus.sol\":8157:8195  sessionActiveProposals[currentSession] */\n      dup2\n      mstore\n      0x20\n      add\n      swap1\n      dup2\n      mstore\n      0x20\n      add\n      0x00\n      keccak256\n        /* \"2. Solidity/Projet1/VotingPlus.sol\":8157:8198  sessionActiveProposals[currentSession][i] */\n      0x00\n        /* \"2. Solidity/Projet1/VotingPlus.sol\":8196:8197  i */\n      dup4\n        /* \"2. Solidity/Projet1/VotingPlus.sol\":8157:8198  sessionActiveProposals[currentSession][i] */\n      dup2\n      mstore\n      0x20\n      add\n      swap1\n      dup2\n      mstore\n      0x20\n      add\n      0x00\n      keccak256\n      0x00\n        /* \"2. Solidity/Projet1/VotingPlus.sol\":8157:8205  sessionActiveProposals[currentSession][i] = true */\n      0x0100\n      exp\n      dup2\n      sload\n      dup2\n      0xff\n      mul\n      not\n      and\n      swap1\n      dup4\n      iszero\n      iszero\n      mul\n      or\n      swap1\n      sstore\n      pop\n        /* \"2. Solidity/Projet1/VotingPlus.sol\":8138:8141  i++ */\n      dup1\n      dup1\n      0x01\n      add\n      swap2\n      pop\n      pop\n        /* \"2. Solidity/Projet1/VotingPlus.sol\":8078:8217  for (uint i=0; i < sessionProposals[currentSession].length; i++){... */\n      jump(tag_436)\n    tag_437:\n      pop\n        /* \"2. Solidity/Projet1/VotingPlus.sol\":8022:8224  function setSessionProposalToActive() private{... */\n      jump\t// out\n        /* \"https://github.com/OpenZeppelin/openzeppelin-contracts/blob/master/contracts/utils/Context.sol\":656:752  function _msgSender() internal view virtual returns (address) {... */\n    tag_399:\n        /* \"https://github.com/OpenZeppelin/openzeppelin-contracts/blob/master/contracts/utils/Context.sol\":709:716  address */\n      0x00\n        /* \"https://github.com/OpenZeppelin/openzeppelin-contracts/blob/master/contracts/utils/Context.sol\":735:745  msg.sender */\n      caller\n        /* \"https://github.com/OpenZeppelin/openzeppelin-contracts/blob/master/contracts/utils/Context.sol\":728:745  return msg.sender */\n      swap1\n      pop\n        /* \"https://github.com/OpenZeppelin/openzeppelin-contracts/blob/master/contracts/utils/Context.sol\":656:752  function _msgSender() internal view virtual returns (address) {... */\n      swap1\n      jump\t// out\n    tag_210:\n      pop\n      dup1\n      sload\n      0x00\n      dup3\n      sstore\n      swap1\n      0x00\n      mstore\n      keccak256(0x00, 0x20)\n      swap1\n      dup2\n      add\n      swap1\n      tag_441\n      swap2\n      swap1\n      tag_442\n      jump\t// in\n    tag_441:\n      pop\n      jump\t// out\n    tag_250:\n      mload(0x40)\n      dup1\n      0x40\n      add\n      0x40\n      mstore\n      dup1\n      0x60\n      dup2\n      mstore\n      0x20\n      add\n      0x00\n      dup2\n      mstore\n      pop\n      swap1\n      jump\t// out\n    tag_384:\n      pop\n      dup1\n      sload\n      0x00\n      dup3\n      sstore\n      swap1\n      0x00\n      mstore\n      keccak256(0x00, 0x20)\n      swap1\n      dup2\n      add\n      swap1\n      tag_444\n      swap2\n      swap1\n      tag_442\n      jump\t// in\n    tag_444:\n      pop\n      jump\t// out\n    tag_442:\n    tag_445:\n      dup1\n      dup3\n      gt\n      iszero\n      tag_446\n      jumpi\n      0x00\n      dup2\n      0x00\n      swap1\n      sstore\n      pop\n      0x01\n      add\n      jump(tag_445)\n    tag_446:\n      pop\n      swap1\n      jump\t// out\n        /* \"#utility.yul\":88:205   */\n    tag_448:\n        /* \"#utility.yul\":197:198   */\n      0x00\n        /* \"#utility.yul\":194:195   */\n      0x00\n        /* \"#utility.yul\":187:199   */\n      revert\n        /* \"#utility.yul\":211:328   */\n    tag_449:\n        /* \"#utility.yul\":320:321   */\n      0x00\n        /* \"#utility.yul\":317:318   */\n      0x00\n        /* \"#utility.yul\":310:322   */\n      revert\n        /* \"#utility.yul\":334:411   */\n    tag_450:\n        /* \"#utility.yul\":371:378   */\n      0x00\n        /* \"#utility.yul\":400:405   */\n      dup2\n        /* \"#utility.yul\":389:405   */\n      swap1\n      pop\n        /* \"#utility.yul\":334:411   */\n      swap2\n      swap1\n      pop\n      jump\t// out\n        /* \"#utility.yul\":417:539   */\n    tag_451:\n        /* \"#utility.yul\":490:514   */\n      tag_539\n        /* \"#utility.yul\":508:513   */\n      dup2\n        /* \"#utility.yul\":490:514   */\n      tag_450\n      jump\t// in\n    tag_539:\n        /* \"#utility.yul\":483:488   */\n      dup2\n        /* \"#utility.yul\":480:515   */\n      eq\n        /* \"#utility.yul\":470:533   */\n      tag_540\n      jumpi\n        /* \"#utility.yul\":529:530   */\n      0x00\n        /* \"#utility.yul\":526:527   */\n      0x00\n        /* \"#utility.yul\":519:531   */\n      revert\n        /* \"#utility.yul\":470:533   */\n    tag_540:\n        /* \"#utility.yul\":417:539   */\n      pop\n      jump\t// out\n        /* \"#utility.yul\":545:684   */\n    tag_452:\n        /* \"#utility.yul\":591:596   */\n      0x00\n        /* \"#utility.yul\":629:635   */\n      dup2\n        /* \"#utility.yul\":616:636   */\n      calldataload\n        /* \"#utility.yul\":607:636   */\n      swap1\n      pop\n        /* \"#utility.yul\":645:678   */\n      tag_542\n        /* \"#utility.yul\":672:677   */\n      dup2\n        /* \"#utility.yul\":645:678   */\n      tag_451\n      jump\t// in\n    tag_542:\n        /* \"#utility.yul\":545:684   */\n      swap3\n      swap2\n      pop\n      pop\n      jump\t// out\n        /* \"#utility.yul\":690:1019   */\n    tag_28:\n        /* \"#utility.yul\":749:755   */\n      0x00\n        /* \"#utility.yul\":798:800   */\n      0x20\n        /* \"#utility.yul\":786:795   */\n      dup3\n        /* \"#utility.yul\":777:784   */\n      dup5\n        /* \"#utility.yul\":773:796   */\n      sub\n        /* \"#utility.yul\":769:801   */\n      slt\n        /* \"#utility.yul\":766:885   */\n      iszero\n      tag_544\n      jumpi\n        /* \"#utility.yul\":804:883   */\n      tag_545\n      tag_448\n      jump\t// in\n    tag_545:\n        /* \"#utility.yul\":766:885   */\n    tag_544:\n        /* \"#utility.yul\":924:925   */\n      0x00\n        /* \"#utility.yul\":949:1002   */\n      tag_546\n        /* \"#utility.yul\":994:1001   */\n      dup5\n        /* \"#utility.yul\":985:991   */\n      dup3\n        /* \"#utility.yul\":974:983   */\n      dup6\n        /* \"#utility.yul\":970:992   */\n      add\n        /* \"#utility.yul\":949:1002   */\n      tag_452\n      jump\t// in\n    tag_546:\n        /* \"#utility.yul\":939:1002   */\n      swap2\n      pop\n        /* \"#utility.yul\":895:1012   */\n      pop\n        /* \"#utility.yul\":690:1019   */\n      swap3\n      swap2\n      pop\n      pop\n      jump\t// out\n        /* \"#utility.yul\":1025:1205   */\n    tag_100:\n        /* \"#utility.yul\":1073:1150   */\n      0x4e487b7100000000000000000000000000000000000000000000000000000000\n        /* \"#utility.yul\":1070:1071   */\n      0x00\n        /* \"#utility.yul\":1063:1151   */\n      mstore\n        /* \"#utility.yul\":1170:1174   */\n      0x21\n        /* \"#utility.yul\":1167:1168   */\n      0x04\n        /* \"#utility.yul\":1160:1175   */\n      mstore\n        /* \"#utility.yul\":1194:1198   */\n      0x24\n        /* \"#utility.yul\":1191:1192   */\n      0x00\n        /* \"#utility.yul\":1184:1199   */\n      revert\n        /* \"#utility.yul\":1211:1333   */\n    tag_453:\n        /* \"#utility.yul\":1301:1302   */\n      0x06\n        /* \"#utility.yul\":1294:1299   */\n      dup2\n        /* \"#utility.yul\":1291:1303   */\n      lt\n        /* \"#utility.yul\":1281:1327   */\n      tag_549\n      jumpi\n        /* \"#utility.yul\":1307:1325   */\n      tag_550\n      tag_100\n      jump\t// in\n    tag_550:\n        /* \"#utility.yul\":1281:1327   */\n    tag_549:\n        /* \"#utility.yul\":1211:1333   */\n      pop\n      jump\t// out\n        /* \"#utility.yul\":1339:1484   */\n    tag_454:\n        /* \"#utility.yul\":1393:1400   */\n      0x00\n        /* \"#utility.yul\":1422:1427   */\n      dup2\n        /* \"#utility.yul\":1411:1427   */\n      swap1\n      pop\n        /* \"#utility.yul\":1428:1478   */\n      tag_552\n        /* \"#utility.yul\":1472:1477   */\n      dup3\n        /* \"#utility.yul\":1428:1478   */\n      tag_453\n      jump\t// in\n    tag_552:\n        /* \"#utility.yul\":1339:1484   */\n      swap2\n      swap1\n      pop\n      jump\t// out\n        /* \"#utility.yul\":1490:1635   */\n    tag_455:\n        /* \"#utility.yul\":1555:1564   */\n      0x00\n        /* \"#utility.yul\":1588:1629   */\n      tag_554\n        /* \"#utility.yul\":1623:1628   */\n      dup3\n        /* \"#utility.yul\":1588:1629   */\n      tag_454\n      jump\t// in\n    tag_554:\n        /* \"#utility.yul\":1575:1629   */\n      swap1\n      pop\n        /* \"#utility.yul\":1490:1635   */\n      swap2\n      swap1\n      pop\n      jump\t// out\n        /* \"#utility.yul\":1641:1802   */\n    tag_456:\n        /* \"#utility.yul\":1743:1795   */\n      tag_556\n        /* \"#utility.yul\":1789:1794   */\n      dup2\n        /* \"#utility.yul\":1743:1795   */\n      tag_455\n      jump\t// in\n    tag_556:\n        /* \"#utility.yul\":1738:1741   */\n      dup3\n        /* \"#utility.yul\":1731:1796   */\n      mstore\n        /* \"#utility.yul\":1641:1802   */\n      pop\n      pop\n      jump\t// out\n        /* \"#utility.yul\":1808:2060   */\n    tag_35:\n        /* \"#utility.yul\":1916:1920   */\n      0x00\n        /* \"#utility.yul\":1954:1956   */\n      0x20\n        /* \"#utility.yul\":1943:1952   */\n      dup3\n        /* \"#utility.yul\":1939:1957   */\n      add\n        /* \"#utility.yul\":1931:1957   */\n      swap1\n      pop\n        /* \"#utility.yul\":1967:2053   */\n      tag_558\n        /* \"#utility.yul\":2050:2051   */\n      0x00\n        /* \"#utility.yul\":2039:2048   */\n      dup4\n        /* \"#utility.yul\":2035:2052   */\n      add\n        /* \"#utility.yul\":2026:2032   */\n      dup5\n        /* \"#utility.yul\":1967:2053   */\n      tag_456\n      jump\t// in\n    tag_558:\n        /* \"#utility.yul\":1808:2060   */\n      swap3\n      swap2\n      pop\n      pop\n      jump\t// out\n        /* \"#utility.yul\":2066:2183   */\n    tag_457:\n        /* \"#utility.yul\":2175:2176   */\n      0x00\n        /* \"#utility.yul\":2172:2173   */\n      0x00\n        /* \"#utility.yul\":2165:2177   */\n      revert\n        /* \"#utility.yul\":2189:2306   */\n    tag_458:\n        /* \"#utility.yul\":2298:2299   */\n      0x00\n        /* \"#utility.yul\":2295:2296   */\n      0x00\n        /* \"#utility.yul\":2288:2300   */\n      revert\n        /* \"#utility.yul\":2312:2429   */\n    tag_459:\n        /* \"#utility.yul\":2421:2422   */\n      0x00\n        /* \"#utility.yul\":2418:2419   */\n      0x00\n        /* \"#utility.yul\":2411:2423   */\n      revert\n        /* \"#utility.yul\":2449:3002   */\n    tag_460:\n        /* \"#utility.yul\":2507:2515   */\n      0x00\n        /* \"#utility.yul\":2517:2523   */\n      0x00\n        /* \"#utility.yul\":2567:2570   */\n      dup4\n        /* \"#utility.yul\":2560:2564   */\n      0x1f\n        /* \"#utility.yul\":2552:2558   */\n      dup5\n        /* \"#utility.yul\":2548:2565   */\n      add\n        /* \"#utility.yul\":2544:2571   */\n      slt\n        /* \"#utility.yul\":2534:2656   */\n      tag_563\n      jumpi\n        /* \"#utility.yul\":2575:2654   */\n      tag_564\n      tag_457\n      jump\t// in\n    tag_564:\n        /* \"#utility.yul\":2534:2656   */\n    tag_563:\n        /* \"#utility.yul\":2688:2694   */\n      dup3\n        /* \"#utility.yul\":2675:2695   */\n      calldataload\n        /* \"#utility.yul\":2665:2695   */\n      swap1\n      pop\n        /* \"#utility.yul\":2718:2736   */\n      0xffffffffffffffff\n        /* \"#utility.yul\":2710:2716   */\n      dup2\n        /* \"#utility.yul\":2707:2737   */\n      gt\n        /* \"#utility.yul\":2704:2821   */\n      iszero\n      tag_565\n      jumpi\n        /* \"#utility.yul\":2740:2819   */\n      tag_566\n      tag_458\n      jump\t// in\n    tag_566:\n        /* \"#utility.yul\":2704:2821   */\n    tag_565:\n        /* \"#utility.yul\":2854:2858   */\n      0x20\n        /* \"#utility.yul\":2846:2852   */\n      dup4\n        /* \"#utility.yul\":2842:2859   */\n      add\n        /* \"#utility.yul\":2830:2859   */\n      swap2\n      pop\n        /* \"#utility.yul\":2908:2911   */\n      dup4\n        /* \"#utility.yul\":2900:2904   */\n      0x01\n        /* \"#utility.yul\":2892:2898   */\n      dup3\n        /* \"#utility.yul\":2888:2905   */\n      mul\n        /* \"#utility.yul\":2878:2886   */\n      dup4\n        /* \"#utility.yul\":2874:2906   */\n      add\n        /* \"#utility.yul\":2871:2912   */\n      gt\n        /* \"#utility.yul\":2868:2996   */\n      iszero\n      tag_567\n      jumpi\n        /* \"#utility.yul\":2915:2994   */\n      tag_568\n      tag_459\n      jump\t// in\n    tag_568:\n        /* \"#utility.yul\":2868:2996   */\n    tag_567:\n        /* \"#utility.yul\":2449:3002   */\n      swap3\n      pop\n      swap3\n      swap1\n      pop\n      jump\t// out\n        /* \"#utility.yul\":3008:3537   */\n    tag_38:\n        /* \"#utility.yul\":3079:3085   */\n      0x00\n        /* \"#utility.yul\":3087:3093   */\n      0x00\n        /* \"#utility.yul\":3136:3138   */\n      0x20\n        /* \"#utility.yul\":3124:3133   */\n      dup4\n        /* \"#utility.yul\":3115:3122   */\n      dup6\n        /* \"#utility.yul\":3111:3134   */\n      sub\n        /* \"#utility.yul\":3107:3139   */\n      slt\n        /* \"#utility.yul\":3104:3223   */\n      iszero\n      tag_570\n      jumpi\n        /* \"#utility.yul\":3142:3221   */\n      tag_571\n      tag_448\n      jump\t// in\n    tag_571:\n        /* \"#utility.yul\":3104:3223   */\n    tag_570:\n        /* \"#utility.yul\":3290:3291   */\n      0x00\n        /* \"#utility.yul\":3279:3288   */\n      dup4\n        /* \"#utility.yul\":3275:3292   */\n      add\n        /* \"#utility.yul\":3262:3293   */\n      calldataload\n        /* \"#utility.yul\":3320:3338   */\n      0xffffffffffffffff\n        /* \"#utility.yul\":3312:3318   */\n      dup2\n        /* \"#utility.yul\":3309:3339   */\n      gt\n        /* \"#utility.yul\":3306:3423   */\n      iszero\n      tag_572\n      jumpi\n        /* \"#utility.yul\":3342:3421   */\n      tag_573\n      tag_449\n      jump\t// in\n    tag_573:\n        /* \"#utility.yul\":3306:3423   */\n    tag_572:\n        /* \"#utility.yul\":3455:3520   */\n      tag_574\n        /* \"#utility.yul\":3512:3519   */\n      dup6\n        /* \"#utility.yul\":3503:3509   */\n      dup3\n        /* \"#utility.yul\":3492:3501   */\n      dup7\n        /* \"#utility.yul\":3488:3510   */\n      add\n        /* \"#utility.yul\":3455:3520   */\n      tag_460\n      jump\t// in\n    tag_574:\n        /* \"#utility.yul\":3437:3520   */\n      swap3\n      pop\n      swap3\n      pop\n        /* \"#utility.yul\":3233:3530   */\n      pop\n        /* \"#utility.yul\":3008:3537   */\n      swap3\n      pop\n      swap3\n      swap1\n      pop\n      jump\t// out\n        /* \"#utility.yul\":3560:4128   */\n    tag_461:\n        /* \"#utility.yul\":3633:3641   */\n      0x00\n        /* \"#utility.yul\":3643:3649   */\n      0x00\n        /* \"#utility.yul\":3693:3696   */\n      dup4\n        /* \"#utility.yul\":3686:3690   */\n      0x1f\n        /* \"#utility.yul\":3678:3684   */\n      dup5\n        /* \"#utility.yul\":3674:3691   */\n      add\n        /* \"#utility.yul\":3670:3697   */\n      slt\n        /* \"#utility.yul\":3660:3782   */\n      tag_576\n      jumpi\n        /* \"#utility.yul\":3701:3780   */\n      tag_577\n      tag_457\n      jump\t// in\n    tag_577:\n        /* \"#utility.yul\":3660:3782   */\n    tag_576:\n        /* \"#utility.yul\":3814:3820   */\n      dup3\n        /* \"#utility.yul\":3801:3821   */\n      calldataload\n        /* \"#utility.yul\":3791:3821   */\n      swap1\n      pop\n        /* \"#utility.yul\":3844:3862   */\n      0xffffffffffffffff\n        /* \"#utility.yul\":3836:3842   */\n      dup2\n        /* \"#utility.yul\":3833:3863   */\n      gt\n        /* \"#utility.yul\":3830:3947   */\n      iszero\n      tag_578\n      jumpi\n        /* \"#utility.yul\":3866:3945   */\n      tag_579\n      tag_458\n      jump\t// in\n    tag_579:\n        /* \"#utility.yul\":3830:3947   */\n    tag_578:\n        /* \"#utility.yul\":3980:3984   */\n      0x20\n        /* \"#utility.yul\":3972:3978   */\n      dup4\n        /* \"#utility.yul\":3968:3985   */\n      add\n        /* \"#utility.yul\":3956:3985   */\n      swap2\n      pop\n        /* \"#utility.yul\":4034:4037   */\n      dup4\n        /* \"#utility.yul\":4026:4030   */\n      0x20\n        /* \"#utility.yul\":4018:4024   */\n      dup3\n        /* \"#utility.yul\":4014:4031   */\n      mul\n        /* \"#utility.yul\":4004:4012   */\n      dup4\n        /* \"#utility.yul\":4000:4032   */\n      add\n        /* \"#utility.yul\":3997:4038   */\n      gt\n        /* \"#utility.yul\":3994:4122   */\n      iszero\n      tag_580\n      jumpi\n        /* \"#utility.yul\":4041:4120   */\n      tag_581\n      tag_459\n      jump\t// in\n    tag_581:\n        /* \"#utility.yul\":3994:4122   */\n    tag_580:\n        /* \"#utility.yul\":3560:4128   */\n      swap3\n      pop\n      swap3\n      swap1\n      pop\n      jump\t// out\n        /* \"#utility.yul\":4134:4693   */\n    tag_46:\n        /* \"#utility.yul\":4220:4226   */\n      0x00\n        /* \"#utility.yul\":4228:4234   */\n      0x00\n        /* \"#utility.yul\":4277:4279   */\n      0x20\n        /* \"#utility.yul\":4265:4274   */\n      dup4\n        /* \"#utility.yul\":4256:4263   */\n      dup6\n        /* \"#utility.yul\":4252:4275   */\n      sub\n        /* \"#utility.yul\":4248:4280   */\n      slt\n        /* \"#utility.yul\":4245:4364   */\n      iszero\n      tag_583\n      jumpi\n        /* \"#utility.yul\":4283:4362   */\n      tag_584\n      tag_448\n      jump\t// in\n    tag_584:\n        /* \"#utility.yul\":4245:4364   */\n    tag_583:\n        /* \"#utility.yul\":4431:4432   */\n      0x00\n        /* \"#utility.yul\":4420:4429   */\n      dup4\n        /* \"#utility.yul\":4416:4433   */\n      add\n        /* \"#utility.yul\":4403:4434   */\n      calldataload\n        /* \"#utility.yul\":4461:4479   */\n      0xffffffffffffffff\n        /* \"#utility.yul\":4453:4459   */\n      dup2\n        /* \"#utility.yul\":4450:4480   */\n      gt\n        /* \"#utility.yul\":4447:4564   */\n      iszero\n      tag_585\n      jumpi\n        /* \"#utility.yul\":4483:4562   */\n      tag_586\n      tag_449\n      jump\t// in\n    tag_586:\n        /* \"#utility.yul\":4447:4564   */\n    tag_585:\n        /* \"#utility.yul\":4596:4676   */\n      tag_587\n        /* \"#utility.yul\":4668:4675   */\n      dup6\n        /* \"#utility.yul\":4659:4665   */\n      dup3\n        /* \"#utility.yul\":4648:4657   */\n      dup7\n        /* \"#utility.yul\":4644:4666   */\n      add\n        /* \"#utility.yul\":4596:4676   */\n      tag_461\n      jump\t// in\n    tag_587:\n        /* \"#utility.yul\":4578:4676   */\n      swap3\n      pop\n      swap3\n      pop\n        /* \"#utility.yul\":4374:4686   */\n      pop\n        /* \"#utility.yul\":4134:4693   */\n      swap3\n      pop\n      swap3\n      swap1\n      pop\n      jump\t// out\n        /* \"#utility.yul\":4699:5173   */\n    tag_50:\n        /* \"#utility.yul\":4767:4773   */\n      0x00\n        /* \"#utility.yul\":4775:4781   */\n      0x00\n        /* \"#utility.yul\":4824:4826   */\n      0x40\n        /* \"#utility.yul\":4812:4821   */\n      dup4\n        /* \"#utility.yul\":4803:4810   */\n      dup6\n        /* \"#utility.yul\":4799:4822   */\n      sub\n        /* \"#utility.yul\":4795:4827   */\n      slt\n        /* \"#utility.yul\":4792:4911   */\n      iszero\n      tag_589\n      jumpi\n        /* \"#utility.yul\":4830:4909   */\n      tag_590\n      tag_448\n      jump\t// in\n    tag_590:\n        /* \"#utility.yul\":4792:4911   */\n    tag_589:\n        /* \"#utility.yul\":4950:4951   */\n      0x00\n        /* \"#utility.yul\":4975:5028   */\n      tag_591\n        /* \"#utility.yul\":5020:5027   */\n      dup6\n        /* \"#utility.yul\":5011:5017   */\n      dup3\n        /* \"#utility.yul\":5000:5009   */\n      dup7\n        /* \"#utility.yul\":4996:5018   */\n      add\n        /* \"#utility.yul\":4975:5028   */\n      tag_452\n      jump\t// in\n    tag_591:\n        /* \"#utility.yul\":4965:5028   */\n      swap3\n      pop\n        /* \"#utility.yul\":4921:5038   */\n      pop\n        /* \"#utility.yul\":5077:5079   */\n      0x20\n        /* \"#utility.yul\":5103:5156   */\n      tag_592\n        /* \"#utility.yul\":5148:5155   */\n      dup6\n        /* \"#utility.yul\":5139:5145   */\n      dup3\n        /* \"#utility.yul\":5128:5137   */\n      dup7\n        /* \"#utility.yul\":5124:5146   */\n      add\n        /* \"#utility.yul\":5103:5156   */\n      tag_452\n      jump\t// in\n    tag_592:\n        /* \"#utility.yul\":5093:5156   */\n      swap2\n      pop\n        /* \"#utility.yul\":5048:5166   */\n      pop\n        /* \"#utility.yul\":4699:5173   */\n      swap3\n      pop\n      swap3\n      swap1\n      pop\n      jump\t// out\n        /* \"#utility.yul\":5179:5278   */\n    tag_462:\n        /* \"#utility.yul\":5231:5237   */\n      0x00\n        /* \"#utility.yul\":5265:5270   */\n      dup2\n        /* \"#utility.yul\":5259:5271   */\n      mload\n        /* \"#utility.yul\":5249:5271   */\n      swap1\n      pop\n        /* \"#utility.yul\":5179:5278   */\n      swap2\n      swap1\n      pop\n      jump\t// out\n        /* \"#utility.yul\":5284:5443   */\n    tag_463:\n        /* \"#utility.yul\":5358:5369   */\n      0x00\n        /* \"#utility.yul\":5392:5398   */\n      dup3\n        /* \"#utility.yul\":5387:5390   */\n      dup3\n        /* \"#utility.yul\":5380:5399   */\n      mstore\n        /* \"#utility.yul\":5432:5436   */\n      0x20\n        /* \"#utility.yul\":5427:5430   */\n      dup3\n        /* \"#utility.yul\":5423:5437   */\n      add\n        /* \"#utility.yul\":5408:5437   */\n      swap1\n      pop\n        /* \"#utility.yul\":5284:5443   */\n      swap3\n      swap2\n      pop\n      pop\n      jump\t// out\n        /* \"#utility.yul\":5449:5588   */\n    tag_464:\n        /* \"#utility.yul\":5538:5544   */\n      dup3\n        /* \"#utility.yul\":5533:5536   */\n      dup2\n        /* \"#utility.yul\":5528:5531   */\n      dup4\n        /* \"#utility.yul\":5522:5545   */\n      mcopy\n        /* \"#utility.yul\":5579:5580   */\n      0x00\n        /* \"#utility.yul\":5570:5576   */\n      dup4\n        /* \"#utility.yul\":5565:5568   */\n      dup4\n        /* \"#utility.yul\":5561:5577   */\n      add\n        /* \"#utility.yul\":5554:5581   */\n      mstore\n        /* \"#utility.yul\":5449:5588   */\n      pop\n      pop\n      pop\n      jump\t// out\n        /* \"#utility.yul\":5594:5696   */\n    tag_465:\n        /* \"#utility.yul\":5635:5641   */\n      0x00\n        /* \"#utility.yul\":5686:5688   */\n      0x1f\n        /* \"#utility.yul\":5682:5689   */\n      not\n        /* \"#utility.yul\":5677:5679   */\n      0x1f\n        /* \"#utility.yul\":5670:5675   */\n      dup4\n        /* \"#utility.yul\":5666:5680   */\n      add\n        /* \"#utility.yul\":5662:5690   */\n      and\n        /* \"#utility.yul\":5652:5690   */\n      swap1\n      pop\n        /* \"#utility.yul\":5594:5696   */\n      swap2\n      swap1\n      pop\n      jump\t// out\n        /* \"#utility.yul\":5702:6059   */\n    tag_466:\n        /* \"#utility.yul\":5780:5783   */\n      0x00\n        /* \"#utility.yul\":5808:5847   */\n      tag_598\n        /* \"#utility.yul\":5841:5846   */\n      dup3\n        /* \"#utility.yul\":5808:5847   */\n      tag_462\n      jump\t// in\n    tag_598:\n        /* \"#utility.yul\":5863:5924   */\n      tag_599\n        /* \"#utility.yul\":5917:5923   */\n      dup2\n        /* \"#utility.yul\":5912:5915   */\n      dup6\n        /* \"#utility.yul\":5863:5924   */\n      tag_463\n      jump\t// in\n    tag_599:\n        /* \"#utility.yul\":5856:5924   */\n      swap4\n      pop\n        /* \"#utility.yul\":5933:5998   */\n      tag_600\n        /* \"#utility.yul\":5991:5997   */\n      dup2\n        /* \"#utility.yul\":5986:5989   */\n      dup6\n        /* \"#utility.yul\":5979:5983   */\n      0x20\n        /* \"#utility.yul\":5972:5977   */\n      dup7\n        /* \"#utility.yul\":5968:5984   */\n      add\n        /* \"#utility.yul\":5933:5998   */\n      tag_464\n      jump\t// in\n    tag_600:\n        /* \"#utility.yul\":6023:6052   */\n      tag_601\n        /* \"#utility.yul\":6045:6051   */\n      dup2\n        /* \"#utility.yul\":6023:6052   */\n      tag_465\n      jump\t// in\n    tag_601:\n        /* \"#utility.yul\":6018:6021   */\n      dup5\n        /* \"#utility.yul\":6014:6053   */\n      add\n        /* \"#utility.yul\":6007:6053   */\n      swap2\n      pop\n        /* \"#utility.yul\":5784:6059   */\n      pop\n        /* \"#utility.yul\":5702:6059   */\n      swap3\n      swap2\n      pop\n      pop\n      jump\t// out\n        /* \"#utility.yul\":6065:6173   */\n    tag_467:\n        /* \"#utility.yul\":6142:6166   */\n      tag_603\n        /* \"#utility.yul\":6160:6165   */\n      dup2\n        /* \"#utility.yul\":6142:6166   */\n      tag_450\n      jump\t// in\n    tag_603:\n        /* \"#utility.yul\":6137:6140   */\n      dup3\n        /* \"#utility.yul\":6130:6167   */\n      mstore\n        /* \"#utility.yul\":6065:6173   */\n      pop\n      pop\n      jump\t// out\n        /* \"#utility.yul\":6243:6859   */\n    tag_468:\n        /* \"#utility.yul\":6360:6363   */\n      0x00\n        /* \"#utility.yul\":6396:6400   */\n      0x40\n        /* \"#utility.yul\":6391:6394   */\n      dup4\n        /* \"#utility.yul\":6387:6401   */\n      add\n        /* \"#utility.yul\":6490:6494   */\n      0x00\n        /* \"#utility.yul\":6483:6488   */\n      dup4\n        /* \"#utility.yul\":6479:6495   */\n      add\n        /* \"#utility.yul\":6473:6496   */\n      mload\n        /* \"#utility.yul\":6543:6546   */\n      dup5\n        /* \"#utility.yul\":6537:6541   */\n      dup3\n        /* \"#utility.yul\":6533:6547   */\n      sub\n        /* \"#utility.yul\":6526:6530   */\n      0x00\n        /* \"#utility.yul\":6521:6524   */\n      dup7\n        /* \"#utility.yul\":6517:6531   */\n      add\n        /* \"#utility.yul\":6510:6548   */\n      mstore\n        /* \"#utility.yul\":6569:6642   */\n      tag_605\n        /* \"#utility.yul\":6637:6641   */\n      dup3\n        /* \"#utility.yul\":6623:6635   */\n      dup3\n        /* \"#utility.yul\":6569:6642   */\n      tag_466\n      jump\t// in\n    tag_605:\n        /* \"#utility.yul\":6561:6642   */\n      swap2\n      pop\n        /* \"#utility.yul\":6411:6653   */\n      pop\n        /* \"#utility.yul\":6740:6744   */\n      0x20\n        /* \"#utility.yul\":6733:6738   */\n      dup4\n        /* \"#utility.yul\":6729:6745   */\n      add\n        /* \"#utility.yul\":6723:6746   */\n      mload\n        /* \"#utility.yul\":6759:6822   */\n      tag_606\n        /* \"#utility.yul\":6816:6820   */\n      0x20\n        /* \"#utility.yul\":6811:6814   */\n      dup7\n        /* \"#utility.yul\":6807:6821   */\n      add\n        /* \"#utility.yul\":6793:6805   */\n      dup3\n        /* \"#utility.yul\":6759:6822   */\n      tag_467\n      jump\t// in\n    tag_606:\n        /* \"#utility.yul\":6663:6832   */\n      pop\n        /* \"#utility.yul\":6849:6853   */\n      dup1\n        /* \"#utility.yul\":6842:6853   */\n      swap2\n      pop\n        /* \"#utility.yul\":6365:6859   */\n      pop\n        /* \"#utility.yul\":6243:6859   */\n      swap3\n      swap2\n      pop\n      pop\n      jump\t// out\n        /* \"#utility.yul\":6865:7234   */\n    tag_53:\n        /* \"#utility.yul\":7006:7010   */\n      0x00\n        /* \"#utility.yul\":7044:7046   */\n      0x20\n        /* \"#utility.yul\":7033:7042   */\n      dup3\n        /* \"#utility.yul\":7029:7047   */\n      add\n        /* \"#utility.yul\":7021:7047   */\n      swap1\n      pop\n        /* \"#utility.yul\":7093:7102   */\n      dup2\n        /* \"#utility.yul\":7087:7091   */\n      dup2\n        /* \"#utility.yul\":7083:7103   */\n      sub\n        /* \"#utility.yul\":7079:7080   */\n      0x00\n        /* \"#utility.yul\":7068:7077   */\n      dup4\n        /* \"#utility.yul\":7064:7081   */\n      add\n        /* \"#utility.yul\":7057:7104   */\n      mstore\n        /* \"#utility.yul\":7121:7227   */\n      tag_608\n        /* \"#utility.yul\":7222:7226   */\n      dup2\n        /* \"#utility.yul\":7213:7219   */\n      dup5\n        /* \"#utility.yul\":7121:7227   */\n      tag_468\n      jump\t// in\n    tag_608:\n        /* \"#utility.yul\":7113:7227   */\n      swap1\n      pop\n        /* \"#utility.yul\":6865:7234   */\n      swap3\n      swap2\n      pop\n      pop\n      jump\t// out\n        /* \"#utility.yul\":7240:7366   */\n    tag_469:\n        /* \"#utility.yul\":7277:7284   */\n      0x00\n        /* \"#utility.yul\":7317:7359   */\n      0xffffffffffffffffffffffffffffffffffffffff\n        /* \"#utility.yul\":7310:7315   */\n      dup3\n        /* \"#utility.yul\":7306:7360   */\n      and\n        /* \"#utility.yul\":7295:7360   */\n      swap1\n      pop\n        /* \"#utility.yul\":7240:7366   */\n      swap2\n      swap1\n      pop\n      jump\t// out\n        /* \"#utility.yul\":7372:7468   */\n    tag_470:\n        /* \"#utility.yul\":7409:7416   */\n      0x00\n        /* \"#utility.yul\":7438:7462   */\n      tag_611\n        /* \"#utility.yul\":7456:7461   */\n      dup3\n        /* \"#utility.yul\":7438:7462   */\n      tag_469\n      jump\t// in\n    tag_611:\n        /* \"#utility.yul\":7427:7462   */\n      swap1\n      pop\n        /* \"#utility.yul\":7372:7468   */\n      swap2\n      swap1\n      pop\n      jump\t// out\n        /* \"#utility.yul\":7474:7592   */\n    tag_471:\n        /* \"#utility.yul\":7561:7585   */\n      tag_613\n        /* \"#utility.yul\":7579:7584   */\n      dup2\n        /* \"#utility.yul\":7561:7585   */\n      tag_470\n      jump\t// in\n    tag_613:\n        /* \"#utility.yul\":7556:7559   */\n      dup3\n        /* \"#utility.yul\":7549:7586   */\n      mstore\n        /* \"#utility.yul\":7474:7592   */\n      pop\n      pop\n      jump\t// out\n        /* \"#utility.yul\":7598:7820   */\n    tag_62:\n        /* \"#utility.yul\":7691:7695   */\n      0x00\n        /* \"#utility.yul\":7729:7731   */\n      0x20\n        /* \"#utility.yul\":7718:7727   */\n      dup3\n        /* \"#utility.yul\":7714:7732   */\n      add\n        /* \"#utility.yul\":7706:7732   */\n      swap1\n      pop\n        /* \"#utility.yul\":7742:7813   */\n      tag_615\n        /* \"#utility.yul\":7810:7811   */\n      0x00\n        /* \"#utility.yul\":7799:7808   */\n      dup4\n        /* \"#utility.yul\":7795:7812   */\n      add\n        /* \"#utility.yul\":7786:7792   */\n      dup5\n        /* \"#utility.yul\":7742:7813   */\n      tag_471\n      jump\t// in\n    tag_615:\n        /* \"#utility.yul\":7598:7820   */\n      swap3\n      swap2\n      pop\n      pop\n      jump\t// out\n        /* \"#utility.yul\":7826:7964   */\n    tag_472:\n        /* \"#utility.yul\":7917:7923   */\n      0x00\n        /* \"#utility.yul\":7951:7956   */\n      dup2\n        /* \"#utility.yul\":7945:7957   */\n      mload\n        /* \"#utility.yul\":7935:7957   */\n      swap1\n      pop\n        /* \"#utility.yul\":7826:7964   */\n      swap2\n      swap1\n      pop\n      jump\t// out\n        /* \"#utility.yul\":7970:8178   */\n    tag_473:\n        /* \"#utility.yul\":8093:8104   */\n      0x00\n        /* \"#utility.yul\":8127:8133   */\n      dup3\n        /* \"#utility.yul\":8122:8125   */\n      dup3\n        /* \"#utility.yul\":8115:8134   */\n      mstore\n        /* \"#utility.yul\":8167:8171   */\n      0x20\n        /* \"#utility.yul\":8162:8165   */\n      dup3\n        /* \"#utility.yul\":8158:8172   */\n      add\n        /* \"#utility.yul\":8143:8172   */\n      swap1\n      pop\n        /* \"#utility.yul\":7970:8178   */\n      swap3\n      swap2\n      pop\n      pop\n      jump\t// out\n        /* \"#utility.yul\":8184:8340   */\n    tag_474:\n        /* \"#utility.yul\":8275:8279   */\n      0x00\n        /* \"#utility.yul\":8298:8301   */\n      dup2\n        /* \"#utility.yul\":8290:8301   */\n      swap1\n      pop\n        /* \"#utility.yul\":8328:8332   */\n      0x20\n        /* \"#utility.yul\":8323:8326   */\n      dup3\n        /* \"#utility.yul\":8319:8333   */\n      add\n        /* \"#utility.yul\":8311:8333   */\n      swap1\n      pop\n        /* \"#utility.yul\":8184:8340   */\n      swap2\n      swap1\n      pop\n      jump\t// out\n        /* \"#utility.yul\":8410:9016   */\n    tag_475:\n        /* \"#utility.yul\":8517:8520   */\n      0x00\n        /* \"#utility.yul\":8553:8557   */\n      0x40\n        /* \"#utility.yul\":8548:8551   */\n      dup4\n        /* \"#utility.yul\":8544:8558   */\n      add\n        /* \"#utility.yul\":8647:8651   */\n      0x00\n        /* \"#utility.yul\":8640:8645   */\n      dup4\n        /* \"#utility.yul\":8636:8652   */\n      add\n        /* \"#utility.yul\":8630:8653   */\n      mload\n        /* \"#utility.yul\":8700:8703   */\n      dup5\n        /* \"#utility.yul\":8694:8698   */\n      dup3\n        /* \"#utility.yul\":8690:8704   */\n      sub\n        /* \"#utility.yul\":8683:8687   */\n      0x00\n        /* \"#utility.yul\":8678:8681   */\n      dup7\n        /* \"#utility.yul\":8674:8688   */\n      add\n        /* \"#utility.yul\":8667:8705   */\n      mstore\n        /* \"#utility.yul\":8726:8799   */\n      tag_620\n        /* \"#utility.yul\":8794:8798   */\n      dup3\n        /* \"#utility.yul\":8780:8792   */\n      dup3\n        /* \"#utility.yul\":8726:8799   */\n      tag_466\n      jump\t// in\n    tag_620:\n        /* \"#utility.yul\":8718:8799   */\n      swap2\n      pop\n        /* \"#utility.yul\":8568:8810   */\n      pop\n        /* \"#utility.yul\":8897:8901   */\n      0x20\n        /* \"#utility.yul\":8890:8895   */\n      dup4\n        /* \"#utility.yul\":8886:8902   */\n      add\n        /* \"#utility.yul\":8880:8903   */\n      mload\n        /* \"#utility.yul\":8916:8979   */\n      tag_621\n        /* \"#utility.yul\":8973:8977   */\n      0x20\n        /* \"#utility.yul\":8968:8971   */\n      dup7\n        /* \"#utility.yul\":8964:8978   */\n      add\n        /* \"#utility.yul\":8950:8962   */\n      dup3\n        /* \"#utility.yul\":8916:8979   */\n      tag_467\n      jump\t// in\n    tag_621:\n        /* \"#utility.yul\":8820:8989   */\n      pop\n        /* \"#utility.yul\":9006:9010   */\n      dup1\n        /* \"#utility.yul\":8999:9010   */\n      swap2\n      pop\n        /* \"#utility.yul\":8522:9016   */\n      pop\n        /* \"#utility.yul\":8410:9016   */\n      swap3\n      swap2\n      pop\n      pop\n      jump\t// out\n        /* \"#utility.yul\":9022:9274   */\n    tag_476:\n        /* \"#utility.yul\":9139:9149   */\n      0x00\n        /* \"#utility.yul\":9174:9268   */\n      tag_623\n        /* \"#utility.yul\":9264:9267   */\n      dup4\n        /* \"#utility.yul\":9256:9262   */\n      dup4\n        /* \"#utility.yul\":9174:9268   */\n      tag_475\n      jump\t// in\n    tag_623:\n        /* \"#utility.yul\":9160:9268   */\n      swap1\n      pop\n        /* \"#utility.yul\":9022:9274   */\n      swap3\n      swap2\n      pop\n      pop\n      jump\t// out\n        /* \"#utility.yul\":9280:9417   */\n    tag_477:\n        /* \"#utility.yul\":9374:9378   */\n      0x00\n        /* \"#utility.yul\":9406:9410   */\n      0x20\n        /* \"#utility.yul\":9401:9404   */\n      dup3\n        /* \"#utility.yul\":9397:9411   */\n      add\n        /* \"#utility.yul\":9389:9411   */\n      swap1\n      pop\n        /* \"#utility.yul\":9280:9417   */\n      swap2\n      swap1\n      pop\n      jump\t// out\n        /* \"#utility.yul\":9491:10594   */\n    tag_478:\n        /* \"#utility.yul\":9658:9661   */\n      0x00\n        /* \"#utility.yul\":9687:9765   */\n      tag_626\n        /* \"#utility.yul\":9759:9764   */\n      dup3\n        /* \"#utility.yul\":9687:9765   */\n      tag_472\n      jump\t// in\n    tag_626:\n        /* \"#utility.yul\":9781:9891   */\n      tag_627\n        /* \"#utility.yul\":9884:9890   */\n      dup2\n        /* \"#utility.yul\":9879:9882   */\n      dup6\n        /* \"#utility.yul\":9781:9891   */\n      tag_473\n      jump\t// in\n    tag_627:\n        /* \"#utility.yul\":9774:9891   */\n      swap4\n      pop\n        /* \"#utility.yul\":9917:9920   */\n      dup4\n        /* \"#utility.yul\":9962:9966   */\n      0x20\n        /* \"#utility.yul\":9954:9960   */\n      dup3\n        /* \"#utility.yul\":9950:9967   */\n      mul\n        /* \"#utility.yul\":9945:9948   */\n      dup6\n        /* \"#utility.yul\":9941:9968   */\n      add\n        /* \"#utility.yul\":9992:10072   */\n      tag_628\n        /* \"#utility.yul\":10066:10071   */\n      dup6\n        /* \"#utility.yul\":9992:10072   */\n      tag_474\n      jump\t// in\n    tag_628:\n        /* \"#utility.yul\":10095:10102   */\n      dup1\n        /* \"#utility.yul\":10126:10127   */\n      0x00\n        /* \"#utility.yul\":10111:10549   */\n    tag_629:\n        /* \"#utility.yul\":10136:10142   */\n      dup6\n        /* \"#utility.yul\":10133:10134   */\n      dup2\n        /* \"#utility.yul\":10130:10143   */\n      lt\n        /* \"#utility.yul\":10111:10549   */\n      iszero\n      tag_631\n      jumpi\n        /* \"#utility.yul\":10207:10216   */\n      dup5\n        /* \"#utility.yul\":10201:10205   */\n      dup5\n        /* \"#utility.yul\":10197:10217   */\n      sub\n        /* \"#utility.yul\":10192:10195   */\n      dup10\n        /* \"#utility.yul\":10185:10218   */\n      mstore\n        /* \"#utility.yul\":10258:10264   */\n      dup2\n        /* \"#utility.yul\":10252:10265   */\n      mload\n        /* \"#utility.yul\":10286:10398   */\n      tag_632\n        /* \"#utility.yul\":10393:10397   */\n      dup6\n        /* \"#utility.yul\":10378:10391   */\n      dup3\n        /* \"#utility.yul\":10286:10398   */\n      tag_476\n      jump\t// in\n    tag_632:\n        /* \"#utility.yul\":10278:10398   */\n      swap5\n      pop\n        /* \"#utility.yul\":10421:10505   */\n      tag_633\n        /* \"#utility.yul\":10498:10504   */\n      dup4\n        /* \"#utility.yul\":10421:10505   */\n      tag_477\n      jump\t// in\n    tag_633:\n        /* \"#utility.yul\":10411:10505   */\n      swap3\n      pop\n        /* \"#utility.yul\":10534:10538   */\n      0x20\n        /* \"#utility.yul\":10529:10532   */\n      dup11\n        /* \"#utility.yul\":10525:10539   */\n      add\n        /* \"#utility.yul\":10518:10539   */\n      swap10\n      pop\n        /* \"#utility.yul\":10171:10549   */\n      pop\n        /* \"#utility.yul\":10158:10159   */\n      0x01\n        /* \"#utility.yul\":10155:10156   */\n      dup2\n        /* \"#utility.yul\":10151:10160   */\n      add\n        /* \"#utility.yul\":10146:10160   */\n      swap1\n      pop\n        /* \"#utility.yul\":10111:10549   */\n      jump(tag_629)\n    tag_631:\n        /* \"#utility.yul\":10115:10129   */\n      pop\n        /* \"#utility.yul\":10565:10569   */\n      dup3\n        /* \"#utility.yul\":10558:10569   */\n      swap8\n      pop\n        /* \"#utility.yul\":10585:10588   */\n      dup8\n        /* \"#utility.yul\":10578:10588   */\n      swap6\n      pop\n        /* \"#utility.yul\":9663:10594   */\n      pop\n      pop\n      pop\n      pop\n      pop\n        /* \"#utility.yul\":9491:10594   */\n      swap3\n      swap2\n      pop\n      pop\n      jump\t// out\n        /* \"#utility.yul\":10600:10714   */\n    tag_479:\n        /* \"#utility.yul\":10667:10673   */\n      0x00\n        /* \"#utility.yul\":10701:10706   */\n      dup2\n        /* \"#utility.yul\":10695:10707   */\n      mload\n        /* \"#utility.yul\":10685:10707   */\n      swap1\n      pop\n        /* \"#utility.yul\":10600:10714   */\n      swap2\n      swap1\n      pop\n      jump\t// out\n        /* \"#utility.yul\":10720:10904   */\n    tag_480:\n        /* \"#utility.yul\":10819:10830   */\n      0x00\n        /* \"#utility.yul\":10853:10859   */\n      dup3\n        /* \"#utility.yul\":10848:10851   */\n      dup3\n        /* \"#utility.yul\":10841:10860   */\n      mstore\n        /* \"#utility.yul\":10893:10897   */\n      0x20\n        /* \"#utility.yul\":10888:10891   */\n      dup3\n        /* \"#utility.yul\":10884:10898   */\n      add\n        /* \"#utility.yul\":10869:10898   */\n      swap1\n      pop\n        /* \"#utility.yul\":10720:10904   */\n      swap3\n      swap2\n      pop\n      pop\n      jump\t// out\n        /* \"#utility.yul\":10910:11042   */\n    tag_481:\n        /* \"#utility.yul\":10977:10981   */\n      0x00\n        /* \"#utility.yul\":11000:11003   */\n      dup2\n        /* \"#utility.yul\":10992:11003   */\n      swap1\n      pop\n        /* \"#utility.yul\":11030:11034   */\n      0x20\n        /* \"#utility.yul\":11025:11028   */\n      dup3\n        /* \"#utility.yul\":11021:11035   */\n      add\n        /* \"#utility.yul\":11013:11035   */\n      swap1\n      pop\n        /* \"#utility.yul\":10910:11042   */\n      swap2\n      swap1\n      pop\n      jump\t// out\n        /* \"#utility.yul\":11048:11227   */\n    tag_482:\n        /* \"#utility.yul\":11117:11127   */\n      0x00\n        /* \"#utility.yul\":11138:11184   */\n      tag_638\n        /* \"#utility.yul\":11180:11183   */\n      dup4\n        /* \"#utility.yul\":11172:11178   */\n      dup4\n        /* \"#utility.yul\":11138:11184   */\n      tag_467\n      jump\t// in\n    tag_638:\n        /* \"#utility.yul\":11216:11220   */\n      0x20\n        /* \"#utility.yul\":11211:11214   */\n      dup4\n        /* \"#utility.yul\":11207:11221   */\n      add\n        /* \"#utility.yul\":11193:11221   */\n      swap1\n      pop\n        /* \"#utility.yul\":11048:11227   */\n      swap3\n      swap2\n      pop\n      pop\n      jump\t// out\n        /* \"#utility.yul\":11233:11346   */\n    tag_483:\n        /* \"#utility.yul\":11303:11307   */\n      0x00\n        /* \"#utility.yul\":11335:11339   */\n      0x20\n        /* \"#utility.yul\":11330:11333   */\n      dup3\n        /* \"#utility.yul\":11326:11340   */\n      add\n        /* \"#utility.yul\":11318:11340   */\n      swap1\n      pop\n        /* \"#utility.yul\":11233:11346   */\n      swap2\n      swap1\n      pop\n      jump\t// out\n        /* \"#utility.yul\":11382:12114   */\n    tag_484:\n        /* \"#utility.yul\":11501:11504   */\n      0x00\n        /* \"#utility.yul\":11530:11584   */\n      tag_641\n        /* \"#utility.yul\":11578:11583   */\n      dup3\n        /* \"#utility.yul\":11530:11584   */\n      tag_479\n      jump\t// in\n    tag_641:\n        /* \"#utility.yul\":11600:11686   */\n      tag_642\n        /* \"#utility.yul\":11679:11685   */\n      dup2\n        /* \"#utility.yul\":11674:11677   */\n      dup6\n        /* \"#utility.yul\":11600:11686   */\n      tag_480\n      jump\t// in\n    tag_642:\n        /* \"#utility.yul\":11593:11686   */\n      swap4\n      pop\n        /* \"#utility.yul\":11710:11766   */\n      tag_643\n        /* \"#utility.yul\":11760:11765   */\n      dup4\n        /* \"#utility.yul\":11710:11766   */\n      tag_481\n      jump\t// in\n    tag_643:\n        /* \"#utility.yul\":11789:11796   */\n      dup1\n        /* \"#utility.yul\":11820:11821   */\n      0x00\n        /* \"#utility.yul\":11805:12089   */\n    tag_644:\n        /* \"#utility.yul\":11830:11836   */\n      dup4\n        /* \"#utility.yul\":11827:11828   */\n      dup2\n        /* \"#utility.yul\":11824:11837   */\n      lt\n        /* \"#utility.yul\":11805:12089   */\n      iszero\n      tag_646\n      jumpi\n        /* \"#utility.yul\":11906:11912   */\n      dup2\n        /* \"#utility.yul\":11900:11913   */\n      mload\n        /* \"#utility.yul\":11933:11996   */\n      tag_647\n        /* \"#utility.yul\":11992:11995   */\n      dup9\n        /* \"#utility.yul\":11977:11990   */\n      dup3\n        /* \"#utility.yul\":11933:11996   */\n      tag_482\n      jump\t// in\n    tag_647:\n        /* \"#utility.yul\":11926:11996   */\n      swap8\n      pop\n        /* \"#utility.yul\":12019:12079   */\n      tag_648\n        /* \"#utility.yul\":12072:12078   */\n      dup4\n        /* \"#utility.yul\":12019:12079   */\n      tag_483\n      jump\t// in\n    tag_648:\n        /* \"#utility.yul\":12009:12079   */\n      swap3\n      pop\n        /* \"#utility.yul\":11865:12089   */\n      pop\n        /* \"#utility.yul\":11852:11853   */\n      0x01\n        /* \"#utility.yul\":11849:11850   */\n      dup2\n        /* \"#utility.yul\":11845:11854   */\n      add\n        /* \"#utility.yul\":11840:11854   */\n      swap1\n      pop\n        /* \"#utility.yul\":11805:12089   */\n      jump(tag_644)\n    tag_646:\n        /* \"#utility.yul\":11809:11823   */\n      pop\n        /* \"#utility.yul\":12105:12108   */\n      dup6\n        /* \"#utility.yul\":12098:12108   */\n      swap4\n      pop\n        /* \"#utility.yul\":11506:12114   */\n      pop\n      pop\n      pop\n        /* \"#utility.yul\":11382:12114   */\n      swap3\n      swap2\n      pop\n      pop\n      jump\t// out\n        /* \"#utility.yul\":12120:12850   */\n    tag_66:\n        /* \"#utility.yul\":12389:12393   */\n      0x00\n        /* \"#utility.yul\":12427:12429   */\n      0x40\n        /* \"#utility.yul\":12416:12425   */\n      dup3\n        /* \"#utility.yul\":12412:12430   */\n      add\n        /* \"#utility.yul\":12404:12430   */\n      swap1\n      pop\n        /* \"#utility.yul\":12476:12485   */\n      dup2\n        /* \"#utility.yul\":12470:12474   */\n      dup2\n        /* \"#utility.yul\":12466:12486   */\n      sub\n        /* \"#utility.yul\":12462:12463   */\n      0x00\n        /* \"#utility.yul\":12451:12460   */\n      dup4\n        /* \"#utility.yul\":12447:12464   */\n      add\n        /* \"#utility.yul\":12440:12487   */\n      mstore\n        /* \"#utility.yul\":12504:12660   */\n      tag_650\n        /* \"#utility.yul\":12655:12659   */\n      dup2\n        /* \"#utility.yul\":12646:12652   */\n      dup6\n        /* \"#utility.yul\":12504:12660   */\n      tag_478\n      jump\t// in\n    tag_650:\n        /* \"#utility.yul\":12496:12660   */\n      swap1\n      pop\n        /* \"#utility.yul\":12707:12716   */\n      dup2\n        /* \"#utility.yul\":12701:12705   */\n      dup2\n        /* \"#utility.yul\":12697:12717   */\n      sub\n        /* \"#utility.yul\":12692:12694   */\n      0x20\n        /* \"#utility.yul\":12681:12690   */\n      dup4\n        /* \"#utility.yul\":12677:12695   */\n      add\n        /* \"#utility.yul\":12670:12718   */\n      mstore\n        /* \"#utility.yul\":12735:12843   */\n      tag_651\n        /* \"#utility.yul\":12838:12842   */\n      dup2\n        /* \"#utility.yul\":12829:12835   */\n      dup5\n        /* \"#utility.yul\":12735:12843   */\n      tag_484\n      jump\t// in\n    tag_651:\n        /* \"#utility.yul\":12727:12843   */\n      swap1\n      pop\n        /* \"#utility.yul\":12120:12850   */\n      swap4\n      swap3\n      pop\n      pop\n      pop\n      jump\t// out\n        /* \"#utility.yul\":12856:12974   */\n    tag_485:\n        /* \"#utility.yul\":12943:12967   */\n      tag_653\n        /* \"#utility.yul\":12961:12966   */\n      dup2\n        /* \"#utility.yul\":12943:12967   */\n      tag_450\n      jump\t// in\n    tag_653:\n        /* \"#utility.yul\":12938:12941   */\n      dup3\n        /* \"#utility.yul\":12931:12968   */\n      mstore\n        /* \"#utility.yul\":12856:12974   */\n      pop\n      pop\n      jump\t// out\n        /* \"#utility.yul\":12980:13202   */\n    tag_71:\n        /* \"#utility.yul\":13073:13077   */\n      0x00\n        /* \"#utility.yul\":13111:13113   */\n      0x20\n        /* \"#utility.yul\":13100:13109   */\n      dup3\n        /* \"#utility.yul\":13096:13114   */\n      add\n        /* \"#utility.yul\":13088:13114   */\n      swap1\n      pop\n        /* \"#utility.yul\":13124:13195   */\n      tag_655\n        /* \"#utility.yul\":13192:13193   */\n      0x00\n        /* \"#utility.yul\":13181:13190   */\n      dup4\n        /* \"#utility.yul\":13177:13194   */\n      add\n        /* \"#utility.yul\":13168:13174   */\n      dup5\n        /* \"#utility.yul\":13124:13195   */\n      tag_485\n      jump\t// in\n    tag_655:\n        /* \"#utility.yul\":12980:13202   */\n      swap3\n      swap2\n      pop\n      pop\n      jump\t// out\n        /* \"#utility.yul\":13208:13330   */\n    tag_486:\n        /* \"#utility.yul\":13281:13305   */\n      tag_657\n        /* \"#utility.yul\":13299:13304   */\n      dup2\n        /* \"#utility.yul\":13281:13305   */\n      tag_470\n      jump\t// in\n    tag_657:\n        /* \"#utility.yul\":13274:13279   */\n      dup2\n        /* \"#utility.yul\":13271:13306   */\n      eq\n        /* \"#utility.yul\":13261:13324   */\n      tag_658\n      jumpi\n        /* \"#utility.yul\":13320:13321   */\n      0x00\n        /* \"#utility.yul\":13317:13318   */\n      0x00\n        /* \"#utility.yul\":13310:13322   */\n      revert\n        /* \"#utility.yul\":13261:13324   */\n    tag_658:\n        /* \"#utility.yul\":13208:13330   */\n      pop\n      jump\t// out\n        /* \"#utility.yul\":13336:13475   */\n    tag_487:\n        /* \"#utility.yul\":13382:13387   */\n      0x00\n        /* \"#utility.yul\":13420:13426   */\n      dup2\n        /* \"#utility.yul\":13407:13427   */\n      calldataload\n        /* \"#utility.yul\":13398:13427   */\n      swap1\n      pop\n        /* \"#utility.yul\":13436:13469   */\n      tag_660\n        /* \"#utility.yul\":13463:13468   */\n      dup2\n        /* \"#utility.yul\":13436:13469   */\n      tag_486\n      jump\t// in\n    tag_660:\n        /* \"#utility.yul\":13336:13475   */\n      swap3\n      swap2\n      pop\n      pop\n      jump\t// out\n        /* \"#utility.yul\":13481:13955   */\n    tag_78:\n        /* \"#utility.yul\":13549:13555   */\n      0x00\n        /* \"#utility.yul\":13557:13563   */\n      0x00\n        /* \"#utility.yul\":13606:13608   */\n      0x40\n        /* \"#utility.yul\":13594:13603   */\n      dup4\n        /* \"#utility.yul\":13585:13592   */\n      dup6\n        /* \"#utility.yul\":13581:13604   */\n      sub\n        /* \"#utility.yul\":13577:13609   */\n      slt\n        /* \"#utility.yul\":13574:13693   */\n      iszero\n      tag_662\n      jumpi\n        /* \"#utility.yul\":13612:13691   */\n      tag_663\n      tag_448\n      jump\t// in\n    tag_663:\n        /* \"#utility.yul\":13574:13693   */\n    tag_662:\n        /* \"#utility.yul\":13732:13733   */\n      0x00\n        /* \"#utility.yul\":13757:13810   */\n      tag_664\n        /* \"#utility.yul\":13802:13809   */\n      dup6\n        /* \"#utility.yul\":13793:13799   */\n      dup3\n        /* \"#utility.yul\":13782:13791   */\n      dup7\n        /* \"#utility.yul\":13778:13800   */\n      add\n        /* \"#utility.yul\":13757:13810   */\n      tag_487\n      jump\t// in\n    tag_664:\n        /* \"#utility.yul\":13747:13810   */\n      swap3\n      pop\n        /* \"#utility.yul\":13703:13820   */\n      pop\n        /* \"#utility.yul\":13859:13861   */\n      0x20\n        /* \"#utility.yul\":13885:13938   */\n      tag_665\n        /* \"#utility.yul\":13930:13937   */\n      dup6\n        /* \"#utility.yul\":13921:13927   */\n      dup3\n        /* \"#utility.yul\":13910:13919   */\n      dup7\n        /* \"#utility.yul\":13906:13928   */\n      add\n        /* \"#utility.yul\":13885:13938   */\n      tag_452\n      jump\t// in\n    tag_665:\n        /* \"#utility.yul\":13875:13938   */\n      swap2\n      pop\n        /* \"#utility.yul\":13830:13948   */\n      pop\n        /* \"#utility.yul\":13481:13955   */\n      swap3\n      pop\n      swap3\n      swap1\n      pop\n      jump\t// out\n        /* \"#utility.yul\":13961:14290   */\n    tag_85:\n        /* \"#utility.yul\":14020:14026   */\n      0x00\n        /* \"#utility.yul\":14069:14071   */\n      0x20\n        /* \"#utility.yul\":14057:14066   */\n      dup3\n        /* \"#utility.yul\":14048:14055   */\n      dup5\n        /* \"#utility.yul\":14044:14067   */\n      sub\n        /* \"#utility.yul\":14040:14072   */\n      slt\n        /* \"#utility.yul\":14037:14156   */\n      iszero\n      tag_667\n      jumpi\n        /* \"#utility.yul\":14075:14154   */\n      tag_668\n      tag_448\n      jump\t// in\n    tag_668:\n        /* \"#utility.yul\":14037:14156   */\n    tag_667:\n        /* \"#utility.yul\":14195:14196   */\n      0x00\n        /* \"#utility.yul\":14220:14273   */\n      tag_669\n        /* \"#utility.yul\":14265:14272   */\n      dup5\n        /* \"#utility.yul\":14256:14262   */\n      dup3\n        /* \"#utility.yul\":14245:14254   */\n      dup6\n        /* \"#utility.yul\":14241:14263   */\n      add\n        /* \"#utility.yul\":14220:14273   */\n      tag_487\n      jump\t// in\n    tag_669:\n        /* \"#utility.yul\":14210:14273   */\n      swap2\n      pop\n        /* \"#utility.yul\":14166:14283   */\n      pop\n        /* \"#utility.yul\":13961:14290   */\n      swap3\n      swap2\n      pop\n      pop\n      jump\t// out\n        /* \"#utility.yul\":14296:14765   */\n    tag_93:\n        /* \"#utility.yul\":14487:14491   */\n      0x00\n        /* \"#utility.yul\":14525:14527   */\n      0x20\n        /* \"#utility.yul\":14514:14523   */\n      dup3\n        /* \"#utility.yul\":14510:14528   */\n      add\n        /* \"#utility.yul\":14502:14528   */\n      swap1\n      pop\n        /* \"#utility.yul\":14574:14583   */\n      dup2\n        /* \"#utility.yul\":14568:14572   */\n      dup2\n        /* \"#utility.yul\":14564:14584   */\n      sub\n        /* \"#utility.yul\":14560:14561   */\n      0x00\n        /* \"#utility.yul\":14549:14558   */\n      dup4\n        /* \"#utility.yul\":14545:14562   */\n      add\n        /* \"#utility.yul\":14538:14585   */\n      mstore\n        /* \"#utility.yul\":14602:14758   */\n      tag_671\n        /* \"#utility.yul\":14753:14757   */\n      dup2\n        /* \"#utility.yul\":14744:14750   */\n      dup5\n        /* \"#utility.yul\":14602:14758   */\n      tag_478\n      jump\t// in\n    tag_671:\n        /* \"#utility.yul\":14594:14758   */\n      swap1\n      pop\n        /* \"#utility.yul\":14296:14765   */\n      swap3\n      swap2\n      pop\n      pop\n      jump\t// out\n        /* \"#utility.yul\":14771:15163   */\n    tag_105:\n        /* \"#utility.yul\":14922:14926   */\n      0x00\n        /* \"#utility.yul\":14960:14962   */\n      0x40\n        /* \"#utility.yul\":14949:14958   */\n      dup3\n        /* \"#utility.yul\":14945:14963   */\n      add\n        /* \"#utility.yul\":14937:14963   */\n      swap1\n      pop\n        /* \"#utility.yul\":14973:15059   */\n      tag_673\n        /* \"#utility.yul\":15056:15057   */\n      0x00\n        /* \"#utility.yul\":15045:15054   */\n      dup4\n        /* \"#utility.yul\":15041:15058   */\n      add\n        /* \"#utility.yul\":15032:15038   */\n      dup6\n        /* \"#utility.yul\":14973:15059   */\n      tag_456\n      jump\t// in\n    tag_673:\n        /* \"#utility.yul\":15069:15156   */\n      tag_674\n        /* \"#utility.yul\":15152:15154   */\n      0x20\n        /* \"#utility.yul\":15141:15150   */\n      dup4\n        /* \"#utility.yul\":15137:15155   */\n      add\n        /* \"#utility.yul\":15128:15134   */\n      dup5\n        /* \"#utility.yul\":15069:15156   */\n      tag_456\n      jump\t// in\n    tag_674:\n        /* \"#utility.yul\":14771:15163   */\n      swap4\n      swap3\n      pop\n      pop\n      pop\n      jump\t// out\n        /* \"#utility.yul\":15169:15338   */\n    tag_488:\n        /* \"#utility.yul\":15253:15264   */\n      0x00\n        /* \"#utility.yul\":15287:15293   */\n      dup3\n        /* \"#utility.yul\":15282:15285   */\n      dup3\n        /* \"#utility.yul\":15275:15294   */\n      mstore\n        /* \"#utility.yul\":15327:15331   */\n      0x20\n        /* \"#utility.yul\":15322:15325   */\n      dup3\n        /* \"#utility.yul\":15318:15332   */\n      add\n        /* \"#utility.yul\":15303:15332   */\n      swap1\n      pop\n        /* \"#utility.yul\":15169:15338   */\n      swap3\n      swap2\n      pop\n      pop\n      jump\t// out\n        /* \"#utility.yul\":15344:15516   */\n    tag_489:\n        /* \"#utility.yul\":15484:15508   */\n      0x596f75206861766520616c726561647920766f74656400000000000000000000\n        /* \"#utility.yul\":15480:15481   */\n      0x00\n        /* \"#utility.yul\":15472:15478   */\n      dup3\n        /* \"#utility.yul\":15468:15482   */\n      add\n        /* \"#utility.yul\":15461:15509   */\n      mstore\n        /* \"#utility.yul\":15344:15516   */\n      pop\n      jump\t// out\n        /* \"#utility.yul\":15522:15888   */\n    tag_490:\n        /* \"#utility.yul\":15664:15667   */\n      0x00\n        /* \"#utility.yul\":15685:15752   */\n      tag_678\n        /* \"#utility.yul\":15749:15751   */\n      0x16\n        /* \"#utility.yul\":15744:15747   */\n      dup4\n        /* \"#utility.yul\":15685:15752   */\n      tag_488\n      jump\t// in\n    tag_678:\n        /* \"#utility.yul\":15678:15752   */\n      swap2\n      pop\n        /* \"#utility.yul\":15761:15854   */\n      tag_679\n        /* \"#utility.yul\":15850:15853   */\n      dup3\n        /* \"#utility.yul\":15761:15854   */\n      tag_489\n      jump\t// in\n    tag_679:\n        /* \"#utility.yul\":15879:15881   */\n      0x20\n        /* \"#utility.yul\":15874:15877   */\n      dup3\n        /* \"#utility.yul\":15870:15882   */\n      add\n        /* \"#utility.yul\":15863:15882   */\n      swap1\n      pop\n        /* \"#utility.yul\":15522:15888   */\n      swap2\n      swap1\n      pop\n      jump\t// out\n        /* \"#utility.yul\":15894:16313   */\n    tag_109:\n        /* \"#utility.yul\":16060:16064   */\n      0x00\n        /* \"#utility.yul\":16098:16100   */\n      0x20\n        /* \"#utility.yul\":16087:16096   */\n      dup3\n        /* \"#utility.yul\":16083:16101   */\n      add\n        /* \"#utility.yul\":16075:16101   */\n      swap1\n      pop\n        /* \"#utility.yul\":16147:16156   */\n      dup2\n        /* \"#utility.yul\":16141:16145   */\n      dup2\n        /* \"#utility.yul\":16137:16157   */\n      sub\n        /* \"#utility.yul\":16133:16134   */\n      0x00\n        /* \"#utility.yul\":16122:16131   */\n      dup4\n        /* \"#utility.yul\":16118:16135   */\n      add\n        /* \"#utility.yul\":16111:16158   */\n      mstore\n        /* \"#utility.yul\":16175:16306   */\n      tag_681\n        /* \"#utility.yul\":16301:16305   */\n      dup2\n        /* \"#utility.yul\":16175:16306   */\n      tag_490\n      jump\t// in\n    tag_681:\n        /* \"#utility.yul\":16167:16306   */\n      swap1\n      pop\n        /* \"#utility.yul\":15894:16313   */\n      swap2\n      swap1\n      pop\n      jump\t// out\n        /* \"#utility.yul\":16319:16488   */\n    tag_491:\n        /* \"#utility.yul\":16459:16480   */\n      0x496e76616c69642070726f706f73616c20494400000000000000000000000000\n        /* \"#utility.yul\":16455:16456   */\n      0x00\n        /* \"#utility.yul\":16447:16453   */\n      dup3\n        /* \"#utility.yul\":16443:16457   */\n      add\n        /* \"#utility.yul\":16436:16481   */\n      mstore\n        /* \"#utility.yul\":16319:16488   */\n      pop\n      jump\t// out\n        /* \"#utility.yul\":16494:16860   */\n    tag_492:\n        /* \"#utility.yul\":16636:16639   */\n      0x00\n        /* \"#utility.yul\":16657:16724   */\n      tag_684\n        /* \"#utility.yul\":16721:16723   */\n      0x13\n        /* \"#utility.yul\":16716:16719   */\n      dup4\n        /* \"#utility.yul\":16657:16724   */\n      tag_488\n      jump\t// in\n    tag_684:\n        /* \"#utility.yul\":16650:16724   */\n      swap2\n      pop\n        /* \"#utility.yul\":16733:16826   */\n      tag_685\n        /* \"#utility.yul\":16822:16825   */\n      dup3\n        /* \"#utility.yul\":16733:16826   */\n      tag_491\n      jump\t// in\n    tag_685:\n        /* \"#utility.yul\":16851:16853   */\n      0x20\n        /* \"#utility.yul\":16846:16849   */\n      dup3\n        /* \"#utility.yul\":16842:16854   */\n      add\n        /* \"#utility.yul\":16835:16854   */\n      swap1\n      pop\n        /* \"#utility.yul\":16494:16860   */\n      swap2\n      swap1\n      pop\n      jump\t// out\n        /* \"#utility.yul\":16866:17285   */\n    tag_112:\n        /* \"#utility.yul\":17032:17036   */\n      0x00\n        /* \"#utility.yul\":17070:17072   */\n      0x20\n        /* \"#utility.yul\":17059:17068   */\n      dup3\n        /* \"#utility.yul\":17055:17073   */\n      add\n        /* \"#utility.yul\":17047:17073   */\n      swap1\n      pop\n        /* \"#utility.yul\":17119:17128   */\n      dup2\n        /* \"#utility.yul\":17113:17117   */\n      dup2\n        /* \"#utility.yul\":17109:17129   */\n      sub\n        /* \"#utility.yul\":17105:17106   */\n      0x00\n        /* \"#utility.yul\":17094:17103   */\n      dup4\n        /* \"#utility.yul\":17090:17107   */\n      add\n        /* \"#utility.yul\":17083:17130   */\n      mstore\n        /* \"#utility.yul\":17147:17278   */\n      tag_687\n        /* \"#utility.yul\":17273:17277   */\n      dup2\n        /* \"#utility.yul\":17147:17278   */\n      tag_492\n      jump\t// in\n    tag_687:\n        /* \"#utility.yul\":17139:17278   */\n      swap1\n      pop\n        /* \"#utility.yul\":16866:17285   */\n      swap2\n      swap1\n      pop\n      jump\t// out\n        /* \"#utility.yul\":17291:17590   */\n    tag_493:\n        /* \"#utility.yul\":17431:17465   */\n      0x566f74696e67206973206e6f7420616c6c6f776564206f6e2074686973207072\n        /* \"#utility.yul\":17427:17428   */\n      0x00\n        /* \"#utility.yul\":17419:17425   */\n      dup3\n        /* \"#utility.yul\":17415:17429   */\n      add\n        /* \"#utility.yul\":17408:17466   */\n      mstore\n        /* \"#utility.yul\":17500:17534   */\n      0x6f706f73616c2e20506c656173652063686f6f736520616e20656c696769626c\n        /* \"#utility.yul\":17495:17497   */\n      0x20\n        /* \"#utility.yul\":17487:17493   */\n      dup3\n        /* \"#utility.yul\":17483:17498   */\n      add\n        /* \"#utility.yul\":17476:17535   */\n      mstore\n        /* \"#utility.yul\":17569:17582   */\n      0x652070726f706f73616c2e000000000000000000000000000000000000000000\n        /* \"#utility.yul\":17564:17566   */\n      0x40\n        /* \"#utility.yul\":17556:17562   */\n      dup3\n        /* \"#utility.yul\":17552:17567   */\n      add\n        /* \"#utility.yul\":17545:17583   */\n      mstore\n        /* \"#utility.yul\":17291:17590   */\n      pop\n      jump\t// out\n        /* \"#utility.yul\":17596:17962   */\n    tag_494:\n        /* \"#utility.yul\":17738:17741   */\n      0x00\n        /* \"#utility.yul\":17759:17826   */\n      tag_690\n        /* \"#utility.yul\":17823:17825   */\n      0x4b\n        /* \"#utility.yul\":17818:17821   */\n      dup4\n        /* \"#utility.yul\":17759:17826   */\n      tag_488\n      jump\t// in\n    tag_690:\n        /* \"#utility.yul\":17752:17826   */\n      swap2\n      pop\n        /* \"#utility.yul\":17835:17928   */\n      tag_691\n        /* \"#utility.yul\":17924:17927   */\n      dup3\n        /* \"#utility.yul\":17835:17928   */\n      tag_493\n      jump\t// in\n    tag_691:\n        /* \"#utility.yul\":17953:17955   */\n      0x60\n        /* \"#utility.yul\":17948:17951   */\n      dup3\n        /* \"#utility.yul\":17944:17956   */\n      add\n        /* \"#utility.yul\":17937:17956   */\n      swap1\n      pop\n        /* \"#utility.yul\":17596:17962   */\n      swap2\n      swap1\n      pop\n      jump\t// out\n        /* \"#utility.yul\":17968:18387   */\n    tag_115:\n        /* \"#utility.yul\":18134:18138   */\n      0x00\n        /* \"#utility.yul\":18172:18174   */\n      0x20\n        /* \"#utility.yul\":18161:18170   */\n      dup3\n        /* \"#utility.yul\":18157:18175   */\n      add\n        /* \"#utility.yul\":18149:18175   */\n      swap1\n      pop\n        /* \"#utility.yul\":18221:18230   */\n      dup2\n        /* \"#utility.yul\":18215:18219   */\n      dup2\n        /* \"#utility.yul\":18211:18231   */\n      sub\n        /* \"#utility.yul\":18207:18208   */\n      0x00\n        /* \"#utility.yul\":18196:18205   */\n      dup4\n        /* \"#utility.yul\":18192:18209   */\n      add\n        /* \"#utility.yul\":18185:18232   */\n      mstore\n        /* \"#utility.yul\":18249:18380   */\n      tag_693\n        /* \"#utility.yul\":18375:18379   */\n      dup2\n        /* \"#utility.yul\":18249:18380   */\n      tag_494\n      jump\t// in\n    tag_693:\n        /* \"#utility.yul\":18241:18380   */\n      swap1\n      pop\n        /* \"#utility.yul\":17968:18387   */\n      swap2\n      swap1\n      pop\n      jump\t// out\n        /* \"#utility.yul\":18393:18573   */\n    tag_118:\n        /* \"#utility.yul\":18441:18518   */\n      0x4e487b7100000000000000000000000000000000000000000000000000000000\n        /* \"#utility.yul\":18438:18439   */\n      0x00\n        /* \"#utility.yul\":18431:18519   */\n      mstore\n        /* \"#utility.yul\":18538:18542   */\n      0x32\n        /* \"#utility.yul\":18535:18536   */\n      0x04\n        /* \"#utility.yul\":18528:18543   */\n      mstore\n        /* \"#utility.yul\":18562:18566   */\n      0x24\n        /* \"#utility.yul\":18559:18560   */\n      0x00\n        /* \"#utility.yul\":18552:18567   */\n      revert\n        /* \"#utility.yul\":18579:18759   */\n    tag_495:\n        /* \"#utility.yul\":18627:18704   */\n      0x4e487b7100000000000000000000000000000000000000000000000000000000\n        /* \"#utility.yul\":18624:18625   */\n      0x00\n        /* \"#utility.yul\":18617:18705   */\n      mstore\n        /* \"#utility.yul\":18724:18728   */\n      0x11\n        /* \"#utility.yul\":18721:18722   */\n      0x04\n        /* \"#utility.yul\":18714:18729   */\n      mstore\n        /* \"#utility.yul\":18748:18752   */\n      0x24\n        /* \"#utility.yul\":18745:18746   */\n      0x00\n        /* \"#utility.yul\":18738:18753   */\n      revert\n        /* \"#utility.yul\":18765:18956   */\n    tag_121:\n        /* \"#utility.yul\":18805:18808   */\n      0x00\n        /* \"#utility.yul\":18824:18844   */\n      tag_697\n        /* \"#utility.yul\":18842:18843   */\n      dup3\n        /* \"#utility.yul\":18824:18844   */\n      tag_450\n      jump\t// in\n    tag_697:\n        /* \"#utility.yul\":18819:18844   */\n      swap2\n      pop\n        /* \"#utility.yul\":18858:18878   */\n      tag_698\n        /* \"#utility.yul\":18876:18877   */\n      dup4\n        /* \"#utility.yul\":18858:18878   */\n      tag_450\n      jump\t// in\n    tag_698:\n        /* \"#utility.yul\":18853:18878   */\n      swap3\n      pop\n        /* \"#utility.yul\":18901:18902   */\n      dup3\n        /* \"#utility.yul\":18898:18899   */\n      dup3\n        /* \"#utility.yul\":18894:18903   */\n      add\n        /* \"#utility.yul\":18887:18903   */\n      swap1\n      pop\n        /* \"#utility.yul\":18922:18925   */\n      dup1\n        /* \"#utility.yul\":18919:18920   */\n      dup3\n        /* \"#utility.yul\":18916:18926   */\n      gt\n        /* \"#utility.yul\":18913:18949   */\n      iszero\n      tag_699\n      jumpi\n        /* \"#utility.yul\":18929:18947   */\n      tag_700\n      tag_495\n      jump\t// in\n    tag_700:\n        /* \"#utility.yul\":18913:18949   */\n    tag_699:\n        /* \"#utility.yul\":18765:18956   */\n      swap3\n      swap2\n      pop\n      pop\n      jump\t// out\n        /* \"#utility.yul\":18962:19294   */\n    tag_124:\n        /* \"#utility.yul\":19083:19087   */\n      0x00\n        /* \"#utility.yul\":19121:19123   */\n      0x40\n        /* \"#utility.yul\":19110:19119   */\n      dup3\n        /* \"#utility.yul\":19106:19124   */\n      add\n        /* \"#utility.yul\":19098:19124   */\n      swap1\n      pop\n        /* \"#utility.yul\":19134:19205   */\n      tag_702\n        /* \"#utility.yul\":19202:19203   */\n      0x00\n        /* \"#utility.yul\":19191:19200   */\n      dup4\n        /* \"#utility.yul\":19187:19204   */\n      add\n        /* \"#utility.yul\":19178:19184   */\n      dup6\n        /* \"#utility.yul\":19134:19205   */\n      tag_471\n      jump\t// in\n    tag_702:\n        /* \"#utility.yul\":19215:19287   */\n      tag_703\n        /* \"#utility.yul\":19283:19285   */\n      0x20\n        /* \"#utility.yul\":19272:19281   */\n      dup4\n        /* \"#utility.yul\":19268:19286   */\n      add\n        /* \"#utility.yul\":19259:19265   */\n      dup5\n        /* \"#utility.yul\":19215:19287   */\n      tag_485\n      jump\t// in\n    tag_703:\n        /* \"#utility.yul\":18962:19294   */\n      swap4\n      swap3\n      pop\n      pop\n      pop\n      jump\t// out\n        /* \"#utility.yul\":19300:19480   */\n    tag_296:\n        /* \"#utility.yul\":19348:19425   */\n      0x4e487b7100000000000000000000000000000000000000000000000000000000\n        /* \"#utility.yul\":19345:19346   */\n      0x00\n        /* \"#utility.yul\":19338:19426   */\n      mstore\n        /* \"#utility.yul\":19445:19449   */\n      0x41\n        /* \"#utility.yul\":19442:19443   */\n      0x04\n        /* \"#utility.yul\":19435:19450   */\n      mstore\n        /* \"#utility.yul\":19469:19473   */\n      0x24\n        /* \"#utility.yul\":19466:19467   */\n      0x00\n        /* \"#utility.yul\":19459:19474   */\n      revert\n        /* \"#utility.yul\":19486:19666   */\n    tag_496:\n        /* \"#utility.yul\":19534:19611   */\n      0x4e487b7100000000000000000000000000000000000000000000000000000000\n        /* \"#utility.yul\":19531:19532   */\n      0x00\n        /* \"#utility.yul\":19524:19612   */\n      mstore\n        /* \"#utility.yul\":19631:19635   */\n      0x22\n        /* \"#utility.yul\":19628:19629   */\n      0x04\n        /* \"#utility.yul\":19621:19636   */\n      mstore\n        /* \"#utility.yul\":19655:19659   */\n      0x24\n        /* \"#utility.yul\":19652:19653   */\n      0x00\n        /* \"#utility.yul\":19645:19660   */\n      revert\n        /* \"#utility.yul\":19672:19992   */\n    tag_256:\n        /* \"#utility.yul\":19716:19722   */\n      0x00\n        /* \"#utility.yul\":19753:19754   */\n      0x02\n        /* \"#utility.yul\":19747:19751   */\n      dup3\n        /* \"#utility.yul\":19743:19755   */\n      div\n        /* \"#utility.yul\":19733:19755   */\n      swap1\n      pop\n        /* \"#utility.yul\":19800:19801   */\n      0x01\n        /* \"#utility.yul\":19794:19798   */\n      dup3\n        /* \"#utility.yul\":19790:19802   */\n      and\n        /* \"#utility.yul\":19821:19839   */\n      dup1\n        /* \"#utility.yul\":19811:19892   */\n      tag_707\n      jumpi\n        /* \"#utility.yul\":19877:19881   */\n      0x7f\n        /* \"#utility.yul\":19869:19875   */\n      dup3\n        /* \"#utility.yul\":19865:19882   */\n      and\n        /* \"#utility.yul\":19855:19882   */\n      swap2\n      pop\n        /* \"#utility.yul\":19811:19892   */\n    tag_707:\n        /* \"#utility.yul\":19939:19941   */\n      0x20\n        /* \"#utility.yul\":19931:19937   */\n      dup3\n        /* \"#utility.yul\":19928:19942   */\n      lt\n        /* \"#utility.yul\":19908:19926   */\n      dup2\n        /* \"#utility.yul\":19905:19943   */\n      sub\n        /* \"#utility.yul\":19902:19986   */\n      tag_708\n      jumpi\n        /* \"#utility.yul\":19958:19976   */\n      tag_709\n      tag_496\n      jump\t// in\n    tag_709:\n        /* \"#utility.yul\":19902:19986   */\n    tag_708:\n        /* \"#utility.yul\":19723:19992   */\n      pop\n        /* \"#utility.yul\":19672:19992   */\n      swap2\n      swap1\n      pop\n      jump\t// out\n        /* \"#utility.yul\":19998:20139   */\n    tag_497:\n        /* \"#utility.yul\":20047:20051   */\n      0x00\n        /* \"#utility.yul\":20070:20073   */\n      dup2\n        /* \"#utility.yul\":20062:20073   */\n      swap1\n      pop\n        /* \"#utility.yul\":20093:20096   */\n      dup2\n        /* \"#utility.yul\":20090:20091   */\n      0x00\n        /* \"#utility.yul\":20083:20097   */\n      mstore\n        /* \"#utility.yul\":20127:20131   */\n      0x20\n        /* \"#utility.yul\":20124:20125   */\n      0x00\n        /* \"#utility.yul\":20114:20132   */\n      keccak256\n        /* \"#utility.yul\":20106:20132   */\n      swap1\n      pop\n        /* \"#utility.yul\":19998:20139   */\n      swap2\n      swap1\n      pop\n      jump\t// out\n        /* \"#utility.yul\":20145:20238   */\n    tag_498:\n        /* \"#utility.yul\":20182:20188   */\n      0x00\n        /* \"#utility.yul\":20229:20231   */\n      0x20\n        /* \"#utility.yul\":20224:20226   */\n      0x1f\n        /* \"#utility.yul\":20217:20222   */\n      dup4\n        /* \"#utility.yul\":20213:20227   */\n      add\n        /* \"#utility.yul\":20209:20232   */\n      div\n        /* \"#utility.yul\":20199:20232   */\n      swap1\n      pop\n        /* \"#utility.yul\":20145:20238   */\n      swap2\n      swap1\n      pop\n      jump\t// out\n        /* \"#utility.yul\":20244:20351   */\n    tag_499:\n        /* \"#utility.yul\":20288:20296   */\n      0x00\n        /* \"#utility.yul\":20338:20343   */\n      dup3\n        /* \"#utility.yul\":20332:20336   */\n      dup3\n        /* \"#utility.yul\":20328:20344   */\n      shl\n        /* \"#utility.yul\":20307:20344   */\n      swap1\n      pop\n        /* \"#utility.yul\":20244:20351   */\n      swap3\n      swap2\n      pop\n      pop\n      jump\t// out\n        /* \"#utility.yul\":20357:20750   */\n    tag_500:\n        /* \"#utility.yul\":20426:20432   */\n      0x00\n        /* \"#utility.yul\":20476:20477   */\n      0x08\n        /* \"#utility.yul\":20464:20474   */\n      dup4\n        /* \"#utility.yul\":20460:20478   */\n      mul\n        /* \"#utility.yul\":20499:20596   */\n      tag_714\n        /* \"#utility.yul\":20529:20595   */\n      0xffffffffffffffffffffffffffffffffffffffffffffffffffffffffffffffff\n        /* \"#utility.yul\":20518:20527   */\n      dup3\n        /* \"#utility.yul\":20499:20596   */\n      tag_499\n      jump\t// in\n    tag_714:\n        /* \"#utility.yul\":20617:20656   */\n      tag_715\n        /* \"#utility.yul\":20647:20655   */\n      dup7\n        /* \"#utility.yul\":20636:20645   */\n      dup4\n        /* \"#utility.yul\":20617:20656   */\n      tag_499\n      jump\t// in\n    tag_715:\n        /* \"#utility.yul\":20605:20656   */\n      swap6\n      pop\n        /* \"#utility.yul\":20689:20693   */\n      dup1\n        /* \"#utility.yul\":20685:20694   */\n      not\n        /* \"#utility.yul\":20678:20683   */\n      dup5\n        /* \"#utility.yul\":20674:20695   */\n      and\n        /* \"#utility.yul\":20665:20695   */\n      swap4\n      pop\n        /* \"#utility.yul\":20738:20742   */\n      dup1\n        /* \"#utility.yul\":20728:20736   */\n      dup7\n        /* \"#utility.yul\":20724:20743   */\n      and\n        /* \"#utility.yul\":20717:20722   */\n      dup5\n        /* \"#utility.yul\":20714:20744   */\n      or\n        /* \"#utility.yul\":20704:20744   */\n      swap3\n      pop\n        /* \"#utility.yul\":20433:20750   */\n      pop\n      pop\n        /* \"#utility.yul\":20357:20750   */\n      swap4\n      swap3\n      pop\n      pop\n      pop\n      jump\t// out\n        /* \"#utility.yul\":20756:20816   */\n    tag_501:\n        /* \"#utility.yul\":20784:20787   */\n      0x00\n        /* \"#utility.yul\":20805:20810   */\n      dup2\n        /* \"#utility.yul\":20798:20810   */\n      swap1\n      pop\n        /* \"#utility.yul\":20756:20816   */\n      swap2\n      swap1\n      pop\n      jump\t// out\n        /* \"#utility.yul\":20822:20964   */\n    tag_502:\n        /* \"#utility.yul\":20872:20881   */\n      0x00\n        /* \"#utility.yul\":20905:20958   */\n      tag_718\n        /* \"#utility.yul\":20923:20957   */\n      tag_719\n        /* \"#utility.yul\":20932:20956   */\n      tag_720\n        /* \"#utility.yul\":20950:20955   */\n      dup5\n        /* \"#utility.yul\":20932:20956   */\n      tag_450\n      jump\t// in\n    tag_720:\n        /* \"#utility.yul\":20923:20957   */\n      tag_501\n      jump\t// in\n    tag_719:\n        /* \"#utility.yul\":20905:20958   */\n      tag_450\n      jump\t// in\n    tag_718:\n        /* \"#utility.yul\":20892:20958   */\n      swap1\n      pop\n        /* \"#utility.yul\":20822:20964   */\n      swap2\n      swap1\n      pop\n      jump\t// out\n        /* \"#utility.yul\":20970:21045   */\n    tag_503:\n        /* \"#utility.yul\":21013:21016   */\n      0x00\n        /* \"#utility.yul\":21034:21039   */\n      dup2\n        /* \"#utility.yul\":21027:21039   */\n      swap1\n      pop\n        /* \"#utility.yul\":20970:21045   */\n      swap2\n      swap1\n      pop\n      jump\t// out\n        /* \"#utility.yul\":21051:21320   */\n    tag_504:\n        /* \"#utility.yul\":21161:21200   */\n      tag_723\n        /* \"#utility.yul\":21192:21199   */\n      dup4\n        /* \"#utility.yul\":21161:21200   */\n      tag_502\n      jump\t// in\n    tag_723:\n        /* \"#utility.yul\":21222:21313   */\n      tag_724\n        /* \"#utility.yul\":21271:21312   */\n      tag_725\n        /* \"#utility.yul\":21295:21311   */\n      dup3\n        /* \"#utility.yul\":21271:21312   */\n      tag_503\n      jump\t// in\n    tag_725:\n        /* \"#utility.yul\":21263:21269   */\n      dup5\n        /* \"#utility.yul\":21256:21260   */\n      dup5\n        /* \"#utility.yul\":21250:21261   */\n      sload\n        /* \"#utility.yul\":21222:21313   */\n      tag_500\n      jump\t// in\n    tag_724:\n        /* \"#utility.yul\":21216:21220   */\n      dup3\n        /* \"#utility.yul\":21209:21314   */\n      sstore\n        /* \"#utility.yul\":21127:21320   */\n      pop\n        /* \"#utility.yul\":21051:21320   */\n      pop\n      pop\n      pop\n      jump\t// out\n        /* \"#utility.yul\":21326:21399   */\n    tag_505:\n        /* \"#utility.yul\":21371:21374   */\n      0x00\n        /* \"#utility.yul\":21392:21393   */\n      0x00\n        /* \"#utility.yul\":21385:21393   */\n      swap1\n      pop\n        /* \"#utility.yul\":21326:21399   */\n      swap1\n      jump\t// out\n        /* \"#utility.yul\":21405:21594   */\n    tag_506:\n        /* \"#utility.yul\":21482:21514   */\n      tag_728\n      tag_505\n      jump\t// in\n    tag_728:\n        /* \"#utility.yul\":21523:21588   */\n      tag_729\n        /* \"#utility.yul\":21581:21587   */\n      dup2\n        /* \"#utility.yul\":21573:21579   */\n      dup5\n        /* \"#utility.yul\":21567:21571   */\n      dup5\n        /* \"#utility.yul\":21523:21588   */\n      tag_504\n      jump\t// in\n    tag_729:\n        /* \"#utility.yul\":21458:21594   */\n      pop\n        /* \"#utility.yul\":21405:21594   */\n      pop\n      pop\n      jump\t// out\n        /* \"#utility.yul\":21600:21786   */\n    tag_507:\n        /* \"#utility.yul\":21660:21780   */\n    tag_731:\n        /* \"#utility.yul\":21677:21680   */\n      dup2\n        /* \"#utility.yul\":21670:21675   */\n      dup2\n        /* \"#utility.yul\":21667:21681   */\n      lt\n        /* \"#utility.yul\":21660:21780   */\n      iszero\n      tag_733\n      jumpi\n        /* \"#utility.yul\":21731:21770   */\n      tag_734\n        /* \"#utility.yul\":21768:21769   */\n      0x00\n        /* \"#utility.yul\":21761:21766   */\n      dup3\n        /* \"#utility.yul\":21731:21770   */\n      tag_506\n      jump\t// in\n    tag_734:\n        /* \"#utility.yul\":21704:21705   */\n      0x01\n        /* \"#utility.yul\":21697:21702   */\n      dup2\n        /* \"#utility.yul\":21693:21706   */\n      add\n        /* \"#utility.yul\":21684:21706   */\n      swap1\n      pop\n        /* \"#utility.yul\":21660:21780   */\n      jump(tag_731)\n    tag_733:\n        /* \"#utility.yul\":21600:21786   */\n      pop\n      pop\n      jump\t// out\n        /* \"#utility.yul\":21792:22335   */\n    tag_508:\n        /* \"#utility.yul\":21893:21895   */\n      0x1f\n        /* \"#utility.yul\":21888:21891   */\n      dup3\n        /* \"#utility.yul\":21885:21896   */\n      gt\n        /* \"#utility.yul\":21882:22328   */\n      iszero\n      tag_736\n      jumpi\n        /* \"#utility.yul\":21927:21965   */\n      tag_737\n        /* \"#utility.yul\":21959:21964   */\n      dup2\n        /* \"#utility.yul\":21927:21965   */\n      tag_497\n      jump\t// in\n    tag_737:\n        /* \"#utility.yul\":22011:22040   */\n      tag_738\n        /* \"#utility.yul\":22029:22039   */\n      dup5\n        /* \"#utility.yul\":22011:22040   */\n      tag_498\n      jump\t// in\n    tag_738:\n        /* \"#utility.yul\":22001:22009   */\n      dup2\n        /* \"#utility.yul\":21997:22041   */\n      add\n        /* \"#utility.yul\":22194:22196   */\n      0x20\n        /* \"#utility.yul\":22182:22192   */\n      dup6\n        /* \"#utility.yul\":22179:22197   */\n      lt\n        /* \"#utility.yul\":22176:22225   */\n      iszero\n      tag_739\n      jumpi\n        /* \"#utility.yul\":22215:22223   */\n      dup2\n        /* \"#utility.yul\":22200:22223   */\n      swap1\n      pop\n        /* \"#utility.yul\":22176:22225   */\n    tag_739:\n        /* \"#utility.yul\":22238:22318   */\n      tag_740\n        /* \"#utility.yul\":22294:22316   */\n      tag_741\n        /* \"#utility.yul\":22312:22315   */\n      dup6\n        /* \"#utility.yul\":22294:22316   */\n      tag_498\n      jump\t// in\n    tag_741:\n        /* \"#utility.yul\":22284:22292   */\n      dup4\n        /* \"#utility.yul\":22280:22317   */\n      add\n        /* \"#utility.yul\":22267:22278   */\n      dup3\n        /* \"#utility.yul\":22238:22318   */\n      tag_507\n      jump\t// in\n    tag_740:\n        /* \"#utility.yul\":21897:22328   */\n      pop\n      pop\n        /* \"#utility.yul\":21882:22328   */\n    tag_736:\n        /* \"#utility.yul\":21792:22335   */\n      pop\n      pop\n      pop\n      jump\t// out\n        /* \"#utility.yul\":22341:22458   */\n    tag_509:\n        /* \"#utility.yul\":22395:22403   */\n      0x00\n        /* \"#utility.yul\":22445:22450   */\n      dup3\n        /* \"#utility.yul\":22439:22443   */\n      dup3\n        /* \"#utility.yul\":22435:22451   */\n      shr\n        /* \"#utility.yul\":22414:22451   */\n      swap1\n      pop\n        /* \"#utility.yul\":22341:22458   */\n      swap3\n      swap2\n      pop\n      pop\n      jump\t// out\n        /* \"#utility.yul\":22464:22633   */\n    tag_510:\n        /* \"#utility.yul\":22508:22514   */\n      0x00\n        /* \"#utility.yul\":22541:22592   */\n      tag_744\n        /* \"#utility.yul\":22589:22590   */\n      0x00\n        /* \"#utility.yul\":22585:22591   */\n      not\n        /* \"#utility.yul\":22577:22582   */\n      dup5\n        /* \"#utility.yul\":22574:22575   */\n      0x08\n        /* \"#utility.yul\":22570:22583   */\n      mul\n        /* \"#utility.yul\":22541:22592   */\n      tag_509\n      jump\t// in\n    tag_744:\n        /* \"#utility.yul\":22537:22593   */\n      not\n        /* \"#utility.yul\":22622:22626   */\n      dup1\n        /* \"#utility.yul\":22616:22620   */\n      dup4\n        /* \"#utility.yul\":22612:22627   */\n      and\n        /* \"#utility.yul\":22602:22627   */\n      swap2\n      pop\n        /* \"#utility.yul\":22515:22633   */\n      pop\n        /* \"#utility.yul\":22464:22633   */\n      swap3\n      swap2\n      pop\n      pop\n      jump\t// out\n        /* \"#utility.yul\":22638:22933   */\n    tag_511:\n        /* \"#utility.yul\":22714:22718   */\n      0x00\n        /* \"#utility.yul\":22860:22889   */\n      tag_746\n        /* \"#utility.yul\":22885:22888   */\n      dup4\n        /* \"#utility.yul\":22879:22883   */\n      dup4\n        /* \"#utility.yul\":22860:22889   */\n      tag_510\n      jump\t// in\n    tag_746:\n        /* \"#utility.yul\":22852:22889   */\n      swap2\n      pop\n        /* \"#utility.yul\":22922:22925   */\n      dup3\n        /* \"#utility.yul\":22919:22920   */\n      0x02\n        /* \"#utility.yul\":22915:22926   */\n      mul\n        /* \"#utility.yul\":22909:22913   */\n      dup3\n        /* \"#utility.yul\":22906:22927   */\n      or\n        /* \"#utility.yul\":22898:22927   */\n      swap1\n      pop\n        /* \"#utility.yul\":22638:22933   */\n      swap3\n      swap2\n      pop\n      pop\n      jump\t// out\n        /* \"#utility.yul\":22938:24333   */\n    tag_152:\n        /* \"#utility.yul\":23055:23092   */\n      tag_748\n        /* \"#utility.yul\":23088:23091   */\n      dup3\n        /* \"#utility.yul\":23055:23092   */\n      tag_462\n      jump\t// in\n    tag_748:\n        /* \"#utility.yul\":23157:23175   */\n      0xffffffffffffffff\n        /* \"#utility.yul\":23149:23155   */\n      dup2\n        /* \"#utility.yul\":23146:23176   */\n      gt\n        /* \"#utility.yul\":23143:23199   */\n      iszero\n      tag_749\n      jumpi\n        /* \"#utility.yul\":23179:23197   */\n      tag_750\n      tag_296\n      jump\t// in\n    tag_750:\n        /* \"#utility.yul\":23143:23199   */\n    tag_749:\n        /* \"#utility.yul\":23223:23261   */\n      tag_751\n        /* \"#utility.yul\":23255:23259   */\n      dup3\n        /* \"#utility.yul\":23249:23260   */\n      sload\n        /* \"#utility.yul\":23223:23261   */\n      tag_256\n      jump\t// in\n    tag_751:\n        /* \"#utility.yul\":23308:23375   */\n      tag_752\n        /* \"#utility.yul\":23368:23374   */\n      dup3\n        /* \"#utility.yul\":23360:23366   */\n      dup3\n        /* \"#utility.yul\":23354:23358   */\n      dup6\n        /* \"#utility.yul\":23308:23375   */\n      tag_508\n      jump\t// in\n    tag_752:\n        /* \"#utility.yul\":23402:23403   */\n      0x00\n        /* \"#utility.yul\":23426:23430   */\n      0x20\n        /* \"#utility.yul\":23413:23430   */\n      swap1\n      pop\n        /* \"#utility.yul\":23458:23460   */\n      0x1f\n        /* \"#utility.yul\":23450:23456   */\n      dup4\n        /* \"#utility.yul\":23447:23461   */\n      gt\n        /* \"#utility.yul\":23475:23476   */\n      0x01\n        /* \"#utility.yul\":23470:24088   */\n      dup2\n      eq\n      tag_754\n      jumpi\n        /* \"#utility.yul\":24132:24133   */\n      0x00\n        /* \"#utility.yul\":24149:24155   */\n      dup5\n        /* \"#utility.yul\":24146:24223   */\n      iszero\n      tag_755\n      jumpi\n        /* \"#utility.yul\":24198:24207   */\n      dup3\n        /* \"#utility.yul\":24193:24196   */\n      dup8\n        /* \"#utility.yul\":24189:24208   */\n      add\n        /* \"#utility.yul\":24183:24209   */\n      mload\n        /* \"#utility.yul\":24174:24209   */\n      swap1\n      pop\n        /* \"#utility.yul\":24146:24223   */\n    tag_755:\n        /* \"#utility.yul\":24249:24316   */\n      tag_756\n        /* \"#utility.yul\":24309:24315   */\n      dup6\n        /* \"#utility.yul\":24302:24307   */\n      dup3\n        /* \"#utility.yul\":24249:24316   */\n      tag_511\n      jump\t// in\n    tag_756:\n        /* \"#utility.yul\":24243:24247   */\n      dup7\n        /* \"#utility.yul\":24236:24317   */\n      sstore\n        /* \"#utility.yul\":24105:24327   */\n      pop\n        /* \"#utility.yul\":23440:24327   */\n      jump(tag_753)\n        /* \"#utility.yul\":23470:24088   */\n    tag_754:\n        /* \"#utility.yul\":23522:23526   */\n      0x1f\n        /* \"#utility.yul\":23518:23527   */\n      not\n        /* \"#utility.yul\":23510:23516   */\n      dup5\n        /* \"#utility.yul\":23506:23528   */\n      and\n        /* \"#utility.yul\":23556:23593   */\n      tag_757\n        /* \"#utility.yul\":23588:23592   */\n      dup7\n        /* \"#utility.yul\":23556:23593   */\n      tag_497\n      jump\t// in\n    tag_757:\n        /* \"#utility.yul\":23615:23616   */\n      0x00\n        /* \"#utility.yul\":23629:23837   */\n    tag_758:\n        /* \"#utility.yul\":23643:23650   */\n      dup3\n        /* \"#utility.yul\":23640:23641   */\n      dup2\n        /* \"#utility.yul\":23637:23651   */\n      lt\n        /* \"#utility.yul\":23629:23837   */\n      iszero\n      tag_760\n      jumpi\n        /* \"#utility.yul\":23722:23731   */\n      dup5\n        /* \"#utility.yul\":23717:23720   */\n      dup10\n        /* \"#utility.yul\":23713:23732   */\n      add\n        /* \"#utility.yul\":23707:23733   */\n      mload\n        /* \"#utility.yul\":23699:23705   */\n      dup3\n        /* \"#utility.yul\":23692:23734   */\n      sstore\n        /* \"#utility.yul\":23773:23774   */\n      0x01\n        /* \"#utility.yul\":23765:23771   */\n      dup3\n        /* \"#utility.yul\":23761:23775   */\n      add\n        /* \"#utility.yul\":23751:23775   */\n      swap2\n      pop\n        /* \"#utility.yul\":23820:23822   */\n      0x20\n        /* \"#utility.yul\":23809:23818   */\n      dup6\n        /* \"#utility.yul\":23805:23823   */\n      add\n        /* \"#utility.yul\":23792:23823   */\n      swap5\n      pop\n        /* \"#utility.yul\":23666:23670   */\n      0x20\n        /* \"#utility.yul\":23663:23664   */\n      dup2\n        /* \"#utility.yul\":23659:23671   */\n      add\n        /* \"#utility.yul\":23654:23671   */\n      swap1\n      pop\n        /* \"#utility.yul\":23629:23837   */\n      jump(tag_758)\n    tag_760:\n        /* \"#utility.yul\":23865:23871   */\n      dup7\n        /* \"#utility.yul\":23856:23863   */\n      dup4\n        /* \"#utility.yul\":23853:23872   */\n      lt\n        /* \"#utility.yul\":23850:24029   */\n      iszero\n      tag_761\n      jumpi\n        /* \"#utility.yul\":23923:23932   */\n      dup5\n        /* \"#utility.yul\":23918:23921   */\n      dup10\n        /* \"#utility.yul\":23914:23933   */\n      add\n        /* \"#utility.yul\":23908:23934   */\n      mload\n        /* \"#utility.yul\":23966:24014   */\n      tag_762\n        /* \"#utility.yul\":24008:24012   */\n      0x1f\n        /* \"#utility.yul\":24000:24006   */\n      dup10\n        /* \"#utility.yul\":23996:24013   */\n      and\n        /* \"#utility.yul\":23985:23994   */\n      dup3\n        /* \"#utility.yul\":23966:24014   */\n      tag_510\n      jump\t// in\n    tag_762:\n        /* \"#utility.yul\":23958:23964   */\n      dup4\n        /* \"#utility.yul\":23951:24015   */\n      sstore\n        /* \"#utility.yul\":23873:24029   */\n      pop\n        /* \"#utility.yul\":23850:24029   */\n    tag_761:\n        /* \"#utility.yul\":24075:24076   */\n      0x01\n        /* \"#utility.yul\":24071:24072   */\n      0x02\n        /* \"#utility.yul\":24063:24069   */\n      dup9\n        /* \"#utility.yul\":24059:24073   */\n      mul\n        /* \"#utility.yul\":24055:24077   */\n      add\n        /* \"#utility.yul\":24049:24053   */\n      dup9\n        /* \"#utility.yul\":24042:24078   */\n      sstore\n        /* \"#utility.yul\":23477:24088   */\n      pop\n      pop\n      pop\n        /* \"#utility.yul\":23440:24327   */\n    tag_753:\n      pop\n        /* \"#utility.yul\":23030:24333   */\n      pop\n      pop\n      pop\n        /* \"#utility.yul\":22938:24333   */\n      pop\n      pop\n      jump\t// out\n        /* \"#utility.yul\":24339:24533   */\n    tag_154:\n        /* \"#utility.yul\":24379:24383   */\n      0x00\n        /* \"#utility.yul\":24399:24419   */\n      tag_764\n        /* \"#utility.yul\":24417:24418   */\n      dup3\n        /* \"#utility.yul\":24399:24419   */\n      tag_450\n      jump\t// in\n    tag_764:\n        /* \"#utility.yul\":24394:24419   */\n      swap2\n      pop\n        /* \"#utility.yul\":24433:24453   */\n      tag_765\n        /* \"#utility.yul\":24451:24452   */\n      dup4\n        /* \"#utility.yul\":24433:24453   */\n      tag_450\n      jump\t// in\n    tag_765:\n        /* \"#utility.yul\":24428:24453   */\n      swap3\n      pop\n        /* \"#utility.yul\":24477:24478   */\n      dup3\n        /* \"#utility.yul\":24474:24475   */\n      dup3\n        /* \"#utility.yul\":24470:24479   */\n      sub\n        /* \"#utility.yul\":24462:24479   */\n      swap1\n      pop\n        /* \"#utility.yul\":24501:24502   */\n      dup2\n        /* \"#utility.yul\":24495:24499   */\n      dup2\n        /* \"#utility.yul\":24492:24503   */\n      gt\n        /* \"#utility.yul\":24489:24526   */\n      iszero\n      tag_766\n      jumpi\n        /* \"#utility.yul\":24506:24524   */\n      tag_767\n      tag_495\n      jump\t// in\n    tag_767:\n        /* \"#utility.yul\":24489:24526   */\n    tag_766:\n        /* \"#utility.yul\":24339:24533   */\n      swap3\n      swap2\n      pop\n      pop\n      jump\t// out\n        /* \"#utility.yul\":24539:24710   */\n    tag_512:\n        /* \"#utility.yul\":24679:24702   */\n      0x4e6f2070726f706f73616c20617661696c61626c650000000000000000000000\n        /* \"#utility.yul\":24675:24676   */\n      0x00\n        /* \"#utility.yul\":24667:24673   */\n      dup3\n        /* \"#utility.yul\":24663:24677   */\n      add\n        /* \"#utility.yul\":24656:24703   */\n      mstore\n        /* \"#utility.yul\":24539:24710   */\n      pop\n      jump\t// out\n        /* \"#utility.yul\":24716:25082   */\n    tag_513:\n        /* \"#utility.yul\":24858:24861   */\n      0x00\n        /* \"#utility.yul\":24879:24946   */\n      tag_770\n        /* \"#utility.yul\":24943:24945   */\n      0x15\n        /* \"#utility.yul\":24938:24941   */\n      dup4\n        /* \"#utility.yul\":24879:24946   */\n      tag_488\n      jump\t// in\n    tag_770:\n        /* \"#utility.yul\":24872:24946   */\n      swap2\n      pop\n        /* \"#utility.yul\":24955:25048   */\n      tag_771\n        /* \"#utility.yul\":25044:25047   */\n      dup3\n        /* \"#utility.yul\":24955:25048   */\n      tag_512\n      jump\t// in\n    tag_771:\n        /* \"#utility.yul\":25073:25075   */\n      0x20\n        /* \"#utility.yul\":25068:25071   */\n      dup3\n        /* \"#utility.yul\":25064:25076   */\n      add\n        /* \"#utility.yul\":25057:25076   */\n      swap1\n      pop\n        /* \"#utility.yul\":24716:25082   */\n      swap2\n      swap1\n      pop\n      jump\t// out\n        /* \"#utility.yul\":25088:25507   */\n    tag_168:\n        /* \"#utility.yul\":25254:25258   */\n      0x00\n        /* \"#utility.yul\":25292:25294   */\n      0x20\n        /* \"#utility.yul\":25281:25290   */\n      dup3\n        /* \"#utility.yul\":25277:25295   */\n      add\n        /* \"#utility.yul\":25269:25295   */\n      swap1\n      pop\n        /* \"#utility.yul\":25341:25350   */\n      dup2\n        /* \"#utility.yul\":25335:25339   */\n      dup2\n        /* \"#utility.yul\":25331:25351   */\n      sub\n        /* \"#utility.yul\":25327:25328   */\n      0x00\n        /* \"#utility.yul\":25316:25325   */\n      dup4\n        /* \"#utility.yul\":25312:25329   */\n      add\n        /* \"#utility.yul\":25305:25352   */\n      mstore\n        /* \"#utility.yul\":25369:25500   */\n      tag_773\n        /* \"#utility.yul\":25495:25499   */\n      dup2\n        /* \"#utility.yul\":25369:25500   */\n      tag_513\n      jump\t// in\n    tag_773:\n        /* \"#utility.yul\":25361:25500   */\n      swap1\n      pop\n        /* \"#utility.yul\":25088:25507   */\n      swap2\n      swap1\n      pop\n      jump\t// out\n        /* \"#utility.yul\":25513:25624   */\n    tag_514:\n        /* \"#utility.yul\":25577:25583   */\n      0x00\n        /* \"#utility.yul\":25611:25616   */\n      dup2\n        /* \"#utility.yul\":25605:25617   */\n      sload\n        /* \"#utility.yul\":25595:25617   */\n      swap1\n      pop\n        /* \"#utility.yul\":25513:25624   */\n      swap2\n      swap1\n      pop\n      jump\t// out\n        /* \"#utility.yul\":25630:25786   */\n    tag_515:\n        /* \"#utility.yul\":25694:25698   */\n      0x00\n        /* \"#utility.yul\":25717:25720   */\n      dup2\n        /* \"#utility.yul\":25709:25720   */\n      swap1\n      pop\n        /* \"#utility.yul\":25740:25743   */\n      dup2\n        /* \"#utility.yul\":25737:25738   */\n      0x00\n        /* \"#utility.yul\":25730:25744   */\n      mstore\n        /* \"#utility.yul\":25774:25778   */\n      0x20\n        /* \"#utility.yul\":25771:25772   */\n      0x00\n        /* \"#utility.yul\":25761:25779   */\n      keccak256\n        /* \"#utility.yul\":25753:25779   */\n      swap1\n      pop\n        /* \"#utility.yul\":25630:25786   */\n      swap2\n      swap1\n      pop\n      jump\t// out\n        /* \"#utility.yul\":25792:25894   */\n    tag_516:\n        /* \"#utility.yul\":25834:25842   */\n      0x00\n        /* \"#utility.yul\":25881:25886   */\n      dup2\n        /* \"#utility.yul\":25878:25879   */\n      0x00\n        /* \"#utility.yul\":25874:25887   */\n      shr\n        /* \"#utility.yul\":25853:25887   */\n      swap1\n      pop\n        /* \"#utility.yul\":25792:25894   */\n      swap2\n      swap1\n      pop\n      jump\t// out\n        /* \"#utility.yul\":25900:25990   */\n    tag_517:\n        /* \"#utility.yul\":25950:25957   */\n      0x00\n        /* \"#utility.yul\":25979:25984   */\n      dup2\n        /* \"#utility.yul\":25968:25984   */\n      swap1\n      pop\n        /* \"#utility.yul\":25900:25990   */\n      swap2\n      swap1\n      pop\n      jump\t// out\n        /* \"#utility.yul\":25996:26163   */\n    tag_518:\n        /* \"#utility.yul\":26066:26071   */\n      0x00\n        /* \"#utility.yul\":26091:26157   */\n      tag_779\n        /* \"#utility.yul\":26122:26156   */\n      tag_780\n        /* \"#utility.yul\":26145:26155   */\n      dup4\n        /* \"#utility.yul\":26122:26156   */\n      tag_516\n      jump\t// in\n    tag_780:\n        /* \"#utility.yul\":26091:26157   */\n      tag_517\n      jump\t// in\n    tag_779:\n        /* \"#utility.yul\":26082:26157   */\n      swap1\n      pop\n        /* \"#utility.yul\":25996:26163   */\n      swap2\n      swap1\n      pop\n      jump\t// out\n        /* \"#utility.yul\":26169:26314   */\n    tag_519:\n        /* \"#utility.yul\":26224:26229   */\n      0x00\n        /* \"#utility.yul\":26249:26307   */\n      tag_782\n        /* \"#utility.yul\":26301:26305   */\n      dup3\n        /* \"#utility.yul\":26295:26306   */\n      sload\n        /* \"#utility.yul\":26249:26307   */\n      tag_518\n      jump\t// in\n    tag_782:\n        /* \"#utility.yul\":26240:26307   */\n      swap1\n      pop\n        /* \"#utility.yul\":26169:26314   */\n      swap2\n      swap1\n      pop\n      jump\t// out\n        /* \"#utility.yul\":26320:26430   */\n    tag_520:\n        /* \"#utility.yul\":26387:26391   */\n      0x00\n        /* \"#utility.yul\":26419:26423   */\n      0x01\n        /* \"#utility.yul\":26414:26417   */\n      dup3\n        /* \"#utility.yul\":26410:26424   */\n      add\n        /* \"#utility.yul\":26402:26424   */\n      swap1\n      pop\n        /* \"#utility.yul\":26320:26430   */\n      swap2\n      swap1\n      pop\n      jump\t// out\n        /* \"#utility.yul\":26466:27217   */\n    tag_521:\n        /* \"#utility.yul\":26582:26585   */\n      0x00\n        /* \"#utility.yul\":26611:26662   */\n      tag_785\n        /* \"#utility.yul\":26656:26661   */\n      dup3\n        /* \"#utility.yul\":26611:26662   */\n      tag_514\n      jump\t// in\n    tag_785:\n        /* \"#utility.yul\":26678:26764   */\n      tag_786\n        /* \"#utility.yul\":26757:26763   */\n      dup2\n        /* \"#utility.yul\":26752:26755   */\n      dup6\n        /* \"#utility.yul\":26678:26764   */\n      tag_480\n      jump\t// in\n    tag_786:\n        /* \"#utility.yul\":26671:26764   */\n      swap4\n      pop\n        /* \"#utility.yul\":26788:26841   */\n      tag_787\n        /* \"#utility.yul\":26835:26840   */\n      dup4\n        /* \"#utility.yul\":26788:26841   */\n      tag_515\n      jump\t// in\n    tag_787:\n        /* \"#utility.yul\":26864:26871   */\n      dup1\n        /* \"#utility.yul\":26895:26896   */\n      0x00\n        /* \"#utility.yul\":26880:27192   */\n    tag_788:\n        /* \"#utility.yul\":26905:26911   */\n      dup4\n        /* \"#utility.yul\":26902:26903   */\n      dup2\n        /* \"#utility.yul\":26899:26912   */\n      lt\n        /* \"#utility.yul\":26880:27192   */\n      iszero\n      tag_790\n      jumpi\n        /* \"#utility.yul\":26975:27019   */\n      tag_791\n        /* \"#utility.yul\":27012:27018   */\n      dup3\n        /* \"#utility.yul\":26975:27019   */\n      tag_519\n      jump\t// in\n    tag_791:\n        /* \"#utility.yul\":27039:27102   */\n      tag_792\n        /* \"#utility.yul\":27098:27101   */\n      dup9\n        /* \"#utility.yul\":27083:27096   */\n      dup3\n        /* \"#utility.yul\":27039:27102   */\n      tag_482\n      jump\t// in\n    tag_792:\n        /* \"#utility.yul\":27032:27102   */\n      swap8\n      pop\n        /* \"#utility.yul\":27125:27182   */\n      tag_793\n        /* \"#utility.yul\":27175:27181   */\n      dup4\n        /* \"#utility.yul\":27125:27182   */\n      tag_520\n      jump\t// in\n    tag_793:\n        /* \"#utility.yul\":27115:27182   */\n      swap3\n      pop\n        /* \"#utility.yul\":26940:27192   */\n      pop\n        /* \"#utility.yul\":26927:26928   */\n      0x01\n        /* \"#utility.yul\":26924:26925   */\n      dup2\n        /* \"#utility.yul\":26920:26929   */\n      add\n        /* \"#utility.yul\":26915:26929   */\n      swap1\n      pop\n        /* \"#utility.yul\":26880:27192   */\n      jump(tag_788)\n    tag_790:\n        /* \"#utility.yul\":26884:26898   */\n      pop\n        /* \"#utility.yul\":27208:27211   */\n      dup6\n        /* \"#utility.yul\":27201:27211   */\n      swap4\n      pop\n        /* \"#utility.yul\":26587:27217   */\n      pop\n      pop\n      pop\n        /* \"#utility.yul\":26466:27217   */\n      swap3\n      swap2\n      pop\n      pop\n      jump\t// out\n        /* \"#utility.yul\":27223:27590   */\n    tag_198:\n        /* \"#utility.yul\":27363:27367   */\n      0x00\n        /* \"#utility.yul\":27401:27403   */\n      0x20\n        /* \"#utility.yul\":27390:27399   */\n      dup3\n        /* \"#utility.yul\":27386:27404   */\n      add\n        /* \"#utility.yul\":27378:27404   */\n      swap1\n      pop\n        /* \"#utility.yul\":27450:27459   */\n      dup2\n        /* \"#utility.yul\":27444:27448   */\n      dup2\n        /* \"#utility.yul\":27440:27460   */\n      sub\n        /* \"#utility.yul\":27436:27437   */\n      0x00\n        /* \"#utility.yul\":27425:27434   */\n      dup4\n        /* \"#utility.yul\":27421:27438   */\n      add\n        /* \"#utility.yul\":27414:27461   */\n      mstore\n        /* \"#utility.yul\":27478:27583   */\n      tag_795\n        /* \"#utility.yul\":27578:27582   */\n      dup2\n        /* \"#utility.yul\":27569:27575   */\n      dup5\n        /* \"#utility.yul\":27478:27583   */\n      tag_521\n      jump\t// in\n    tag_795:\n        /* \"#utility.yul\":27470:27583   */\n      swap1\n      pop\n        /* \"#utility.yul\":27223:27590   */\n      swap3\n      swap2\n      pop\n      pop\n      jump\t// out\n        /* \"#utility.yul\":27596:27829   */\n    tag_293:\n        /* \"#utility.yul\":27635:27638   */\n      0x00\n        /* \"#utility.yul\":27658:27682   */\n      tag_797\n        /* \"#utility.yul\":27676:27681   */\n      dup3\n        /* \"#utility.yul\":27658:27682   */\n      tag_450\n      jump\t// in\n    tag_797:\n        /* \"#utility.yul\":27649:27682   */\n      swap2\n      pop\n        /* \"#utility.yul\":27704:27770   */\n      0xffffffffffffffffffffffffffffffffffffffffffffffffffffffffffffffff\n        /* \"#utility.yul\":27697:27702   */\n      dup3\n        /* \"#utility.yul\":27694:27771   */\n      sub\n        /* \"#utility.yul\":27691:27794   */\n      tag_798\n      jumpi\n        /* \"#utility.yul\":27774:27792   */\n      tag_799\n      tag_495\n      jump\t// in\n    tag_799:\n        /* \"#utility.yul\":27691:27794   */\n    tag_798:\n        /* \"#utility.yul\":27821:27822   */\n      0x01\n        /* \"#utility.yul\":27814:27819   */\n      dup3\n        /* \"#utility.yul\":27810:27823   */\n      add\n        /* \"#utility.yul\":27803:27823   */\n      swap1\n      pop\n        /* \"#utility.yul\":27596:27829   */\n      swap2\n      swap1\n      pop\n      jump\t// out\n        /* \"#utility.yul\":27835:28007   */\n    tag_522:\n        /* \"#utility.yul\":27975:27999   */\n      0x53656c65637420612076616c69642073657373696f6e00000000000000000000\n        /* \"#utility.yul\":27971:27972   */\n      0x00\n        /* \"#utility.yul\":27963:27969   */\n      dup3\n        /* \"#utility.yul\":27959:27973   */\n      add\n        /* \"#utility.yul\":27952:28000   */\n      mstore\n        /* \"#utility.yul\":27835:28007   */\n      pop\n      jump\t// out\n        /* \"#utility.yul\":28013:28379   */\n    tag_523:\n        /* \"#utility.yul\":28155:28158   */\n      0x00\n        /* \"#utility.yul\":28176:28243   */\n      tag_802\n        /* \"#utility.yul\":28240:28242   */\n      0x16\n        /* \"#utility.yul\":28235:28238   */\n      dup4\n        /* \"#utility.yul\":28176:28243   */\n      tag_488\n      jump\t// in\n    tag_802:\n        /* \"#utility.yul\":28169:28243   */\n      swap2\n      pop\n        /* \"#utility.yul\":28252:28345   */\n      tag_803\n        /* \"#utility.yul\":28341:28344   */\n      dup3\n        /* \"#utility.yul\":28252:28345   */\n      tag_522\n      jump\t// in\n    tag_803:\n        /* \"#utility.yul\":28370:28372   */\n      0x20\n        /* \"#utility.yul\":28365:28368   */\n      dup3\n        /* \"#utility.yul\":28361:28373   */\n      add\n        /* \"#utility.yul\":28354:28373   */\n      swap1\n      pop\n        /* \"#utility.yul\":28013:28379   */\n      swap2\n      swap1\n      pop\n      jump\t// out\n        /* \"#utility.yul\":28385:28804   */\n    tag_323:\n        /* \"#utility.yul\":28551:28555   */\n      0x00\n        /* \"#utility.yul\":28589:28591   */\n      0x20\n        /* \"#utility.yul\":28578:28587   */\n      dup3\n        /* \"#utility.yul\":28574:28592   */\n      add\n        /* \"#utility.yul\":28566:28592   */\n      swap1\n      pop\n        /* \"#utility.yul\":28638:28647   */\n      dup2\n        /* \"#utility.yul\":28632:28636   */\n      dup2\n        /* \"#utility.yul\":28628:28648   */\n      sub\n        /* \"#utility.yul\":28624:28625   */\n      0x00\n        /* \"#utility.yul\":28613:28622   */\n      dup4\n        /* \"#utility.yul\":28609:28626   */\n      add\n        /* \"#utility.yul\":28602:28649   */\n      mstore\n        /* \"#utility.yul\":28666:28797   */\n      tag_805\n        /* \"#utility.yul\":28792:28796   */\n      dup2\n        /* \"#utility.yul\":28666:28797   */\n      tag_523\n      jump\t// in\n    tag_805:\n        /* \"#utility.yul\":28658:28797   */\n      swap1\n      pop\n        /* \"#utility.yul\":28385:28804   */\n      swap2\n      swap1\n      pop\n      jump\t// out\n        /* \"#utility.yul\":28810:29034   */\n    tag_524:\n        /* \"#utility.yul\":28950:28984   */\n      0x4164647265737320686173206e6f7420766f746564206f6e2074686174207365\n        /* \"#utility.yul\":28946:28947   */\n      0x00\n        /* \"#utility.yul\":28938:28944   */\n      dup3\n        /* \"#utility.yul\":28934:28948   */\n      add\n        /* \"#utility.yul\":28927:28985   */\n      mstore\n        /* \"#utility.yul\":29019:29026   */\n      0x7373696f6e000000000000000000000000000000000000000000000000000000\n        /* \"#utility.yul\":29014:29016   */\n      0x20\n        /* \"#utility.yul\":29006:29012   */\n      dup3\n        /* \"#utility.yul\":29002:29017   */\n      add\n        /* \"#utility.yul\":28995:29027   */\n      mstore\n        /* \"#utility.yul\":28810:29034   */\n      pop\n      jump\t// out\n        /* \"#utility.yul\":29040:29406   */\n    tag_525:\n        /* \"#utility.yul\":29182:29185   */\n      0x00\n        /* \"#utility.yul\":29203:29270   */\n      tag_808\n        /* \"#utility.yul\":29267:29269   */\n      0x25\n        /* \"#utility.yul\":29262:29265   */\n      dup4\n        /* \"#utility.yul\":29203:29270   */\n      tag_488\n      jump\t// in\n    tag_808:\n        /* \"#utility.yul\":29196:29270   */\n      swap2\n      pop\n        /* \"#utility.yul\":29279:29372   */\n      tag_809\n        /* \"#utility.yul\":29368:29371   */\n      dup3\n        /* \"#utility.yul\":29279:29372   */\n      tag_524\n      jump\t// in\n    tag_809:\n        /* \"#utility.yul\":29397:29399   */\n      0x40\n        /* \"#utility.yul\":29392:29395   */\n      dup3\n        /* \"#utility.yul\":29388:29400   */\n      add\n        /* \"#utility.yul\":29381:29400   */\n      swap1\n      pop\n        /* \"#utility.yul\":29040:29406   */\n      swap2\n      swap1\n      pop\n      jump\t// out\n        /* \"#utility.yul\":29412:29831   */\n    tag_358:\n        /* \"#utility.yul\":29578:29582   */\n      0x00\n        /* \"#utility.yul\":29616:29618   */\n      0x20\n        /* \"#utility.yul\":29605:29614   */\n      dup3\n        /* \"#utility.yul\":29601:29619   */\n      add\n        /* \"#utility.yul\":29593:29619   */\n      swap1\n      pop\n        /* \"#utility.yul\":29665:29674   */\n      dup2\n        /* \"#utility.yul\":29659:29663   */\n      dup2\n        /* \"#utility.yul\":29655:29675   */\n      sub\n        /* \"#utility.yul\":29651:29652   */\n      0x00\n        /* \"#utility.yul\":29640:29649   */\n      dup4\n        /* \"#utility.yul\":29636:29653   */\n      add\n        /* \"#utility.yul\":29629:29676   */\n      mstore\n        /* \"#utility.yul\":29693:29824   */\n      tag_811\n        /* \"#utility.yul\":29819:29823   */\n      dup2\n        /* \"#utility.yul\":29693:29824   */\n      tag_525\n      jump\t// in\n    tag_811:\n        /* \"#utility.yul\":29685:29824   */\n      swap1\n      pop\n        /* \"#utility.yul\":29412:29831   */\n      swap2\n      swap1\n      pop\n      jump\t// out\n        /* \"#utility.yul\":29837:29916   */\n    tag_526:\n        /* \"#utility.yul\":29876:29883   */\n      0x00\n        /* \"#utility.yul\":29905:29910   */\n      dup2\n        /* \"#utility.yul\":29894:29910   */\n      swap1\n      pop\n        /* \"#utility.yul\":29837:29916   */\n      swap2\n      swap1\n      pop\n      jump\t// out\n        /* \"#utility.yul\":29922:30079   */\n    tag_527:\n        /* \"#utility.yul\":30027:30072   */\n      tag_814\n        /* \"#utility.yul\":30047:30071   */\n      tag_815\n        /* \"#utility.yul\":30065:30070   */\n      dup3\n        /* \"#utility.yul\":30047:30071   */\n      tag_450\n      jump\t// in\n    tag_815:\n        /* \"#utility.yul\":30027:30072   */\n      tag_526\n      jump\t// in\n    tag_814:\n        /* \"#utility.yul\":30022:30025   */\n      dup3\n        /* \"#utility.yul\":30015:30073   */\n      mstore\n        /* \"#utility.yul\":29922:30079   */\n      pop\n      pop\n      jump\t// out\n        /* \"#utility.yul\":30085:30179   */\n    tag_528:\n        /* \"#utility.yul\":30118:30126   */\n      0x00\n        /* \"#utility.yul\":30166:30171   */\n      dup2\n        /* \"#utility.yul\":30162:30164   */\n      0x60\n        /* \"#utility.yul\":30158:30172   */\n      shl\n        /* \"#utility.yul\":30137:30172   */\n      swap1\n      pop\n        /* \"#utility.yul\":30085:30179   */\n      swap2\n      swap1\n      pop\n      jump\t// out\n        /* \"#utility.yul\":30185:30279   */\n    tag_529:\n        /* \"#utility.yul\":30224:30231   */\n      0x00\n        /* \"#utility.yul\":30253:30273   */\n      tag_818\n        /* \"#utility.yul\":30267:30272   */\n      dup3\n        /* \"#utility.yul\":30253:30273   */\n      tag_528\n      jump\t// in\n    tag_818:\n        /* \"#utility.yul\":30242:30273   */\n      swap1\n      pop\n        /* \"#utility.yul\":30185:30279   */\n      swap2\n      swap1\n      pop\n      jump\t// out\n        /* \"#utility.yul\":30285:30385   */\n    tag_530:\n        /* \"#utility.yul\":30324:30331   */\n      0x00\n        /* \"#utility.yul\":30353:30379   */\n      tag_820\n        /* \"#utility.yul\":30373:30378   */\n      dup3\n        /* \"#utility.yul\":30353:30379   */\n      tag_529\n      jump\t// in\n    tag_820:\n        /* \"#utility.yul\":30342:30379   */\n      swap1\n      pop\n        /* \"#utility.yul\":30285:30385   */\n      swap2\n      swap1\n      pop\n      jump\t// out\n        /* \"#utility.yul\":30391:30548   */\n    tag_531:\n        /* \"#utility.yul\":30496:30541   */\n      tag_822\n        /* \"#utility.yul\":30516:30540   */\n      tag_823\n        /* \"#utility.yul\":30534:30539   */\n      dup3\n        /* \"#utility.yul\":30516:30540   */\n      tag_470\n      jump\t// in\n    tag_823:\n        /* \"#utility.yul\":30496:30541   */\n      tag_530\n      jump\t// in\n    tag_822:\n        /* \"#utility.yul\":30491:30494   */\n      dup3\n        /* \"#utility.yul\":30484:30542   */\n      mstore\n        /* \"#utility.yul\":30391:30548   */\n      pop\n      pop\n      jump\t// out\n        /* \"#utility.yul\":30554:31092   */\n    tag_431:\n        /* \"#utility.yul\":30722:30725   */\n      0x00\n        /* \"#utility.yul\":30737:30812   */\n      tag_825\n        /* \"#utility.yul\":30808:30811   */\n      dup3\n        /* \"#utility.yul\":30799:30805   */\n      dup7\n        /* \"#utility.yul\":30737:30812   */\n      tag_527\n      jump\t// in\n    tag_825:\n        /* \"#utility.yul\":30837:30839   */\n      0x20\n        /* \"#utility.yul\":30832:30835   */\n      dup3\n        /* \"#utility.yul\":30828:30840   */\n      add\n        /* \"#utility.yul\":30821:30840   */\n      swap2\n      pop\n        /* \"#utility.yul\":30850:30925   */\n      tag_826\n        /* \"#utility.yul\":30921:30924   */\n      dup3\n        /* \"#utility.yul\":30912:30918   */\n      dup6\n        /* \"#utility.yul\":30850:30925   */\n      tag_527\n      jump\t// in\n    tag_826:\n        /* \"#utility.yul\":30950:30952   */\n      0x20\n        /* \"#utility.yul\":30945:30948   */\n      dup3\n        /* \"#utility.yul\":30941:30953   */\n      add\n        /* \"#utility.yul\":30934:30953   */\n      swap2\n      pop\n        /* \"#utility.yul\":30963:31038   */\n      tag_827\n        /* \"#utility.yul\":31034:31037   */\n      dup3\n        /* \"#utility.yul\":31025:31031   */\n      dup5\n        /* \"#utility.yul\":30963:31038   */\n      tag_531\n      jump\t// in\n    tag_827:\n        /* \"#utility.yul\":31063:31065   */\n      0x14\n        /* \"#utility.yul\":31058:31061   */\n      dup3\n        /* \"#utility.yul\":31054:31066   */\n      add\n        /* \"#utility.yul\":31047:31066   */\n      swap2\n      pop\n        /* \"#utility.yul\":31083:31086   */\n      dup2\n        /* \"#utility.yul\":31076:31086   */\n      swap1\n      pop\n        /* \"#utility.yul\":30554:31092   */\n      swap5\n      swap4\n      pop\n      pop\n      pop\n      pop\n      jump\t// out\n        /* \"#utility.yul\":31098:31278   */\n    tag_532:\n        /* \"#utility.yul\":31146:31223   */\n      0x4e487b7100000000000000000000000000000000000000000000000000000000\n        /* \"#utility.yul\":31143:31144   */\n      0x00\n        /* \"#utility.yul\":31136:31224   */\n      mstore\n        /* \"#utility.yul\":31243:31247   */\n      0x12\n        /* \"#utility.yul\":31240:31241   */\n      0x04\n        /* \"#utility.yul\":31233:31248   */\n      mstore\n        /* \"#utility.yul\":31267:31271   */\n      0x24\n        /* \"#utility.yul\":31264:31265   */\n      0x00\n        /* \"#utility.yul\":31257:31272   */\n      revert\n        /* \"#utility.yul\":31284:31460   */\n    tag_433:\n        /* \"#utility.yul\":31316:31317   */\n      0x00\n        /* \"#utility.yul\":31333:31353   */\n      tag_830\n        /* \"#utility.yul\":31351:31352   */\n      dup3\n        /* \"#utility.yul\":31333:31353   */\n      tag_450\n      jump\t// in\n    tag_830:\n        /* \"#utility.yul\":31328:31353   */\n      swap2\n      pop\n        /* \"#utility.yul\":31367:31387   */\n      tag_831\n        /* \"#utility.yul\":31385:31386   */\n      dup4\n        /* \"#utility.yul\":31367:31387   */\n      tag_450\n      jump\t// in\n    tag_831:\n        /* \"#utility.yul\":31362:31387   */\n      swap3\n      pop\n        /* \"#utility.yul\":31406:31407   */\n      dup3\n        /* \"#utility.yul\":31396:31431   */\n      tag_832\n      jumpi\n        /* \"#utility.yul\":31411:31429   */\n      tag_833\n      tag_532\n      jump\t// in\n    tag_833:\n        /* \"#utility.yul\":31396:31431   */\n    tag_832:\n        /* \"#utility.yul\":31452:31453   */\n      dup3\n        /* \"#utility.yul\":31449:31450   */\n      dup3\n        /* \"#utility.yul\":31445:31454   */\n      mod\n        /* \"#utility.yul\":31440:31454   */\n      swap1\n      pop\n        /* \"#utility.yul\":31284:31460   */\n      swap3\n      swap2\n      pop\n      pop\n      jump\t// out\n\n    auxdata: 0xa264697066735822122086fad7ed256bebedb1911ae9e89f64e7cedb3b619ca549d51bd23861f9f265e464736f6c634300081c0033\n}\n",
				"bytecode": {
					"linkReferences": {},
					"object": "608060405234801561000f575f5ffd5b50335f73ffffffffffffffffffffffffffffffffffffffff168173ffffffffffffffffffffffffffffffffffffffff1603610081575f6040517f1e4fbdf70000000000000000000000000000000000000000000000000000000081526004016100789190610196565b60405180910390fd5b6100908161009660201b60201c565b506101af565b5f5f5f9054906101000a900473ffffffffffffffffffffffffffffffffffffffff169050815f5f6101000a81548173ffffffffffffffffffffffffffffffffffffffff021916908373ffffffffffffffffffffffffffffffffffffffff1602179055508173ffffffffffffffffffffffffffffffffffffffff168173ffffffffffffffffffffffffffffffffffffffff167f8be0079c531659141344cd1fd0a4f28419497f9722a3daafe3b4186f6b6457e060405160405180910390a35050565b5f73ffffffffffffffffffffffffffffffffffffffff82169050919050565b5f61018082610157565b9050919050565b61019081610176565b82525050565b5f6020820190506101a95f830184610187565b92915050565b613262806101bc5f395ff3fe608060405234801561000f575f5ffd5b506004361061012a575f3560e01c80638da5cb5b116100ab578063eb0fc7ca1161006f578063eb0fc7ca14610295578063ee74c678146102c5578063f2fde38b146102cf578063f8a3ce82146102eb578063faabb3b3146102f55761012a565b80638da5cb5b146102145780638de86dcf1461023257806398ab9e9214610251578063a7bfab1614610281578063e85a8f2a1461028b5761012a565b80634f9026b6116100f25780634f9026b614610198578063548db174146101a25780635d354d51146101be578063715018a6146101ee5780637f649783146101f85761012a565b80630121b93f1461012e5780630f7e28381461014a57806319f41a40146101545780632f95355b14610172578063378a21781461018e575b5f5ffd5b610148600480360381019061014391906122e5565b610325565b005b61015261075e565b005b61015c610855565b6040516101699190612383565b60405180910390f35b61018c600480360381019061018791906123fd565b610867565b005b610196610a9e565b005b6101a0610f41565b005b6101bc60048036038101906101b7919061249d565b611039565b005b6101d860048036038101906101d391906124e8565b611179565b6040516101e591906125df565b60405180910390f35b6101f661125c565b005b610212600480360381019061020d919061249d565b61126f565b005b61021c61140d565b604051610229919061263e565b60405180910390f35b61023a611434565b6040516102489291906127f4565b60405180910390f35b61026b600480360381019061026691906122e5565b6116ed565b6040516102789190612838565b60405180910390f35b61028961174c565b005b610293611844565b005b6102af60048036038101906102aa919061287b565b611961565b6040516102bc9190612838565b60405180910390f35b6102cd611af3565b005b6102e960048036038101906102e491906128b9565b611beb565b005b6102f3611c6f565b005b61030f600480360381019061030a91906122e5565b611d1a565b60405161031c91906128e4565b60405180910390f35b60095460015f8281526020019081526020015f205f3373ffffffffffffffffffffffffffffffffffffffff1673ffffffffffffffffffffffffffffffffffffffff1681526020019081526020015f205f015f9054906101000a900460ff166103c457336040517feadb950f0000000000000000000000000000000000000000000000000000000081526004016103bb919061263e565b60405180910390fd5b60038060058111156103d9576103d8612310565b5b60045f9054906101000a900460ff1660058111156103fa576103f9612310565b5b1461044c578060045f9054906101000a900460ff166040517f2e73d6d9000000000000000000000000000000000000000000000000000000008152600401610443929190612904565b60405180910390fd5b60015f60095481526020019081526020015f205f3373ffffffffffffffffffffffffffffffffffffffff1673ffffffffffffffffffffffffffffffffffffffff1681526020019081526020015f205f0160019054906101000a900460ff16156104ea576040517f08c379a00000000000000000000000000000000000000000000000000000000081526004016104e190612985565b60405180910390fd5b60025f60095481526020019081526020015f20805490508310610542576040517f08c379a0000000000000000000000000000000000000000000000000000000008152600401610539906129ed565b60405180910390fd5b6001151560035f60095481526020019081526020015f205f8581526020019081526020015f205f9054906101000a900460ff161515146105b7576040517f08c379a00000000000000000000000000000000000000000000000000000000081526004016105ae90612aa1565b60405180910390fd5b6001805f60095481526020019081526020015f205f3373ffffffffffffffffffffffffffffffffffffffff1673ffffffffffffffffffffffffffffffffffffffff1681526020019081526020015f205f0160016101000a81548160ff0219169083151502179055508260015f60095481526020019081526020015f205f3373ffffffffffffffffffffffffffffffffffffffff1673ffffffffffffffffffffffffffffffffffffffff1681526020019081526020015f2060010181905550600160025f60095481526020019081526020015f20848154811061069c5761069b612abf565b5b905f5260205f2090600202016001015f8282546106b99190612b19565b92505081905550600733908060018154018082558091505060019003905f5260205f20015f9091909190916101000a81548173ffffffffffffffffffffffffffffffffffffffff021916908373ffffffffffffffffffffffffffffffffffffffff1602179055507f4d99b957a2bc29a30ebd96a7be8e68fe50a3c701db28a91436490b7d53870ca43384604051610751929190612b4c565b60405180910390a1505050565b610766611e20565b5f600181600581111561077c5761077b612310565b5b60045f9054906101000a900460ff16600581111561079d5761079c612310565b5b146107ef578160045f9054906101000a900460ff166040517f2e73d6d90000000000000000000000000000000000000000000000000000000081526004016107e6929190612904565b60405180910390fd5b8060045f6101000a81548160ff0219169083600581111561081357610812612310565b5b02179055507f0a97a4ee45751e2abf3e4fc8946939630b11b371ea8ae39ccdc3056e98f5cc3f8282604051610849929190612904565b60405180910390a15050565b60045f9054906101000a900460ff1681565b60095460015f8281526020019081526020015f205f3373ffffffffffffffffffffffffffffffffffffffff1673ffffffffffffffffffffffffffffffffffffffff1681526020019081526020015f205f015f9054906101000a900460ff1661090657336040517feadb950f0000000000000000000000000000000000000000000000000000000081526004016108fd919061263e565b60405180910390fd5b600180600581111561091b5761091a612310565b5b60045f9054906101000a900460ff16600581111561093c5761093b612310565b5b1461098e578060045f9054906101000a900460ff166040517f2e73d6d9000000000000000000000000000000000000000000000000000000008152600401610985929190612904565b60405180910390fd5b60025f60095481526020019081526020015f20604051806040016040528086868080601f0160208091040260200160405190810160405280939291908181526020018383808284375f81840152601f19601f8201169050808301925050505050505081526020015f815250908060018154018082558091505060019003905f5260205f2090600202015f909190919091505f820151815f019081610a329190612d9d565b506020820151816001015550507f92e393e9b54e2f801d3ea4beb0c5e71a21cc34a5d34b77d0fb8a3aa1650dc18f600160025f60095481526020019081526020015f2080549050610a839190612e6c565b604051610a909190612838565b60405180910390a150505050565b610aa6611e20565b6004806005811115610abb57610aba612310565b5b60045f9054906101000a900460ff166005811115610adc57610adb612310565b5b14610b2e578060045f9054906101000a900460ff166040517f2e73d6d9000000000000000000000000000000000000000000000000000000008152600401610b25929190612904565b60405180910390fd5b60025f60095481526020019081526020015f20805490505f10610b86576040517f08c379a0000000000000000000000000000000000000000000000000000000008152600401610b7d90612ee9565b60405180910390fd5b5f5f5f90505b60025f60095481526020019081526020015f2080549050811015610c695760025f60095481526020019081526020015f208181548110610bcf57610bce612abf565b5b905f5260205f2090600202016001015482108015610c1f57506001151560035f60095481526020019081526020015f205f8381526020019081526020015f205f9054906101000a900460ff161515145b15610c5c5760025f60095481526020019081526020015f208181548110610c4957610c48612abf565b5b905f5260205f2090600202016001015491505b8080600101915050610b8c565b505f5f90505b60025f60095481526020019081526020015f2080549050811015610cfc578160025f60095481526020019081526020015f208281548110610cb357610cb2612abf565b5b905f5260205f2090600202016001015403610cef57600681908060018154018082558091505060019003905f5260205f20015f90919091909150555b8080600101915050610c6f565b50600160068054905003610da85760065f81548110610d1e57610d1d612abf565b5b905f5260205f20015460055f60095481526020019081526020015f2081905550600560045f6101000a81548160ff02191690836005811115610d6357610d62612310565b5b02179055507f0a97a4ee45751e2abf3e4fc8946939630b11b371ea8ae39ccdc3056e98f5cc3f60046005604051610d9b929190612904565b60405180910390a1610f3d565b6008546006805490501015610e95577fd5020a459a3e0cd6b6fdefde70374f31cb668b547d1223219fbc26f70dfa35546006604051610de79190612fd1565b60405180910390a15f5f90505b60025f60095481526020019081526020015f2080549050811015610e6657610e1b81611ea7565b610e59575f60035f60095481526020019081526020015f205f8381526020019081526020015f205f6101000a81548160ff0219169083151502179055505b8080600101915050610df4565b50610e6f611efe565b610e77612054565b60068054905060088190555060065f610e90919061223a565b610f3c565b6006610ea56006805490506120c0565b81548110610eb657610eb5612abf565b5b905f5260205f20015460055f60095481526020019081526020015f2081905550600560045f6101000a81548160ff02191690836005811115610efb57610efa612310565b5b02179055507f0a97a4ee45751e2abf3e4fc8946939630b11b371ea8ae39ccdc3056e98f5cc3f60046005604051610f33929190612904565b60405180910390a15b5b5050565b610f49611e20565b60046003816005811115610f6057610f5f612310565b5b60045f9054906101000a900460ff166005811115610f8157610f80612310565b5b14610fd3578160045f9054906101000a900460ff166040517f2e73d6d9000000000000000000000000000000000000000000000000000000008152600401610fca929190612904565b60405180910390fd5b8060045f6101000a81548160ff02191690836005811115610ff757610ff6612310565b5b02179055507f0a97a4ee45751e2abf3e4fc8946939630b11b371ea8ae39ccdc3056e98f5cc3f828260405161102d929190612904565b60405180910390a15050565b611041611e20565b5f80600581111561105557611054612310565b5b60045f9054906101000a900460ff16600581111561107657611075612310565b5b146110c8578060045f9054906101000a900460ff166040517f2e73d6d90000000000000000000000000000000000000000000000000000000081526004016110bf929190612904565b60405180910390fd5b5f5f90505b83839050811015611173575f60015f60095481526020019081526020015f205f868685818110611100576110ff612abf565b5b905060200201602081019061111591906128b9565b73ffffffffffffffffffffffffffffffffffffffff1673ffffffffffffffffffffffffffffffffffffffff1681526020019081526020015f205f015f6101000a81548160ff02191690831515021790555080806001019150506110cd565b50505050565b611181612258565b60025f8481526020019081526020015f2082815481106111a4576111a3612abf565b5b905f5260205f2090600202016040518060400160405290815f820180546111ca90612bcd565b80601f01602080910402602001604051908101604052809291908181526020018280546111f690612bcd565b80156112415780601f1061121857610100808354040283529160200191611241565b820191905f5260205f20905b81548152906001019060200180831161122457829003601f168201915b50505050508152602001600182015481525050905092915050565b611264611e20565b61126d5f612105565b565b611277611e20565b5f80600581111561128b5761128a612310565b5b60045f9054906101000a900460ff1660058111156112ac576112ab612310565b5b146112fe578060045f9054906101000a900460ff166040517f2e73d6d90000000000000000000000000000000000000000000000000000000081526004016112f5929190612904565b60405180910390fd5b5f5f90505b83839050811015611407576001805f60095481526020019081526020015f205f86868581811061133657611335612abf565b5b905060200201602081019061134b91906128b9565b73ffffffffffffffffffffffffffffffffffffffff1673ffffffffffffffffffffffffffffffffffffffff1681526020019081526020015f205f015f6101000a81548160ff0219169083151502179055507fb6be2187d059cc2a55fe29e0e503b566e1e0f8c8780096e185429350acffd3dd8484838181106113d0576113cf612abf565b5b90506020020160208101906113e591906128b9565b6040516113f2919061263e565b60405180910390a18080600101915050611303565b50505050565b5f5f5f9054906101000a900473ffffffffffffffffffffffffffffffffffffffff16905090565b6060805f5f90505f5f90505b60025f60095481526020019081526020015f20805490508110156114b4576001151560035f60095481526020019081526020015f205f8381526020019081526020015f205f9054906101000a900460ff161515036114a75781806114a390612ff1565b9250505b8080600101915050611440565b508067ffffffffffffffff8111156114cf576114ce612b73565b5b60405190808252806020026020018201604052801561150857816020015b6114f5612258565b8152602001906001900390816114ed5790505b5092508067ffffffffffffffff81111561152557611524612b73565b5b6040519080825280602002602001820160405280156115535781602001602082028036833780820191505090505b5091505f5f90505f5f90505b60025f60095481526020019081526020015f20805490508110156116e6576001151560035f60095481526020019081526020015f205f8381526020019081526020015f205f9054906101000a900460ff161515036116d95760025f60095481526020019081526020015f2081815481106115dc576115db612abf565b5b905f5260205f2090600202016040518060400160405290815f8201805461160290612bcd565b80601f016020809104026020016040519081016040528092919081815260200182805461162e90612bcd565b80156116795780601f1061165057610100808354040283529160200191611679565b820191905f5260205f20905b81548152906001019060200180831161165c57829003601f168201915b5050505050815260200160018201548152505085838151811061169f5761169e612abf565b5b6020026020010181905250808483815181106116be576116bd612abf565b5b60200260200101818152505081806116d590612ff1565b9250505b808060010191505061155f565b5050509091565b5f600954821115611733576040517f08c379a000000000000000000000000000000000000000000000000000000000815260040161172a90613082565b60405180910390fd5b60055f8381526020019081526020015f20549050919050565b611754611e20565b6003600481600581111561176b5761176a612310565b5b60045f9054906101000a900460ff16600581111561178c5761178b612310565b5b146117de578160045f9054906101000a900460ff166040517f2e73d6d90000000000000000000000000000000000000000000000000000000081526004016117d5929190612904565b60405180910390fd5b8060045f6101000a81548160ff0219169083600581111561180257611801612310565b5b02179055507f0a97a4ee45751e2abf3e4fc8946939630b11b371ea8ae39ccdc3056e98f5cc3f8282604051611838929190612904565b60405180910390a15050565b61184c611e20565b6001600281600581111561186357611862612310565b5b60045f9054906101000a900460ff16600581111561188457611883612310565b5b146118d6578160045f9054906101000a900460ff166040517f2e73d6d90000000000000000000000000000000000000000000000000000000081526004016118cd929190612904565b60405180910390fd5b8060045f6101000a81548160ff021916908360058111156118fa576118f9612310565b5b02179055507f0a97a4ee45751e2abf3e4fc8946939630b11b371ea8ae39ccdc3056e98f5cc3f8282604051611930929190612904565b60405180910390a160025f60095481526020019081526020015f208054905060088190555061195d6121c6565b5050565b5f8160015f8281526020019081526020015f205f3373ffffffffffffffffffffffffffffffffffffffff1673ffffffffffffffffffffffffffffffffffffffff1681526020019081526020015f205f015f9054906101000a900460ff166119ff57336040517feadb950f0000000000000000000000000000000000000000000000000000000081526004016119f6919061263e565b60405180910390fd5b60015f8481526020019081526020015f205f8573ffffffffffffffffffffffffffffffffffffffff1673ffffffffffffffffffffffffffffffffffffffff1681526020019081526020015f205f0160019054906101000a900460ff16611a9a576040517f08c379a0000000000000000000000000000000000000000000000000000000008152600401611a9190613110565b60405180910390fd5b60015f8481526020019081526020015f205f8573ffffffffffffffffffffffffffffffffffffffff1673ffffffffffffffffffffffffffffffffffffffff1681526020019081526020015f206001015491505092915050565b611afb611e20565b60026003816005811115611b1257611b11612310565b5b60045f9054906101000a900460ff166005811115611b3357611b32612310565b5b14611b85578160045f9054906101000a900460ff166040517f2e73d6d9000000000000000000000000000000000000000000000000000000008152600401611b7c929190612904565b60405180910390fd5b8060045f6101000a81548160ff02191690836005811115611ba957611ba8612310565b5b02179055507f0a97a4ee45751e2abf3e4fc8946939630b11b371ea8ae39ccdc3056e98f5cc3f8282604051611bdf929190612904565b60405180910390a15050565b611bf3611e20565b5f73ffffffffffffffffffffffffffffffffffffffff168173ffffffffffffffffffffffffffffffffffffffff1603611c63575f6040517f1e4fbdf7000000000000000000000000000000000000000000000000000000008152600401611c5a919061263e565b60405180910390fd5b611c6c81612105565b50565b611c77611e20565b60095f815480929190611c8990612ff1565b919050555060065f611c9b919061223a565b60075f611ca89190612271565b7f0a97a4ee45751e2abf3e4fc8946939630b11b371ea8ae39ccdc3056e98f5cc3f60045f9054906101000a900460ff165f604051611ce7929190612904565b60405180910390a15f60045f6101000a81548160ff02191690836005811115611d1357611d12612310565b5b0217905550565b606060025f8381526020019081526020015f20805480602002602001604051908101604052809291908181526020015f905b82821015611e15578382905f5260205f2090600202016040518060400160405290815f82018054611d7c90612bcd565b80601f0160208091040260200160405190810160405280929190818152602001828054611da890612bcd565b8015611df35780601f10611dca57610100808354040283529160200191611df3565b820191905f5260205f20905b815481529060010190602001808311611dd657829003601f168201915b5050505050815260200160018201548152505081526020019060010190611d4c565b505050509050919050565b611e28612233565b73ffffffffffffffffffffffffffffffffffffffff16611e4661140d565b73ffffffffffffffffffffffffffffffffffffffff1614611ea557611e69612233565b6040517f118cdaa7000000000000000000000000000000000000000000000000000000008152600401611e9c919061263e565b60405180910390fd5b565b5f5f5f90505b600680549050811015611ef4578260068281548110611ecf57611ece612abf565b5b905f5260205f20015403611ee7576001915050611ef9565b8080600101915050611ead565b505f90505b919050565b5f5f90505b600780549050811015612051575f60015f60095481526020019081526020015f205f60078481548110611f3957611f38612abf565b5b905f5260205f20015f9054906101000a900473ffffffffffffffffffffffffffffffffffffffff1673ffffffffffffffffffffffffffffffffffffffff1673ffffffffffffffffffffffffffffffffffffffff1681526020019081526020015f205f0160016101000a81548160ff0219169083151502179055505f60015f60095481526020019081526020015f205f60078481548110611fdc57611fdb612abf565b5b905f5260205f20015f9054906101000a900473ffffffffffffffffffffffffffffffffffffffff1673ffffffffffffffffffffffffffffffffffffffff1673ffffffffffffffffffffffffffffffffffffffff1681526020019081526020015f20600101819055508080600101915050611f03565b50565b5f5f90505b60025f60095481526020019081526020015f20805490508110156120bd575f60025f60095481526020019081526020015f20828154811061209d5761209c612abf565b5b905f5260205f209060020201600101819055508080600101915050612059565b50565b5f5f4244336040516020016120d793929190613193565b604051602081830303815290604052805190602001205f1c905082816120fd91906131fc565b915050919050565b5f5f5f9054906101000a900473ffffffffffffffffffffffffffffffffffffffff169050815f5f6101000a81548173ffffffffffffffffffffffffffffffffffffffff021916908373ffffffffffffffffffffffffffffffffffffffff1602179055508173ffffffffffffffffffffffffffffffffffffffff168173ffffffffffffffffffffffffffffffffffffffff167f8be0079c531659141344cd1fd0a4f28419497f9722a3daafe3b4186f6b6457e060405160405180910390a35050565b5f5f90505b60025f60095481526020019081526020015f208054905081101561223057600160035f60095481526020019081526020015f205f8381526020019081526020015f205f6101000a81548160ff02191690831515021790555080806001019150506121cb565b50565b5f33905090565b5080545f8255905f5260205f2090810190612255919061228f565b50565b6040518060400160405280606081526020015f81525090565b5080545f8255905f5260205f209081019061228c919061228f565b50565b5b808211156122a6575f815f905550600101612290565b5090565b5f5ffd5b5f5ffd5b5f819050919050565b6122c4816122b2565b81146122ce575f5ffd5b50565b5f813590506122df816122bb565b92915050565b5f602082840312156122fa576122f96122aa565b5b5f612307848285016122d1565b91505092915050565b7f4e487b71000000000000000000000000000000000000000000000000000000005f52602160045260245ffd5b6006811061234e5761234d612310565b5b50565b5f81905061235e8261233d565b919050565b5f61236d82612351565b9050919050565b61237d81612363565b82525050565b5f6020820190506123965f830184612374565b92915050565b5f5ffd5b5f5ffd5b5f5ffd5b5f5f83601f8401126123bd576123bc61239c565b5b8235905067ffffffffffffffff8111156123da576123d96123a0565b5b6020830191508360018202830111156123f6576123f56123a4565b5b9250929050565b5f5f60208385031215612413576124126122aa565b5b5f83013567ffffffffffffffff8111156124305761242f6122ae565b5b61243c858286016123a8565b92509250509250929050565b5f5f83601f84011261245d5761245c61239c565b5b8235905067ffffffffffffffff81111561247a576124796123a0565b5b602083019150836020820283011115612496576124956123a4565b5b9250929050565b5f5f602083850312156124b3576124b26122aa565b5b5f83013567ffffffffffffffff8111156124d0576124cf6122ae565b5b6124dc85828601612448565b92509250509250929050565b5f5f604083850312156124fe576124fd6122aa565b5b5f61250b858286016122d1565b925050602061251c858286016122d1565b9150509250929050565b5f81519050919050565b5f82825260208201905092915050565b8281835e5f83830152505050565b5f601f19601f8301169050919050565b5f61256882612526565b6125728185612530565b9350612582818560208601612540565b61258b8161254e565b840191505092915050565b61259f816122b2565b82525050565b5f604083015f8301518482035f8601526125bf828261255e565b91505060208301516125d46020860182612596565b508091505092915050565b5f6020820190508181035f8301526125f781846125a5565b905092915050565b5f73ffffffffffffffffffffffffffffffffffffffff82169050919050565b5f612628826125ff565b9050919050565b6126388161261e565b82525050565b5f6020820190506126515f83018461262f565b92915050565b5f81519050919050565b5f82825260208201905092915050565b5f819050602082019050919050565b5f604083015f8301518482035f86015261269a828261255e565b91505060208301516126af6020860182612596565b508091505092915050565b5f6126c58383612680565b905092915050565b5f602082019050919050565b5f6126e382612657565b6126ed8185612661565b9350836020820285016126ff85612671565b805f5b8581101561273a578484038952815161271b85826126ba565b9450612726836126cd565b925060208a01995050600181019050612702565b50829750879550505050505092915050565b5f81519050919050565b5f82825260208201905092915050565b5f819050602082019050919050565b5f6127808383612596565b60208301905092915050565b5f602082019050919050565b5f6127a28261274c565b6127ac8185612756565b93506127b783612766565b805f5b838110156127e75781516127ce8882612775565b97506127d98361278c565b9250506001810190506127ba565b5085935050505092915050565b5f6040820190508181035f83015261280c81856126d9565b905081810360208301526128208184612798565b90509392505050565b612832816122b2565b82525050565b5f60208201905061284b5f830184612829565b92915050565b61285a8161261e565b8114612864575f5ffd5b50565b5f8135905061287581612851565b92915050565b5f5f60408385031215612891576128906122aa565b5b5f61289e85828601612867565b92505060206128af858286016122d1565b9150509250929050565b5f602082840312156128ce576128cd6122aa565b5b5f6128db84828501612867565b91505092915050565b5f6020820190508181035f8301526128fc81846126d9565b905092915050565b5f6040820190506129175f830185612374565b6129246020830184612374565b9392505050565b5f82825260208201905092915050565b7f596f75206861766520616c726561647920766f746564000000000000000000005f82015250565b5f61296f60168361292b565b915061297a8261293b565b602082019050919050565b5f6020820190508181035f83015261299c81612963565b9050919050565b7f496e76616c69642070726f706f73616c204944000000000000000000000000005f82015250565b5f6129d760138361292b565b91506129e2826129a3565b602082019050919050565b5f6020820190508181035f830152612a04816129cb565b9050919050565b7f566f74696e67206973206e6f7420616c6c6f776564206f6e20746869732070725f8201527f6f706f73616c2e20506c656173652063686f6f736520616e20656c696769626c60208201527f652070726f706f73616c2e000000000000000000000000000000000000000000604082015250565b5f612a8b604b8361292b565b9150612a9682612a0b565b606082019050919050565b5f6020820190508181035f830152612ab881612a7f565b9050919050565b7f4e487b71000000000000000000000000000000000000000000000000000000005f52603260045260245ffd5b7f4e487b71000000000000000000000000000000000000000000000000000000005f52601160045260245ffd5b5f612b23826122b2565b9150612b2e836122b2565b9250828201905080821115612b4657612b45612aec565b5b92915050565b5f604082019050612b5f5f83018561262f565b612b6c6020830184612829565b9392505050565b7f4e487b71000000000000000000000000000000000000000000000000000000005f52604160045260245ffd5b7f4e487b71000000000000000000000000000000000000000000000000000000005f52602260045260245ffd5b5f6002820490506001821680612be457607f821691505b602082108103612bf757612bf6612ba0565b5b50919050565b5f819050815f5260205f209050919050565b5f6020601f8301049050919050565b5f82821b905092915050565b5f60088302612c597fffffffffffffffffffffffffffffffffffffffffffffffffffffffffffffffff82612c1e565b612c638683612c1e565b95508019841693508086168417925050509392505050565b5f819050919050565b5f612c9e612c99612c94846122b2565b612c7b565b6122b2565b9050919050565b5f819050919050565b612cb783612c84565b612ccb612cc382612ca5565b848454612c2a565b825550505050565b5f5f905090565b612ce2612cd3565b612ced818484612cae565b505050565b5b81811015612d1057612d055f82612cda565b600181019050612cf3565b5050565b601f821115612d5557612d2681612bfd565b612d2f84612c0f565b81016020851015612d3e578190505b612d52612d4a85612c0f565b830182612cf2565b50505b505050565b5f82821c905092915050565b5f612d755f1984600802612d5a565b1980831691505092915050565b5f612d8d8383612d66565b9150826002028217905092915050565b612da682612526565b67ffffffffffffffff811115612dbf57612dbe612b73565b5b612dc98254612bcd565b612dd4828285612d14565b5f60209050601f831160018114612e05575f8415612df3578287015190505b612dfd8582612d82565b865550612e64565b601f198416612e1386612bfd565b5f5b82811015612e3a57848901518255600182019150602085019450602081019050612e15565b86831015612e575784890151612e53601f891682612d66565b8355505b6001600288020188555050505b505050505050565b5f612e76826122b2565b9150612e81836122b2565b9250828203905081811115612e9957612e98612aec565b5b92915050565b7f4e6f2070726f706f73616c20617661696c61626c6500000000000000000000005f82015250565b5f612ed360158361292b565b9150612ede82612e9f565b602082019050919050565b5f6020820190508181035f830152612f0081612ec7565b9050919050565b5f81549050919050565b5f819050815f5260205f209050919050565b5f815f1c9050919050565b5f819050919050565b5f612f49612f4483612f23565b612f2e565b9050919050565b5f612f5b8254612f37565b9050919050565b5f600182019050919050565b5f612f7882612f07565b612f828185612756565b9350612f8d83612f11565b805f5b83811015612fc457612fa182612f50565b612fab8882612775565b9750612fb683612f62565b925050600181019050612f90565b5085935050505092915050565b5f6020820190508181035f830152612fe98184612f6e565b905092915050565b5f612ffb826122b2565b91507fffffffffffffffffffffffffffffffffffffffffffffffffffffffffffffffff820361302d5761302c612aec565b5b600182019050919050565b7f53656c65637420612076616c69642073657373696f6e000000000000000000005f82015250565b5f61306c60168361292b565b915061307782613038565b602082019050919050565b5f6020820190508181035f83015261309981613060565b9050919050565b7f4164647265737320686173206e6f7420766f746564206f6e20746861742073655f8201527f7373696f6e000000000000000000000000000000000000000000000000000000602082015250565b5f6130fa60258361292b565b9150613105826130a0565b604082019050919050565b5f6020820190508181035f830152613127816130ee565b9050919050565b5f819050919050565b613148613143826122b2565b61312e565b82525050565b5f8160601b9050919050565b5f6131648261314e565b9050919050565b5f6131758261315a565b9050919050565b61318d6131888261261e565b61316b565b82525050565b5f61319e8286613137565b6020820191506131ae8285613137565b6020820191506131be828461317c565b601482019150819050949350505050565b7f4e487b71000000000000000000000000000000000000000000000000000000005f52601260045260245ffd5b5f613206826122b2565b9150613211836122b2565b925082613221576132206131cf565b5b82820690509291505056fea264697066735822122086fad7ed256bebedb1911ae9e89f64e7cedb3b619ca549d51bd23861f9f265e464736f6c634300081c0033",
					"opcodes": "PUSH1 0x80 PUSH1 0x40 MSTORE CALLVALUE DUP1 ISZERO PUSH2 0xF JUMPI PUSH0 PUSH0 REVERT JUMPDEST POP CALLER PUSH0 PUSH20 0xFFFFFFFFFFFFFFFFFFFFFFFFFFFFFFFFFFFFFFFF AND DUP2 PUSH20 0xFFFFFFFFFFFFFFFFFFFFFFFFFFFFFFFFFFFFFFFF AND SUB PUSH2 0x81 JUMPI PUSH0 PUSH1 0x40 MLOAD PUSH32 0x1E4FBDF700000000000000000000000000000000000000000000000000000000 DUP2 MSTORE PUSH1 0x4 ADD PUSH2 0x78 SWAP2 SWAP1 PUSH2 0x196 JUMP JUMPDEST PUSH1 0x40 MLOAD DUP1 SWAP2 SUB SWAP1 REVERT JUMPDEST PUSH2 0x90 DUP2 PUSH2 0x96 PUSH1 0x20 SHL PUSH1 0x20 SHR JUMP JUMPDEST POP PUSH2 0x1AF JUMP JUMPDEST PUSH0 PUSH0 PUSH0 SWAP1 SLOAD SWAP1 PUSH2 0x100 EXP SWAP1 DIV PUSH20 0xFFFFFFFFFFFFFFFFFFFFFFFFFFFFFFFFFFFFFFFF AND SWAP1 POP DUP2 PUSH0 PUSH0 PUSH2 0x100 EXP DUP2 SLOAD DUP2 PUSH20 0xFFFFFFFFFFFFFFFFFFFFFFFFFFFFFFFFFFFFFFFF MUL NOT AND SWAP1 DUP4 PUSH20 0xFFFFFFFFFFFFFFFFFFFFFFFFFFFFFFFFFFFFFFFF AND MUL OR SWAP1 SSTORE POP DUP2 PUSH20 0xFFFFFFFFFFFFFFFFFFFFFFFFFFFFFFFFFFFFFFFF AND DUP2 PUSH20 0xFFFFFFFFFFFFFFFFFFFFFFFFFFFFFFFFFFFFFFFF AND PUSH32 0x8BE0079C531659141344CD1FD0A4F28419497F9722A3DAAFE3B4186F6B6457E0 PUSH1 0x40 MLOAD PUSH1 0x40 MLOAD DUP1 SWAP2 SUB SWAP1 LOG3 POP POP JUMP JUMPDEST PUSH0 PUSH20 0xFFFFFFFFFFFFFFFFFFFFFFFFFFFFFFFFFFFFFFFF DUP3 AND SWAP1 POP SWAP2 SWAP1 POP JUMP JUMPDEST PUSH0 PUSH2 0x180 DUP3 PUSH2 0x157 JUMP JUMPDEST SWAP1 POP SWAP2 SWAP1 POP JUMP JUMPDEST PUSH2 0x190 DUP2 PUSH2 0x176 JUMP JUMPDEST DUP3 MSTORE POP POP JUMP JUMPDEST PUSH0 PUSH1 0x20 DUP3 ADD SWAP1 POP PUSH2 0x1A9 PUSH0 DUP4 ADD DUP5 PUSH2 0x187 JUMP JUMPDEST SWAP3 SWAP2 POP POP JUMP JUMPDEST PUSH2 0x3262 DUP1 PUSH2 0x1BC PUSH0 CODECOPY PUSH0 RETURN INVALID PUSH1 0x80 PUSH1 0x40 MSTORE CALLVALUE DUP1 ISZERO PUSH2 0xF JUMPI PUSH0 PUSH0 REVERT JUMPDEST POP PUSH1 0x4 CALLDATASIZE LT PUSH2 0x12A JUMPI PUSH0 CALLDATALOAD PUSH1 0xE0 SHR DUP1 PUSH4 0x8DA5CB5B GT PUSH2 0xAB JUMPI DUP1 PUSH4 0xEB0FC7CA GT PUSH2 0x6F JUMPI DUP1 PUSH4 0xEB0FC7CA EQ PUSH2 0x295 JUMPI DUP1 PUSH4 0xEE74C678 EQ PUSH2 0x2C5 JUMPI DUP1 PUSH4 0xF2FDE38B EQ PUSH2 0x2CF JUMPI DUP1 PUSH4 0xF8A3CE82 EQ PUSH2 0x2EB JUMPI DUP1 PUSH4 0xFAABB3B3 EQ PUSH2 0x2F5 JUMPI PUSH2 0x12A JUMP JUMPDEST DUP1 PUSH4 0x8DA5CB5B EQ PUSH2 0x214 JUMPI DUP1 PUSH4 0x8DE86DCF EQ PUSH2 0x232 JUMPI DUP1 PUSH4 0x98AB9E92 EQ PUSH2 0x251 JUMPI DUP1 PUSH4 0xA7BFAB16 EQ PUSH2 0x281 JUMPI DUP1 PUSH4 0xE85A8F2A EQ PUSH2 0x28B JUMPI PUSH2 0x12A JUMP JUMPDEST DUP1 PUSH4 0x4F9026B6 GT PUSH2 0xF2 JUMPI DUP1 PUSH4 0x4F9026B6 EQ PUSH2 0x198 JUMPI DUP1 PUSH4 0x548DB174 EQ PUSH2 0x1A2 JUMPI DUP1 PUSH4 0x5D354D51 EQ PUSH2 0x1BE JUMPI DUP1 PUSH4 0x715018A6 EQ PUSH2 0x1EE JUMPI DUP1 PUSH4 0x7F649783 EQ PUSH2 0x1F8 JUMPI PUSH2 0x12A JUMP JUMPDEST DUP1 PUSH4 0x121B93F EQ PUSH2 0x12E JUMPI DUP1 PUSH4 0xF7E2838 EQ PUSH2 0x14A JUMPI DUP1 PUSH4 0x19F41A40 EQ PUSH2 0x154 JUMPI DUP1 PUSH4 0x2F95355B EQ PUSH2 0x172 JUMPI DUP1 PUSH4 0x378A2178 EQ PUSH2 0x18E JUMPI JUMPDEST PUSH0 PUSH0 REVERT JUMPDEST PUSH2 0x148 PUSH1 0x4 DUP1 CALLDATASIZE SUB DUP2 ADD SWAP1 PUSH2 0x143 SWAP2 SWAP1 PUSH2 0x22E5 JUMP JUMPDEST PUSH2 0x325 JUMP JUMPDEST STOP JUMPDEST PUSH2 0x152 PUSH2 0x75E JUMP JUMPDEST STOP JUMPDEST PUSH2 0x15C PUSH2 0x855 JUMP JUMPDEST PUSH1 0x40 MLOAD PUSH2 0x169 SWAP2 SWAP1 PUSH2 0x2383 JUMP JUMPDEST PUSH1 0x40 MLOAD DUP1 SWAP2 SUB SWAP1 RETURN JUMPDEST PUSH2 0x18C PUSH1 0x4 DUP1 CALLDATASIZE SUB DUP2 ADD SWAP1 PUSH2 0x187 SWAP2 SWAP1 PUSH2 0x23FD JUMP JUMPDEST PUSH2 0x867 JUMP JUMPDEST STOP JUMPDEST PUSH2 0x196 PUSH2 0xA9E JUMP JUMPDEST STOP JUMPDEST PUSH2 0x1A0 PUSH2 0xF41 JUMP JUMPDEST STOP JUMPDEST PUSH2 0x1BC PUSH1 0x4 DUP1 CALLDATASIZE SUB DUP2 ADD SWAP1 PUSH2 0x1B7 SWAP2 SWAP1 PUSH2 0x249D JUMP JUMPDEST PUSH2 0x1039 JUMP JUMPDEST STOP JUMPDEST PUSH2 0x1D8 PUSH1 0x4 DUP1 CALLDATASIZE SUB DUP2 ADD SWAP1 PUSH2 0x1D3 SWAP2 SWAP1 PUSH2 0x24E8 JUMP JUMPDEST PUSH2 0x1179 JUMP JUMPDEST PUSH1 0x40 MLOAD PUSH2 0x1E5 SWAP2 SWAP1 PUSH2 0x25DF JUMP JUMPDEST PUSH1 0x40 MLOAD DUP1 SWAP2 SUB SWAP1 RETURN JUMPDEST PUSH2 0x1F6 PUSH2 0x125C JUMP JUMPDEST STOP JUMPDEST PUSH2 0x212 PUSH1 0x4 DUP1 CALLDATASIZE SUB DUP2 ADD SWAP1 PUSH2 0x20D SWAP2 SWAP1 PUSH2 0x249D JUMP JUMPDEST PUSH2 0x126F JUMP JUMPDEST STOP JUMPDEST PUSH2 0x21C PUSH2 0x140D JUMP JUMPDEST PUSH1 0x40 MLOAD PUSH2 0x229 SWAP2 SWAP1 PUSH2 0x263E JUMP JUMPDEST PUSH1 0x40 MLOAD DUP1 SWAP2 SUB SWAP1 RETURN JUMPDEST PUSH2 0x23A PUSH2 0x1434 JUMP JUMPDEST PUSH1 0x40 MLOAD PUSH2 0x248 SWAP3 SWAP2 SWAP1 PUSH2 0x27F4 JUMP JUMPDEST PUSH1 0x40 MLOAD DUP1 SWAP2 SUB SWAP1 RETURN JUMPDEST PUSH2 0x26B PUSH1 0x4 DUP1 CALLDATASIZE SUB DUP2 ADD SWAP1 PUSH2 0x266 SWAP2 SWAP1 PUSH2 0x22E5 JUMP JUMPDEST PUSH2 0x16ED JUMP JUMPDEST PUSH1 0x40 MLOAD PUSH2 0x278 SWAP2 SWAP1 PUSH2 0x2838 JUMP JUMPDEST PUSH1 0x40 MLOAD DUP1 SWAP2 SUB SWAP1 RETURN JUMPDEST PUSH2 0x289 PUSH2 0x174C JUMP JUMPDEST STOP JUMPDEST PUSH2 0x293 PUSH2 0x1844 JUMP JUMPDEST STOP JUMPDEST PUSH2 0x2AF PUSH1 0x4 DUP1 CALLDATASIZE SUB DUP2 ADD SWAP1 PUSH2 0x2AA SWAP2 SWAP1 PUSH2 0x287B JUMP JUMPDEST PUSH2 0x1961 JUMP JUMPDEST PUSH1 0x40 MLOAD PUSH2 0x2BC SWAP2 SWAP1 PUSH2 0x2838 JUMP JUMPDEST PUSH1 0x40 MLOAD DUP1 SWAP2 SUB SWAP1 RETURN JUMPDEST PUSH2 0x2CD PUSH2 0x1AF3 JUMP JUMPDEST STOP JUMPDEST PUSH2 0x2E9 PUSH1 0x4 DUP1 CALLDATASIZE SUB DUP2 ADD SWAP1 PUSH2 0x2E4 SWAP2 SWAP1 PUSH2 0x28B9 JUMP JUMPDEST PUSH2 0x1BEB JUMP JUMPDEST STOP JUMPDEST PUSH2 0x2F3 PUSH2 0x1C6F JUMP JUMPDEST STOP JUMPDEST PUSH2 0x30F PUSH1 0x4 DUP1 CALLDATASIZE SUB DUP2 ADD SWAP1 PUSH2 0x30A SWAP2 SWAP1 PUSH2 0x22E5 JUMP JUMPDEST PUSH2 0x1D1A JUMP JUMPDEST PUSH1 0x40 MLOAD PUSH2 0x31C SWAP2 SWAP1 PUSH2 0x28E4 JUMP JUMPDEST PUSH1 0x40 MLOAD DUP1 SWAP2 SUB SWAP1 RETURN JUMPDEST PUSH1 0x9 SLOAD PUSH1 0x1 PUSH0 DUP3 DUP2 MSTORE PUSH1 0x20 ADD SWAP1 DUP2 MSTORE PUSH1 0x20 ADD PUSH0 KECCAK256 PUSH0 CALLER PUSH20 0xFFFFFFFFFFFFFFFFFFFFFFFFFFFFFFFFFFFFFFFF AND PUSH20 0xFFFFFFFFFFFFFFFFFFFFFFFFFFFFFFFFFFFFFFFF AND DUP2 MSTORE PUSH1 0x20 ADD SWAP1 DUP2 MSTORE PUSH1 0x20 ADD PUSH0 KECCAK256 PUSH0 ADD PUSH0 SWAP1 SLOAD SWAP1 PUSH2 0x100 EXP SWAP1 DIV PUSH1 0xFF AND PUSH2 0x3C4 JUMPI CALLER PUSH1 0x40 MLOAD PUSH32 0xEADB950F00000000000000000000000000000000000000000000000000000000 DUP2 MSTORE PUSH1 0x4 ADD PUSH2 0x3BB SWAP2 SWAP1 PUSH2 0x263E JUMP JUMPDEST PUSH1 0x40 MLOAD DUP1 SWAP2 SUB SWAP1 REVERT JUMPDEST PUSH1 0x3 DUP1 PUSH1 0x5 DUP2 GT ISZERO PUSH2 0x3D9 JUMPI PUSH2 0x3D8 PUSH2 0x2310 JUMP JUMPDEST JUMPDEST PUSH1 0x4 PUSH0 SWAP1 SLOAD SWAP1 PUSH2 0x100 EXP SWAP1 DIV PUSH1 0xFF AND PUSH1 0x5 DUP2 GT ISZERO PUSH2 0x3FA JUMPI PUSH2 0x3F9 PUSH2 0x2310 JUMP JUMPDEST JUMPDEST EQ PUSH2 0x44C JUMPI DUP1 PUSH1 0x4 PUSH0 SWAP1 SLOAD SWAP1 PUSH2 0x100 EXP SWAP1 DIV PUSH1 0xFF AND PUSH1 0x40 MLOAD PUSH32 0x2E73D6D900000000000000000000000000000000000000000000000000000000 DUP2 MSTORE PUSH1 0x4 ADD PUSH2 0x443 SWAP3 SWAP2 SWAP1 PUSH2 0x2904 JUMP JUMPDEST PUSH1 0x40 MLOAD DUP1 SWAP2 SUB SWAP1 REVERT JUMPDEST PUSH1 0x1 PUSH0 PUSH1 0x9 SLOAD DUP2 MSTORE PUSH1 0x20 ADD SWAP1 DUP2 MSTORE PUSH1 0x20 ADD PUSH0 KECCAK256 PUSH0 CALLER PUSH20 0xFFFFFFFFFFFFFFFFFFFFFFFFFFFFFFFFFFFFFFFF AND PUSH20 0xFFFFFFFFFFFFFFFFFFFFFFFFFFFFFFFFFFFFFFFF AND DUP2 MSTORE PUSH1 0x20 ADD SWAP1 DUP2 MSTORE PUSH1 0x20 ADD PUSH0 KECCAK256 PUSH0 ADD PUSH1 0x1 SWAP1 SLOAD SWAP1 PUSH2 0x100 EXP SWAP1 DIV PUSH1 0xFF AND ISZERO PUSH2 0x4EA JUMPI PUSH1 0x40 MLOAD PUSH32 0x8C379A000000000000000000000000000000000000000000000000000000000 DUP2 MSTORE PUSH1 0x4 ADD PUSH2 0x4E1 SWAP1 PUSH2 0x2985 JUMP JUMPDEST PUSH1 0x40 MLOAD DUP1 SWAP2 SUB SWAP1 REVERT JUMPDEST PUSH1 0x2 PUSH0 PUSH1 0x9 SLOAD DUP2 MSTORE PUSH1 0x20 ADD SWAP1 DUP2 MSTORE PUSH1 0x20 ADD PUSH0 KECCAK256 DUP1 SLOAD SWAP1 POP DUP4 LT PUSH2 0x542 JUMPI PUSH1 0x40 MLOAD PUSH32 0x8C379A000000000000000000000000000000000000000000000000000000000 DUP2 MSTORE PUSH1 0x4 ADD PUSH2 0x539 SWAP1 PUSH2 0x29ED JUMP JUMPDEST PUSH1 0x40 MLOAD DUP1 SWAP2 SUB SWAP1 REVERT JUMPDEST PUSH1 0x1 ISZERO ISZERO PUSH1 0x3 PUSH0 PUSH1 0x9 SLOAD DUP2 MSTORE PUSH1 0x20 ADD SWAP1 DUP2 MSTORE PUSH1 0x20 ADD PUSH0 KECCAK256 PUSH0 DUP6 DUP2 MSTORE PUSH1 0x20 ADD SWAP1 DUP2 MSTORE PUSH1 0x20 ADD PUSH0 KECCAK256 PUSH0 SWAP1 SLOAD SWAP1 PUSH2 0x100 EXP SWAP1 DIV PUSH1 0xFF AND ISZERO ISZERO EQ PUSH2 0x5B7 JUMPI PUSH1 0x40 MLOAD PUSH32 0x8C379A000000000000000000000000000000000000000000000000000000000 DUP2 MSTORE PUSH1 0x4 ADD PUSH2 0x5AE SWAP1 PUSH2 0x2AA1 JUMP JUMPDEST PUSH1 0x40 MLOAD DUP1 SWAP2 SUB SWAP1 REVERT JUMPDEST PUSH1 0x1 DUP1 PUSH0 PUSH1 0x9 SLOAD DUP2 MSTORE PUSH1 0x20 ADD SWAP1 DUP2 MSTORE PUSH1 0x20 ADD PUSH0 KECCAK256 PUSH0 CALLER PUSH20 0xFFFFFFFFFFFFFFFFFFFFFFFFFFFFFFFFFFFFFFFF AND PUSH20 0xFFFFFFFFFFFFFFFFFFFFFFFFFFFFFFFFFFFFFFFF AND DUP2 MSTORE PUSH1 0x20 ADD SWAP1 DUP2 MSTORE PUSH1 0x20 ADD PUSH0 KECCAK256 PUSH0 ADD PUSH1 0x1 PUSH2 0x100 EXP DUP2 SLOAD DUP2 PUSH1 0xFF MUL NOT AND SWAP1 DUP4 ISZERO ISZERO MUL OR SWAP1 SSTORE POP DUP3 PUSH1 0x1 PUSH0 PUSH1 0x9 SLOAD DUP2 MSTORE PUSH1 0x20 ADD SWAP1 DUP2 MSTORE PUSH1 0x20 ADD PUSH0 KECCAK256 PUSH0 CALLER PUSH20 0xFFFFFFFFFFFFFFFFFFFFFFFFFFFFFFFFFFFFFFFF AND PUSH20 0xFFFFFFFFFFFFFFFFFFFFFFFFFFFFFFFFFFFFFFFF AND DUP2 MSTORE PUSH1 0x20 ADD SWAP1 DUP2 MSTORE PUSH1 0x20 ADD PUSH0 KECCAK256 PUSH1 0x1 ADD DUP2 SWAP1 SSTORE POP PUSH1 0x1 PUSH1 0x2 PUSH0 PUSH1 0x9 SLOAD DUP2 MSTORE PUSH1 0x20 ADD SWAP1 DUP2 MSTORE PUSH1 0x20 ADD PUSH0 KECCAK256 DUP5 DUP2 SLOAD DUP2 LT PUSH2 0x69C JUMPI PUSH2 0x69B PUSH2 0x2ABF JUMP JUMPDEST JUMPDEST SWAP1 PUSH0 MSTORE PUSH1 0x20 PUSH0 KECCAK256 SWAP1 PUSH1 0x2 MUL ADD PUSH1 0x1 ADD PUSH0 DUP3 DUP3 SLOAD PUSH2 0x6B9 SWAP2 SWAP1 PUSH2 0x2B19 JUMP JUMPDEST SWAP3 POP POP DUP2 SWAP1 SSTORE POP PUSH1 0x7 CALLER SWAP1 DUP1 PUSH1 0x1 DUP2 SLOAD ADD DUP1 DUP3 SSTORE DUP1 SWAP2 POP POP PUSH1 0x1 SWAP1 SUB SWAP1 PUSH0 MSTORE PUSH1 0x20 PUSH0 KECCAK256 ADD PUSH0 SWAP1 SWAP2 SWAP1 SWAP2 SWAP1 SWAP2 PUSH2 0x100 EXP DUP2 SLOAD DUP2 PUSH20 0xFFFFFFFFFFFFFFFFFFFFFFFFFFFFFFFFFFFFFFFF MUL NOT AND SWAP1 DUP4 PUSH20 0xFFFFFFFFFFFFFFFFFFFFFFFFFFFFFFFFFFFFFFFF AND MUL OR SWAP1 SSTORE POP PUSH32 0x4D99B957A2BC29A30EBD96A7BE8E68FE50A3C701DB28A91436490B7D53870CA4 CALLER DUP5 PUSH1 0x40 MLOAD PUSH2 0x751 SWAP3 SWAP2 SWAP1 PUSH2 0x2B4C JUMP JUMPDEST PUSH1 0x40 MLOAD DUP1 SWAP2 SUB SWAP1 LOG1 POP POP POP JUMP JUMPDEST PUSH2 0x766 PUSH2 0x1E20 JUMP JUMPDEST PUSH0 PUSH1 0x1 DUP2 PUSH1 0x5 DUP2 GT ISZERO PUSH2 0x77C JUMPI PUSH2 0x77B PUSH2 0x2310 JUMP JUMPDEST JUMPDEST PUSH1 0x4 PUSH0 SWAP1 SLOAD SWAP1 PUSH2 0x100 EXP SWAP1 DIV PUSH1 0xFF AND PUSH1 0x5 DUP2 GT ISZERO PUSH2 0x79D JUMPI PUSH2 0x79C PUSH2 0x2310 JUMP JUMPDEST JUMPDEST EQ PUSH2 0x7EF JUMPI DUP2 PUSH1 0x4 PUSH0 SWAP1 SLOAD SWAP1 PUSH2 0x100 EXP SWAP1 DIV PUSH1 0xFF AND PUSH1 0x40 MLOAD PUSH32 0x2E73D6D900000000000000000000000000000000000000000000000000000000 DUP2 MSTORE PUSH1 0x4 ADD PUSH2 0x7E6 SWAP3 SWAP2 SWAP1 PUSH2 0x2904 JUMP JUMPDEST PUSH1 0x40 MLOAD DUP1 SWAP2 SUB SWAP1 REVERT JUMPDEST DUP1 PUSH1 0x4 PUSH0 PUSH2 0x100 EXP DUP2 SLOAD DUP2 PUSH1 0xFF MUL NOT AND SWAP1 DUP4 PUSH1 0x5 DUP2 GT ISZERO PUSH2 0x813 JUMPI PUSH2 0x812 PUSH2 0x2310 JUMP JUMPDEST JUMPDEST MUL OR SWAP1 SSTORE POP PUSH32 0xA97A4EE45751E2ABF3E4FC8946939630B11B371EA8AE39CCDC3056E98F5CC3F DUP3 DUP3 PUSH1 0x40 MLOAD PUSH2 0x849 SWAP3 SWAP2 SWAP1 PUSH2 0x2904 JUMP JUMPDEST PUSH1 0x40 MLOAD DUP1 SWAP2 SUB SWAP1 LOG1 POP POP JUMP JUMPDEST PUSH1 0x4 PUSH0 SWAP1 SLOAD SWAP1 PUSH2 0x100 EXP SWAP1 DIV PUSH1 0xFF AND DUP2 JUMP JUMPDEST PUSH1 0x9 SLOAD PUSH1 0x1 PUSH0 DUP3 DUP2 MSTORE PUSH1 0x20 ADD SWAP1 DUP2 MSTORE PUSH1 0x20 ADD PUSH0 KECCAK256 PUSH0 CALLER PUSH20 0xFFFFFFFFFFFFFFFFFFFFFFFFFFFFFFFFFFFFFFFF AND PUSH20 0xFFFFFFFFFFFFFFFFFFFFFFFFFFFFFFFFFFFFFFFF AND DUP2 MSTORE PUSH1 0x20 ADD SWAP1 DUP2 MSTORE PUSH1 0x20 ADD PUSH0 KECCAK256 PUSH0 ADD PUSH0 SWAP1 SLOAD SWAP1 PUSH2 0x100 EXP SWAP1 DIV PUSH1 0xFF AND PUSH2 0x906 JUMPI CALLER PUSH1 0x40 MLOAD PUSH32 0xEADB950F00000000000000000000000000000000000000000000000000000000 DUP2 MSTORE PUSH1 0x4 ADD PUSH2 0x8FD SWAP2 SWAP1 PUSH2 0x263E JUMP JUMPDEST PUSH1 0x40 MLOAD DUP1 SWAP2 SUB SWAP1 REVERT JUMPDEST PUSH1 0x1 DUP1 PUSH1 0x5 DUP2 GT ISZERO PUSH2 0x91B JUMPI PUSH2 0x91A PUSH2 0x2310 JUMP JUMPDEST JUMPDEST PUSH1 0x4 PUSH0 SWAP1 SLOAD SWAP1 PUSH2 0x100 EXP SWAP1 DIV PUSH1 0xFF AND PUSH1 0x5 DUP2 GT ISZERO PUSH2 0x93C JUMPI PUSH2 0x93B PUSH2 0x2310 JUMP JUMPDEST JUMPDEST EQ PUSH2 0x98E JUMPI DUP1 PUSH1 0x4 PUSH0 SWAP1 SLOAD SWAP1 PUSH2 0x100 EXP SWAP1 DIV PUSH1 0xFF AND PUSH1 0x40 MLOAD PUSH32 0x2E73D6D900000000000000000000000000000000000000000000000000000000 DUP2 MSTORE PUSH1 0x4 ADD PUSH2 0x985 SWAP3 SWAP2 SWAP1 PUSH2 0x2904 JUMP JUMPDEST PUSH1 0x40 MLOAD DUP1 SWAP2 SUB SWAP1 REVERT JUMPDEST PUSH1 0x2 PUSH0 PUSH1 0x9 SLOAD DUP2 MSTORE PUSH1 0x20 ADD SWAP1 DUP2 MSTORE PUSH1 0x20 ADD PUSH0 KECCAK256 PUSH1 0x40 MLOAD DUP1 PUSH1 0x40 ADD PUSH1 0x40 MSTORE DUP1 DUP7 DUP7 DUP1 DUP1 PUSH1 0x1F ADD PUSH1 0x20 DUP1 SWAP2 DIV MUL PUSH1 0x20 ADD PUSH1 0x40 MLOAD SWAP1 DUP2 ADD PUSH1 0x40 MSTORE DUP1 SWAP4 SWAP3 SWAP2 SWAP1 DUP2 DUP2 MSTORE PUSH1 0x20 ADD DUP4 DUP4 DUP1 DUP3 DUP5 CALLDATACOPY PUSH0 DUP2 DUP5 ADD MSTORE PUSH1 0x1F NOT PUSH1 0x1F DUP3 ADD AND SWAP1 POP DUP1 DUP4 ADD SWAP3 POP POP POP POP POP POP POP DUP2 MSTORE PUSH1 0x20 ADD PUSH0 DUP2 MSTORE POP SWAP1 DUP1 PUSH1 0x1 DUP2 SLOAD ADD DUP1 DUP3 SSTORE DUP1 SWAP2 POP POP PUSH1 0x1 SWAP1 SUB SWAP1 PUSH0 MSTORE PUSH1 0x20 PUSH0 KECCAK256 SWAP1 PUSH1 0x2 MUL ADD PUSH0 SWAP1 SWAP2 SWAP1 SWAP2 SWAP1 SWAP2 POP PUSH0 DUP3 ADD MLOAD DUP2 PUSH0 ADD SWAP1 DUP2 PUSH2 0xA32 SWAP2 SWAP1 PUSH2 0x2D9D JUMP JUMPDEST POP PUSH1 0x20 DUP3 ADD MLOAD DUP2 PUSH1 0x1 ADD SSTORE POP POP PUSH32 0x92E393E9B54E2F801D3EA4BEB0C5E71A21CC34A5D34B77D0FB8A3AA1650DC18F PUSH1 0x1 PUSH1 0x2 PUSH0 PUSH1 0x9 SLOAD DUP2 MSTORE PUSH1 0x20 ADD SWAP1 DUP2 MSTORE PUSH1 0x20 ADD PUSH0 KECCAK256 DUP1 SLOAD SWAP1 POP PUSH2 0xA83 SWAP2 SWAP1 PUSH2 0x2E6C JUMP JUMPDEST PUSH1 0x40 MLOAD PUSH2 0xA90 SWAP2 SWAP1 PUSH2 0x2838 JUMP JUMPDEST PUSH1 0x40 MLOAD DUP1 SWAP2 SUB SWAP1 LOG1 POP POP POP POP JUMP JUMPDEST PUSH2 0xAA6 PUSH2 0x1E20 JUMP JUMPDEST PUSH1 0x4 DUP1 PUSH1 0x5 DUP2 GT ISZERO PUSH2 0xABB JUMPI PUSH2 0xABA PUSH2 0x2310 JUMP JUMPDEST JUMPDEST PUSH1 0x4 PUSH0 SWAP1 SLOAD SWAP1 PUSH2 0x100 EXP SWAP1 DIV PUSH1 0xFF AND PUSH1 0x5 DUP2 GT ISZERO PUSH2 0xADC JUMPI PUSH2 0xADB PUSH2 0x2310 JUMP JUMPDEST JUMPDEST EQ PUSH2 0xB2E JUMPI DUP1 PUSH1 0x4 PUSH0 SWAP1 SLOAD SWAP1 PUSH2 0x100 EXP SWAP1 DIV PUSH1 0xFF AND PUSH1 0x40 MLOAD PUSH32 0x2E73D6D900000000000000000000000000000000000000000000000000000000 DUP2 MSTORE PUSH1 0x4 ADD PUSH2 0xB25 SWAP3 SWAP2 SWAP1 PUSH2 0x2904 JUMP JUMPDEST PUSH1 0x40 MLOAD DUP1 SWAP2 SUB SWAP1 REVERT JUMPDEST PUSH1 0x2 PUSH0 PUSH1 0x9 SLOAD DUP2 MSTORE PUSH1 0x20 ADD SWAP1 DUP2 MSTORE PUSH1 0x20 ADD PUSH0 KECCAK256 DUP1 SLOAD SWAP1 POP PUSH0 LT PUSH2 0xB86 JUMPI PUSH1 0x40 MLOAD PUSH32 0x8C379A000000000000000000000000000000000000000000000000000000000 DUP2 MSTORE PUSH1 0x4 ADD PUSH2 0xB7D SWAP1 PUSH2 0x2EE9 JUMP JUMPDEST PUSH1 0x40 MLOAD DUP1 SWAP2 SUB SWAP1 REVERT JUMPDEST PUSH0 PUSH0 PUSH0 SWAP1 POP JUMPDEST PUSH1 0x2 PUSH0 PUSH1 0x9 SLOAD DUP2 MSTORE PUSH1 0x20 ADD SWAP1 DUP2 MSTORE PUSH1 0x20 ADD PUSH0 KECCAK256 DUP1 SLOAD SWAP1 POP DUP2 LT ISZERO PUSH2 0xC69 JUMPI PUSH1 0x2 PUSH0 PUSH1 0x9 SLOAD DUP2 MSTORE PUSH1 0x20 ADD SWAP1 DUP2 MSTORE PUSH1 0x20 ADD PUSH0 KECCAK256 DUP2 DUP2 SLOAD DUP2 LT PUSH2 0xBCF JUMPI PUSH2 0xBCE PUSH2 0x2ABF JUMP JUMPDEST JUMPDEST SWAP1 PUSH0 MSTORE PUSH1 0x20 PUSH0 KECCAK256 SWAP1 PUSH1 0x2 MUL ADD PUSH1 0x1 ADD SLOAD DUP3 LT DUP1 ISZERO PUSH2 0xC1F JUMPI POP PUSH1 0x1 ISZERO ISZERO PUSH1 0x3 PUSH0 PUSH1 0x9 SLOAD DUP2 MSTORE PUSH1 0x20 ADD SWAP1 DUP2 MSTORE PUSH1 0x20 ADD PUSH0 KECCAK256 PUSH0 DUP4 DUP2 MSTORE PUSH1 0x20 ADD SWAP1 DUP2 MSTORE PUSH1 0x20 ADD PUSH0 KECCAK256 PUSH0 SWAP1 SLOAD SWAP1 PUSH2 0x100 EXP SWAP1 DIV PUSH1 0xFF AND ISZERO ISZERO EQ JUMPDEST ISZERO PUSH2 0xC5C JUMPI PUSH1 0x2 PUSH0 PUSH1 0x9 SLOAD DUP2 MSTORE PUSH1 0x20 ADD SWAP1 DUP2 MSTORE PUSH1 0x20 ADD PUSH0 KECCAK256 DUP2 DUP2 SLOAD DUP2 LT PUSH2 0xC49 JUMPI PUSH2 0xC48 PUSH2 0x2ABF JUMP JUMPDEST JUMPDEST SWAP1 PUSH0 MSTORE PUSH1 0x20 PUSH0 KECCAK256 SWAP1 PUSH1 0x2 MUL ADD PUSH1 0x1 ADD SLOAD SWAP2 POP JUMPDEST DUP1 DUP1 PUSH1 0x1 ADD SWAP2 POP POP PUSH2 0xB8C JUMP JUMPDEST POP PUSH0 PUSH0 SWAP1 POP JUMPDEST PUSH1 0x2 PUSH0 PUSH1 0x9 SLOAD DUP2 MSTORE PUSH1 0x20 ADD SWAP1 DUP2 MSTORE PUSH1 0x20 ADD PUSH0 KECCAK256 DUP1 SLOAD SWAP1 POP DUP2 LT ISZERO PUSH2 0xCFC JUMPI DUP2 PUSH1 0x2 PUSH0 PUSH1 0x9 SLOAD DUP2 MSTORE PUSH1 0x20 ADD SWAP1 DUP2 MSTORE PUSH1 0x20 ADD PUSH0 KECCAK256 DUP3 DUP2 SLOAD DUP2 LT PUSH2 0xCB3 JUMPI PUSH2 0xCB2 PUSH2 0x2ABF JUMP JUMPDEST JUMPDEST SWAP1 PUSH0 MSTORE PUSH1 0x20 PUSH0 KECCAK256 SWAP1 PUSH1 0x2 MUL ADD PUSH1 0x1 ADD SLOAD SUB PUSH2 0xCEF JUMPI PUSH1 0x6 DUP2 SWAP1 DUP1 PUSH1 0x1 DUP2 SLOAD ADD DUP1 DUP3 SSTORE DUP1 SWAP2 POP POP PUSH1 0x1 SWAP1 SUB SWAP1 PUSH0 MSTORE PUSH1 0x20 PUSH0 KECCAK256 ADD PUSH0 SWAP1 SWAP2 SWAP1 SWAP2 SWAP1 SWAP2 POP SSTORE JUMPDEST DUP1 DUP1 PUSH1 0x1 ADD SWAP2 POP POP PUSH2 0xC6F JUMP JUMPDEST POP PUSH1 0x1 PUSH1 0x6 DUP1 SLOAD SWAP1 POP SUB PUSH2 0xDA8 JUMPI PUSH1 0x6 PUSH0 DUP2 SLOAD DUP2 LT PUSH2 0xD1E JUMPI PUSH2 0xD1D PUSH2 0x2ABF JUMP JUMPDEST JUMPDEST SWAP1 PUSH0 MSTORE PUSH1 0x20 PUSH0 KECCAK256 ADD SLOAD PUSH1 0x5 PUSH0 PUSH1 0x9 SLOAD DUP2 MSTORE PUSH1 0x20 ADD SWAP1 DUP2 MSTORE PUSH1 0x20 ADD PUSH0 KECCAK256 DUP2 SWAP1 SSTORE POP PUSH1 0x5 PUSH1 0x4 PUSH0 PUSH2 0x100 EXP DUP2 SLOAD DUP2 PUSH1 0xFF MUL NOT AND SWAP1 DUP4 PUSH1 0x5 DUP2 GT ISZERO PUSH2 0xD63 JUMPI PUSH2 0xD62 PUSH2 0x2310 JUMP JUMPDEST JUMPDEST MUL OR SWAP1 SSTORE POP PUSH32 0xA97A4EE45751E2ABF3E4FC8946939630B11B371EA8AE39CCDC3056E98F5CC3F PUSH1 0x4 PUSH1 0x5 PUSH1 0x40 MLOAD PUSH2 0xD9B SWAP3 SWAP2 SWAP1 PUSH2 0x2904 JUMP JUMPDEST PUSH1 0x40 MLOAD DUP1 SWAP2 SUB SWAP1 LOG1 PUSH2 0xF3D JUMP JUMPDEST PUSH1 0x8 SLOAD PUSH1 0x6 DUP1 SLOAD SWAP1 POP LT ISZERO PUSH2 0xE95 JUMPI PUSH32 0xD5020A459A3E0CD6B6FDEFDE70374F31CB668B547D1223219FBC26F70DFA3554 PUSH1 0x6 PUSH1 0x40 MLOAD PUSH2 0xDE7 SWAP2 SWAP1 PUSH2 0x2FD1 JUMP JUMPDEST PUSH1 0x40 MLOAD DUP1 SWAP2 SUB SWAP1 LOG1 PUSH0 PUSH0 SWAP1 POP JUMPDEST PUSH1 0x2 PUSH0 PUSH1 0x9 SLOAD DUP2 MSTORE PUSH1 0x20 ADD SWAP1 DUP2 MSTORE PUSH1 0x20 ADD PUSH0 KECCAK256 DUP1 SLOAD SWAP1 POP DUP2 LT ISZERO PUSH2 0xE66 JUMPI PUSH2 0xE1B DUP2 PUSH2 0x1EA7 JUMP JUMPDEST PUSH2 0xE59 JUMPI PUSH0 PUSH1 0x3 PUSH0 PUSH1 0x9 SLOAD DUP2 MSTORE PUSH1 0x20 ADD SWAP1 DUP2 MSTORE PUSH1 0x20 ADD PUSH0 KECCAK256 PUSH0 DUP4 DUP2 MSTORE PUSH1 0x20 ADD SWAP1 DUP2 MSTORE PUSH1 0x20 ADD PUSH0 KECCAK256 PUSH0 PUSH2 0x100 EXP DUP2 SLOAD DUP2 PUSH1 0xFF MUL NOT AND SWAP1 DUP4 ISZERO ISZERO MUL OR SWAP1 SSTORE POP JUMPDEST DUP1 DUP1 PUSH1 0x1 ADD SWAP2 POP POP PUSH2 0xDF4 JUMP JUMPDEST POP PUSH2 0xE6F PUSH2 0x1EFE JUMP JUMPDEST PUSH2 0xE77 PUSH2 0x2054 JUMP JUMPDEST PUSH1 0x6 DUP1 SLOAD SWAP1 POP PUSH1 0x8 DUP2 SWAP1 SSTORE POP PUSH1 0x6 PUSH0 PUSH2 0xE90 SWAP2 SWAP1 PUSH2 0x223A JUMP JUMPDEST PUSH2 0xF3C JUMP JUMPDEST PUSH1 0x6 PUSH2 0xEA5 PUSH1 0x6 DUP1 SLOAD SWAP1 POP PUSH2 0x20C0 JUMP JUMPDEST DUP2 SLOAD DUP2 LT PUSH2 0xEB6 JUMPI PUSH2 0xEB5 PUSH2 0x2ABF JUMP JUMPDEST JUMPDEST SWAP1 PUSH0 MSTORE PUSH1 0x20 PUSH0 KECCAK256 ADD SLOAD PUSH1 0x5 PUSH0 PUSH1 0x9 SLOAD DUP2 MSTORE PUSH1 0x20 ADD SWAP1 DUP2 MSTORE PUSH1 0x20 ADD PUSH0 KECCAK256 DUP2 SWAP1 SSTORE POP PUSH1 0x5 PUSH1 0x4 PUSH0 PUSH2 0x100 EXP DUP2 SLOAD DUP2 PUSH1 0xFF MUL NOT AND SWAP1 DUP4 PUSH1 0x5 DUP2 GT ISZERO PUSH2 0xEFB JUMPI PUSH2 0xEFA PUSH2 0x2310 JUMP JUMPDEST JUMPDEST MUL OR SWAP1 SSTORE POP PUSH32 0xA97A4EE45751E2ABF3E4FC8946939630B11B371EA8AE39CCDC3056E98F5CC3F PUSH1 0x4 PUSH1 0x5 PUSH1 0x40 MLOAD PUSH2 0xF33 SWAP3 SWAP2 SWAP1 PUSH2 0x2904 JUMP JUMPDEST PUSH1 0x40 MLOAD DUP1 SWAP2 SUB SWAP1 LOG1 JUMPDEST JUMPDEST POP POP JUMP JUMPDEST PUSH2 0xF49 PUSH2 0x1E20 JUMP JUMPDEST PUSH1 0x4 PUSH1 0x3 DUP2 PUSH1 0x5 DUP2 GT ISZERO PUSH2 0xF60 JUMPI PUSH2 0xF5F PUSH2 0x2310 JUMP JUMPDEST JUMPDEST PUSH1 0x4 PUSH0 SWAP1 SLOAD SWAP1 PUSH2 0x100 EXP SWAP1 DIV PUSH1 0xFF AND PUSH1 0x5 DUP2 GT ISZERO PUSH2 0xF81 JUMPI PUSH2 0xF80 PUSH2 0x2310 JUMP JUMPDEST JUMPDEST EQ PUSH2 0xFD3 JUMPI DUP2 PUSH1 0x4 PUSH0 SWAP1 SLOAD SWAP1 PUSH2 0x100 EXP SWAP1 DIV PUSH1 0xFF AND PUSH1 0x40 MLOAD PUSH32 0x2E73D6D900000000000000000000000000000000000000000000000000000000 DUP2 MSTORE PUSH1 0x4 ADD PUSH2 0xFCA SWAP3 SWAP2 SWAP1 PUSH2 0x2904 JUMP JUMPDEST PUSH1 0x40 MLOAD DUP1 SWAP2 SUB SWAP1 REVERT JUMPDEST DUP1 PUSH1 0x4 PUSH0 PUSH2 0x100 EXP DUP2 SLOAD DUP2 PUSH1 0xFF MUL NOT AND SWAP1 DUP4 PUSH1 0x5 DUP2 GT ISZERO PUSH2 0xFF7 JUMPI PUSH2 0xFF6 PUSH2 0x2310 JUMP JUMPDEST JUMPDEST MUL OR SWAP1 SSTORE POP PUSH32 0xA97A4EE45751E2ABF3E4FC8946939630B11B371EA8AE39CCDC3056E98F5CC3F DUP3 DUP3 PUSH1 0x40 MLOAD PUSH2 0x102D SWAP3 SWAP2 SWAP1 PUSH2 0x2904 JUMP JUMPDEST PUSH1 0x40 MLOAD DUP1 SWAP2 SUB SWAP1 LOG1 POP POP JUMP JUMPDEST PUSH2 0x1041 PUSH2 0x1E20 JUMP JUMPDEST PUSH0 DUP1 PUSH1 0x5 DUP2 GT ISZERO PUSH2 0x1055 JUMPI PUSH2 0x1054 PUSH2 0x2310 JUMP JUMPDEST JUMPDEST PUSH1 0x4 PUSH0 SWAP1 SLOAD SWAP1 PUSH2 0x100 EXP SWAP1 DIV PUSH1 0xFF AND PUSH1 0x5 DUP2 GT ISZERO PUSH2 0x1076 JUMPI PUSH2 0x1075 PUSH2 0x2310 JUMP JUMPDEST JUMPDEST EQ PUSH2 0x10C8 JUMPI DUP1 PUSH1 0x4 PUSH0 SWAP1 SLOAD SWAP1 PUSH2 0x100 EXP SWAP1 DIV PUSH1 0xFF AND PUSH1 0x40 MLOAD PUSH32 0x2E73D6D900000000000000000000000000000000000000000000000000000000 DUP2 MSTORE PUSH1 0x4 ADD PUSH2 0x10BF SWAP3 SWAP2 SWAP1 PUSH2 0x2904 JUMP JUMPDEST PUSH1 0x40 MLOAD DUP1 SWAP2 SUB SWAP1 REVERT JUMPDEST PUSH0 PUSH0 SWAP1 POP JUMPDEST DUP4 DUP4 SWAP1 POP DUP2 LT ISZERO PUSH2 0x1173 JUMPI PUSH0 PUSH1 0x1 PUSH0 PUSH1 0x9 SLOAD DUP2 MSTORE PUSH1 0x20 ADD SWAP1 DUP2 MSTORE PUSH1 0x20 ADD PUSH0 KECCAK256 PUSH0 DUP7 DUP7 DUP6 DUP2 DUP2 LT PUSH2 0x1100 JUMPI PUSH2 0x10FF PUSH2 0x2ABF JUMP JUMPDEST JUMPDEST SWAP1 POP PUSH1 0x20 MUL ADD PUSH1 0x20 DUP2 ADD SWAP1 PUSH2 0x1115 SWAP2 SWAP1 PUSH2 0x28B9 JUMP JUMPDEST PUSH20 0xFFFFFFFFFFFFFFFFFFFFFFFFFFFFFFFFFFFFFFFF AND PUSH20 0xFFFFFFFFFFFFFFFFFFFFFFFFFFFFFFFFFFFFFFFF AND DUP2 MSTORE PUSH1 0x20 ADD SWAP1 DUP2 MSTORE PUSH1 0x20 ADD PUSH0 KECCAK256 PUSH0 ADD PUSH0 PUSH2 0x100 EXP DUP2 SLOAD DUP2 PUSH1 0xFF MUL NOT AND SWAP1 DUP4 ISZERO ISZERO MUL OR SWAP1 SSTORE POP DUP1 DUP1 PUSH1 0x1 ADD SWAP2 POP POP PUSH2 0x10CD JUMP JUMPDEST POP POP POP POP JUMP JUMPDEST PUSH2 0x1181 PUSH2 0x2258 JUMP JUMPDEST PUSH1 0x2 PUSH0 DUP5 DUP2 MSTORE PUSH1 0x20 ADD SWAP1 DUP2 MSTORE PUSH1 0x20 ADD PUSH0 KECCAK256 DUP3 DUP2 SLOAD DUP2 LT PUSH2 0x11A4 JUMPI PUSH2 0x11A3 PUSH2 0x2ABF JUMP JUMPDEST JUMPDEST SWAP1 PUSH0 MSTORE PUSH1 0x20 PUSH0 KECCAK256 SWAP1 PUSH1 0x2 MUL ADD PUSH1 0x40 MLOAD DUP1 PUSH1 0x40 ADD PUSH1 0x40 MSTORE SWAP1 DUP2 PUSH0 DUP3 ADD DUP1 SLOAD PUSH2 0x11CA SWAP1 PUSH2 0x2BCD JUMP JUMPDEST DUP1 PUSH1 0x1F ADD PUSH1 0x20 DUP1 SWAP2 DIV MUL PUSH1 0x20 ADD PUSH1 0x40 MLOAD SWAP1 DUP2 ADD PUSH1 0x40 MSTORE DUP1 SWAP3 SWAP2 SWAP1 DUP2 DUP2 MSTORE PUSH1 0x20 ADD DUP3 DUP1 SLOAD PUSH2 0x11F6 SWAP1 PUSH2 0x2BCD JUMP JUMPDEST DUP1 ISZERO PUSH2 0x1241 JUMPI DUP1 PUSH1 0x1F LT PUSH2 0x1218 JUMPI PUSH2 0x100 DUP1 DUP4 SLOAD DIV MUL DUP4 MSTORE SWAP2 PUSH1 0x20 ADD SWAP2 PUSH2 0x1241 JUMP JUMPDEST DUP3 ADD SWAP2 SWAP1 PUSH0 MSTORE PUSH1 0x20 PUSH0 KECCAK256 SWAP1 JUMPDEST DUP2 SLOAD DUP2 MSTORE SWAP1 PUSH1 0x1 ADD SWAP1 PUSH1 0x20 ADD DUP1 DUP4 GT PUSH2 0x1224 JUMPI DUP3 SWAP1 SUB PUSH1 0x1F AND DUP3 ADD SWAP2 JUMPDEST POP POP POP POP POP DUP2 MSTORE PUSH1 0x20 ADD PUSH1 0x1 DUP3 ADD SLOAD DUP2 MSTORE POP POP SWAP1 POP SWAP3 SWAP2 POP POP JUMP JUMPDEST PUSH2 0x1264 PUSH2 0x1E20 JUMP JUMPDEST PUSH2 0x126D PUSH0 PUSH2 0x2105 JUMP JUMPDEST JUMP JUMPDEST PUSH2 0x1277 PUSH2 0x1E20 JUMP JUMPDEST PUSH0 DUP1 PUSH1 0x5 DUP2 GT ISZERO PUSH2 0x128B JUMPI PUSH2 0x128A PUSH2 0x2310 JUMP JUMPDEST JUMPDEST PUSH1 0x4 PUSH0 SWAP1 SLOAD SWAP1 PUSH2 0x100 EXP SWAP1 DIV PUSH1 0xFF AND PUSH1 0x5 DUP2 GT ISZERO PUSH2 0x12AC JUMPI PUSH2 0x12AB PUSH2 0x2310 JUMP JUMPDEST JUMPDEST EQ PUSH2 0x12FE JUMPI DUP1 PUSH1 0x4 PUSH0 SWAP1 SLOAD SWAP1 PUSH2 0x100 EXP SWAP1 DIV PUSH1 0xFF AND PUSH1 0x40 MLOAD PUSH32 0x2E73D6D900000000000000000000000000000000000000000000000000000000 DUP2 MSTORE PUSH1 0x4 ADD PUSH2 0x12F5 SWAP3 SWAP2 SWAP1 PUSH2 0x2904 JUMP JUMPDEST PUSH1 0x40 MLOAD DUP1 SWAP2 SUB SWAP1 REVERT JUMPDEST PUSH0 PUSH0 SWAP1 POP JUMPDEST DUP4 DUP4 SWAP1 POP DUP2 LT ISZERO PUSH2 0x1407 JUMPI PUSH1 0x1 DUP1 PUSH0 PUSH1 0x9 SLOAD DUP2 MSTORE PUSH1 0x20 ADD SWAP1 DUP2 MSTORE PUSH1 0x20 ADD PUSH0 KECCAK256 PUSH0 DUP7 DUP7 DUP6 DUP2 DUP2 LT PUSH2 0x1336 JUMPI PUSH2 0x1335 PUSH2 0x2ABF JUMP JUMPDEST JUMPDEST SWAP1 POP PUSH1 0x20 MUL ADD PUSH1 0x20 DUP2 ADD SWAP1 PUSH2 0x134B SWAP2 SWAP1 PUSH2 0x28B9 JUMP JUMPDEST PUSH20 0xFFFFFFFFFFFFFFFFFFFFFFFFFFFFFFFFFFFFFFFF AND PUSH20 0xFFFFFFFFFFFFFFFFFFFFFFFFFFFFFFFFFFFFFFFF AND DUP2 MSTORE PUSH1 0x20 ADD SWAP1 DUP2 MSTORE PUSH1 0x20 ADD PUSH0 KECCAK256 PUSH0 ADD PUSH0 PUSH2 0x100 EXP DUP2 SLOAD DUP2 PUSH1 0xFF MUL NOT AND SWAP1 DUP4 ISZERO ISZERO MUL OR SWAP1 SSTORE POP PUSH32 0xB6BE2187D059CC2A55FE29E0E503B566E1E0F8C8780096E185429350ACFFD3DD DUP5 DUP5 DUP4 DUP2 DUP2 LT PUSH2 0x13D0 JUMPI PUSH2 0x13CF PUSH2 0x2ABF JUMP JUMPDEST JUMPDEST SWAP1 POP PUSH1 0x20 MUL ADD PUSH1 0x20 DUP2 ADD SWAP1 PUSH2 0x13E5 SWAP2 SWAP1 PUSH2 0x28B9 JUMP JUMPDEST PUSH1 0x40 MLOAD PUSH2 0x13F2 SWAP2 SWAP1 PUSH2 0x263E JUMP JUMPDEST PUSH1 0x40 MLOAD DUP1 SWAP2 SUB SWAP1 LOG1 DUP1 DUP1 PUSH1 0x1 ADD SWAP2 POP POP PUSH2 0x1303 JUMP JUMPDEST POP POP POP POP JUMP JUMPDEST PUSH0 PUSH0 PUSH0 SWAP1 SLOAD SWAP1 PUSH2 0x100 EXP SWAP1 DIV PUSH20 0xFFFFFFFFFFFFFFFFFFFFFFFFFFFFFFFFFFFFFFFF AND SWAP1 POP SWAP1 JUMP JUMPDEST PUSH1 0x60 DUP1 PUSH0 PUSH0 SWAP1 POP PUSH0 PUSH0 SWAP1 POP JUMPDEST PUSH1 0x2 PUSH0 PUSH1 0x9 SLOAD DUP2 MSTORE PUSH1 0x20 ADD SWAP1 DUP2 MSTORE PUSH1 0x20 ADD PUSH0 KECCAK256 DUP1 SLOAD SWAP1 POP DUP2 LT ISZERO PUSH2 0x14B4 JUMPI PUSH1 0x1 ISZERO ISZERO PUSH1 0x3 PUSH0 PUSH1 0x9 SLOAD DUP2 MSTORE PUSH1 0x20 ADD SWAP1 DUP2 MSTORE PUSH1 0x20 ADD PUSH0 KECCAK256 PUSH0 DUP4 DUP2 MSTORE PUSH1 0x20 ADD SWAP1 DUP2 MSTORE PUSH1 0x20 ADD PUSH0 KECCAK256 PUSH0 SWAP1 SLOAD SWAP1 PUSH2 0x100 EXP SWAP1 DIV PUSH1 0xFF AND ISZERO ISZERO SUB PUSH2 0x14A7 JUMPI DUP2 DUP1 PUSH2 0x14A3 SWAP1 PUSH2 0x2FF1 JUMP JUMPDEST SWAP3 POP POP JUMPDEST DUP1 DUP1 PUSH1 0x1 ADD SWAP2 POP POP PUSH2 0x1440 JUMP JUMPDEST POP DUP1 PUSH8 0xFFFFFFFFFFFFFFFF DUP2 GT ISZERO PUSH2 0x14CF JUMPI PUSH2 0x14CE PUSH2 0x2B73 JUMP JUMPDEST JUMPDEST PUSH1 0x40 MLOAD SWAP1 DUP1 DUP3 MSTORE DUP1 PUSH1 0x20 MUL PUSH1 0x20 ADD DUP3 ADD PUSH1 0x40 MSTORE DUP1 ISZERO PUSH2 0x1508 JUMPI DUP2 PUSH1 0x20 ADD JUMPDEST PUSH2 0x14F5 PUSH2 0x2258 JUMP JUMPDEST DUP2 MSTORE PUSH1 0x20 ADD SWAP1 PUSH1 0x1 SWAP1 SUB SWAP1 DUP2 PUSH2 0x14ED JUMPI SWAP1 POP JUMPDEST POP SWAP3 POP DUP1 PUSH8 0xFFFFFFFFFFFFFFFF DUP2 GT ISZERO PUSH2 0x1525 JUMPI PUSH2 0x1524 PUSH2 0x2B73 JUMP JUMPDEST JUMPDEST PUSH1 0x40 MLOAD SWAP1 DUP1 DUP3 MSTORE DUP1 PUSH1 0x20 MUL PUSH1 0x20 ADD DUP3 ADD PUSH1 0x40 MSTORE DUP1 ISZERO PUSH2 0x1553 JUMPI DUP2 PUSH1 0x20 ADD PUSH1 0x20 DUP3 MUL DUP1 CALLDATASIZE DUP4 CALLDATACOPY DUP1 DUP3 ADD SWAP2 POP POP SWAP1 POP JUMPDEST POP SWAP2 POP PUSH0 PUSH0 SWAP1 POP PUSH0 PUSH0 SWAP1 POP JUMPDEST PUSH1 0x2 PUSH0 PUSH1 0x9 SLOAD DUP2 MSTORE PUSH1 0x20 ADD SWAP1 DUP2 MSTORE PUSH1 0x20 ADD PUSH0 KECCAK256 DUP1 SLOAD SWAP1 POP DUP2 LT ISZERO PUSH2 0x16E6 JUMPI PUSH1 0x1 ISZERO ISZERO PUSH1 0x3 PUSH0 PUSH1 0x9 SLOAD DUP2 MSTORE PUSH1 0x20 ADD SWAP1 DUP2 MSTORE PUSH1 0x20 ADD PUSH0 KECCAK256 PUSH0 DUP4 DUP2 MSTORE PUSH1 0x20 ADD SWAP1 DUP2 MSTORE PUSH1 0x20 ADD PUSH0 KECCAK256 PUSH0 SWAP1 SLOAD SWAP1 PUSH2 0x100 EXP SWAP1 DIV PUSH1 0xFF AND ISZERO ISZERO SUB PUSH2 0x16D9 JUMPI PUSH1 0x2 PUSH0 PUSH1 0x9 SLOAD DUP2 MSTORE PUSH1 0x20 ADD SWAP1 DUP2 MSTORE PUSH1 0x20 ADD PUSH0 KECCAK256 DUP2 DUP2 SLOAD DUP2 LT PUSH2 0x15DC JUMPI PUSH2 0x15DB PUSH2 0x2ABF JUMP JUMPDEST JUMPDEST SWAP1 PUSH0 MSTORE PUSH1 0x20 PUSH0 KECCAK256 SWAP1 PUSH1 0x2 MUL ADD PUSH1 0x40 MLOAD DUP1 PUSH1 0x40 ADD PUSH1 0x40 MSTORE SWAP1 DUP2 PUSH0 DUP3 ADD DUP1 SLOAD PUSH2 0x1602 SWAP1 PUSH2 0x2BCD JUMP JUMPDEST DUP1 PUSH1 0x1F ADD PUSH1 0x20 DUP1 SWAP2 DIV MUL PUSH1 0x20 ADD PUSH1 0x40 MLOAD SWAP1 DUP2 ADD PUSH1 0x40 MSTORE DUP1 SWAP3 SWAP2 SWAP1 DUP2 DUP2 MSTORE PUSH1 0x20 ADD DUP3 DUP1 SLOAD PUSH2 0x162E SWAP1 PUSH2 0x2BCD JUMP JUMPDEST DUP1 ISZERO PUSH2 0x1679 JUMPI DUP1 PUSH1 0x1F LT PUSH2 0x1650 JUMPI PUSH2 0x100 DUP1 DUP4 SLOAD DIV MUL DUP4 MSTORE SWAP2 PUSH1 0x20 ADD SWAP2 PUSH2 0x1679 JUMP JUMPDEST DUP3 ADD SWAP2 SWAP1 PUSH0 MSTORE PUSH1 0x20 PUSH0 KECCAK256 SWAP1 JUMPDEST DUP2 SLOAD DUP2 MSTORE SWAP1 PUSH1 0x1 ADD SWAP1 PUSH1 0x20 ADD DUP1 DUP4 GT PUSH2 0x165C JUMPI DUP3 SWAP1 SUB PUSH1 0x1F AND DUP3 ADD SWAP2 JUMPDEST POP POP POP POP POP DUP2 MSTORE PUSH1 0x20 ADD PUSH1 0x1 DUP3 ADD SLOAD DUP2 MSTORE POP POP DUP6 DUP4 DUP2 MLOAD DUP2 LT PUSH2 0x169F JUMPI PUSH2 0x169E PUSH2 0x2ABF JUMP JUMPDEST JUMPDEST PUSH1 0x20 MUL PUSH1 0x20 ADD ADD DUP2 SWAP1 MSTORE POP DUP1 DUP5 DUP4 DUP2 MLOAD DUP2 LT PUSH2 0x16BE JUMPI PUSH2 0x16BD PUSH2 0x2ABF JUMP JUMPDEST JUMPDEST PUSH1 0x20 MUL PUSH1 0x20 ADD ADD DUP2 DUP2 MSTORE POP POP DUP2 DUP1 PUSH2 0x16D5 SWAP1 PUSH2 0x2FF1 JUMP JUMPDEST SWAP3 POP POP JUMPDEST DUP1 DUP1 PUSH1 0x1 ADD SWAP2 POP POP PUSH2 0x155F JUMP JUMPDEST POP POP POP SWAP1 SWAP2 JUMP JUMPDEST PUSH0 PUSH1 0x9 SLOAD DUP3 GT ISZERO PUSH2 0x1733 JUMPI PUSH1 0x40 MLOAD PUSH32 0x8C379A000000000000000000000000000000000000000000000000000000000 DUP2 MSTORE PUSH1 0x4 ADD PUSH2 0x172A SWAP1 PUSH2 0x3082 JUMP JUMPDEST PUSH1 0x40 MLOAD DUP1 SWAP2 SUB SWAP1 REVERT JUMPDEST PUSH1 0x5 PUSH0 DUP4 DUP2 MSTORE PUSH1 0x20 ADD SWAP1 DUP2 MSTORE PUSH1 0x20 ADD PUSH0 KECCAK256 SLOAD SWAP1 POP SWAP2 SWAP1 POP JUMP JUMPDEST PUSH2 0x1754 PUSH2 0x1E20 JUMP JUMPDEST PUSH1 0x3 PUSH1 0x4 DUP2 PUSH1 0x5 DUP2 GT ISZERO PUSH2 0x176B JUMPI PUSH2 0x176A PUSH2 0x2310 JUMP JUMPDEST JUMPDEST PUSH1 0x4 PUSH0 SWAP1 SLOAD SWAP1 PUSH2 0x100 EXP SWAP1 DIV PUSH1 0xFF AND PUSH1 0x5 DUP2 GT ISZERO PUSH2 0x178C JUMPI PUSH2 0x178B PUSH2 0x2310 JUMP JUMPDEST JUMPDEST EQ PUSH2 0x17DE JUMPI DUP2 PUSH1 0x4 PUSH0 SWAP1 SLOAD SWAP1 PUSH2 0x100 EXP SWAP1 DIV PUSH1 0xFF AND PUSH1 0x40 MLOAD PUSH32 0x2E73D6D900000000000000000000000000000000000000000000000000000000 DUP2 MSTORE PUSH1 0x4 ADD PUSH2 0x17D5 SWAP3 SWAP2 SWAP1 PUSH2 0x2904 JUMP JUMPDEST PUSH1 0x40 MLOAD DUP1 SWAP2 SUB SWAP1 REVERT JUMPDEST DUP1 PUSH1 0x4 PUSH0 PUSH2 0x100 EXP DUP2 SLOAD DUP2 PUSH1 0xFF MUL NOT AND SWAP1 DUP4 PUSH1 0x5 DUP2 GT ISZERO PUSH2 0x1802 JUMPI PUSH2 0x1801 PUSH2 0x2310 JUMP JUMPDEST JUMPDEST MUL OR SWAP1 SSTORE POP PUSH32 0xA97A4EE45751E2ABF3E4FC8946939630B11B371EA8AE39CCDC3056E98F5CC3F DUP3 DUP3 PUSH1 0x40 MLOAD PUSH2 0x1838 SWAP3 SWAP2 SWAP1 PUSH2 0x2904 JUMP JUMPDEST PUSH1 0x40 MLOAD DUP1 SWAP2 SUB SWAP1 LOG1 POP POP JUMP JUMPDEST PUSH2 0x184C PUSH2 0x1E20 JUMP JUMPDEST PUSH1 0x1 PUSH1 0x2 DUP2 PUSH1 0x5 DUP2 GT ISZERO PUSH2 0x1863 JUMPI PUSH2 0x1862 PUSH2 0x2310 JUMP JUMPDEST JUMPDEST PUSH1 0x4 PUSH0 SWAP1 SLOAD SWAP1 PUSH2 0x100 EXP SWAP1 DIV PUSH1 0xFF AND PUSH1 0x5 DUP2 GT ISZERO PUSH2 0x1884 JUMPI PUSH2 0x1883 PUSH2 0x2310 JUMP JUMPDEST JUMPDEST EQ PUSH2 0x18D6 JUMPI DUP2 PUSH1 0x4 PUSH0 SWAP1 SLOAD SWAP1 PUSH2 0x100 EXP SWAP1 DIV PUSH1 0xFF AND PUSH1 0x40 MLOAD PUSH32 0x2E73D6D900000000000000000000000000000000000000000000000000000000 DUP2 MSTORE PUSH1 0x4 ADD PUSH2 0x18CD SWAP3 SWAP2 SWAP1 PUSH2 0x2904 JUMP JUMPDEST PUSH1 0x40 MLOAD DUP1 SWAP2 SUB SWAP1 REVERT JUMPDEST DUP1 PUSH1 0x4 PUSH0 PUSH2 0x100 EXP DUP2 SLOAD DUP2 PUSH1 0xFF MUL NOT AND SWAP1 DUP4 PUSH1 0x5 DUP2 GT ISZERO PUSH2 0x18FA JUMPI PUSH2 0x18F9 PUSH2 0x2310 JUMP JUMPDEST JUMPDEST MUL OR SWAP1 SSTORE POP PUSH32 0xA97A4EE45751E2ABF3E4FC8946939630B11B371EA8AE39CCDC3056E98F5CC3F DUP3 DUP3 PUSH1 0x40 MLOAD PUSH2 0x1930 SWAP3 SWAP2 SWAP1 PUSH2 0x2904 JUMP JUMPDEST PUSH1 0x40 MLOAD DUP1 SWAP2 SUB SWAP1 LOG1 PUSH1 0x2 PUSH0 PUSH1 0x9 SLOAD DUP2 MSTORE PUSH1 0x20 ADD SWAP1 DUP2 MSTORE PUSH1 0x20 ADD PUSH0 KECCAK256 DUP1 SLOAD SWAP1 POP PUSH1 0x8 DUP2 SWAP1 SSTORE POP PUSH2 0x195D PUSH2 0x21C6 JUMP JUMPDEST POP POP JUMP JUMPDEST PUSH0 DUP2 PUSH1 0x1 PUSH0 DUP3 DUP2 MSTORE PUSH1 0x20 ADD SWAP1 DUP2 MSTORE PUSH1 0x20 ADD PUSH0 KECCAK256 PUSH0 CALLER PUSH20 0xFFFFFFFFFFFFFFFFFFFFFFFFFFFFFFFFFFFFFFFF AND PUSH20 0xFFFFFFFFFFFFFFFFFFFFFFFFFFFFFFFFFFFFFFFF AND DUP2 MSTORE PUSH1 0x20 ADD SWAP1 DUP2 MSTORE PUSH1 0x20 ADD PUSH0 KECCAK256 PUSH0 ADD PUSH0 SWAP1 SLOAD SWAP1 PUSH2 0x100 EXP SWAP1 DIV PUSH1 0xFF AND PUSH2 0x19FF JUMPI CALLER PUSH1 0x40 MLOAD PUSH32 0xEADB950F00000000000000000000000000000000000000000000000000000000 DUP2 MSTORE PUSH1 0x4 ADD PUSH2 0x19F6 SWAP2 SWAP1 PUSH2 0x263E JUMP JUMPDEST PUSH1 0x40 MLOAD DUP1 SWAP2 SUB SWAP1 REVERT JUMPDEST PUSH1 0x1 PUSH0 DUP5 DUP2 MSTORE PUSH1 0x20 ADD SWAP1 DUP2 MSTORE PUSH1 0x20 ADD PUSH0 KECCAK256 PUSH0 DUP6 PUSH20 0xFFFFFFFFFFFFFFFFFFFFFFFFFFFFFFFFFFFFFFFF AND PUSH20 0xFFFFFFFFFFFFFFFFFFFFFFFFFFFFFFFFFFFFFFFF AND DUP2 MSTORE PUSH1 0x20 ADD SWAP1 DUP2 MSTORE PUSH1 0x20 ADD PUSH0 KECCAK256 PUSH0 ADD PUSH1 0x1 SWAP1 SLOAD SWAP1 PUSH2 0x100 EXP SWAP1 DIV PUSH1 0xFF AND PUSH2 0x1A9A JUMPI PUSH1 0x40 MLOAD PUSH32 0x8C379A000000000000000000000000000000000000000000000000000000000 DUP2 MSTORE PUSH1 0x4 ADD PUSH2 0x1A91 SWAP1 PUSH2 0x3110 JUMP JUMPDEST PUSH1 0x40 MLOAD DUP1 SWAP2 SUB SWAP1 REVERT JUMPDEST PUSH1 0x1 PUSH0 DUP5 DUP2 MSTORE PUSH1 0x20 ADD SWAP1 DUP2 MSTORE PUSH1 0x20 ADD PUSH0 KECCAK256 PUSH0 DUP6 PUSH20 0xFFFFFFFFFFFFFFFFFFFFFFFFFFFFFFFFFFFFFFFF AND PUSH20 0xFFFFFFFFFFFFFFFFFFFFFFFFFFFFFFFFFFFFFFFF AND DUP2 MSTORE PUSH1 0x20 ADD SWAP1 DUP2 MSTORE PUSH1 0x20 ADD PUSH0 KECCAK256 PUSH1 0x1 ADD SLOAD SWAP2 POP POP SWAP3 SWAP2 POP POP JUMP JUMPDEST PUSH2 0x1AFB PUSH2 0x1E20 JUMP JUMPDEST PUSH1 0x2 PUSH1 0x3 DUP2 PUSH1 0x5 DUP2 GT ISZERO PUSH2 0x1B12 JUMPI PUSH2 0x1B11 PUSH2 0x2310 JUMP JUMPDEST JUMPDEST PUSH1 0x4 PUSH0 SWAP1 SLOAD SWAP1 PUSH2 0x100 EXP SWAP1 DIV PUSH1 0xFF AND PUSH1 0x5 DUP2 GT ISZERO PUSH2 0x1B33 JUMPI PUSH2 0x1B32 PUSH2 0x2310 JUMP JUMPDEST JUMPDEST EQ PUSH2 0x1B85 JUMPI DUP2 PUSH1 0x4 PUSH0 SWAP1 SLOAD SWAP1 PUSH2 0x100 EXP SWAP1 DIV PUSH1 0xFF AND PUSH1 0x40 MLOAD PUSH32 0x2E73D6D900000000000000000000000000000000000000000000000000000000 DUP2 MSTORE PUSH1 0x4 ADD PUSH2 0x1B7C SWAP3 SWAP2 SWAP1 PUSH2 0x2904 JUMP JUMPDEST PUSH1 0x40 MLOAD DUP1 SWAP2 SUB SWAP1 REVERT JUMPDEST DUP1 PUSH1 0x4 PUSH0 PUSH2 0x100 EXP DUP2 SLOAD DUP2 PUSH1 0xFF MUL NOT AND SWAP1 DUP4 PUSH1 0x5 DUP2 GT ISZERO PUSH2 0x1BA9 JUMPI PUSH2 0x1BA8 PUSH2 0x2310 JUMP JUMPDEST JUMPDEST MUL OR SWAP1 SSTORE POP PUSH32 0xA97A4EE45751E2ABF3E4FC8946939630B11B371EA8AE39CCDC3056E98F5CC3F DUP3 DUP3 PUSH1 0x40 MLOAD PUSH2 0x1BDF SWAP3 SWAP2 SWAP1 PUSH2 0x2904 JUMP JUMPDEST PUSH1 0x40 MLOAD DUP1 SWAP2 SUB SWAP1 LOG1 POP POP JUMP JUMPDEST PUSH2 0x1BF3 PUSH2 0x1E20 JUMP JUMPDEST PUSH0 PUSH20 0xFFFFFFFFFFFFFFFFFFFFFFFFFFFFFFFFFFFFFFFF AND DUP2 PUSH20 0xFFFFFFFFFFFFFFFFFFFFFFFFFFFFFFFFFFFFFFFF AND SUB PUSH2 0x1C63 JUMPI PUSH0 PUSH1 0x40 MLOAD PUSH32 0x1E4FBDF700000000000000000000000000000000000000000000000000000000 DUP2 MSTORE PUSH1 0x4 ADD PUSH2 0x1C5A SWAP2 SWAP1 PUSH2 0x263E JUMP JUMPDEST PUSH1 0x40 MLOAD DUP1 SWAP2 SUB SWAP1 REVERT JUMPDEST PUSH2 0x1C6C DUP2 PUSH2 0x2105 JUMP JUMPDEST POP JUMP JUMPDEST PUSH2 0x1C77 PUSH2 0x1E20 JUMP JUMPDEST PUSH1 0x9 PUSH0 DUP2 SLOAD DUP1 SWAP3 SWAP2 SWAP1 PUSH2 0x1C89 SWAP1 PUSH2 0x2FF1 JUMP JUMPDEST SWAP2 SWAP1 POP SSTORE POP PUSH1 0x6 PUSH0 PUSH2 0x1C9B SWAP2 SWAP1 PUSH2 0x223A JUMP JUMPDEST PUSH1 0x7 PUSH0 PUSH2 0x1CA8 SWAP2 SWAP1 PUSH2 0x2271 JUMP JUMPDEST PUSH32 0xA97A4EE45751E2ABF3E4FC8946939630B11B371EA8AE39CCDC3056E98F5CC3F PUSH1 0x4 PUSH0 SWAP1 SLOAD SWAP1 PUSH2 0x100 EXP SWAP1 DIV PUSH1 0xFF AND PUSH0 PUSH1 0x40 MLOAD PUSH2 0x1CE7 SWAP3 SWAP2 SWAP1 PUSH2 0x2904 JUMP JUMPDEST PUSH1 0x40 MLOAD DUP1 SWAP2 SUB SWAP1 LOG1 PUSH0 PUSH1 0x4 PUSH0 PUSH2 0x100 EXP DUP2 SLOAD DUP2 PUSH1 0xFF MUL NOT AND SWAP1 DUP4 PUSH1 0x5 DUP2 GT ISZERO PUSH2 0x1D13 JUMPI PUSH2 0x1D12 PUSH2 0x2310 JUMP JUMPDEST JUMPDEST MUL OR SWAP1 SSTORE POP JUMP JUMPDEST PUSH1 0x60 PUSH1 0x2 PUSH0 DUP4 DUP2 MSTORE PUSH1 0x20 ADD SWAP1 DUP2 MSTORE PUSH1 0x20 ADD PUSH0 KECCAK256 DUP1 SLOAD DUP1 PUSH1 0x20 MUL PUSH1 0x20 ADD PUSH1 0x40 MLOAD SWAP1 DUP2 ADD PUSH1 0x40 MSTORE DUP1 SWAP3 SWAP2 SWAP1 DUP2 DUP2 MSTORE PUSH1 0x20 ADD PUSH0 SWAP1 JUMPDEST DUP3 DUP3 LT ISZERO PUSH2 0x1E15 JUMPI DUP4 DUP3 SWAP1 PUSH0 MSTORE PUSH1 0x20 PUSH0 KECCAK256 SWAP1 PUSH1 0x2 MUL ADD PUSH1 0x40 MLOAD DUP1 PUSH1 0x40 ADD PUSH1 0x40 MSTORE SWAP1 DUP2 PUSH0 DUP3 ADD DUP1 SLOAD PUSH2 0x1D7C SWAP1 PUSH2 0x2BCD JUMP JUMPDEST DUP1 PUSH1 0x1F ADD PUSH1 0x20 DUP1 SWAP2 DIV MUL PUSH1 0x20 ADD PUSH1 0x40 MLOAD SWAP1 DUP2 ADD PUSH1 0x40 MSTORE DUP1 SWAP3 SWAP2 SWAP1 DUP2 DUP2 MSTORE PUSH1 0x20 ADD DUP3 DUP1 SLOAD PUSH2 0x1DA8 SWAP1 PUSH2 0x2BCD JUMP JUMPDEST DUP1 ISZERO PUSH2 0x1DF3 JUMPI DUP1 PUSH1 0x1F LT PUSH2 0x1DCA JUMPI PUSH2 0x100 DUP1 DUP4 SLOAD DIV MUL DUP4 MSTORE SWAP2 PUSH1 0x20 ADD SWAP2 PUSH2 0x1DF3 JUMP JUMPDEST DUP3 ADD SWAP2 SWAP1 PUSH0 MSTORE PUSH1 0x20 PUSH0 KECCAK256 SWAP1 JUMPDEST DUP2 SLOAD DUP2 MSTORE SWAP1 PUSH1 0x1 ADD SWAP1 PUSH1 0x20 ADD DUP1 DUP4 GT PUSH2 0x1DD6 JUMPI DUP3 SWAP1 SUB PUSH1 0x1F AND DUP3 ADD SWAP2 JUMPDEST POP POP POP POP POP DUP2 MSTORE PUSH1 0x20 ADD PUSH1 0x1 DUP3 ADD SLOAD DUP2 MSTORE POP POP DUP2 MSTORE PUSH1 0x20 ADD SWAP1 PUSH1 0x1 ADD SWAP1 PUSH2 0x1D4C JUMP JUMPDEST POP POP POP POP SWAP1 POP SWAP2 SWAP1 POP JUMP JUMPDEST PUSH2 0x1E28 PUSH2 0x2233 JUMP JUMPDEST PUSH20 0xFFFFFFFFFFFFFFFFFFFFFFFFFFFFFFFFFFFFFFFF AND PUSH2 0x1E46 PUSH2 0x140D JUMP JUMPDEST PUSH20 0xFFFFFFFFFFFFFFFFFFFFFFFFFFFFFFFFFFFFFFFF AND EQ PUSH2 0x1EA5 JUMPI PUSH2 0x1E69 PUSH2 0x2233 JUMP JUMPDEST PUSH1 0x40 MLOAD PUSH32 0x118CDAA700000000000000000000000000000000000000000000000000000000 DUP2 MSTORE PUSH1 0x4 ADD PUSH2 0x1E9C SWAP2 SWAP1 PUSH2 0x263E JUMP JUMPDEST PUSH1 0x40 MLOAD DUP1 SWAP2 SUB SWAP1 REVERT JUMPDEST JUMP JUMPDEST PUSH0 PUSH0 PUSH0 SWAP1 POP JUMPDEST PUSH1 0x6 DUP1 SLOAD SWAP1 POP DUP2 LT ISZERO PUSH2 0x1EF4 JUMPI DUP3 PUSH1 0x6 DUP3 DUP2 SLOAD DUP2 LT PUSH2 0x1ECF JUMPI PUSH2 0x1ECE PUSH2 0x2ABF JUMP JUMPDEST JUMPDEST SWAP1 PUSH0 MSTORE PUSH1 0x20 PUSH0 KECCAK256 ADD SLOAD SUB PUSH2 0x1EE7 JUMPI PUSH1 0x1 SWAP2 POP POP PUSH2 0x1EF9 JUMP JUMPDEST DUP1 DUP1 PUSH1 0x1 ADD SWAP2 POP POP PUSH2 0x1EAD JUMP JUMPDEST POP PUSH0 SWAP1 POP JUMPDEST SWAP2 SWAP1 POP JUMP JUMPDEST PUSH0 PUSH0 SWAP1 POP JUMPDEST PUSH1 0x7 DUP1 SLOAD SWAP1 POP DUP2 LT ISZERO PUSH2 0x2051 JUMPI PUSH0 PUSH1 0x1 PUSH0 PUSH1 0x9 SLOAD DUP2 MSTORE PUSH1 0x20 ADD SWAP1 DUP2 MSTORE PUSH1 0x20 ADD PUSH0 KECCAK256 PUSH0 PUSH1 0x7 DUP5 DUP2 SLOAD DUP2 LT PUSH2 0x1F39 JUMPI PUSH2 0x1F38 PUSH2 0x2ABF JUMP JUMPDEST JUMPDEST SWAP1 PUSH0 MSTORE PUSH1 0x20 PUSH0 KECCAK256 ADD PUSH0 SWAP1 SLOAD SWAP1 PUSH2 0x100 EXP SWAP1 DIV PUSH20 0xFFFFFFFFFFFFFFFFFFFFFFFFFFFFFFFFFFFFFFFF AND PUSH20 0xFFFFFFFFFFFFFFFFFFFFFFFFFFFFFFFFFFFFFFFF AND PUSH20 0xFFFFFFFFFFFFFFFFFFFFFFFFFFFFFFFFFFFFFFFF AND DUP2 MSTORE PUSH1 0x20 ADD SWAP1 DUP2 MSTORE PUSH1 0x20 ADD PUSH0 KECCAK256 PUSH0 ADD PUSH1 0x1 PUSH2 0x100 EXP DUP2 SLOAD DUP2 PUSH1 0xFF MUL NOT AND SWAP1 DUP4 ISZERO ISZERO MUL OR SWAP1 SSTORE POP PUSH0 PUSH1 0x1 PUSH0 PUSH1 0x9 SLOAD DUP2 MSTORE PUSH1 0x20 ADD SWAP1 DUP2 MSTORE PUSH1 0x20 ADD PUSH0 KECCAK256 PUSH0 PUSH1 0x7 DUP5 DUP2 SLOAD DUP2 LT PUSH2 0x1FDC JUMPI PUSH2 0x1FDB PUSH2 0x2ABF JUMP JUMPDEST JUMPDEST SWAP1 PUSH0 MSTORE PUSH1 0x20 PUSH0 KECCAK256 ADD PUSH0 SWAP1 SLOAD SWAP1 PUSH2 0x100 EXP SWAP1 DIV PUSH20 0xFFFFFFFFFFFFFFFFFFFFFFFFFFFFFFFFFFFFFFFF AND PUSH20 0xFFFFFFFFFFFFFFFFFFFFFFFFFFFFFFFFFFFFFFFF AND PUSH20 0xFFFFFFFFFFFFFFFFFFFFFFFFFFFFFFFFFFFFFFFF AND DUP2 MSTORE PUSH1 0x20 ADD SWAP1 DUP2 MSTORE PUSH1 0x20 ADD PUSH0 KECCAK256 PUSH1 0x1 ADD DUP2 SWAP1 SSTORE POP DUP1 DUP1 PUSH1 0x1 ADD SWAP2 POP POP PUSH2 0x1F03 JUMP JUMPDEST POP JUMP JUMPDEST PUSH0 PUSH0 SWAP1 POP JUMPDEST PUSH1 0x2 PUSH0 PUSH1 0x9 SLOAD DUP2 MSTORE PUSH1 0x20 ADD SWAP1 DUP2 MSTORE PUSH1 0x20 ADD PUSH0 KECCAK256 DUP1 SLOAD SWAP1 POP DUP2 LT ISZERO PUSH2 0x20BD JUMPI PUSH0 PUSH1 0x2 PUSH0 PUSH1 0x9 SLOAD DUP2 MSTORE PUSH1 0x20 ADD SWAP1 DUP2 MSTORE PUSH1 0x20 ADD PUSH0 KECCAK256 DUP3 DUP2 SLOAD DUP2 LT PUSH2 0x209D JUMPI PUSH2 0x209C PUSH2 0x2ABF JUMP JUMPDEST JUMPDEST SWAP1 PUSH0 MSTORE PUSH1 0x20 PUSH0 KECCAK256 SWAP1 PUSH1 0x2 MUL ADD PUSH1 0x1 ADD DUP2 SWAP1 SSTORE POP DUP1 DUP1 PUSH1 0x1 ADD SWAP2 POP POP PUSH2 0x2059 JUMP JUMPDEST POP JUMP JUMPDEST PUSH0 PUSH0 TIMESTAMP PREVRANDAO CALLER PUSH1 0x40 MLOAD PUSH1 0x20 ADD PUSH2 0x20D7 SWAP4 SWAP3 SWAP2 SWAP1 PUSH2 0x3193 JUMP JUMPDEST PUSH1 0x40 MLOAD PUSH1 0x20 DUP2 DUP4 SUB SUB DUP2 MSTORE SWAP1 PUSH1 0x40 MSTORE DUP1 MLOAD SWAP1 PUSH1 0x20 ADD KECCAK256 PUSH0 SHR SWAP1 POP DUP3 DUP2 PUSH2 0x20FD SWAP2 SWAP1 PUSH2 0x31FC JUMP JUMPDEST SWAP2 POP POP SWAP2 SWAP1 POP JUMP JUMPDEST PUSH0 PUSH0 PUSH0 SWAP1 SLOAD SWAP1 PUSH2 0x100 EXP SWAP1 DIV PUSH20 0xFFFFFFFFFFFFFFFFFFFFFFFFFFFFFFFFFFFFFFFF AND SWAP1 POP DUP2 PUSH0 PUSH0 PUSH2 0x100 EXP DUP2 SLOAD DUP2 PUSH20 0xFFFFFFFFFFFFFFFFFFFFFFFFFFFFFFFFFFFFFFFF MUL NOT AND SWAP1 DUP4 PUSH20 0xFFFFFFFFFFFFFFFFFFFFFFFFFFFFFFFFFFFFFFFF AND MUL OR SWAP1 SSTORE POP DUP2 PUSH20 0xFFFFFFFFFFFFFFFFFFFFFFFFFFFFFFFFFFFFFFFF AND DUP2 PUSH20 0xFFFFFFFFFFFFFFFFFFFFFFFFFFFFFFFFFFFFFFFF AND PUSH32 0x8BE0079C531659141344CD1FD0A4F28419497F9722A3DAAFE3B4186F6B6457E0 PUSH1 0x40 MLOAD PUSH1 0x40 MLOAD DUP1 SWAP2 SUB SWAP1 LOG3 POP POP JUMP JUMPDEST PUSH0 PUSH0 SWAP1 POP JUMPDEST PUSH1 0x2 PUSH0 PUSH1 0x9 SLOAD DUP2 MSTORE PUSH1 0x20 ADD SWAP1 DUP2 MSTORE PUSH1 0x20 ADD PUSH0 KECCAK256 DUP1 SLOAD SWAP1 POP DUP2 LT ISZERO PUSH2 0x2230 JUMPI PUSH1 0x1 PUSH1 0x3 PUSH0 PUSH1 0x9 SLOAD DUP2 MSTORE PUSH1 0x20 ADD SWAP1 DUP2 MSTORE PUSH1 0x20 ADD PUSH0 KECCAK256 PUSH0 DUP4 DUP2 MSTORE PUSH1 0x20 ADD SWAP1 DUP2 MSTORE PUSH1 0x20 ADD PUSH0 KECCAK256 PUSH0 PUSH2 0x100 EXP DUP2 SLOAD DUP2 PUSH1 0xFF MUL NOT AND SWAP1 DUP4 ISZERO ISZERO MUL OR SWAP1 SSTORE POP DUP1 DUP1 PUSH1 0x1 ADD SWAP2 POP POP PUSH2 0x21CB JUMP JUMPDEST POP JUMP JUMPDEST PUSH0 CALLER SWAP1 POP SWAP1 JUMP JUMPDEST POP DUP1 SLOAD PUSH0 DUP3 SSTORE SWAP1 PUSH0 MSTORE PUSH1 0x20 PUSH0 KECCAK256 SWAP1 DUP2 ADD SWAP1 PUSH2 0x2255 SWAP2 SWAP1 PUSH2 0x228F JUMP JUMPDEST POP JUMP JUMPDEST PUSH1 0x40 MLOAD DUP1 PUSH1 0x40 ADD PUSH1 0x40 MSTORE DUP1 PUSH1 0x60 DUP2 MSTORE PUSH1 0x20 ADD PUSH0 DUP2 MSTORE POP SWAP1 JUMP JUMPDEST POP DUP1 SLOAD PUSH0 DUP3 SSTORE SWAP1 PUSH0 MSTORE PUSH1 0x20 PUSH0 KECCAK256 SWAP1 DUP2 ADD SWAP1 PUSH2 0x228C SWAP2 SWAP1 PUSH2 0x228F JUMP JUMPDEST POP JUMP JUMPDEST JUMPDEST DUP1 DUP3 GT ISZERO PUSH2 0x22A6 JUMPI PUSH0 DUP2 PUSH0 SWAP1 SSTORE POP PUSH1 0x1 ADD PUSH2 0x2290 JUMP JUMPDEST POP SWAP1 JUMP JUMPDEST PUSH0 PUSH0 REVERT JUMPDEST PUSH0 PUSH0 REVERT JUMPDEST PUSH0 DUP2 SWAP1 POP SWAP2 SWAP1 POP JUMP JUMPDEST PUSH2 0x22C4 DUP2 PUSH2 0x22B2 JUMP JUMPDEST DUP2 EQ PUSH2 0x22CE JUMPI PUSH0 PUSH0 REVERT JUMPDEST POP JUMP JUMPDEST PUSH0 DUP2 CALLDATALOAD SWAP1 POP PUSH2 0x22DF DUP2 PUSH2 0x22BB JUMP JUMPDEST SWAP3 SWAP2 POP POP JUMP JUMPDEST PUSH0 PUSH1 0x20 DUP3 DUP5 SUB SLT ISZERO PUSH2 0x22FA JUMPI PUSH2 0x22F9 PUSH2 0x22AA JUMP JUMPDEST JUMPDEST PUSH0 PUSH2 0x2307 DUP5 DUP3 DUP6 ADD PUSH2 0x22D1 JUMP JUMPDEST SWAP2 POP POP SWAP3 SWAP2 POP POP JUMP JUMPDEST PUSH32 0x4E487B7100000000000000000000000000000000000000000000000000000000 PUSH0 MSTORE PUSH1 0x21 PUSH1 0x4 MSTORE PUSH1 0x24 PUSH0 REVERT JUMPDEST PUSH1 0x6 DUP2 LT PUSH2 0x234E JUMPI PUSH2 0x234D PUSH2 0x2310 JUMP JUMPDEST JUMPDEST POP JUMP JUMPDEST PUSH0 DUP2 SWAP1 POP PUSH2 0x235E DUP3 PUSH2 0x233D JUMP JUMPDEST SWAP2 SWAP1 POP JUMP JUMPDEST PUSH0 PUSH2 0x236D DUP3 PUSH2 0x2351 JUMP JUMPDEST SWAP1 POP SWAP2 SWAP1 POP JUMP JUMPDEST PUSH2 0x237D DUP2 PUSH2 0x2363 JUMP JUMPDEST DUP3 MSTORE POP POP JUMP JUMPDEST PUSH0 PUSH1 0x20 DUP3 ADD SWAP1 POP PUSH2 0x2396 PUSH0 DUP4 ADD DUP5 PUSH2 0x2374 JUMP JUMPDEST SWAP3 SWAP2 POP POP JUMP JUMPDEST PUSH0 PUSH0 REVERT JUMPDEST PUSH0 PUSH0 REVERT JUMPDEST PUSH0 PUSH0 REVERT JUMPDEST PUSH0 PUSH0 DUP4 PUSH1 0x1F DUP5 ADD SLT PUSH2 0x23BD JUMPI PUSH2 0x23BC PUSH2 0x239C JUMP JUMPDEST JUMPDEST DUP3 CALLDATALOAD SWAP1 POP PUSH8 0xFFFFFFFFFFFFFFFF DUP2 GT ISZERO PUSH2 0x23DA JUMPI PUSH2 0x23D9 PUSH2 0x23A0 JUMP JUMPDEST JUMPDEST PUSH1 0x20 DUP4 ADD SWAP2 POP DUP4 PUSH1 0x1 DUP3 MUL DUP4 ADD GT ISZERO PUSH2 0x23F6 JUMPI PUSH2 0x23F5 PUSH2 0x23A4 JUMP JUMPDEST JUMPDEST SWAP3 POP SWAP3 SWAP1 POP JUMP JUMPDEST PUSH0 PUSH0 PUSH1 0x20 DUP4 DUP6 SUB SLT ISZERO PUSH2 0x2413 JUMPI PUSH2 0x2412 PUSH2 0x22AA JUMP JUMPDEST JUMPDEST PUSH0 DUP4 ADD CALLDATALOAD PUSH8 0xFFFFFFFFFFFFFFFF DUP2 GT ISZERO PUSH2 0x2430 JUMPI PUSH2 0x242F PUSH2 0x22AE JUMP JUMPDEST JUMPDEST PUSH2 0x243C DUP6 DUP3 DUP7 ADD PUSH2 0x23A8 JUMP JUMPDEST SWAP3 POP SWAP3 POP POP SWAP3 POP SWAP3 SWAP1 POP JUMP JUMPDEST PUSH0 PUSH0 DUP4 PUSH1 0x1F DUP5 ADD SLT PUSH2 0x245D JUMPI PUSH2 0x245C PUSH2 0x239C JUMP JUMPDEST JUMPDEST DUP3 CALLDATALOAD SWAP1 POP PUSH8 0xFFFFFFFFFFFFFFFF DUP2 GT ISZERO PUSH2 0x247A JUMPI PUSH2 0x2479 PUSH2 0x23A0 JUMP JUMPDEST JUMPDEST PUSH1 0x20 DUP4 ADD SWAP2 POP DUP4 PUSH1 0x20 DUP3 MUL DUP4 ADD GT ISZERO PUSH2 0x2496 JUMPI PUSH2 0x2495 PUSH2 0x23A4 JUMP JUMPDEST JUMPDEST SWAP3 POP SWAP3 SWAP1 POP JUMP JUMPDEST PUSH0 PUSH0 PUSH1 0x20 DUP4 DUP6 SUB SLT ISZERO PUSH2 0x24B3 JUMPI PUSH2 0x24B2 PUSH2 0x22AA JUMP JUMPDEST JUMPDEST PUSH0 DUP4 ADD CALLDATALOAD PUSH8 0xFFFFFFFFFFFFFFFF DUP2 GT ISZERO PUSH2 0x24D0 JUMPI PUSH2 0x24CF PUSH2 0x22AE JUMP JUMPDEST JUMPDEST PUSH2 0x24DC DUP6 DUP3 DUP7 ADD PUSH2 0x2448 JUMP JUMPDEST SWAP3 POP SWAP3 POP POP SWAP3 POP SWAP3 SWAP1 POP JUMP JUMPDEST PUSH0 PUSH0 PUSH1 0x40 DUP4 DUP6 SUB SLT ISZERO PUSH2 0x24FE JUMPI PUSH2 0x24FD PUSH2 0x22AA JUMP JUMPDEST JUMPDEST PUSH0 PUSH2 0x250B DUP6 DUP3 DUP7 ADD PUSH2 0x22D1 JUMP JUMPDEST SWAP3 POP POP PUSH1 0x20 PUSH2 0x251C DUP6 DUP3 DUP7 ADD PUSH2 0x22D1 JUMP JUMPDEST SWAP2 POP POP SWAP3 POP SWAP3 SWAP1 POP JUMP JUMPDEST PUSH0 DUP2 MLOAD SWAP1 POP SWAP2 SWAP1 POP JUMP JUMPDEST PUSH0 DUP3 DUP3 MSTORE PUSH1 0x20 DUP3 ADD SWAP1 POP SWAP3 SWAP2 POP POP JUMP JUMPDEST DUP3 DUP2 DUP4 MCOPY PUSH0 DUP4 DUP4 ADD MSTORE POP POP POP JUMP JUMPDEST PUSH0 PUSH1 0x1F NOT PUSH1 0x1F DUP4 ADD AND SWAP1 POP SWAP2 SWAP1 POP JUMP JUMPDEST PUSH0 PUSH2 0x2568 DUP3 PUSH2 0x2526 JUMP JUMPDEST PUSH2 0x2572 DUP2 DUP6 PUSH2 0x2530 JUMP JUMPDEST SWAP4 POP PUSH2 0x2582 DUP2 DUP6 PUSH1 0x20 DUP7 ADD PUSH2 0x2540 JUMP JUMPDEST PUSH2 0x258B DUP2 PUSH2 0x254E JUMP JUMPDEST DUP5 ADD SWAP2 POP POP SWAP3 SWAP2 POP POP JUMP JUMPDEST PUSH2 0x259F DUP2 PUSH2 0x22B2 JUMP JUMPDEST DUP3 MSTORE POP POP JUMP JUMPDEST PUSH0 PUSH1 0x40 DUP4 ADD PUSH0 DUP4 ADD MLOAD DUP5 DUP3 SUB PUSH0 DUP7 ADD MSTORE PUSH2 0x25BF DUP3 DUP3 PUSH2 0x255E JUMP JUMPDEST SWAP2 POP POP PUSH1 0x20 DUP4 ADD MLOAD PUSH2 0x25D4 PUSH1 0x20 DUP7 ADD DUP3 PUSH2 0x2596 JUMP JUMPDEST POP DUP1 SWAP2 POP POP SWAP3 SWAP2 POP POP JUMP JUMPDEST PUSH0 PUSH1 0x20 DUP3 ADD SWAP1 POP DUP2 DUP2 SUB PUSH0 DUP4 ADD MSTORE PUSH2 0x25F7 DUP2 DUP5 PUSH2 0x25A5 JUMP JUMPDEST SWAP1 POP SWAP3 SWAP2 POP POP JUMP JUMPDEST PUSH0 PUSH20 0xFFFFFFFFFFFFFFFFFFFFFFFFFFFFFFFFFFFFFFFF DUP3 AND SWAP1 POP SWAP2 SWAP1 POP JUMP JUMPDEST PUSH0 PUSH2 0x2628 DUP3 PUSH2 0x25FF JUMP JUMPDEST SWAP1 POP SWAP2 SWAP1 POP JUMP JUMPDEST PUSH2 0x2638 DUP2 PUSH2 0x261E JUMP JUMPDEST DUP3 MSTORE POP POP JUMP JUMPDEST PUSH0 PUSH1 0x20 DUP3 ADD SWAP1 POP PUSH2 0x2651 PUSH0 DUP4 ADD DUP5 PUSH2 0x262F JUMP JUMPDEST SWAP3 SWAP2 POP POP JUMP JUMPDEST PUSH0 DUP2 MLOAD SWAP1 POP SWAP2 SWAP1 POP JUMP JUMPDEST PUSH0 DUP3 DUP3 MSTORE PUSH1 0x20 DUP3 ADD SWAP1 POP SWAP3 SWAP2 POP POP JUMP JUMPDEST PUSH0 DUP2 SWAP1 POP PUSH1 0x20 DUP3 ADD SWAP1 POP SWAP2 SWAP1 POP JUMP JUMPDEST PUSH0 PUSH1 0x40 DUP4 ADD PUSH0 DUP4 ADD MLOAD DUP5 DUP3 SUB PUSH0 DUP7 ADD MSTORE PUSH2 0x269A DUP3 DUP3 PUSH2 0x255E JUMP JUMPDEST SWAP2 POP POP PUSH1 0x20 DUP4 ADD MLOAD PUSH2 0x26AF PUSH1 0x20 DUP7 ADD DUP3 PUSH2 0x2596 JUMP JUMPDEST POP DUP1 SWAP2 POP POP SWAP3 SWAP2 POP POP JUMP JUMPDEST PUSH0 PUSH2 0x26C5 DUP4 DUP4 PUSH2 0x2680 JUMP JUMPDEST SWAP1 POP SWAP3 SWAP2 POP POP JUMP JUMPDEST PUSH0 PUSH1 0x20 DUP3 ADD SWAP1 POP SWAP2 SWAP1 POP JUMP JUMPDEST PUSH0 PUSH2 0x26E3 DUP3 PUSH2 0x2657 JUMP JUMPDEST PUSH2 0x26ED DUP2 DUP6 PUSH2 0x2661 JUMP JUMPDEST SWAP4 POP DUP4 PUSH1 0x20 DUP3 MUL DUP6 ADD PUSH2 0x26FF DUP6 PUSH2 0x2671 JUMP JUMPDEST DUP1 PUSH0 JUMPDEST DUP6 DUP2 LT ISZERO PUSH2 0x273A JUMPI DUP5 DUP5 SUB DUP10 MSTORE DUP2 MLOAD PUSH2 0x271B DUP6 DUP3 PUSH2 0x26BA JUMP JUMPDEST SWAP5 POP PUSH2 0x2726 DUP4 PUSH2 0x26CD JUMP JUMPDEST SWAP3 POP PUSH1 0x20 DUP11 ADD SWAP10 POP POP PUSH1 0x1 DUP2 ADD SWAP1 POP PUSH2 0x2702 JUMP JUMPDEST POP DUP3 SWAP8 POP DUP8 SWAP6 POP POP POP POP POP POP SWAP3 SWAP2 POP POP JUMP JUMPDEST PUSH0 DUP2 MLOAD SWAP1 POP SWAP2 SWAP1 POP JUMP JUMPDEST PUSH0 DUP3 DUP3 MSTORE PUSH1 0x20 DUP3 ADD SWAP1 POP SWAP3 SWAP2 POP POP JUMP JUMPDEST PUSH0 DUP2 SWAP1 POP PUSH1 0x20 DUP3 ADD SWAP1 POP SWAP2 SWAP1 POP JUMP JUMPDEST PUSH0 PUSH2 0x2780 DUP4 DUP4 PUSH2 0x2596 JUMP JUMPDEST PUSH1 0x20 DUP4 ADD SWAP1 POP SWAP3 SWAP2 POP POP JUMP JUMPDEST PUSH0 PUSH1 0x20 DUP3 ADD SWAP1 POP SWAP2 SWAP1 POP JUMP JUMPDEST PUSH0 PUSH2 0x27A2 DUP3 PUSH2 0x274C JUMP JUMPDEST PUSH2 0x27AC DUP2 DUP6 PUSH2 0x2756 JUMP JUMPDEST SWAP4 POP PUSH2 0x27B7 DUP4 PUSH2 0x2766 JUMP JUMPDEST DUP1 PUSH0 JUMPDEST DUP4 DUP2 LT ISZERO PUSH2 0x27E7 JUMPI DUP2 MLOAD PUSH2 0x27CE DUP9 DUP3 PUSH2 0x2775 JUMP JUMPDEST SWAP8 POP PUSH2 0x27D9 DUP4 PUSH2 0x278C JUMP JUMPDEST SWAP3 POP POP PUSH1 0x1 DUP2 ADD SWAP1 POP PUSH2 0x27BA JUMP JUMPDEST POP DUP6 SWAP4 POP POP POP POP SWAP3 SWAP2 POP POP JUMP JUMPDEST PUSH0 PUSH1 0x40 DUP3 ADD SWAP1 POP DUP2 DUP2 SUB PUSH0 DUP4 ADD MSTORE PUSH2 0x280C DUP2 DUP6 PUSH2 0x26D9 JUMP JUMPDEST SWAP1 POP DUP2 DUP2 SUB PUSH1 0x20 DUP4 ADD MSTORE PUSH2 0x2820 DUP2 DUP5 PUSH2 0x2798 JUMP JUMPDEST SWAP1 POP SWAP4 SWAP3 POP POP POP JUMP JUMPDEST PUSH2 0x2832 DUP2 PUSH2 0x22B2 JUMP JUMPDEST DUP3 MSTORE POP POP JUMP JUMPDEST PUSH0 PUSH1 0x20 DUP3 ADD SWAP1 POP PUSH2 0x284B PUSH0 DUP4 ADD DUP5 PUSH2 0x2829 JUMP JUMPDEST SWAP3 SWAP2 POP POP JUMP JUMPDEST PUSH2 0x285A DUP2 PUSH2 0x261E JUMP JUMPDEST DUP2 EQ PUSH2 0x2864 JUMPI PUSH0 PUSH0 REVERT JUMPDEST POP JUMP JUMPDEST PUSH0 DUP2 CALLDATALOAD SWAP1 POP PUSH2 0x2875 DUP2 PUSH2 0x2851 JUMP JUMPDEST SWAP3 SWAP2 POP POP JUMP JUMPDEST PUSH0 PUSH0 PUSH1 0x40 DUP4 DUP6 SUB SLT ISZERO PUSH2 0x2891 JUMPI PUSH2 0x2890 PUSH2 0x22AA JUMP JUMPDEST JUMPDEST PUSH0 PUSH2 0x289E DUP6 DUP3 DUP7 ADD PUSH2 0x2867 JUMP JUMPDEST SWAP3 POP POP PUSH1 0x20 PUSH2 0x28AF DUP6 DUP3 DUP7 ADD PUSH2 0x22D1 JUMP JUMPDEST SWAP2 POP POP SWAP3 POP SWAP3 SWAP1 POP JUMP JUMPDEST PUSH0 PUSH1 0x20 DUP3 DUP5 SUB SLT ISZERO PUSH2 0x28CE JUMPI PUSH2 0x28CD PUSH2 0x22AA JUMP JUMPDEST JUMPDEST PUSH0 PUSH2 0x28DB DUP5 DUP3 DUP6 ADD PUSH2 0x2867 JUMP JUMPDEST SWAP2 POP POP SWAP3 SWAP2 POP POP JUMP JUMPDEST PUSH0 PUSH1 0x20 DUP3 ADD SWAP1 POP DUP2 DUP2 SUB PUSH0 DUP4 ADD MSTORE PUSH2 0x28FC DUP2 DUP5 PUSH2 0x26D9 JUMP JUMPDEST SWAP1 POP SWAP3 SWAP2 POP POP JUMP JUMPDEST PUSH0 PUSH1 0x40 DUP3 ADD SWAP1 POP PUSH2 0x2917 PUSH0 DUP4 ADD DUP6 PUSH2 0x2374 JUMP JUMPDEST PUSH2 0x2924 PUSH1 0x20 DUP4 ADD DUP5 PUSH2 0x2374 JUMP JUMPDEST SWAP4 SWAP3 POP POP POP JUMP JUMPDEST PUSH0 DUP3 DUP3 MSTORE PUSH1 0x20 DUP3 ADD SWAP1 POP SWAP3 SWAP2 POP POP JUMP JUMPDEST PUSH32 0x596F75206861766520616C726561647920766F74656400000000000000000000 PUSH0 DUP3 ADD MSTORE POP JUMP JUMPDEST PUSH0 PUSH2 0x296F PUSH1 0x16 DUP4 PUSH2 0x292B JUMP JUMPDEST SWAP2 POP PUSH2 0x297A DUP3 PUSH2 0x293B JUMP JUMPDEST PUSH1 0x20 DUP3 ADD SWAP1 POP SWAP2 SWAP1 POP JUMP JUMPDEST PUSH0 PUSH1 0x20 DUP3 ADD SWAP1 POP DUP2 DUP2 SUB PUSH0 DUP4 ADD MSTORE PUSH2 0x299C DUP2 PUSH2 0x2963 JUMP JUMPDEST SWAP1 POP SWAP2 SWAP1 POP JUMP JUMPDEST PUSH32 0x496E76616C69642070726F706F73616C20494400000000000000000000000000 PUSH0 DUP3 ADD MSTORE POP JUMP JUMPDEST PUSH0 PUSH2 0x29D7 PUSH1 0x13 DUP4 PUSH2 0x292B JUMP JUMPDEST SWAP2 POP PUSH2 0x29E2 DUP3 PUSH2 0x29A3 JUMP JUMPDEST PUSH1 0x20 DUP3 ADD SWAP1 POP SWAP2 SWAP1 POP JUMP JUMPDEST PUSH0 PUSH1 0x20 DUP3 ADD SWAP1 POP DUP2 DUP2 SUB PUSH0 DUP4 ADD MSTORE PUSH2 0x2A04 DUP2 PUSH2 0x29CB JUMP JUMPDEST SWAP1 POP SWAP2 SWAP1 POP JUMP JUMPDEST PUSH32 0x566F74696E67206973206E6F7420616C6C6F776564206F6E2074686973207072 PUSH0 DUP3 ADD MSTORE PUSH32 0x6F706F73616C2E20506C656173652063686F6F736520616E20656C696769626C PUSH1 0x20 DUP3 ADD MSTORE PUSH32 0x652070726F706F73616C2E000000000000000000000000000000000000000000 PUSH1 0x40 DUP3 ADD MSTORE POP JUMP JUMPDEST PUSH0 PUSH2 0x2A8B PUSH1 0x4B DUP4 PUSH2 0x292B JUMP JUMPDEST SWAP2 POP PUSH2 0x2A96 DUP3 PUSH2 0x2A0B JUMP JUMPDEST PUSH1 0x60 DUP3 ADD SWAP1 POP SWAP2 SWAP1 POP JUMP JUMPDEST PUSH0 PUSH1 0x20 DUP3 ADD SWAP1 POP DUP2 DUP2 SUB PUSH0 DUP4 ADD MSTORE PUSH2 0x2AB8 DUP2 PUSH2 0x2A7F JUMP JUMPDEST SWAP1 POP SWAP2 SWAP1 POP JUMP JUMPDEST PUSH32 0x4E487B7100000000000000000000000000000000000000000000000000000000 PUSH0 MSTORE PUSH1 0x32 PUSH1 0x4 MSTORE PUSH1 0x24 PUSH0 REVERT JUMPDEST PUSH32 0x4E487B7100000000000000000000000000000000000000000000000000000000 PUSH0 MSTORE PUSH1 0x11 PUSH1 0x4 MSTORE PUSH1 0x24 PUSH0 REVERT JUMPDEST PUSH0 PUSH2 0x2B23 DUP3 PUSH2 0x22B2 JUMP JUMPDEST SWAP2 POP PUSH2 0x2B2E DUP4 PUSH2 0x22B2 JUMP JUMPDEST SWAP3 POP DUP3 DUP3 ADD SWAP1 POP DUP1 DUP3 GT ISZERO PUSH2 0x2B46 JUMPI PUSH2 0x2B45 PUSH2 0x2AEC JUMP JUMPDEST JUMPDEST SWAP3 SWAP2 POP POP JUMP JUMPDEST PUSH0 PUSH1 0x40 DUP3 ADD SWAP1 POP PUSH2 0x2B5F PUSH0 DUP4 ADD DUP6 PUSH2 0x262F JUMP JUMPDEST PUSH2 0x2B6C PUSH1 0x20 DUP4 ADD DUP5 PUSH2 0x2829 JUMP JUMPDEST SWAP4 SWAP3 POP POP POP JUMP JUMPDEST PUSH32 0x4E487B7100000000000000000000000000000000000000000000000000000000 PUSH0 MSTORE PUSH1 0x41 PUSH1 0x4 MSTORE PUSH1 0x24 PUSH0 REVERT JUMPDEST PUSH32 0x4E487B7100000000000000000000000000000000000000000000000000000000 PUSH0 MSTORE PUSH1 0x22 PUSH1 0x4 MSTORE PUSH1 0x24 PUSH0 REVERT JUMPDEST PUSH0 PUSH1 0x2 DUP3 DIV SWAP1 POP PUSH1 0x1 DUP3 AND DUP1 PUSH2 0x2BE4 JUMPI PUSH1 0x7F DUP3 AND SWAP2 POP JUMPDEST PUSH1 0x20 DUP3 LT DUP2 SUB PUSH2 0x2BF7 JUMPI PUSH2 0x2BF6 PUSH2 0x2BA0 JUMP JUMPDEST JUMPDEST POP SWAP2 SWAP1 POP JUMP JUMPDEST PUSH0 DUP2 SWAP1 POP DUP2 PUSH0 MSTORE PUSH1 0x20 PUSH0 KECCAK256 SWAP1 POP SWAP2 SWAP1 POP JUMP JUMPDEST PUSH0 PUSH1 0x20 PUSH1 0x1F DUP4 ADD DIV SWAP1 POP SWAP2 SWAP1 POP JUMP JUMPDEST PUSH0 DUP3 DUP3 SHL SWAP1 POP SWAP3 SWAP2 POP POP JUMP JUMPDEST PUSH0 PUSH1 0x8 DUP4 MUL PUSH2 0x2C59 PUSH32 0xFFFFFFFFFFFFFFFFFFFFFFFFFFFFFFFFFFFFFFFFFFFFFFFFFFFFFFFFFFFFFFFF DUP3 PUSH2 0x2C1E JUMP JUMPDEST PUSH2 0x2C63 DUP7 DUP4 PUSH2 0x2C1E JUMP JUMPDEST SWAP6 POP DUP1 NOT DUP5 AND SWAP4 POP DUP1 DUP7 AND DUP5 OR SWAP3 POP POP POP SWAP4 SWAP3 POP POP POP JUMP JUMPDEST PUSH0 DUP2 SWAP1 POP SWAP2 SWAP1 POP JUMP JUMPDEST PUSH0 PUSH2 0x2C9E PUSH2 0x2C99 PUSH2 0x2C94 DUP5 PUSH2 0x22B2 JUMP JUMPDEST PUSH2 0x2C7B JUMP JUMPDEST PUSH2 0x22B2 JUMP JUMPDEST SWAP1 POP SWAP2 SWAP1 POP JUMP JUMPDEST PUSH0 DUP2 SWAP1 POP SWAP2 SWAP1 POP JUMP JUMPDEST PUSH2 0x2CB7 DUP4 PUSH2 0x2C84 JUMP JUMPDEST PUSH2 0x2CCB PUSH2 0x2CC3 DUP3 PUSH2 0x2CA5 JUMP JUMPDEST DUP5 DUP5 SLOAD PUSH2 0x2C2A JUMP JUMPDEST DUP3 SSTORE POP POP POP POP JUMP JUMPDEST PUSH0 PUSH0 SWAP1 POP SWAP1 JUMP JUMPDEST PUSH2 0x2CE2 PUSH2 0x2CD3 JUMP JUMPDEST PUSH2 0x2CED DUP2 DUP5 DUP5 PUSH2 0x2CAE JUMP JUMPDEST POP POP POP JUMP JUMPDEST JUMPDEST DUP2 DUP2 LT ISZERO PUSH2 0x2D10 JUMPI PUSH2 0x2D05 PUSH0 DUP3 PUSH2 0x2CDA JUMP JUMPDEST PUSH1 0x1 DUP2 ADD SWAP1 POP PUSH2 0x2CF3 JUMP JUMPDEST POP POP JUMP JUMPDEST PUSH1 0x1F DUP3 GT ISZERO PUSH2 0x2D55 JUMPI PUSH2 0x2D26 DUP2 PUSH2 0x2BFD JUMP JUMPDEST PUSH2 0x2D2F DUP5 PUSH2 0x2C0F JUMP JUMPDEST DUP2 ADD PUSH1 0x20 DUP6 LT ISZERO PUSH2 0x2D3E JUMPI DUP2 SWAP1 POP JUMPDEST PUSH2 0x2D52 PUSH2 0x2D4A DUP6 PUSH2 0x2C0F JUMP JUMPDEST DUP4 ADD DUP3 PUSH2 0x2CF2 JUMP JUMPDEST POP POP JUMPDEST POP POP POP JUMP JUMPDEST PUSH0 DUP3 DUP3 SHR SWAP1 POP SWAP3 SWAP2 POP POP JUMP JUMPDEST PUSH0 PUSH2 0x2D75 PUSH0 NOT DUP5 PUSH1 0x8 MUL PUSH2 0x2D5A JUMP JUMPDEST NOT DUP1 DUP4 AND SWAP2 POP POP SWAP3 SWAP2 POP POP JUMP JUMPDEST PUSH0 PUSH2 0x2D8D DUP4 DUP4 PUSH2 0x2D66 JUMP JUMPDEST SWAP2 POP DUP3 PUSH1 0x2 MUL DUP3 OR SWAP1 POP SWAP3 SWAP2 POP POP JUMP JUMPDEST PUSH2 0x2DA6 DUP3 PUSH2 0x2526 JUMP JUMPDEST PUSH8 0xFFFFFFFFFFFFFFFF DUP2 GT ISZERO PUSH2 0x2DBF JUMPI PUSH2 0x2DBE PUSH2 0x2B73 JUMP JUMPDEST JUMPDEST PUSH2 0x2DC9 DUP3 SLOAD PUSH2 0x2BCD JUMP JUMPDEST PUSH2 0x2DD4 DUP3 DUP3 DUP6 PUSH2 0x2D14 JUMP JUMPDEST PUSH0 PUSH1 0x20 SWAP1 POP PUSH1 0x1F DUP4 GT PUSH1 0x1 DUP2 EQ PUSH2 0x2E05 JUMPI PUSH0 DUP5 ISZERO PUSH2 0x2DF3 JUMPI DUP3 DUP8 ADD MLOAD SWAP1 POP JUMPDEST PUSH2 0x2DFD DUP6 DUP3 PUSH2 0x2D82 JUMP JUMPDEST DUP7 SSTORE POP PUSH2 0x2E64 JUMP JUMPDEST PUSH1 0x1F NOT DUP5 AND PUSH2 0x2E13 DUP7 PUSH2 0x2BFD JUMP JUMPDEST PUSH0 JUMPDEST DUP3 DUP2 LT ISZERO PUSH2 0x2E3A JUMPI DUP5 DUP10 ADD MLOAD DUP3 SSTORE PUSH1 0x1 DUP3 ADD SWAP2 POP PUSH1 0x20 DUP6 ADD SWAP5 POP PUSH1 0x20 DUP2 ADD SWAP1 POP PUSH2 0x2E15 JUMP JUMPDEST DUP7 DUP4 LT ISZERO PUSH2 0x2E57 JUMPI DUP5 DUP10 ADD MLOAD PUSH2 0x2E53 PUSH1 0x1F DUP10 AND DUP3 PUSH2 0x2D66 JUMP JUMPDEST DUP4 SSTORE POP JUMPDEST PUSH1 0x1 PUSH1 0x2 DUP9 MUL ADD DUP9 SSTORE POP POP POP JUMPDEST POP POP POP POP POP POP JUMP JUMPDEST PUSH0 PUSH2 0x2E76 DUP3 PUSH2 0x22B2 JUMP JUMPDEST SWAP2 POP PUSH2 0x2E81 DUP4 PUSH2 0x22B2 JUMP JUMPDEST SWAP3 POP DUP3 DUP3 SUB SWAP1 POP DUP2 DUP2 GT ISZERO PUSH2 0x2E99 JUMPI PUSH2 0x2E98 PUSH2 0x2AEC JUMP JUMPDEST JUMPDEST SWAP3 SWAP2 POP POP JUMP JUMPDEST PUSH32 0x4E6F2070726F706F73616C20617661696C61626C650000000000000000000000 PUSH0 DUP3 ADD MSTORE POP JUMP JUMPDEST PUSH0 PUSH2 0x2ED3 PUSH1 0x15 DUP4 PUSH2 0x292B JUMP JUMPDEST SWAP2 POP PUSH2 0x2EDE DUP3 PUSH2 0x2E9F JUMP JUMPDEST PUSH1 0x20 DUP3 ADD SWAP1 POP SWAP2 SWAP1 POP JUMP JUMPDEST PUSH0 PUSH1 0x20 DUP3 ADD SWAP1 POP DUP2 DUP2 SUB PUSH0 DUP4 ADD MSTORE PUSH2 0x2F00 DUP2 PUSH2 0x2EC7 JUMP JUMPDEST SWAP1 POP SWAP2 SWAP1 POP JUMP JUMPDEST PUSH0 DUP2 SLOAD SWAP1 POP SWAP2 SWAP1 POP JUMP JUMPDEST PUSH0 DUP2 SWAP1 POP DUP2 PUSH0 MSTORE PUSH1 0x20 PUSH0 KECCAK256 SWAP1 POP SWAP2 SWAP1 POP JUMP JUMPDEST PUSH0 DUP2 PUSH0 SHR SWAP1 POP SWAP2 SWAP1 POP JUMP JUMPDEST PUSH0 DUP2 SWAP1 POP SWAP2 SWAP1 POP JUMP JUMPDEST PUSH0 PUSH2 0x2F49 PUSH2 0x2F44 DUP4 PUSH2 0x2F23 JUMP JUMPDEST PUSH2 0x2F2E JUMP JUMPDEST SWAP1 POP SWAP2 SWAP1 POP JUMP JUMPDEST PUSH0 PUSH2 0x2F5B DUP3 SLOAD PUSH2 0x2F37 JUMP JUMPDEST SWAP1 POP SWAP2 SWAP1 POP JUMP JUMPDEST PUSH0 PUSH1 0x1 DUP3 ADD SWAP1 POP SWAP2 SWAP1 POP JUMP JUMPDEST PUSH0 PUSH2 0x2F78 DUP3 PUSH2 0x2F07 JUMP JUMPDEST PUSH2 0x2F82 DUP2 DUP6 PUSH2 0x2756 JUMP JUMPDEST SWAP4 POP PUSH2 0x2F8D DUP4 PUSH2 0x2F11 JUMP JUMPDEST DUP1 PUSH0 JUMPDEST DUP4 DUP2 LT ISZERO PUSH2 0x2FC4 JUMPI PUSH2 0x2FA1 DUP3 PUSH2 0x2F50 JUMP JUMPDEST PUSH2 0x2FAB DUP9 DUP3 PUSH2 0x2775 JUMP JUMPDEST SWAP8 POP PUSH2 0x2FB6 DUP4 PUSH2 0x2F62 JUMP JUMPDEST SWAP3 POP POP PUSH1 0x1 DUP2 ADD SWAP1 POP PUSH2 0x2F90 JUMP JUMPDEST POP DUP6 SWAP4 POP POP POP POP SWAP3 SWAP2 POP POP JUMP JUMPDEST PUSH0 PUSH1 0x20 DUP3 ADD SWAP1 POP DUP2 DUP2 SUB PUSH0 DUP4 ADD MSTORE PUSH2 0x2FE9 DUP2 DUP5 PUSH2 0x2F6E JUMP JUMPDEST SWAP1 POP SWAP3 SWAP2 POP POP JUMP JUMPDEST PUSH0 PUSH2 0x2FFB DUP3 PUSH2 0x22B2 JUMP JUMPDEST SWAP2 POP PUSH32 0xFFFFFFFFFFFFFFFFFFFFFFFFFFFFFFFFFFFFFFFFFFFFFFFFFFFFFFFFFFFFFFFF DUP3 SUB PUSH2 0x302D JUMPI PUSH2 0x302C PUSH2 0x2AEC JUMP JUMPDEST JUMPDEST PUSH1 0x1 DUP3 ADD SWAP1 POP SWAP2 SWAP1 POP JUMP JUMPDEST PUSH32 0x53656C65637420612076616C69642073657373696F6E00000000000000000000 PUSH0 DUP3 ADD MSTORE POP JUMP JUMPDEST PUSH0 PUSH2 0x306C PUSH1 0x16 DUP4 PUSH2 0x292B JUMP JUMPDEST SWAP2 POP PUSH2 0x3077 DUP3 PUSH2 0x3038 JUMP JUMPDEST PUSH1 0x20 DUP3 ADD SWAP1 POP SWAP2 SWAP1 POP JUMP JUMPDEST PUSH0 PUSH1 0x20 DUP3 ADD SWAP1 POP DUP2 DUP2 SUB PUSH0 DUP4 ADD MSTORE PUSH2 0x3099 DUP2 PUSH2 0x3060 JUMP JUMPDEST SWAP1 POP SWAP2 SWAP1 POP JUMP JUMPDEST PUSH32 0x4164647265737320686173206E6F7420766F746564206F6E2074686174207365 PUSH0 DUP3 ADD MSTORE PUSH32 0x7373696F6E000000000000000000000000000000000000000000000000000000 PUSH1 0x20 DUP3 ADD MSTORE POP JUMP JUMPDEST PUSH0 PUSH2 0x30FA PUSH1 0x25 DUP4 PUSH2 0x292B JUMP JUMPDEST SWAP2 POP PUSH2 0x3105 DUP3 PUSH2 0x30A0 JUMP JUMPDEST PUSH1 0x40 DUP3 ADD SWAP1 POP SWAP2 SWAP1 POP JUMP JUMPDEST PUSH0 PUSH1 0x20 DUP3 ADD SWAP1 POP DUP2 DUP2 SUB PUSH0 DUP4 ADD MSTORE PUSH2 0x3127 DUP2 PUSH2 0x30EE JUMP JUMPDEST SWAP1 POP SWAP2 SWAP1 POP JUMP JUMPDEST PUSH0 DUP2 SWAP1 POP SWAP2 SWAP1 POP JUMP JUMPDEST PUSH2 0x3148 PUSH2 0x3143 DUP3 PUSH2 0x22B2 JUMP JUMPDEST PUSH2 0x312E JUMP JUMPDEST DUP3 MSTORE POP POP JUMP JUMPDEST PUSH0 DUP2 PUSH1 0x60 SHL SWAP1 POP SWAP2 SWAP1 POP JUMP JUMPDEST PUSH0 PUSH2 0x3164 DUP3 PUSH2 0x314E JUMP JUMPDEST SWAP1 POP SWAP2 SWAP1 POP JUMP JUMPDEST PUSH0 PUSH2 0x3175 DUP3 PUSH2 0x315A JUMP JUMPDEST SWAP1 POP SWAP2 SWAP1 POP JUMP JUMPDEST PUSH2 0x318D PUSH2 0x3188 DUP3 PUSH2 0x261E JUMP JUMPDEST PUSH2 0x316B JUMP JUMPDEST DUP3 MSTORE POP POP JUMP JUMPDEST PUSH0 PUSH2 0x319E DUP3 DUP7 PUSH2 0x3137 JUMP JUMPDEST PUSH1 0x20 DUP3 ADD SWAP2 POP PUSH2 0x31AE DUP3 DUP6 PUSH2 0x3137 JUMP JUMPDEST PUSH1 0x20 DUP3 ADD SWAP2 POP PUSH2 0x31BE DUP3 DUP5 PUSH2 0x317C JUMP JUMPDEST PUSH1 0x14 DUP3 ADD SWAP2 POP DUP2 SWAP1 POP SWAP5 SWAP4 POP POP POP POP JUMP JUMPDEST PUSH32 0x4E487B7100000000000000000000000000000000000000000000000000000000 PUSH0 MSTORE PUSH1 0x12 PUSH1 0x4 MSTORE PUSH1 0x24 PUSH0 REVERT JUMPDEST PUSH0 PUSH2 0x3206 DUP3 PUSH2 0x22B2 JUMP JUMPDEST SWAP2 POP PUSH2 0x3211 DUP4 PUSH2 0x22B2 JUMP JUMPDEST SWAP3 POP DUP3 PUSH2 0x3221 JUMPI PUSH2 0x3220 PUSH2 0x31CF JUMP JUMPDEST JUMPDEST DUP3 DUP3 MOD SWAP1 POP SWAP3 SWAP2 POP POP JUMP INVALID LOG2 PUSH5 0x6970667358 0x22 SLT KECCAK256 DUP7 STATICCALL 0xD7 0xED 0x25 PUSH12 0xEBEDB1911AE9E89F64E7CEDB EXTCODESIZE PUSH2 0x9CA5 BLOBHASH 0xD5 SHL 0xD2 CODESIZE PUSH2 0xF9F2 PUSH6 0xE464736F6C63 NUMBER STOP ADDMOD SHR STOP CALLER "
				},
				"gasEstimates": {
					"creation": {
						"codeDepositCost": "2579600",
						"executionCost": "infinite",
						"totalCost": "infinite"
					},
					"external": {
						"addToWhitelist(address[])": "infinite",
						"endProposalRegistration()": "infinite",
						"endVotingSession()": "infinite",
						"getSessionAllActiveProposals()": "infinite",
						"getSessionAllProposals(uint256)": "infinite",
						"getSessionProposal(uint256,uint256)": "infinite",
						"getSessionVoterChoice(address,uint256)": "infinite",
						"getSessionWinningProposalId(uint256)": "infinite",
						"owner()": "2537",
						"registerProposal(string)": "infinite",
						"removeFromWhitelist(address[])": "infinite",
						"renounceOwnership()": "infinite",
						"resetSession()": "infinite",
						"startProposalRegistration()": "infinite",
						"startTieSession()": "infinite",
						"startVotingSession()": "infinite",
						"tallyVotes()": "infinite",
						"transferOwnership(address)": "infinite",
						"vote(uint256)": "infinite",
						"votingStatus()": "2622"
					},
					"internal": {
						"getRandomNumber(uint256)": "infinite",
						"isProposalInMostVoted(uint256)": "infinite",
						"resetProposalCount()": "infinite",
						"resetVotersVote()": "infinite",
						"setSessionProposalToActive()": "infinite"
					}
				},
				"methodIdentifiers": {
					"addToWhitelist(address[])": "7f649783",
					"endProposalRegistration()": "e85a8f2a",
					"endVotingSession()": "a7bfab16",
					"getSessionAllActiveProposals()": "8de86dcf",
					"getSessionAllProposals(uint256)": "faabb3b3",
					"getSessionProposal(uint256,uint256)": "5d354d51",
					"getSessionVoterChoice(address,uint256)": "eb0fc7ca",
					"getSessionWinningProposalId(uint256)": "98ab9e92",
					"owner()": "8da5cb5b",
					"registerProposal(string)": "2f95355b",
					"removeFromWhitelist(address[])": "548db174",
					"renounceOwnership()": "715018a6",
					"resetSession()": "f8a3ce82",
					"startProposalRegistration()": "0f7e2838",
					"startTieSession()": "4f9026b6",
					"startVotingSession()": "ee74c678",
					"tallyVotes()": "378a2178",
					"transferOwnership(address)": "f2fde38b",
					"vote(uint256)": "0121b93f",
					"votingStatus()": "19f41a40"
				}
			},
			"storageLayout": {
				"storage": [
					{
						"astId": 1019,
						"contract": "2. Solidity/Projet1/VotingPlus.sol:VotingPlus",
						"label": "_owner",
						"offset": 0,
						"slot": "0",
						"type": "t_address"
					},
					{
						"astId": 30,
						"contract": "2. Solidity/Projet1/VotingPlus.sol:VotingPlus",
						"label": "sessionVoters",
						"offset": 0,
						"slot": "1",
						"type": "t_mapping(t_uint256,t_mapping(t_address,t_struct(Voter)11_storage))"
					},
					{
						"astId": 36,
						"contract": "2. Solidity/Projet1/VotingPlus.sol:VotingPlus",
						"label": "sessionProposals",
						"offset": 0,
						"slot": "2",
						"type": "t_mapping(t_uint256,t_array(t_struct(Proposal)16_storage)dyn_storage)"
					},
					{
						"astId": 42,
						"contract": "2. Solidity/Projet1/VotingPlus.sol:VotingPlus",
						"label": "sessionActiveProposals",
						"offset": 0,
						"slot": "3",
						"type": "t_mapping(t_uint256,t_mapping(t_uint256,t_bool))"
					},
					{
						"astId": 45,
						"contract": "2. Solidity/Projet1/VotingPlus.sol:VotingPlus",
						"label": "votingStatus",
						"offset": 0,
						"slot": "4",
						"type": "t_enum(WorkflowStatus)23"
					},
					{
						"astId": 49,
						"contract": "2. Solidity/Projet1/VotingPlus.sol:VotingPlus",
						"label": "sessionWinningProposalId",
						"offset": 0,
						"slot": "5",
						"type": "t_mapping(t_uint256,t_uint256)"
					},
					{
						"astId": 52,
						"contract": "2. Solidity/Projet1/VotingPlus.sol:VotingPlus",
						"label": "mostVotedProposalId",
						"offset": 0,
						"slot": "6",
						"type": "t_array(t_uint256)dyn_storage"
					},
					{
						"astId": 55,
						"contract": "2. Solidity/Projet1/VotingPlus.sol:VotingPlus",
						"label": "votersAddress",
						"offset": 0,
						"slot": "7",
						"type": "t_array(t_address)dyn_storage"
					},
					{
						"astId": 57,
						"contract": "2. Solidity/Projet1/VotingPlus.sol:VotingPlus",
						"label": "lastTieLength",
						"offset": 0,
						"slot": "8",
						"type": "t_uint256"
					},
					{
						"astId": 59,
						"contract": "2. Solidity/Projet1/VotingPlus.sol:VotingPlus",
						"label": "currentSession",
						"offset": 0,
						"slot": "9",
						"type": "t_uint256"
					}
				],
				"types": {
					"t_address": {
						"encoding": "inplace",
						"label": "address",
						"numberOfBytes": "20"
					},
					"t_array(t_address)dyn_storage": {
						"base": "t_address",
						"encoding": "dynamic_array",
						"label": "address[]",
						"numberOfBytes": "32"
					},
					"t_array(t_struct(Proposal)16_storage)dyn_storage": {
						"base": "t_struct(Proposal)16_storage",
						"encoding": "dynamic_array",
						"label": "struct VotingPlus.Proposal[]",
						"numberOfBytes": "32"
					},
					"t_array(t_uint256)dyn_storage": {
						"base": "t_uint256",
						"encoding": "dynamic_array",
						"label": "uint256[]",
						"numberOfBytes": "32"
					},
					"t_bool": {
						"encoding": "inplace",
						"label": "bool",
						"numberOfBytes": "1"
					},
					"t_enum(WorkflowStatus)23": {
						"encoding": "inplace",
						"label": "enum VotingPlus.WorkflowStatus",
						"numberOfBytes": "1"
					},
					"t_mapping(t_address,t_struct(Voter)11_storage)": {
						"encoding": "mapping",
						"key": "t_address",
						"label": "mapping(address => struct VotingPlus.Voter)",
						"numberOfBytes": "32",
						"value": "t_struct(Voter)11_storage"
					},
					"t_mapping(t_uint256,t_array(t_struct(Proposal)16_storage)dyn_storage)": {
						"encoding": "mapping",
						"key": "t_uint256",
						"label": "mapping(uint256 => struct VotingPlus.Proposal[])",
						"numberOfBytes": "32",
						"value": "t_array(t_struct(Proposal)16_storage)dyn_storage"
					},
					"t_mapping(t_uint256,t_bool)": {
						"encoding": "mapping",
						"key": "t_uint256",
						"label": "mapping(uint256 => bool)",
						"numberOfBytes": "32",
						"value": "t_bool"
					},
					"t_mapping(t_uint256,t_mapping(t_address,t_struct(Voter)11_storage))": {
						"encoding": "mapping",
						"key": "t_uint256",
						"label": "mapping(uint256 => mapping(address => struct VotingPlus.Voter))",
						"numberOfBytes": "32",
						"value": "t_mapping(t_address,t_struct(Voter)11_storage)"
					},
					"t_mapping(t_uint256,t_mapping(t_uint256,t_bool))": {
						"encoding": "mapping",
						"key": "t_uint256",
						"label": "mapping(uint256 => mapping(uint256 => bool))",
						"numberOfBytes": "32",
						"value": "t_mapping(t_uint256,t_bool)"
					},
					"t_mapping(t_uint256,t_uint256)": {
						"encoding": "mapping",
						"key": "t_uint256",
						"label": "mapping(uint256 => uint256)",
						"numberOfBytes": "32",
						"value": "t_uint256"
					},
					"t_string_storage": {
						"encoding": "bytes",
						"label": "string",
						"numberOfBytes": "32"
					},
					"t_struct(Proposal)16_storage": {
						"encoding": "inplace",
						"label": "struct VotingPlus.Proposal",
						"members": [
							{
								"astId": 13,
								"contract": "2. Solidity/Projet1/VotingPlus.sol:VotingPlus",
								"label": "description",
								"offset": 0,
								"slot": "0",
								"type": "t_string_storage"
							},
							{
								"astId": 15,
								"contract": "2. Solidity/Projet1/VotingPlus.sol:VotingPlus",
								"label": "voteCount",
								"offset": 0,
								"slot": "1",
								"type": "t_uint256"
							}
						],
						"numberOfBytes": "64"
					},
					"t_struct(Voter)11_storage": {
						"encoding": "inplace",
						"label": "struct VotingPlus.Voter",
						"members": [
							{
								"astId": 6,
								"contract": "2. Solidity/Projet1/VotingPlus.sol:VotingPlus",
								"label": "isRegistered",
								"offset": 0,
								"slot": "0",
								"type": "t_bool"
							},
							{
								"astId": 8,
								"contract": "2. Solidity/Projet1/VotingPlus.sol:VotingPlus",
								"label": "hasVoted",
								"offset": 1,
								"slot": "0",
								"type": "t_bool"
							},
							{
								"astId": 10,
								"contract": "2. Solidity/Projet1/VotingPlus.sol:VotingPlus",
								"label": "votedProposalId",
								"offset": 0,
								"slot": "1",
								"type": "t_uint256"
							}
						],
						"numberOfBytes": "64"
					},
					"t_uint256": {
						"encoding": "inplace",
						"label": "uint256",
						"numberOfBytes": "32"
					}
				}
			},
			"userdoc": {
				"kind": "user",
				"methods": {},
				"version": 1
			}
		}
	}
}